:100000000C947E000C949D000C949D000C949D001B
:100010000C949D000C949D000C949D000C949D00EC
:100020000C949D000C949D000C949D000C949D00DC
:100030000C945A080C949D000C949D000C949D0007
:100040000C949D000C949D000C949D000C949D00BC
:100050000C949D000C949D000C949D000C949D00AC
:100060000C949D000C949D000C949D000C949D009C
:100070000C949D000C949D000C949D070C949D0085
:100080000C9451070C949D000C949D001EFFFFFFE3
:10009000FFFFFFFFFFFFFFFFFFFFFFFFFFFFFFFF70
:1000A000FFFFFFFFFFFFFFFFFFFFFFFFFFFFFFFF60
:1000B000FFFFFFFFFFFFFFFFFF1BFFFF000102032A
:1000C000040506070809FFFFFFFFFFFFFF0A0B0CEF
:1000D0000D0E0F10111213FF14FF151617FFFFFF5F
:1000E000FF18FFFFFF19FFFFFFFFFF1A46454443BC
:1000F00042333639413235383031343711241FBE5E
:10010000CFEFD0E1DEBFCDBF11E0A0E0B1E0E6E58A
:10011000FCE200E00BBF02C007900D92A036B107D1
:10012000D9F712E0A0E6B1E001C01D92AF3BB107E4
:10013000E1F70E949F000C9429160C940000AF92E6
:10014000BF92CF92DF92EF92FF920F931F93DF93B4
:10015000CF9300D000D00F92CDB7DEB70E9420031E
:1001600082E068EC41E020E001E00E94310582E09D
:1001700061ED4FEF20E005E30E94310582E06DEC78
:100180004FEF20E00BE20E94310582E06CEC4FEF74
:1001900020E00DE20E94310582E06BEC4FEF20E0A1
:1001A0000AE20E94310582E06AEC4FEF20E00FE2A4
:1001B0000E94310581E068EC4FEF20E000E00E94F2
:1001C000F20419821A821B821C821D825E0108942D
:1001D000A11CB11C90E0C92E91E0D92E82E0E82E3E
:1001E000F12CEC0EFD1E04E111E082E064E641E03A
:1001F00095010E948E0589818823D9F000D000D016
:10020000EDB7FEB73196ADB7BEB71296DC92CE927F
:100210001197828313820E9471138B818A838C8150
:100220008B838D818C8389818D830F900F900F90AC
:100230000F9081E060E044E097010E948F0480ED20
:1002400097E0F8013197F1F70197D9F7CECF1F93D7
:10025000182F8A3019F48DE00E9427015D9BFECF94
:100260001CB980E090E01F9108951F93BC015F9B33
:10027000FECF1CB1812F0E942701812F90E01F919A
:100280000895382F843010F081E00895483010F040
:1002900082E00895822F90E002C0880F991F4A954E
:1002A000E2F7282F313089F0313028F03230B9F0C0
:1002B0003330F1F41FC08AB3862B8ABB8BB326235D
:1002C00060958623282B2BBB13C087B3862B87BB57
:1002D00088B3262360958623282B28BB09C084B3C6
:1002E000862B84BB85B3262360958623282B25BBCC
:1002F00080E0089582B1862B82B983B12623609570
:100300008623282B23B980E00895F901843010F06A
:1003100081E00895483010F082E008958130B9F00E
:10032000813028F0823019F18330C1F539C08AB3A9
:10033000882329F09AB3862F8095892305C08AB334
:10034000882319F4862F80958ABB89B31FC087B391
:10035000882329F097B3862F8095892305C087B31A
:10036000882319F4862F809587BB86B30FC084B38A
:10037000882329F094B3862F8095892305C084B300
:10038000882319F4862F809584BB83B3862390E05D
:1003900002C0959587954A95E2F7808380E008959D
:1003A00082B1882329F092B1862F8095892305C0D8
:1003B00082B1882319F4862F809582B981B1862372
:1003C00090E002C0959587954A95E2F7808380E09A
:1003D0000895DF92EF92FF920F931F93CF93DF93D5
:1003E000082FD62EE72E813210F081E02AC00E941D
:1003F000A00F8B3A29F50E94A00F8B3A09F50E94B5
:10040000A00F8B3AE9F40E94A00FF82E182F8D2D23
:100410009E2D9C01E90104C00E94A00F8993180F32
:100420009E012D192017C0F30E94A00FF01611F0A5
:1004300083E007C0811711F480E003C084E001C0AD
:1004400082E0DF91CF911F910F91FF90EF90DF90AD
:100450000895AF92BF92CF92DF92EF92FF920F93E7
:100460001F93CF93DF93182F092FE62EB42EA52EBE
:100470002FEF621711F481E045C00E94A00F8B3A64
:1004800009F03FC00E94A00F8B3AD9F50E94A00F3F
:100490008B3AB9F50E94A00FF82E0E94A00FC82E2B
:1004A000A12FB02FFD0101900020E9F73197DE2E3A
:1004B000D11A212F302FC901EC010C2D10E005C0FD
:1004C0000E94A00F8993080F1F5F1D15C8F38B2D85
:1004D0009A2D9C01E90104C00E94A00F8993080F86
:1004E0009E012B192E15C0F30E94A00FFC18FE14BC
:1004F00011F083E007C0801711F480E003C084E0AE
:1005000001C082E0DF91CF911F910F91FF90EF909A
:10051000DF90CF90BF90AF900895AF92BF92CF92EF
:10052000DF92EF92FF920F931F93CF93DF93D82E1A
:10053000C92EE62EB42EA52E8BEB0E949C0F8BEBC2
:100540000E949C0F8BEB0E949C0FED2DFC2DEF0168
:1005500009900020E9F72197CE1BDF0B0C2F8C2F81
:1005600090E001968E0D911D8F3F910519F014F0CA
:1005700081E02CC00F5F102F1E0D0150812F0E94B3
:100580009C0F8C2F0E949C0FF12EF00E2D2D3C2DD8
:10059000C901EC0110E006C088810E949C0F89917E
:1005A000F80E1F5F1017C0F38B2D9A2D9C01E901E7
:1005B00000E006C088810E949C0F8991F80E0F5FB1
:1005C0000E15C0F38F2D0E949C0F80E0DF91CF911C
:1005D0001F910F91FF90EF90DF90CF90BF90AF9061
:1005E0000895EF92FF920F931F93CF93DF93082FFD
:1005F0007B01813210F081E01CC08AEA0E949C0FCE
:100600008AEA0E949C0F8AEA0E949C0F802F0E9417
:100610009C0F102FE70105C088810E949C0F8991D3
:10062000180F9E012E192017B8F3812F0E949C0FDE
:1006300080E0DF91CF911F910F91FF90EF9008958F
:100640001092900091E199B98AB188618AB9E5E97F
:10065000F0E08081866080831092980090939900EA
:10066000EAE9F0E0808188618083EDE9F0E0808153
:100670008660808384E091E09093BC028093BB020B
:100680009093BA028093B90287B3806E87BB80E0F3
:100690000E943D0F0E94A606789480E00895CF93B3
:1006A000DF93E901883010F081E034C0643068F0F5
:1006B000683C11F082E02EC0413059F5E82FF0E09F
:1006C000E75EFD4F8081888322C070E09B01240F8C
:1006D000311DA90125303105E4F4A82FB0E0AA0F9F
:1006E000BB1FAA0FBB1FA60FB71FA750BE4F20E00E
:1006F00030E007C0FE01E20FF31F8D9180832F5F72
:100700003F4FC901860F971F841795079CF380E020
:1007100001C083E0DF91CF910895AF92BF92CF9255
:10072000DF92EF92FF920F931F93DF93CF93CDB79A
:10073000DEB72D970FB6F894DEBF0FBECDBFE82E03
:10074000DE011296E2E1F1E086E001900D92815027
:10075000E1F72E2D30E0D901AA0FBB1FAA0FBB1F56
:10076000A750BE4F8C91E82FF0E0E457FF4F449123
:1007700011968C911197E82FF0E0E457FF4F5491B8
:10078000F901EE0FFF1FEE0FFF1FE550FE4FE08156
:10079000F0E0E457FF4F749113968C9190E08457EA
:1007A0009F4FFC016491E8E0CE2ED12CCC0EDD1ED3
:1007B00086E0F60111928A95E9F7275E3D4FF9012F
:1007C0002081922F9078940F822F8870880F880F45
:1007D000880F980F9093F501822F8074880F922FC5
:1007E00094709295907F890F850F8093F601822FE8
:1007F0008072880F880F922F92709295990F907E39
:10080000890F870F8093F701822F8071880F880FDF
:10081000880F21702295220F220F207C820F860FD5
:100820008093F80119828E2D6DE70E94680F8E2D3E
:100830006DE70E94680F8E2D6DE70E94680F8E2D68
:1008400061E00E94680F8E2D64E00E94680F8E2D7B
:1008500064E00E94680F8E2D6091F5010E94680F80
:100860001091F5018E2D6091F6010E94680FF090B5
:10087000F6018E2D6091F7010E94680F0091F7013B
:100880008E2D6091F8010E94680F1F0D175F100FE9
:100890008091F801180F8E2D612F0E94680F86013C
:1008A0005E010894A11CB11C9EE0C92ED12CCC0E77
:1008B000DD1E8E2DB5010E947D0F8981F801819387
:1008C0008F01EC15FD05A9F720E030E0BE01685F5F
:1008D0007F4FAE014E5F5F4FFB01E20FF31FDA0166
:1008E000A20FB31F90818C91981711F084E006C07D
:1008F0002F5F3F4F2630310579F780E02D960FB6F8
:10090000F894DEBF0FBECDBFCF91DF911F910F9145
:10091000FF90EF90DF90CF90BF90AF900895CF926F
:10092000DF92FF920F931F93CF93DF93082F162F21
:10093000F42E69010E943D0F083010F011E049C00B
:10094000143010F012E045C0612F70E0AB014F0D84
:10095000511D4530510514F013E03BC020E030E05C
:10096000EB010EC0F601E20FF31FE081E03680F5E7
:10097000F0E0E457FF4FE491EF3F51F12F5F3F4F1D
:10098000C9018C0F9D1F8417950764F3A02FB0E059
:10099000AA0FBB1FAA0FBB1FA60FB71FA750BE4FA2
:1009A00020E030E007C0F601E20FF31F80818D9355
:1009B0002F5F3F4FC9018C0F9D1F841795079CF334
:1009C000802F0E948D03182F80E00E943D0F01C0F0
:1009D00015E0812FDF91CF911F910F91FF90DF9054
:1009E000CF900895DF92EF92FF920F931F93F82E0E
:1009F000D62E142FE22E0E943D0F87E08F1510F4A3
:100A000001E023C088ECD81611F002E01EC087E098
:100A10008E1510F403E019C0802F90E002C0880FFB
:100A2000991FEA94E2F7EF2DF0E0E75EFD4F912F7A
:100A30009823109580818123982B90838F2D0E947D
:100A40008D03082F80E00E943D0F802F1F910F9192
:100A5000FF90EF90DF90089587EE87BB83E58DB917
:100A60000895FF920F931F93782F142FF22E883042
:100A700010F081E04AC0862F885C813110F082E05E
:100A800044C087E0821710F483E03FC0683C19F14E
:100A9000E72FF0E0EE0FFF1FEE0FFF1FEC58FE4FA9
:100AA000262F30E0295C304081E090E002C0880FC2
:100AB000991F2A95E2F7AA2797FDA095BA2F2081C2
:100AC000318142815381822B932BA42BB52B8083C0
:100AD0009183A283B383202F30E002C0220F331F03
:100AE000FA94E2F7872F90E0FC0134E0EE0FFF1F4D
:100AF0003A95E1F7E80FF91FE75DFD4FE60FF11DAD
:100B0000E85CF0401223108380E01F910F91FF906A
:100B100008958FEF8FB90E94630F0895DF92EF92CF
:100B2000FF920F931F93CF93DF93D82E162F042F8E
:100B300079018DEC60E144E020E00E9443118CECEF
:100B400060E144E020E00E94431187E08D1510F43D
:100B500081E0A4C0193D08F09CC0183C08F078C0A2
:100B6000143609F096C0013009F095C087EE87BBB6
:100B700083E58DB98D2D0E943D0F80E09CE60197A5
:100B8000F1F70E948905082F0E948905182F80E03F
:100B90000E943D0F011709F056C0002309F453C00D
:100BA000AD2DB0E0FD0114E0EE0FFF1F1A95E1F747
:100BB000EA0FFB1FE75DFD4F8081882321F4015080
:100BC000F70100830F5FED0174E0CC0FDD1F7A9514
:100BD000E1F7CA0FDB1FC75DDD4F8881813009F067
:100BE0005CC0013019F4F701108257C0E02FF0E02B
:100BF000329721E030E00E2E02C0220F331F0A94FC
:100C0000E2F7442737FD4095542FAA0FBB1FAA0FC8
:100C1000BB1FAC58BE4F8D919D910D90BC91A02DE6
:100C200082239323A423B52382179307A407B50730
:100C300021F4EC0FFD1F818103C0E451FF4F84912B
:100C4000F70180832AC08FEFF701808384E026C0FC
:100C5000612F70E0AB01400F511D4A3D5105DCF49E
:100C600081E1D89ED0011124A60FB71FAF59BE4F06
:100C700020E030E007C0F701E20FF31F8D91808381
:100C80002F5F3F4FC901860F971F841795079CF36D
:100C900004C082E003C083E001C080E0DF91CF9117
:100CA0001F910F91FF90EF90DF900895EF92FF92C8
:100CB0000F931F93CF93DF93F82EEB0187EE87BB43
:100CC00083E58DB98F2D0E943D0F0DE313E0C80120
:100CD0000197F1F70E948905E82E80E00E943D0F00
:100CE000C8010197F1F78F2D0E943D0FC8010197B0
:100CF000F1F70E948905F82E80E00E943D0FC8019F
:100D00000197F1F7EF1409F4E8828FB190E08F3F7B
:100D100009F491E0892FDF91CF911F910F91FF90FE
:100D2000EF9008950E945E0F0895FC01608308957E
:100D30001092BB01EAE9F0E0808180688083089529
:100D4000EAE9F0E080818F77808308958EB588602E
:100D50008EBD8EB582608EBD87B7806187BF8FE8FC
:100D600090E09BBD8ABD1DBC1CBC08958EE18093A4
:100D7000EA0108950F931F93CF93DF93EC018A014B
:100D8000898170E0E82FF0E09B012E0F3F1F8A81E0
:100D900090E08217930764F1AF014C5F5F4F4C0FF7
:100DA0005D1F20E030E00DC0DA01A20FB31FF80193
:100DB000E20FF31F80818C9388818F5F88832F5F80
:100DC0003F4F2617370784F358814981242F30E09D
:100DD000250F311D8A8190E0450F2817390711F43E
:100DE00081E001C082E08B834983188280E002C0E9
:100DF00081E08B83DF91CF911F910F9108950F9325
:100E00001F93CF93DF93EC01962F8981861710F4FF
:100E100081E042C08881682F70E06C5F7F4F6C0F6B
:100E20007D1F20E030E0092F10E00DC0DA01A20F95
:100E3000B31FFB01E20FF31F80818C9388818F5FCA
:100E400088832F5F3F4F2017310784F38881082F55
:100E500010E0DB01A00FB11F40E050E008C0FB0133
:100E6000E40FF51F8C9180831D924F5F5F4FE981E6
:100E70009A01200F311F8E2F90E0281739077CF33D
:100E800098819E1719F41B82198204C082E08B831B
:100E9000E91BE983188280E0DF91CF911F910F91C8
:100EA00008951F920F920FB60F920BB60F92112456
:100EB0002F933F934F935F936F937F938F939F9362
:100EC000AF93BF93EF93FF9380911B01882361F051
:100ED00088E191E061E049EE51E00E94FF068091D7
:100EE000E90180939C0005C080919A008F7B8093DC
:100EF0009A00FF91EF91BF91AF919F918F917F9158
:100F00006F915F914F913F912F910F900BBE0F907A
:100F10000FBE0F901F901895FC0181E08383089508
:100F2000FC0113821182108280E090E0148201960D
:100F3000319680329105D1F708951F920F920FB626
:100F40000F920BB60F9211242F933F934F935F9301
:100F50006F937F938F939F93AF93BF93EF93FF9381
:100F600090919C009093C2018091BB01823031F13D
:100F7000833030F4882359F0813009F088C00CC0E8
:100F8000833009F44CC0843009F081C06CC0903FBC
:100F900009F065C081E061C080919401981721F447
:100FA00082E08093BB0107C01092BB0180919A0040
:100FB0008F7780939A001092C30151C09923B9F49E
:100FC00080919501823039F483E08093BB01809158
:100FD000970190E007C0843051F483E08093BB0117
:100FE00081E090E09093C1018093C00107C084E04C
:100FF0008093BB011092C1011092C0018CE391E07B
:1010000061E042EC51E00E94BA068091C2018093F7
:10101000C7019091C301980F9093C30120C08CE346
:1010200091E061E042EC51E00E94BA068091C20179
:101030009091C301890F8093C3018091C001909169
:10104000C10101979093C1018093C0018091C001BB
:101050009091C101892B19F484E08093BB018EE14A
:101060008093EA0114C08091C301981721F481E0B4
:1010700080933F0104C08CE391E00E9490078EE1D1
:101080008093EA0180919A008F7780939A00FF9174
:10109000EF91BF91AF919F918F917F916F915F91F0
:1010A0004F913F912F910F900BBE0F900FBE0F905D
:1010B0001F9018951F920F920FB60F920BB60F92BA
:1010C00011242F933F934F935F936F937F938F934D
:1010D0009F93AF93BF93EF93FF938091BC018130B7
:1010E00079F0813018F0823061F525C09091BF0110
:1010F000913039F58EE18093EA019093BC0121C0D3
:101100008091EA0181508093EA018091EA0188236D
:1011100069F480919A008F7780939A008CE391E034
:101120000E94900782E08093BC010BC080919A00DE
:1011300087FD07C004C08091BF01882311F410927D
:10114000BC01FF91EF91BF91AF919F918F917F91E2
:101150006F915F914F913F912F910F900BBE0F9028
:101160000FBE0F901F901895EF92FF920F93DF9391
:10117000CF93CDB7DEB728970FB6F894DEBF0FBE7A
:10118000CDBF6D834E832F830887198294E09A83A5
:101190000E943D0F80916100806180936100809189
:1011A00062008061809362008A819981890F9E81AB
:1011B000890F9F81890F9885890F898388E191E044
:1011C00061E0AE014B5F5F4F0E94BA0688E191E09B
:1011D00061E0AE014E5F5F4F0E94BA0688E191E088
:1011E00061E0AE014A5F5F4F0E94BA0688E191E07C
:1011F00061E0AE01495F5F4F0E94BA0688E191E06D
:1012000061E0AE01485F5F4F0E94BA0688E191E05D
:1012100061E0AE014F5F5F4F0E94BA068D818093FF
:1012200094018A818093950180EF0E944B0F8091F9
:101230009A00806480939A0080919A0086FDFCCF8A
:10124000809162008F7E809362001092BB0180913A
:101250009A00806880939A0081E08093BF0180911A
:101260003F01813021F08091BC018230C1F71092A2
:10127000BF0180913F01813011F081E019C08CE302
:1012800091E061E0AE014D5F5F4F0E94FF068B81F0
:10129000882359F48CE391E061E0AE014C5F5F4F2D
:1012A0000E94FF068C81F70180838B81880F880F55
:1012B00028960FB6F894DEBF0FBECDBFCF91DF9159
:1012C0000F91FF90EF900895EF920F93DF93CF93DC
:1012D000CDB7DEB728970FB6F894DEBF0FBECDBFEF
:1012E0006C834D832E830F83E886198293E09A8363
:1012F0000E943D0F80916100806180936100809128
:1013000062008061809362008A819981890F9D814A
:10131000890F9E81890F9F81890F9885890F898305
:1013200088E191E061E0AE014C5F5F4F0E94BA0638
:1013300088E191E061E0AE014E5F5F4F0E94BA0626
:1013400088E191E061E0AE014B5F5F4F0E94BA0619
:1013500088E191E061E0AE014A5F5F4F0E94BA060A
:1013600088E191E061E0AE01495F5F4F0E94BA06FB
:1013700088E191E061E0AE01485F5F4F0E94BA06EC
:1013800088E191E061E0AE014F5F5F4F0E94BA06D5
:101390008C81809394018A818093950180EF0E94D3
:1013A0004B0F80919A00806480939A0080919A00FC
:1013B00086FDFCCF809162008F7E80936200109248
:1013C000BB0180919A00806880939A0081E08093AD
:1013D000BF0180913F01813021F08091BC018230BA
:1013E000C1F71092BF0180913F01813011F081E07F
:1013F0000BC08CE391E061E0AE014D5F5F4F0E9456
:10140000FF068B81880F880F28960FB6F894DEBFF1
:101410000FBECDBFCF91DF910F91EF900895CF9286
:10142000DF92EF92FF920F931F93DF93CF93CDB78D
:10143000DEB727970FB6F894DEBF0FBECDBF6D8322
:101440004E832F836801198292E09A830E943D0F98
:101450008091610080618093610080916200806171
:10146000809362008A819981890F9E81890F9F8173
:10147000890F898388E191E061E0AE014B5F5F4FA6
:101480000E94BA0688E191E061E0AE014E5F5F4FD5
:101490000E94BA0688E191E061E0AE014A5F5F4FC9
:1014A0000E94BA0688E191E061E0AE01495F5F4FBA
:1014B0000E94BA0688E191E061E0AE014F5F5F4FA4
:1014C0000E94BA068D81809394018A818093950150
:1014D0008F818093970180EF0E944B0F80919A003B
:1014E000806480939A0080919A0086FDFCCF809161
:1014F00062008F7E809362001092BB0180919A00FF
:10150000806880939A0081E08093BF0180913F01C1
:10151000813021F08091BC018230C1F71092BF016F
:1015200080913F01813011F081E028C08CE391E08F
:1015300061E0AE014D5F5F4F0E94FF068B81882303
:10154000D1F400E010E084E0E82EF12CEC0EFD1E5A
:101550000DC08CE391E061E0A7010E94FF06F60157
:10156000E00FF11F8C8180830F5F1F4F8F8190E010
:101570000817190774F38B81880F880F27960FB609
:10158000F894DEBF0FBECDBFCF91DF911F910F91B9
:10159000FF90EF90DF90CF9008950F931F93DF930C
:1015A000CF9300D000D000D0CDB7DEB76C834D8391
:1015B0002E83198291E09A830E943D0F80916100F1
:1015C00080618093610080916200806180936200FD
:1015D0008A819981890F9D81890F9E81890F8983D5
:1015E000F8019801290F311D04C089819191890F5B
:1015F0008983E217F307C9F788E191E061E0AE0162
:101600004C5F5F4F0E94BA0688E191E061E0AE0155
:101610004E5F5F4F0E94BA0688E191E061E0AE0143
:101620004B5F5F4F0E94BA0688E191E061E0AE0136
:101630004A5F5F4F0E94BA0688E191E06E81A8017F
:101640000E94BA0688E191E061E0AE014F5F5F4F12
:101650000E94BA068C81809394018A8180939501BF
:1016600080EF0E944B0F80919A00806480939A00D3
:1016700080919A0086FDFCCF809162008F7E8093DE
:1016800062001092BB0180919A00806880939A005A
:1016900081E08093BF0180913F01813021F08091F2
:1016A000BC018230C1F71092BF0180913F018130AF
:1016B00011F081E00BC08CE391E061E0AE014D5F81
:1016C0005F4F0E94FF068B81880F880F26960FB60A
:1016D000F894DEBF0FBECDBFCF91DF911F910F9168
:1016E0000895EF920F93DF93CF93CDB7DEB728978E
:1016F0000FB6F894DEBF0FBECDBF6C834D832E8333
:101700000F83E88619821A820E943D0F8091610042
:1017100080618093610080916200806180936200AB
:101720008A819981890F9D81890F9E81890F9F816F
:10173000890F9885890F898388E191E061E0AE0186
:101740004C5F5F4F0E94BA0688E191E061E0AE0114
:101750004E5F5F4F0E94BA0688E191E061E0AE0102
:101760004B5F5F4F0E94BA0688E191E061E0AE01F5
:101770004A5F5F4F0E94BA0688E191E061E0AE01E6
:10178000495F5F4F0E94BA0688E191E061E0AE01D7
:10179000485F5F4F0E94BA0688E191E061E0AE01C8
:1017A0004F5F5F4F0E94BA068C81809394018A81BB
:1017B0008093950180EF0E944B0F80919A00806486
:1017C00080939A0080919A0086FDFCCF8091620000
:1017D0008F7E809362001092BB0180919A00806896
:1017E00080939A0081E08093BF0180913F01813016
:1017F00021F08091BC018230C1F71092BF0180912D
:101800003F01813011F081E00BC08CE391E061E099
:10181000AE014D5F5F4F0E94FF068B81880F880FDE
:1018200028960FB6F894DEBF0FBECDBFCF91DF91E3
:101830000F91EF900895EF92FF920F93DF93CF9364
:10184000CDB7DEB728970FB6F894DEBF0FBECDBF79
:101850006D834E832F830887198294E09A830E94B8
:101860003D0F8A819981890F9E81890F9F81890F00
:101870009885890F898388E191E061E0AE014B5F33
:101880005F4F0E94BA0688E191E061E0AE014E5FD1
:101890005F4F0E94BA0688E191E061E0AE014A5FC5
:1018A0005F4F0E94BA0688E191E061E0AE01495FB6
:1018B0005F4F0E94BA0688E191E061E0AE01485FA7
:1018C0005F4F0E94BA0688E191E061E0AE014F5F90
:1018D0005F4F0E94BA068D81809394018A81809324
:1018E000950180EF0E944B0F80919A008064809355
:1018F0009A0080919A0086FDFCCF1092BB018091E6
:101900009A00806880939A0081E08093BF01809163
:101910003F01813021F08091BC018230C1F71092EB
:10192000BF0180913F01813011F081E019C08CE34B
:1019300091E061E0AE014D5F5F4F0E94FF068B8139
:10194000882359F48CE391E061E0AE014C5F5F4F76
:101950000E94FF068C81F70180838B81880F880F9E
:1019600028960FB6F894DEBF0FBECDBFCF91DF91A2
:101970000F91FF90EF900895EF920F93DF93CF9325
:10198000CDB7DEB728970FB6F894DEBF0FBECDBF38
:101990006C834D832E830F83E886198293E09A83AC
:1019A0000E943D0F8A819981890F9D81890F9E81B7
:1019B000890F9F81890F9885890F898388E191E03C
:1019C00061E0AE014C5F5F4F0E94BA0688E191E092
:1019D00061E0AE014E5F5F4F0E94BA0688E191E080
:1019E00061E0AE014B5F5F4F0E94BA0688E191E073
:1019F00061E0AE014A5F5F4F0E94BA0688E191E064
:101A000061E0AE01495F5F4F0E94BA0688E191E054
:101A100061E0AE01485F5F4F0E94BA0688E191E045
:101A200061E0AE014F5F5F4F0E94BA068C818093E8
:101A300094018A818093950180EF0E944B0F8091E1
:101A40009A00806480939A0080919A0086FDFCCF72
:101A50001092BB0180919A00806880939A0081E087
:101A60008093BF0180913F01813021F08091BC01C2
:101A70008230C1F71092BF0180913F01813011F097
:101A800081E00BC08CE391E061E0AE014D5F5F4F00
:101A90000E94FF068B81880F880F28960FB6F89456
:101AA000DEBF0FBECDBFCF91DF910F91EF900895B4
:101AB000CF92DF92EF92FF920F931F93DF93CF931A
:101AC000CDB7DEB727970FB6F894DEBF0FBECDBFF8
:101AD0006D834E832F836801198292E09A830E945E
:101AE0003D0F8A819981890F9E81890F9F81890F7E
:101AF000898388E191E061E0AE014B5F5F4F0E9416
:101B0000BA0688E191E061E0AE014E5F5F4F0E944E
:101B1000BA0688E191E061E0AE014A5F5F4F0E9442
:101B2000BA0688E191E061E0AE01495F5F4F0E9433
:101B3000BA0688E191E061E0AE014F5F5F4F0E941D
:101B4000BA068D81809394018A81809395018F815B
:101B50008093970180EF0E944B0F80919A008064E0
:101B600080939A0080919A0086FDFCCF1092BB0171
:101B700080919A00806880939A0081E08093BF01F1
:101B800080913F01813021F08091BC018230C1F70A
:101B90001092BF0180913F01813011F081E028C097
:101BA0008CE391E061E0AE014D5F5F4F0E94FF0664
:101BB0008B818823D1F400E010E094E0E92EF12C31
:101BC000EC0EFD1E0DC08CE391E061E0A7010E94C8
:101BD000FF06F601E00FF11F8C8180830F5F1F4F1E
:101BE0008F8190E00817190774F38B81880F880F95
:101BF00027960FB6F894DEBF0FBECDBFCF91DF9111
:101C00001F910F91FF90EF90DF90CF9008950F9369
:101C10001F93DF93CF9300D000D000D0CDB7DEB7B5
:101C20006C834D832E83198291E09A830E943D0F2D
:101C30008A819981890F9D81890F9E81890F89836E
:101C4000F8019801290F311D04C089819191890FF4
:101C50008983E217F307C9F788E191E061E0AE01FB
:101C60004C5F5F4F0E94BA0688E191E061E0AE01EF
:101C70004E5F5F4F0E94BA0688E191E061E0AE01DD
:101C80004B5F5F4F0E94BA0688E191E061E0AE01D0
:101C90004A5F5F4F0E94BA0688E191E06E81A80119
:101CA0000E94BA0688E191E061E0AE014F5F5F4FAC
:101CB0000E94BA068C81809394018A818093950159
:101CC00080EF0E944B0F80919A00806480939A006D
:101CD00080919A0086FDFCCF1092BB0180919A0002
:101CE000806880939A0081E08093BF0180913F01DA
:101CF000813021F08091BC018230C1F71092BF0188
:101D000080913F01813011F081E00BC08CE391E0C4
:101D100061E0AE014D5F5F4F0E94FF068B81880F2F
:101D2000880F26960FB6F894DEBF0FBECDBFCF91B9
:101D3000DF911F910F910895EF920F93DF93CF934F
:101D4000CDB7DEB728970FB6F894DEBF0FBECDBF74
:101D50006C834D832E830F83E88619821A820E943A
:101D60003D0F8A819981890F9D81890F9E81890FFD
:101D70009F81890F9885890F898388E191E061E0CF
:101D8000AE014C5F5F4F0E94BA0688E191E061E0CE
:101D9000AE014E5F5F4F0E94BA0688E191E061E0BC
:101DA000AE014B5F5F4F0E94BA0688E191E061E0AF
:101DB000AE014A5F5F4F0E94BA0688E191E061E0A0
:101DC000AE01495F5F4F0E94BA0688E191E061E091
:101DD000AE01485F5F4F0E94BA0688E191E061E082
:101DE000AE014F5F5F4F0E94BA068C8180939401D1
:101DF0008A818093950180EF0E944B0F80919A0019
:101E0000806480939A0080919A0086FDFCCF1092A6
:101E1000BB0180919A00806880939A0081E0809352
:101E2000BF0180913F01813021F08091BC0182305F
:101E3000C1F71092BF0180913F01813011F081E024
:101E40000BC08CE391E061E0AE014D5F5F4F0E94FB
:101E5000FF068B81880F880F28960FB6F894DEBF97
:101E60000FBECDBFCF91DF910F91EF90089590E01D
:101E7000883008F091E0892F0895982F883010F06D
:101E800081E0089588B39295990F907E8F71892B88
:101E900088BB80E00895982F80919B0085FFFCCF40
:101EA00090939C0083EB92E00197F1F70895809165
:101EB0009B0087FFFCCF80919C0008958FB9779B92
:101EC000FECF8FB108951FB8779BFECF8FB10895D5
:101ED0001F93162F0E943D0F8DE393E00197F1F7BA
:101EE00080919B0085FFFCCF10939C0083EB92E0D8
:101EF0000197F1F780E01F910895CF93DF93EB01F5
:101F00000E943D0F8DE393E00197F1F720E030E070
:101F100008C02F5F3F4F8FEF2F3F380711F481E04C
:101F200008C080919B0087FFF4CF80919C0088833C
:101F300080E0DF91CF9108955D9BFECF8CB908952D
:101F40005F9BFECF8CB1089584E98093740008955F
:101F500084EA809374008091740087FFFCCF8091A5
:101F60007100887F883011F480E0089584E98093BF
:101F7000740081E0089584E980937400089584EAF0
:101F8000809374008091740087FFFCCF8091710072
:101F9000887F803111F480E0089584E98093740093
:101FA00082E0089590E0880F991F8093730084E881
:101FB000809374008091740087FFFCCF8091710042
:101FC000887F883119F084E9809374000895880F20
:101FD0008F5F8093730084E8809374008091740015
:101FE00087FFFCCF80917100887F803419F084E9ED
:101FF0008093740008958093730084E88093740044
:102000008091740087FFFCCF80917100887F8832B7
:1020100019F084E980937400089584EC809374002F
:102020008091740087FFFCCF80917100887F80359C
:1020300019F084E98093740080917300089584E816
:10204000809374008091740087FFFCCF80917100B1
:10205000887F883519F084E9809374000895FF9291
:102060000F931F93182F062FF42E0E94A80F812F75
:102070000E94D20F802F0E94FB0F8F2D0E94FB0F1A
:1020800084E9809374001F910F91FF9008950F933E
:102090001F93082F162F0E94A80F802F0E94D20F87
:1020A000812F0E94FB0F0E94BF0F802F0E94E70F1D
:1020B0000E940D10182F0E941F1084E98093740055
:1020C000812F1F910F910895809370000895EF92D2
:1020D000FF920F931F93182F062FF72EE42E0E94C6
:1020E000A80F813009F441C0812F90E0880F991F1B
:1020F00090708093730084E88093740080917400E2
:1021000087FFFCCF80917100887F883139F4802F60
:102110009F2D9C01F90190E024E81AC084E9809386
:10212000740083E022C08081809373002093740048
:102130008091740087FFFCCF809171003196887F79
:10214000883229F084E98093740084E00EC09F5F98
:102150009E1548F381E08E1520F484E98093740085
:1021600003C081E08093EB0180E01F910F91FF900D
:10217000EF9008950F931F93CF93DF93082FEB01F8
:10218000142F8091EB01813041F40E94BF0F823007
:1021900009F474C01092EB0102C00E94A80F8130B4
:1021A00009F46CC0802F90E0880F991F81608093A4
:1021B000730084E8809374008091740087FFFCCFE3
:1021C00080917100887F803429F084E980937400C5
:1021D00085E054C01230D0F140E0212F30E0215092
:1021E000304054EC17C0509374008091740087FF06
:1021F000FCCF80917100887F803529F084E980933D
:10220000740086E03BC080917300FE01E40FF11D75
:1022100080834F5F842F90E08217930724F384E834
:10222000809374008091740087FFFCCF80917100CF
:10223000887F883529F084E98093740087E01EC088
:1022400080917300C10FD11D219713C084E8809342
:1022500074008091740087FFFCCF80917100887FAB
:10226000883529F084E98093740088E007C0809164
:102270007300888384E98093740080E0DF91CF91BC
:102280001F910F910895922F483008F0C0C08A3CEA
:1022900009F44AC08B3C30F4883C71F0893C09F069
:1022A000B6C026C08C3C09F477C08C3C08F458C0FA
:1022B0008D3C09F0ACC08CC02AB3E92FF0E002C01D
:1022C000EE0FFF1F4A95E2F7262330E0862F90E0BD
:1022D0008E239F232817390711F420E001C022E044
:1022E0008AB3962F9E2360958623982B9ABB90C025
:1022F00027B3E92FF0E002C0EE0FFF1F4A95E2F787
:10230000262330E0862F90E08E239F23281739075D
:1023100011F420E001C022E087B3962F9E23609540
:102320008623982B97BB74C024B3E92FF0E002C03A
:10233000EE0FFF1F4A95E2F7262330E0862F90E04C
:102340008E239F232817390711F420E001C022E0D3
:1023500084B3962F9E2360958623982B94BB58C0F8
:1023600021B3E92FF0E002C0EE0FFF1F4A95E2F71C
:10237000262330E0862F90E08E239F2328173907ED
:1023800011F420E001C022E081B3962F9E236095D6
:102390008623982B91BB3CC022B1E92FF0E002C00C
:1023A000EE0FFF1F4A95E2F7262330E0862F90E0DC
:1023B0008E239F232817390711F420E001C022E063
:1023C00082B1962F9E2360958623982B92B920C0C8
:1023D00020916100E92FF0E002C0EE0FFF1F4A9547
:1023E000E2F7262330E0862F90E08E239F232817E4
:1023F000390711F420E001C022E080916100962F9E
:102400009E2360958623982B9093610001C021E064
:10241000822F0895FA016130C9F58230D1F08330FE
:1024200028F4882351F0813089F50DC08430E9F01B
:102430008430A8F0853051F51EC08AB38F3F21F556
:1024400080818BBB1FC087B38F3FF1F4808188BB35
:1024500019C084B38F3FC1F4808185BB13C081B3A1
:102460008F3F91F4808182BB0DC082B18F3F61F4B8
:10247000808183B907C0809161008F3F29F48081FA
:102480008093620080E0089582E0089581E00895DD
:10249000FA01613009F042C08636F1F0873628F43F
:1024A000843651F08536D1F50FC0883629F188364B
:1024B000D8F0893699F529C08AB3882311F490E0C1
:1024C00001C092E089B31FC087B3882311F490E064
:1024D00001C092E086B317C084B3882311F490E062
:1024E00001C092E083B30FC081B3882311F490E060
:1024F00001C092E080B307C082B1882311F490E05C
:1025000001C092E081B180830AC08091610088237C
:1025100011F490E001C092E080B1F5CF91E0892FF5
:102520000895483008F089C08230C1F1833030F41A
:10253000882371F0813009F080C01DC0843009F417
:1025400052C0843008F43DC0853009F076C05DC0CB
:102550005AB35623561709F06EC08BB330E002C051
:10256000220F331F4A95E2F7952F92235095582357
:10257000952B9BBB5EC057B35623561709F05BC023
:1025800088B330E002C0220F331F4A95E2F7952F3F
:10259000922350955823952B98BB4BC054B3562388
:1025A000561709F048C085B330E002C0220F331F30
:1025B0004A95E2F7952F922350955823952B95BB7A
:1025C00038C051B356235617B1F582B330E002C07C
:1025D000220F331F4A95E2F7952F922350955823E7
:1025E000952B92BB26C052B15623561721F583B1C5
:1025F00030E002C0220F331F4A95E2F7952F922355
:1026000050955823952B93B914C0509161005623CF
:10261000561789F48091620030E002C0220F331F08
:102620004A95E2F7952F922350955823952B909336
:10263000620080E0089582E0089581E00895F90144
:10264000483008F04BC0863601F1873630F48436C6
:1026500061F0853609F042C010C0883631F1883605
:10266000E0F0893609F03AC030C08AB3862311F40D
:1026700020E001C022E089B31FC087B3862311F494
:1026800020E001C022E086B317C084B3862311F492
:1026900020E001C022E083B30FC081B3862311F490
:1026A00020E001C022E080B307C082B1862311F48C
:1026B00020E001C022E081B1862390E002C0959520
:1026C00087954A95E2F780830AC08091610086234E
:1026D00011F420E001C022E080B1EECF21E0822F92
:1026E0000895DF93CF93CDB7DEB7FE0135966191A4
:1026F00071918091BB029091BC02AF010E94831343
:10270000CF91DF9108952F923F924F925F926F92F7
:102710007F928F929F92AF92BF92CF92DF92EF9271
:10272000FF920F931F93DF93CF93CDB7DEB72B9715
:102730000FB6F894DEBF0FBECDBF3C012B015A018E
:10274000FC0117821682838181FD03C06FEF7FEF4A
:10275000C6C19AE0892E1E010894211C311CF30188
:102760002381F20123FD859123FF81912F0188238D
:1027700009F4B2C1853239F423FD859123FF81919B
:102780002F01853229F490E0B3010E949F15E7CF15
:10279000982FFF24EE249924FFE1FF15D0F09B32FF
:1027A00069F09C3228F4903259F0933291F40EC0C3
:1027B0009D3249F0903369F441E024C052E0F52A9B
:1027C00084E0F82A28C098E0F92A25C0E0E1FE2A32
:1027D00022C0F7FC29C0892F80538A3070F4F6FE9E
:1027E00005C0989C902C1124980E15C0E89CE02CF4
:1027F0001124E80EF0E2FF2A0EC09E3229F4F6FC06
:102800006BC140E4F42A07C09C3619F450E8F52A5D
:1028100002C0983649F4F20123FD959123FF91916E
:102820002F01992309F0B8CF892F8554833018F0F0
:102830008052833038F444E050E0A40EB51E5FE3CC
:1028400059830FC0933631F0933779F0933509F0FF
:1028500056C020C0F5018081898342E050E0A40E7B
:10286000B51E610101E010E012C0F501C080D18009
:10287000F6FC03C06FEF7FEF02C0692D70E042E00D
:1028800050E0A40EB51EC6010E9494158C015FE7AE
:10289000F52214C0F501C080D180F6FC03C06FEFB3
:1028A0007FEF02C0692D70E042E050E0A40EB51E3B
:1028B000C6010E9489158C0150E8F52AF3FE07C075
:1028C0001AC080E290E0B3010E949F15EA948E2D19
:1028D00090E008171907A8F30EC0F601F7FC8591E0
:1028E000F7FE81916F0190E0B3010E949F15E11006
:1028F000EA94015010400115110579F7EAC09436A9
:1029000011F0993669F5F7FE08C0F5012081318193
:102910004281538184E090E00AC0F5018081918179
:102920009C01442737FD4095542F82E090E0A80E8B
:10293000B91E9FE6F92257FF09C050954095309582
:1029400021953F4F4F4F5F4FE0E8FE2ACA01B90182
:10295000A1012AE030E00E94CB15D82ED21840C049
:10296000953729F41F2D1F7E2AE030E01DC01F2D52
:10297000197F9F3661F0903720F4983509F0ACC08C
:102980000FC0903739F0983709F0A6C004C028E08E
:1029900030E00AC0106114FD146020E130E004C092
:1029A00014FD166020E132E017FF08C0F5016081D8
:1029B00071818281938144E050E008C0F5018081FB
:1029C0009181BC0180E090E042E050E0A40EB51E91
:1029D000A1010E94CB15D82ED2188FE7F82EF12234
:1029E000F6FE0BC05EEFF522D91438F4F4FE07C0F2
:1029F000F2FC05C08FEEF82202C01D2D01C0192D7A
:102A0000F4FE0DC0FE01ED0DF11D8081803319F43F
:102A100099EEF92208C01F5FF2FE05C003C08F2D9A
:102A2000867809F01F5F0F2DF3FC14C0F0FE0FC075
:102A30001E1510F09D2C0BC09D2C9E0C911A1E2D66
:102A400006C080E290E0B3010E949F151F5F1E1533
:102A5000C0F304C01E1510F4E11A01C0EE2404FFF7
:102A60000FC080E390E0B3010E949F1502FF1DC0DC
:102A700001FD03C088E790E00EC088E590E00BC040
:102A8000802F867891F001FF02C08BE201C080E2C6
:102A9000F7FC8DE290E0B3010E949F1506C080E331
:102AA00090E0B3010E949F159A94D914C0F3DA9470
:102AB000F101ED0DF11D808190E0B3010E949F15A1
:102AC000DD20A9F706C080E290E0B3010E949F15C7
:102AD000EA94EE20C1F743CEF30166817781CB0102
:102AE0002B960FB6F894DEBF0FBECDBFCF91DF910E
:102AF0001F910F91FF90EF90DF90CF90BF90AF901C
:102B00009F908F907F906F905F904F903F902F900D
:102B10000895FC010590615070400110D8F7809530
:102B200090958E0F9F1F0895FC0161507040019099
:102B30000110D8F7809590958E0F9F1F08950F93E1
:102B40001F93CF93DF938C01EB018B8181FF1BC01F
:102B500082FF0DC02E813F818C819D81281739070E
:102B600064F4E881F9810193F983E88306C0E8857C
:102B7000F985802F0995892B31F48E819F810196EB
:102B80009F838E8302C00FEF1FEFC801DF91CF91AB
:102B90001F910F910895FA01AA27283051F1203191
:102BA00081F1E8946F936E7F6E5F7F4F8F4F9F4FE1
:102BB000AF4FB1E03ED0B4E03CD0670F781F891F23
:102BC0009A1FA11D680F791F8A1F911DA11D6A0FF1
:102BD000711D811D911DA11D20D009F468943F91A4
:102BE0002AE0269F11243019305D3193DEF6CF01A3
:102BF0000895462F4770405D4193B3E00FD0C9F769
:102C0000F6CF462F4F70405D4A3318F0495D31FDD5
:102C10004052419302D0A9F7EACFB4E0A695979528
:102C2000879577956795BA95C9F7009761057105FE
:102C300008959B01AC010A2E069457954795379548
:102C40002795BA95C9F7620F731F841F951FA01DA2
:062C50000895F894FFCF87
:102C560025640A000000000300000000270135017A
:102C66000000D7D7D74F4B9A000023000000000082
:102C7600000000000000000000000000000000004E
:102C8600000000000000000000000000000023001B
:102C9600000000000000000000000000000000002E
:102CA600000000000000000000000000000000001E
:00000001FF
