:100000000C944C000C946B000C946B000C946B00E3
:100010000C946B000C946B000C946B000C946B00B4
:100020000C946B000C946B000C946B000C946B00A4
:100030000C94B9040C946B000C946B000C946B0042
:100040000C946B000C946B000C946B000C946B0084
:100050000C946B000C946B000C946B000C946B0074
:100060000C946B000C946B000C946B000C946B0064
:100070000C946B000C946B000C94FC030C946B00C0
:100080000C94B0030C946B000C946B006364696E69
:100090006F70737578585B0011241FBECFEFD0E1ED
:1000A000DEBFCDBF11E0A0E0B1E0E4E6F7E200E0A2
:1000B0000BBF02C007900D92A836B107D9F711E027
:1000C000A8E6B1E001C01D92AB3DB107E1F70E9487
:1000D0006D000C94B0130C9400006F927F928F927D
:1000E0009F92AF92BF92CF92DF92EF92FF920F93C7
:1000F0001F93DF93CF9300D000D0CDB7DEB70E941F
:10010000C50230E0632E31E0732E03E011E04E01B2
:100110000894811C911C26E0A22E21E0B22E93E0CF
:10012000C92ED12CCC0EDD1E89E0E82E81E0F82E00
:1001300000D0EDB7FEB7728261820E94A20D00D09E
:10014000EDB7FEB712830183948283820E94B40DBF
:100150000F900F90EDB7FEB7B282A1820E94A20D60
:1001600000D0EDB7FEB712830183D482C3820E9410
:10017000B40DEDB7FEB7F282E1828B819C812981BB
:100180003A81820F931F948383830E94A20D0F9064
:100190000F900F900F90CCCF1F93182F8A3019F427
:1001A0008DE00E94CC005D9BFECF1CB980E090E00A
:1001B0001F9108951F93BC015F9BFECF1CB1812F3F
:1001C0000E94CC00812F90E01F910895382F843039
:1001D00010F081E00895483010F082E00895822FF9
:1001E00090E002C0880F991F4A95E2F7282F31301E
:1001F00089F0313028F03230B9F03330F1F41FC0DB
:100200008AB3862B8ABB8BB3262360958623282B43
:100210002BBB13C087B3862B87BB88B3262360957F
:100220008623282B28BB09C084B3862B84BB85B3C7
:10023000262360958623282B25BB80E0089582B174
:10024000862B82B983B1262360958623282B23B978
:1002500080E00895F901843010F081E0089548307D
:1002600010F082E008958130B9F0813028F08230BA
:1002700019F18330C1F539C08AB3882329F09AB3C4
:10028000862F8095892305C08AB3882319F4862F89
:1002900080958ABB89B31FC087B3882329F097B3A1
:1002A000862F8095892305C087B3882319F4862F6C
:1002B000809587BB86B30FC084B3882329F094B39D
:1002C000862F8095892305C084B3882319F4862F4F
:1002D000809584BB83B3862390E002C09595879573
:1002E0004A95E2F7808380E0089582B1882329F05F
:1002F00092B1862F8095892305C082B1882319F495
:10030000862F809582B981B1862390E002C09595B1
:1003100087954A95E2F7808380E00895DF92EF9217
:10032000FF920F931F93CF93DF93082FD62EE72EC4
:10033000813210F081E02AC00E94FF0B8B3A29F530
:100340000E94FF0B8B3A09F50E94FF0B8B3AE9F4F0
:100350000E94FF0BF82E182F8D2D9E2D9C01E90178
:1003600004C00E94FF0B8993180F9E012D192017BE
:10037000C0F30E94FF0BF01611F083E007C0811755
:1003800011F480E003C084E001C082E0DF91CF91EE
:100390001F910F91FF90EF90DF900895AF92BF9261
:1003A000CF92DF92EF92FF920F931F93CF93DF9341
:1003B000182F092FE62EB42EA52E2FEF621711F459
:1003C00081E045C00E94FF0B8B3A09F03FC00E94BC
:1003D000FF0B8B3AD9F50E94FF0B8B3AB9F50E94BF
:1003E000FF0BF82E0E94FF0BC82EA12FB02FFD018E
:1003F00001900020E9F73197DE2ED11A212F302FFE
:10040000C901EC010C2D10E005C00E94FF0B89937F
:10041000080F1F5F1D15C8F38B2D9A2D9C01E90154
:1004200004C00E94FF0B8993080F9E012B192E1503
:10043000C0F30E94FF0BFC18FE1411F083E007C00C
:10044000801711F480E003C084E001C082E0DF91F6
:10045000CF911F910F91FF90EF90DF90CF90BF90C1
:10046000AF900895AF92BF92CF92DF92EF92FF923A
:100470000F931F93CF93DF93D82EC92EE62EB42E61
:10048000A52E8BEB0E94FB0B8BEB0E94FB0B8BEBE7
:100490000E94FB0BED2DFC2DEF0109900020E9F7E8
:1004A0002197CE1BDF0B0C2F8C2F90E001968E0D29
:1004B000911D8F3F910519F014F081E02CC00F5F62
:1004C000102F1E0D0150812F0E94FB0B8C2F0E94BC
:1004D000FB0BF12EF00E2D2D3C2DC901EC0110E08F
:1004E00006C088810E94FB0B8991F80E1F5F1017D0
:1004F000C0F38B2D9A2D9C01E90100E006C0888194
:100500000E94FB0B8991F80E0F5F0E15C0F38F2D23
:100510000E94FB0B80E0DF91CF911F910F91FF9024
:10052000EF90DF90CF90BF90AF900895EF92FF9241
:100530000F931F93CF93DF93082F7B01813210F02D
:1005400081E01CC08AEA0E94FB0B8AEA0E94FB0B36
:100550008AEA0E94FB0B802F0E94FB0B102FE70101
:1005600005C088810E94FB0B8991180F9E012E19EE
:100570002017B8F3812F0E94FB0B80E0DF91CF9111
:100580001F910F91FF90EF9008951092900091E1CC
:1005900099B98AB188618AB9E5E9F0E0808186601D
:1005A00080831092980090939900EAE9F0E08081AE
:1005B00088618083EDE9F0E080818660808381E15D
:1005C00091E09093D8018093D7019093D6018093C6
:1005D000D50187B3806E87BB80E00E949C0B0E9490
:1005E0000503789480E00895FC01608308951092DB
:1005F000A301EAE9F0E08081806880830895EAE958
:10060000F0E080818F77808308958EB588608EBDFD
:100610008EB582608EBD87B7806187BF8FE890E01E
:100620009BBD8ABD1DBC1CBC08958EE18093D20188
:1006300008950F931F93CF93DF93EC018A01898173
:1006400070E0E82FF0E09B012E0F3F1F8A8190E0C1
:100650008217930764F1AF014C5F5F4F4C0F5D1F32
:1006600020E030E00DC0DA01A20FB31FF801E20F65
:10067000F31F80818C9388818F5F88832F5F3F4F2A
:100680002617370784F358814981242F30E0250F3E
:10069000311D8A8190E0450F2817390711F481E058
:1006A00001C082E08B834983188280E002C081E030
:1006B0008B83DF91CF911F910F9108950F931F931B
:1006C000CF93DF93EC01962F8981861710F481E098
:1006D00042C08881682F70E06C5F7F4F6C0F7D1F78
:1006E00020E030E0092F10E00DC0DA01A20FB31FA7
:1006F000FB01E20FF31F80818C9388818F5F8883D9
:100700002F5F3F4F2017310784F38881082F10E0B7
:10071000DB01A00FB11F40E050E008C0FB01E40F77
:10072000F51F8C9180831D924F5F5F4FE9819A0185
:10073000200F311F8E2F90E0281739077CF3988106
:100740009E1719F41B82198204C082E08B83E91B77
:10075000E983188280E0DF91CF911F910F91089576
:100760001F920F920FB60F920BB60F9211242F9378
:100770003F934F935F936F937F938F939F93AF9329
:10078000BF93EF93FF9380912201882361F08FE163
:1007900091E061E041ED51E00E945E038091D10162
:1007A00080939C0005C080919A008F7B80939A0073
:1007B000FF91EF91BF91AF919F918F917F916F9139
:1007C0005F914F913F912F910F900BBE0F900FBEF5
:1007D0000F901F901895FC0181E083830895FC0120
:1007E00013821182108280E090E01482019631968B
:1007F00080329105D1F708951F920F920FB60F9294
:100800000BB60F9211242F933F934F935F936F93E7
:100810007F938F939F93AF93BF93EF93FF939091A9
:100820009C009093AA018091A301823031F1833022
:1008300030F4882359F0813009F088C00CC083302F
:1008400009F44CC0843009F081C06CC0903F09F0BD
:1008500065C081E061C080917C01981721F482E03D
:100860008093A30107C01092A30180919A008F7713
:1008700080939A001092AB0151C09923B9F48091F2
:100880007D01823039F483E08093A30180917F0160
:1008900090E007C0843051F483E08093A30181E0AD
:1008A00090E09093A9018093A80107C084E0809311
:1008B000A3011092A9011092A80183E491E061E0E4
:1008C0004AEA51E00E9419038091AA018093AF0186
:1008D0009091AB01980F9093AB0120C083E491E01D
:1008E00061E04AEA51E00E9419038091AA019091C7
:1008F000AB01890F8093AB018091A8019091A90170
:1009000001979093A9018093A8018091A8019091EB
:10091000A901892B19F484E08093A3018EE18093CF
:10092000D20114C08091AB01981721F481E080932B
:10093000460104C083E491E00E94EF038EE18093BE
:10094000D20180919A008F7780939A00FF91EF9166
:10095000BF91AF919F918F917F916F915F914F91D7
:100960003F912F910F900BBE0F900FBE0F901F90D5
:1009700018951F920F920FB60F920BB60F9211247B
:100980002F933F934F935F936F937F938F939F9397
:10099000AF93BF93EF93FF938091A401813079F0DF
:1009A000813018F0823061F525C09091A701913017
:1009B00039F58EE18093D2019093A40121C08091FA
:1009C000D20181508093D2018091D201882369F4B1
:1009D00080919A008F7780939A0083E491E00E943F
:1009E000EF0382E08093A4010BC080919A0087FD01
:1009F00007C004C08091A701882311F41092A401BC
:100A0000FF91EF91BF91AF919F918F917F916F91E6
:100A10005F914F913F912F910F900BBE0F900FBEA2
:100A20000F901F901895EF92FF920F93DF93CF9343
:100A3000CDB7DEB728970FB6F894DEBF0FBECDBF97
:100A40006D834E832F830887198294E09A830E94D6
:100A50009C0B8091610080618093610080916200B5
:100A60008061809362008A819981890F9E81890FBC
:100A70009F81890F9885890F89838FE191E061E0DB
:100A8000AE014B5F5F4F0E9419038FE191E061E07F
:100A9000AE014E5F5F4F0E9419038FE191E061E06C
:100AA000AE014A5F5F4F0E9419038FE191E061E060
:100AB000AE01495F5F4F0E9419038FE191E061E051
:100AC000AE01485F5F4F0E9419038FE191E061E042
:100AD000AE014F5F5F4F0E9419038D8180937C01AF
:100AE0008A8180937D0180EF0E94AA0B80919A00F9
:100AF000806480939A0080919A0086FDFCCF80915B
:100B000062008F7E809362001092A30180919A0010
:100B1000806880939A0081E08093A70180914601CC
:100B2000813021F08091A4018230C1F71092A70199
:100B300080914601813011F081E019C083E491E099
:100B400061E0AE014D5F5F4F0E945E038B818823A1
:100B500059F483E491E061E0AE014C5F5F4F0E9485
:100B60005E038C81F70180838B81880F880F289624
:100B70000FB6F894DEBF0FBECDBFCF91DF910F91BE
:100B8000FF90EF900895EF920F93DF93CF93CDB73F
:100B9000DEB728970FB6F894DEBF0FBECDBF6C83CB
:100BA0004D832E830F83E886198293E09A830E94F7
:100BB0009C0B809161008061809361008091620054
:100BC0008061809362008A819981890F9D81890F5C
:100BD0009E81890F9F81890F9885890F89838FE175
:100BE00091E061E0AE014C5F5F4F0E9419038FE11D
:100BF00091E061E0AE014E5F5F4F0E9419038FE10B
:100C000091E061E0AE014B5F5F4F0E9419038FE1FD
:100C100091E061E0AE014A5F5F4F0E9419038FE1EE
:100C200091E061E0AE01495F5F4F0E9419038FE1DF
:100C300091E061E0AE01485F5F4F0E9419038FE1D0
:100C400091E061E0AE014F5F5F4F0E9419038C811C
:100C500080937C018A8180937D0180EF0E94AA0BA2
:100C600080919A00806480939A0080919A0086FD1A
:100C7000FCCF809162008F7E809362001092A3016E
:100C800080919A00806880939A0081E08093A70108
:100C900080914601813021F08091A4018230C1F71A
:100CA0001092A70180914601813011F081E00BC0C4
:100CB00083E491E061E0AE014D5F5F4F0E945E030F
:100CC0008B81880F880F28960FB6F894DEBF0FBE71
:100CD000CDBFCF91DF910F91EF900895CF92DF922A
:100CE000EF92FF920F931F93DF93CF93CDB7DEB7B1
:100CF00027970FB6F894DEBF0FBECDBF6D834E832E
:100D00002F836801198292E09A830E949C0B809144
:100D100061008061809361008091620080618093B6
:100D200062008A819981890F9E81890F9F81890F35
:100D300089838FE191E061E0AE014B5F5F4F0E94DC
:100D400019038FE191E061E0AE014E5F5F4F0E94B9
:100D500019038FE191E061E0AE014A5F5F4F0E94AD
:100D600019038FE191E061E0AE01495F5F4F0E949E
:100D700019038FE191E061E0AE014F5F5F4F0E9488
:100D800019038D8180937C018A8180937D018F81FD
:100D900080937F0180EF0E94AA0B80919A0080646B
:100DA00080939A0080919A0086FDFCCF809162002A
:100DB0008F7E809362001092A30180919A008068D8
:100DC00080939A0081E08093A70180914601813051
:100DD00021F08091A4018230C1F71092A701809187
:100DE0004601813011F081E028C083E491E061E0A8
:100DF000AE014D5F5F4F0E945E038B818823D1F46B
:100E000000E010E084E0E82EF12CEC0EFD1E0DC099
:100E100083E491E061E0A7010E945E03F601E00F28
:100E2000F11F8C8180830F5F1F4F8F8190E0081727
:100E3000190774F38B81880F880F27960FB6F894E3
:100E4000DEBF0FBECDBFCF91DF911F910F91FF90FD
:100E5000EF90DF90CF9008950F931F93DF93CF9380
:100E600000D000D000D0CDB7DEB76C834D832E8389
:100E7000198291E09A830E949C0B809161008061AD
:100E800080936100809162008061809362008A811A
:100E90009981890F9D81890F9E81890F8983F8012E
:100EA0009801290F311D04C089819191890F89838F
:100EB000E217F307C9F78FE191E061E0AE014C5F03
:100EC0005F4F0E9419038FE191E061E0AE014E5F38
:100ED0005F4F0E9419038FE191E061E0AE014B5F2B
:100EE0005F4F0E9419038FE191E061E0AE014A5F1C
:100EF0005F4F0E9419038FE191E06E81A8010E946B
:100F000019038FE191E061E0AE014F5F5F4F0E94F6
:100F100019038C8180937C018A8180937D0180EF0D
:100F20000E94AA0B80919A00806480939A0080911D
:100F30009A0086FDFCCF809162008F7E80936200D4
:100F40001092A30180919A00806880939A0081E0BA
:100F50008093A70180914601813021F08091A40106
:100F60008230C1F71092A70180914601813011F0C3
:100F700081E00BC083E491E061E0AE014D5F5F4F23
:100F80000E945E038B81880F880F26960FB6F89417
:100F9000DEBF0FBECDBFCF91DF911F910F9108959E
:100FA000EF920F93DF93CF93CDB7DEB728970FB6AD
:100FB000F894DEBF0FBECDBF6C834D832E830F83AD
:100FC000E88619821A820E949C0B809161008061E0
:100FD00080936100809162008061809362008A81C9
:100FE0009981890F9D81890F9E81890F9F81890F2A
:100FF0009885890F89838FE191E061E0AE014C5FB4
:101000005F4F0E9419038FE191E061E0AE014E5FF6
:101010005F4F0E9419038FE191E061E0AE014B5FE9
:101020005F4F0E9419038FE191E061E0AE014A5FDA
:101030005F4F0E9419038FE191E061E0AE01495FCB
:101040005F4F0E9419038FE191E061E0AE01485FBC
:101050005F4F0E9419038FE191E061E0AE014F5FA5
:101060005F4F0E9419038C8180937C018A81809359
:101070007D0180EF0E94AA0B80919A00806480938A
:101080009A0080919A0086FDFCCF809162008F7E4D
:10109000809362001092A30180919A0080688093EF
:1010A0009A0081E08093A70180914601813021F070
:1010B0008091A4018230C1F71092A701809146016E
:1010C000813011F081E00BC083E491E061E0AE017A
:1010D0004D5F5F4F0E945E038B81880F880F2896BB
:1010E0000FB6F894DEBF0FBECDBFCF91DF910F9149
:1010F000EF900895EF92FF920F93DF93CF93CDB7C8
:10110000DEB728970FB6F894DEBF0FBECDBF6D8354
:101110004E832F830887198294E09A830E949C0B48
:101120008A819981890F9E81890F9F81890F988576
:10113000890F89838FE191E061E0AE014B5F5F4FE2
:101140000E9419038FE191E061E0AE014E5F5F4FB5
:101150000E9419038FE191E061E0AE014A5F5F4FA9
:101160000E9419038FE191E061E0AE01495F5F4F9A
:101170000E9419038FE191E061E0AE01485F5F4F8B
:101180000E9419038FE191E061E0AE014F5F5F4F74
:101190000E9419038D8180937C018A8180937D0157
:1011A00080EF0E94AA0B80919A00806480939A003D
:1011B00080919A0086FDFCCF1092A30180919A0045
:1011C000806880939A0081E08093A7018091460116
:1011D000813021F08091A4018230C1F71092A701E3
:1011E00080914601813011F081E019C083E491E0E3
:1011F00061E0AE014D5F5F4F0E945E038B818823EB
:1012000059F483E491E061E0AE014C5F5F4F0E94CE
:101210005E038C81F70180838B81880F880F28966D
:101220000FB6F894DEBF0FBECDBFCF91DF910F9107
:10123000FF90EF900895EF920F93DF93CF93CDB788
:10124000DEB728970FB6F894DEBF0FBECDBF6C8314
:101250004D832E830F83E886198293E09A830E9440
:101260009C0B8A819981890F9D81890F9E81890FAD
:101270009F81890F9885890F89838FE191E061E0D3
:10128000AE014C5F5F4F0E9419038FE191E061E076
:10129000AE014E5F5F4F0E9419038FE191E061E064
:1012A000AE014B5F5F4F0E9419038FE191E061E057
:1012B000AE014A5F5F4F0E9419038FE191E061E048
:1012C000AE01495F5F4F0E9419038FE191E061E039
:1012D000AE01485F5F4F0E9419038FE191E061E02A
:1012E000AE014F5F5F4F0E9419038C8180937C0198
:1012F0008A8180937D0180EF0E94AA0B80919A00E1
:10130000806480939A0080919A0086FDFCCF1092B1
:10131000A30180919A00806880939A0081E0809375
:10132000A70180914601813021F08091A401823093
:10133000C1F71092A70180914601813011F081E040
:101340000BC083E491E061E0AE014D5F5F4F0E940E
:101350005E038B81880F880F28960FB6F894DEBF46
:101360000FBECDBFCF91DF910F91EF900895CF9237
:10137000DF92EF92FF920F931F93DF93CF93CDB73E
:10138000DEB727970FB6F894DEBF0FBECDBF6D83D3
:101390004E832F836801198292E09A830E949C0BEE
:1013A0008A819981890F9E81890F9F81890F898305
:1013B0008FE191E061E0AE014B5F5F4F0E94190346
:1013C0008FE191E061E0AE014E5F5F4F0E94190333
:1013D0008FE191E061E0AE014A5F5F4F0E94190327
:1013E0008FE191E061E0AE01495F5F4F0E94190318
:1013F0008FE191E061E0AE014F5F5F4F0E94190302
:101400008D8180937C018A8180937D018F8180937F
:101410007F0180EF0E94AA0B80919A0080648093E4
:101420009A0080919A0086FDFCCF1092A3018091D2
:101430009A00806880939A0081E08093A701809150
:101440004601813021F08091A4018230C1F71092D1
:10145000A70180914601813011F081E028C083E42A
:1014600091E061E0AE014D5F5F4F0E945E038B81B2
:101470008823D1F400E010E094E0E92EF12CEC0E8A
:10148000FD1E0DC083E491E061E0A7010E945E03B0
:10149000F601E00FF11F8C8180830F5F1F4F8F815A
:1014A00090E00817190774F38B81880F880F27962F
:1014B0000FB6F894DEBF0FBECDBFCF91DF911F9165
:1014C0000F91FF90EF90DF90CF9008950F931F93AF
:1014D000DF93CF9300D000D000D0CDB7DEB76C83C0
:1014E0004D832E83198291E09A830E949C0B8A81FE
:1014F0009981890F9D81890F9E81890F8983F801C8
:101500009801290F311D04C089819191890F898328
:10151000E217F307C9F78FE191E061E0AE014C5F9C
:101520005F4F0E9419038FE191E061E0AE014E5FD1
:101530005F4F0E9419038FE191E061E0AE014B5FC4
:101540005F4F0E9419038FE191E061E0AE014A5FB5
:101550005F4F0E9419038FE191E06E81A8010E9404
:1015600019038FE191E061E0AE014F5F5F4F0E9490
:1015700019038C8180937C018A8180937D0180EFA7
:101580000E94AA0B80919A00806480939A008091B7
:101590009A0086FDFCCF1092A30180919A0080688A
:1015A00080939A0081E08093A70180914601813069
:1015B00021F08091A4018230C1F71092A70180919F
:1015C0004601813011F081E00BC083E491E061E0DD
:1015D000AE014D5F5F4F0E945E038B81880F880FC5
:1015E00026960FB6F894DEBF0FBECDBFCF91DF9128
:1015F0001F910F910895EF920F93DF93CF93CDB783
:10160000DEB728970FB6F894DEBF0FBECDBF6C8350
:101610004D832E830F83E88619821A820E949C0BC9
:101620008A819981890F9D81890F9E81890F9F8170
:10163000890F9885890F89838FE191E061E0AE0180
:101640004C5F5F4F0E9419038FE191E061E0AE01B2
:101650004E5F5F4F0E9419038FE191E061E0AE01A0
:101660004B5F5F4F0E9419038FE191E061E0AE0193
:101670004A5F5F4F0E9419038FE191E061E0AE0184
:10168000495F5F4F0E9419038FE191E061E0AE0175
:10169000485F5F4F0E9419038FE191E061E0AE0166
:1016A0004F5F5F4F0E9419038C8180937C018A8178
:1016B00080937D0180EF0E94AA0B80919A00806444
:1016C00080939A0080919A0086FDFCCF1092A3012E
:1016D00080919A00806880939A0081E08093A701AE
:1016E00080914601813021F08091A4018230C1F7C0
:1016F0001092A70180914601813011F081E00BC06A
:1017000083E491E061E0AE014D5F5F4F0E945E03B4
:101710008B81880F880F28960FB6F894DEBF0FBE16
:10172000CDBFCF91DF910F91EF90089590E0883079
:1017300008F091E0892F0895982F883010F081E00B
:10174000089588B39295990F907E8F71892B88BBED
:1017500080E00895982F80919B0085FFFCCF9093A7
:101760009C0083EB92E00197F1F7089580919B0034
:1017700087FFFCCF80919C0008958FB9779BFECFA7
:101780008FB108951FB8779BFECF8FB108951F9337
:10179000162F0E949C0B8DE393E00197F1F7809147
:1017A0009B0085FFFCCF10939C0083EB92E0019798
:1017B000F1F780E01F910895CF93DF93EB010E9432
:1017C0009C0B8DE393E00197F1F720E030E008C037
:1017D0002F5F3F4F8FEF2F3F380711F481E008C094
:1017E00080919B0087FFF4CF80919C00888380E0EC
:1017F000DF91CF9108955D9BFECF8CB908955F9BDB
:10180000FECF8CB1089584E980937400089584EA32
:10181000809374008091740087FFFCCF80917100E9
:10182000887F883011F480E0089584E98093740003
:1018300081E0089584E980937400089584EA809398
:1018400074008091740087FFFCCF80917100887FC5
:10185000803111F480E0089584E98093740082E07F
:10186000089590E0880F991F8093730084E8809317
:1018700074008091740087FFFCCF80917100887F95
:10188000883119F084E9809374000895880F8F5F80
:101890008093730084E8809374008091740087FFC4
:1018A000FCCF80917100887F803419F084E98093A7
:1018B000740008958093730084E88093740080918D
:1018C000740087FFFCCF80917100887F883219F007
:1018D00084E980937400089584EC8093740080916F
:1018E000740087FFFCCF80917100887F803519F0EC
:1018F00084E98093740080917300089584E8809354
:1019000074008091740087FFFCCF80917100887F04
:10191000883519F084E9809374000895FF920F933D
:101920001F93182F062FF42E0E94070C812F0E9460
:10193000310C802F0E945A0C8F2D0E945A0C84E982
:10194000809374001F910F91FF9008950F931F9340
:10195000082F162F0E94070C802F0E94310C812F18
:101960000E945A0C0E941E0C802F0E94460C0E945E
:101970006C0C182F0E947E0C84E980937400812FD8
:101980001F910F910895809370000895EF92FF9238
:101990000F931F93182F062FF72EE42E0E94070C8B
:1019A000813009F441C0812F90E0880F991F907019
:1019B0008093730084E8809374008091740087FFA3
:1019C000FCCF80917100887F883139F4802F9F2D62
:1019D0009C01F90190E024E81AC084E98093740026
:1019E00083E022C0808180937300209374008091F3
:1019F000740087FFFCCF809171003196887F883218
:101A000029F084E98093740084E00EC09F5F9E15E6
:101A100048F381E08E1520F484E98093740003C0BC
:101A200081E08093D30180E01F910F91FF90EF90B0
:101A300008950F931F93CF93DF93082FEB01142F7B
:101A40008091D301813041F40E941E0C823009F450
:101A500074C01092D30102C00E94070C813009F4B7
:101A60006CC0802F90E0880F991F81608093730075
:101A700084E8809374008091740087FFFCCF80918C
:101A80007100887F803429F084E98093740085E0B8
:101A900054C01230D0F140E0212F30E021503040CE
:101AA00054EC17C0509374008091740087FFFCCFF2
:101AB00080917100887F803529F084E980937400DB
:101AC00086E03BC080917300FE01E40FF11D80832E
:101AD0004F5F842F90E08217930724F384E880936C
:101AE00074008091740087FFFCCF80917100887F23
:101AF000883529F084E98093740087E01EC08091C6
:101B00007300C10FD11D219713C084E88093740026
:101B10008091740087FFFCCF80917100887F8835A9
:101B200029F084E98093740088E007C080917300F5
:101B3000888384E98093740080E0DF91CF911F91C6
:101B40000F910895DF93CF93CDB7DEB7FE013596A1
:101B5000619171918091D7019091D801AF010E945C
:101B6000C60DCF91DF910895DF93CF93CDB7DEB748
:101B7000FE013596619171918091D5019091D601C8
:101B8000AF010E947B11CF91DF9108952F923F9278
:101B90004F925F926F927F928F929F92AF92BF927D
:101BA000CF92DF92EF92FF920F931F93DF93CF9329
:101BB000CDB7DEB72B970FB6F894DEBF0FBECDBF03
:101BC0003C012B015A01FC0117821682838181FDA1
:101BD00003C06FEF7FEFC6C19AE0892E1E01089403
:101BE000211C311CF3012381F20123FD859123FF88
:101BF00081912F01882309F4B2C1853239F423FD84
:101C0000859123FF81912F01853229F490E0B30162
:101C10000E940913E7CF982FFF24EE249924FFE1B7
:101C2000FF15D0F09B3269F09C3228F4903259F0C5
:101C3000933291F40EC09D3249F0903369F441E043
:101C400024C052E0F52A84E0F82A28C098E0F92A56
:101C500025C0E0E1FE2A22C0F7FC29C0892F80536D
:101C60008A3070F4F6FE05C0989C902C1124980ED2
:101C700015C0E89CE02C1124E80EF0E2FF2A0EC00B
:101C80009E3229F4F6FC6BC140E4F42A07C09C366E
:101C900019F450E8F52A02C0983649F4F20123FD00
:101CA000959123FF91912F01992309F0B8CF892FA6
:101CB0008554833018F08052833038F444E050E08B
:101CC000A40EB51E5FE359830FC0933631F09337EE
:101CD00079F0933509F056C020C0F50180818983E1
:101CE00042E050E0A40EB51E610101E010E012C018
:101CF000F501C080D180F6FC03C06FEF7FEF02C01A
:101D0000692D70E042E050E0A40EB51EC6010E94AD
:101D1000BC128C015FE7F52214C0F501C080D180B0
:101D2000F6FC03C06FEF7FEF02C0692D70E042E068
:101D300050E0A40EB51EC6010E94B1128C0150E8FD
:101D4000F52AF3FE07C01AC080E290E0B3010E94BA
:101D50000913EA948E2D90E008171907A8F30EC016
:101D6000F601F7FC8591F7FE81916F0190E0B301D8
:101D70000E940913E110EA94015010400115110569
:101D800079F7EAC0943611F0993669F5F7FE08C084
:101D9000F501208131814281538184E090E00AC0C5
:101DA000F501808191819C01442737FD4095542F96
:101DB00082E090E0A80EB91E9FE6F92257FF09C005
:101DC00050954095309521953F4F4F4F5F4FE0E83C
:101DD000FE2ACA01B901A1012AE030E00E944F1396
:101DE000D82ED21840C0953729F41F2D1F7E2AE027
:101DF00030E01DC01F2D197F9F3661F0903720F411
:101E0000983509F0ACC00FC0903739F0983709F019
:101E1000A6C004C028E030E00AC0106114FD1460C0
:101E200020E130E004C014FD166020E132E017FF2D
:101E300008C0F501608171818281938144E050E0A6
:101E400008C0F50180819181BC0180E090E042E012
:101E500050E0A40EB51EA1010E944F13D82ED21837
:101E60008FE7F82EF122F6FE0BC05EEFF522D914B3
:101E700038F4F4FE07C0F2FC05C08FEEF82202C071
:101E80001D2D01C0192DF4FE0DC0FE01ED0DF11D3B
:101E90008081803319F499EEF92208C01F5FF2FEA9
:101EA00005C003C08F2D867809F01F5F0F2DF3FC4E
:101EB00014C0F0FE0FC01E1510F09D2C0BC09D2C01
:101EC0009E0C911A1E2D06C080E290E0B3010E9484
:101ED00009131F5F1E15C0F304C01E1510F4E11A8C
:101EE00001C0EE2404FF0FC080E390E0B3010E9424
:101EF000091302FF1DC001FD03C088E790E00EC07A
:101F000088E590E00BC0802F867891F001FF02C039
:101F10008BE201C080E2F7FC8DE290E0B3010E9409
:101F2000091306C080E390E0B3010E9409139A945C
:101F3000D914C0F3DA94F101ED0DF11D808190E028
:101F4000B3010E940913DD20A9F706C080E290E0EA
:101F5000B3010E940913EA94EE20C1F743CEF301C6
:101F600066817781CB012B960FB6F894DEBF0FBE4A
:101F7000CDBFCF91DF911F910F91FF90EF90DF9038
:101F8000CF90BF90AF909F908F907F906F905F9019
:101F90004F903F902F900895FC0120FD08C023FD35
:101FA00005C022FF02C0738362835183408308957A
:101FB000EF92FF920F931F9344FF02C033E011C0D2
:101FC00046FF02C034E00DC0DB01FC01AA0FBB1FBD
:101FD000EE1FFF1F1094D1F76A0F7B1F8E1F9F1FEC
:101FE00031E0660F771F881F991F3150D1F77B01B1
:101FF0008C01E20EF11C011D111DA8019701B70112
:10200000CA011F910F91FF90EF9008950F931F93B6
:10201000CF93DF938C01C8010E94C712EC0197FD9A
:1020200008C00E949E12892BB1F7CE01B8010E9410
:102030003513CE01DF91CF911F910F910895AF928B
:10204000BF92CF92DF92EF92FF920F931F93CF93A5
:10205000DF93EC01C62E5A01122F0E94C712AC0169
:102060008B3219F08D3251F41068CA9409F46DC0A6
:10207000CE010E94C712AC0197FD67C06DEFD62E4E
:10208000D1228D2D807301F54033F1F4CA9409F407
:1020900047C0CE010E94C712AC0197FD41C082E04B
:1020A000D82A483711F0483559F480E4D82ACA9420
:1020B000B9F1CE010E94C712AC0199232CF430C0B3
:1020C000D6FC02C080E1D82AEE24FF248701242F09
:1020D0002053283088F0D4FC09C02A3068F0D6FE9E
:1020E00005C02F7D822F8151863028F0CA01BE01A4
:1020F0000E94351312C02750C801B7014D2D0E9410
:10210000D80F7B018C0182E0D82ACA9461F0CE01FD
:102110000E94C712AC0197FFDACFD1FC04C015C0F2
:10212000EE24FF248701D7FE08C010950095F09497
:10213000E094E11CF11C011D111DC501B801A701AE
:102140002D2D0E94CC0F81E001C080E0DF91CF9166
:102150001F910F91FF90EF90DF90CF90BF90AF90C5
:1021600008956F927F928F929F92AF92BF92CF927B
:10217000DF92EF92FF920F931F93DF93CF93CDB730
:10218000DEB7A0970FB6F894DEBF0FBECDBF6C01CF
:10219000A62E8A017901FE01319680E2DF011D92AF
:1021A0008A95E9F770E030E060E040E050E04F01F0
:1021B000A1E0B0E0F6018381F70183FD259183FF63
:1021C00021917F01222309F47EC02E3519F4411597
:1021D000510569F1872F90E08417950744F42D3558
:1021E00051F12D3221F4332329F431E021C033237E
:1021F00009F4622F322F832F869586958695F401F8
:10220000E80FF11D832F87703D0102C0660C771C1B
:102210008A95E2F7208126292083361711F430E0D1
:1022200007C0361710F43F5FE6CF3150E4CF71E0BE
:102230004F5F5F4FBFCF332319F08E8180628E8353
:10224000772359F0FE0131969E012F5D3F4F80812B
:1022500080958193E217F307D1F7BB24B3944E0125
:102260000894811C911CC6010E94C712AC0197FD05
:1022700022C0869586958695F401E80FF11D808130
:1022800090E09A012770307002C0959587952A9545
:10229000E2F780FD05C0CA01B6010E9435130BC0EC
:1022A0000115110519F0D8014D938D01AA94BB2495
:1022B000AA20C9F602C0BB2031F40115110529F08E
:1022C000F801108202C0EE24FF24C701A0960FB6C9
:1022D000F894DEBF0FBECDBFCF91DF911F910F915C
:1022E000FF90EF90DF90CF90BF90AF909F908F9036
:1022F0007F906F9008956F927F928F929F92AF928E
:10230000BF92CF92DF92EF92FF920F931F93CF93E2
:10231000DF935C016B013A01FC011782168288246D
:10232000EAC0812F90E00E949E12892B21F0C50106
:102330000E940610E0C0153249F4F601F3FC6591E5
:10234000F3FE61916F01653269F415E2C5010E94E7
:10235000C71297FDDCC0181709F4CDC0B5010E9463
:102360003513DAC06A3219F0162F00E006C0F3FC0C
:102370001591F3FE11916F0101E099240FC00260E5
:10238000692D70E080E090E040E20E94D80F962E28
:10239000F601F3FC1591F3FE11916F01212F2053EB
:1023A0002A3068F301FD03C099249A9403C0992050
:1023B00009F4B2C0183621F01C3699F4F6010BC0AE
:1023C000F601F3FC6591F3FE6191683619F06F0137
:1023D000162F07C008600460F3FC1591F3FE1191FD
:1023E0006F01112309F498C08CE890E0612F70E030
:1023F0000E94A612892B09F48FC0802F00FF03C012
:10240000EE24FF2407C0F301E080F18022E030E0F9
:10241000620E731E1E3651F4F5014681578160E04D
:1024200070E0C701202F0E94CC0F65C0133691F4D5
:1024300081FD02C099249394C5010E94C71297FDA3
:1024400066C0E114F10419F0F70181937F019A94B9
:1024500099F74FC01B3559F4C501692DA7019601A5
:102460000E94B1106C01009709F043C03DC0C50146
:102470000E94061097FD4BC01F3659F1103728F403
:10248000143629F1193639F527C0133719F01537E5
:1024900011F51DC0C5010E94C712EC0197FD11C0C6
:1024A0000E949E12892B29F0CE01B5010E9435139E
:1024B00008C0E114F10419F0F701C1937F019A9467
:1024C00049F7E114F104A9F0F701108212C000628B
:1024D00003C0006101C00064C501692DA701202F60
:1024E0000E941F10882329F4F5018381807379F4F9
:1024F00013C000FF8394F501F380F601F3FC1591FE
:10250000F3FE11916F01112309F00BCF05C0882054
:1025100019F42FEF3FEF02C0282D30E0C901DF9101
:10252000CF911F910F91FF90EF90DF90CF90BF90D0
:10253000AF909F908F907F906F90089591110DC1F3
:10254000803219F089508550D0F70895FC0105902C
:10255000061621F00020D9F7C00108953197CF0168
:102560000895FC010590615070400110D8F78095E6
:1025700090958E0F9F1F0895FC016150704001904F
:102580000110D8F7809590958E0F9F1F0895CF93D7
:10259000DF93EC014B8140FF1AC046FF0AC04F7B1E
:1025A0004B838E819F8101969F838E838A81282F02
:1025B0002BC042FF13C0E881F9818081282F332787
:1025C00027FD30952115310529F440624B832FEF0B
:1025D0003FEF1BC03196F983E88311C0EA85FB8584
:1025E000CE0109959C0197FF0AC09B812F5F3F4F49
:1025F00011F080E201C080E1892B8B83E8CF8E81CE
:102600009F8101969F838E8330E0C901DF91CF9136
:1026100008950F931F93CF93DF938C01EB018B8170
:1026200081FF1BC082FF0DC02E813F818C819D8167
:102630002817390764F4E881F9810193F983E88365
:1026400006C0E885F985802F0995892B31F48E81A4
:102650009F8101969F838E8302C00FEF1FEFC801F9
:10266000DF91CF911F910F9108959C01FB01838110
:1026700080FF11C086FD0FC09FEF2F3F390759F033
:10268000228380648F7D83838681978101979783DE
:10269000868330E002C02FEF3FEFC9010895FA01B1
:1026A000AA27283051F1203181F1E8946F936E7F91
:1026B0006E5F7F4F8F4F9F4FAF4FB1E03ED0B4E082
:1026C0003CD0670F781F891F9A1FA11D680F791FC3
:1026D0008A1F911DA11D6A0F711D811D911DA11DD4
:1026E00020D009F468943F912AE0269F11243019E4
:1026F000305D3193DEF6CF010895462F4770405D7F
:102700004193B3E00FD0C9F7F6CF462F4F70405D2D
:102710004A3318F0495D31FD4052419302D0A9F788
:10272000EACFB4E0A6959795879577956795BA9582
:10273000C9F700976105710508959B01AC010A2E48
:1027400006945795479537952795BA95C9F7620F1F
:10275000731F841F951FA01D08959927882708952A
:04276000F894FFCF1B
:10276400613D00256400623D00612B623D25640AE1
:10277400000000000300000000CC00DA00000000AC
:102784000023000000000000000000000000000022
:102794000000000000000000000000000000000035
:1027A4000000000000230000000000000000000002
:1027B4000000000000000000000000000000000015
:0827C40000000000000000000D
:00000001FF
