S00E000044656D6F30312E7372656330
S113000093C00000B0C00000AEC00000ACC000004F
S1130010AAC00000A8C00000A6C00000A4C0000040
S1130020A2C00000A0C000009EC000009CC0000050
S1130030C1C7000098C0000096C0000094C0000032
S113004092C0000090C000008EC000008CC0000070
S11300508AC0000088C0000086C0000084C0000080
S113006082C0000080C000007EC000007CC0000090
S11300707AC0000078C00000E3C6000074C000002D
S113008094C6000070C000006EC0000089128C127B
S11300908F129212951298129B129E12A112B612EE
S11300A0B612B612B612B612B612B612A412A7122D
S11300B0AA12AD12B012B3121EFFFFFFFFFFFFFF23
S11300C0FFFFFFFFFFFFFFFFFFFFFFFFFFFFFFFF3C
S11300D0FFFFFFFFFFFFFFFFFFFFFFFFFFFFFFFF2C
S11300E0FFFFFFFFFF1BFFFF0001020304050607DC
S11300F00809FFFFFFFFFFFFFF0A0B0C0D0E0F1097
S1130100111213FF14FF151617FFFFFFFF18FFFF4F
S1130110FF19FFFFFFFFFF1A4645444342333639B8
S1130120413235383031343711241FBECFEFD0E19E
S1130130DEBFCDBF11E0A0E0B1E0ECE9F1E300E007
S11301400BBF02C007900D92AC3AB107D9F723E078
S1130150ACEAB1E001C01D92A430B207E1F70E94FD
S1130160BA140C94CC184CCF1F93182F8A3011F466
S11301708DE0FADF5D9BFECF1CB980E090E01F911B
S113018008951F93BC015F9BFECF1CB1812FECDF50
S1130190812F90E01F910895382F843010F081E072
S11301A00895483010F082E00895822F90E002C054
S11301B0880F991F4A95E2F7282F313089F03130A2
S11301C028F03230B9F03330F1F41FC08AB3862BF3
S11301D08ABB8BB3262360958623282B2BBB13C0A5
S11301E087B3862B87BB88B3262360958623282B69
S11301F028BB09C084B3862B84BB85B326236095B2
S11302008623282B25BB80E0089582B1862B82B9F2
S113021083B1262360958623282B23B980E0089593
S1130220F901843010F081E00895483010F082E044
S113023008958130B9F0813028F0823019F183308B
S1130240C1F539C08AB3882329F09AB3862F8095E3
S1130250892305C08AB3882319F4862F80958ABB25
S113026089B31FC087B3882329F097B3862F80955D
S1130270892305C087B3882319F4862F809587BB0B
S113028086B30FC084B3882329F094B3862F809556
S1130290892305C084B3882319F4862F809584BBF1
S11302A083B3862390E002C0959587954A95E2F73B
S11302B0808380E0089582B1882329F092B1862F4B
S11302C08095892305C082B1882319F4862F8095EF
S11302D082B981B1862390E002C0959587954A95AD
S11302E0E2F7808380E00895DF92EF92FF920F930C
S11302F01F93CF93DF93082FD62EE72E813210F071
S113030081E02AC00E94BD0E8B3A29F50E94BD0EE1
S11303108B3A09F50E94BD0E8B3AE9F40E94BD0E9A
S1130320F82E182F8D2D9E2D9C01E90104C00E94EA
S1130330BD0E8993180F9E012D192017C0F30E943A
S1130340BD0EF01611F083E007C0811711F480E0B0
S113035003C084E001C082E0DF91CF911F910F912F
S1130360FF90EF90DF900895AF92BF92CF92DF920B
S1130370EF92FF920F931F93CF93DF93182F092FC0
S1130380E62EB42EA52E2FEF621711F481E045C09E
S11303900E94BD0E8B3A09F03FC00E94BD0E8B3AFD
S11303A0D9F50E94BD0E8B3AB9F50E94BD0EF82E08
S11303B00E94BD0EC82EA12FB02FFD010190002078
S11303C0E9F73197DE2ED11A212F302FC901EC0124
S11303D00C2D10E005C00E94BD0E8993080F1F5F0D
S11303E01D15C8F38B2D9A2D9C01E90104C00E94B0
S11303F0BD0E8993080F9E012B192E15C0F30E9480
S1130400BD0EFC18FE1411F083E007C0801711F430
S113041080E003C084E001C082E0DF91CF911F91AE
S11304200F91FF90EF90DF90CF90BF90AF90089521
S1130430AF92BF92CF92DF92EF92FF920F931F93EE
S1130440CF93DF93D82EC92EE62EB42EA52E8BEB98
S11304500E94B90E8BEB0E94B90E8BEB0E94B90E71
S1130460ED2DFC2DEF0109900020E9F72197CE1B1B
S1130470DF0B0C2F8C2F90E001968E0D911D8F3F7A
S1130480910519F014F081E02CC00F5F102F1E0DA0
S11304900150812F0E94B90E8C2F0E94B90EF12EAB
S11304A0F00E2D2D3C2DC901EC0110E006C0888111
S11304B00E94B90E8991F80E1F5F1017C0F38B2D9F
S11304C09A2D9C01E90100E006C088810E94B90EC2
S11304D08991F80E0F5F0E15C0F38F2D0E94B90E8F
S11304E080E0DF91CF911F910F91FF90EF90DF900B
S11304F0CF90BF90AF900895EF92FF920F931F9308
S1130500CF93DF93082F7B01813210F081E01CC070
S11305108AEA0E94B90E8AEA0E94B90E8AEA0E9407
S1130520B90E802F0E94B90E102FE70105C08881F3
S11305300E94B90E8991180F9E012E192017B8F345
S1130540812F0E94B90E80E0DF91CF911F910F910E
S1130550FF90EF9008951092900091E199B98AB1BB
S113056088618AB9E5E9F0E0808186608083109231
S1130570980090939900EAE9F0E080818861808393
S1130580EDE9F0E080818660808380E091E09093E3
S11305900103809300039093FF028093FE0287B3CC
S11305A0806E87BB80E00E945C0E54D3789480E018
S11305B00895CF93DF93E901883010F081E034C0CF
S11305C0643068F0683C11F082E02EC0413059F587
S11305D0E82FF0E0E25AFD4F8081888322C070E06A
S11305E09B01240F311DA90125303105E4F4A82F06
S11305F0B0E0AA0FBB1FAA0FBB1FA60FB71FA25CB8
S1130600BD4F20E030E007C0FE01E20FF31F8D91E3
S113061080832F5F3F4FC901860F971F841795076B
S11306209CF380E001C083E0DF91CF910895AF9205
S1130630BF92CF92DF92EF92FF920F931F93DF93BB
S1130640CF93CDB7DEB72D970FB6F894DEBF0FBEAC
S1130650CDBFE82EDE011296EEE0F1E086E00190D7
S11306600D928150E1F72E2D30E0D901AA0FBB1F66
S1130670AA0FBB1FA25CBD4F8C91E82FF0E0E85499
S1130680FF4F449111968C911197E82FF0E0E854B4
S1130690FF4F5491F901EE0FFF1FEE0FFF1FE05CB7
S11306A0FD4FE081F0E0E854FF4F749113968C9174
S11306B090E088549F4FFC016491E8E0CE2ED12C49
S11306C0CC0EDD1E86E0F60111928A95E9F7225AD6
S11306D03D4FF9012081922F9078940F822F8870DA
S11306E0880F880F880F980F90933A02822F807496
S11306F0880F922F94709295907F890F850F809325
S11307003B02822F8072880F880F922F92709295ED
S1130710990F907E890F870F80933C02822F8071FE
S1130720880F880F880F21702295220F220F207CBA
S1130730820F860F80933D0219828E2D6DE70E94F1
S1130740870E8E2D6DE70E94870E8E2D6DE70E9419
S1130750870E8E2D61E00E94870E8E2D64E00E942C
S1130760870E8E2D64E00E94870E8E2D60913A02D2
S11307700E94870E10913A028E2D60913B020E94D6
S1130780870EF0903B028E2D60913C020E94870EF2
S113079000913C028E2D60913D020E94870E1F0D38
S11307A0175F100F80913D02180F8E2D612F0E944C
S11307B0870E86015E010894A11CB11C9EE0C92E1F
S11307C0D12CCC0EDD1E8E2DB5010E949B0E89818D
S11307D0F80181938F01EC15FD05A9F720E030E0C5
S11307E0BE01685F7F4FAE014E5F5F4FFB01E20FBA
S11307F0F31FDA01A20FB31F90818C91981711F0A7
S113080084E006C02F5F3F4F2630310579F780E042
S11308102D960FB6F894DEBF0FBECDBFCF91DF91FA
S11308201F910F91FF90EF90DF90CF90BF90AF900A
S11308300895CF92DF92FF920F931F93CF93DF938C
S1130840082F162FF42E69010E945C0E083010F058
S113085011E048C0143010F012E044C0612F70E081
S1130860AB014F0D511D4530510514F013E03AC052
S113087020E030E0EB010EC0F601E20FF31FE0814F
S1130880E03678F5F0E0E854FF4FE491EF3F49F1AA
S11308902F5F3F4FC9018C0F9D1F8417950764F389
S11308A0A02FB0E0AA0FBB1FAA0FBB1FA60FB71F34
S11308B0A25CBD4F20E030E007C0F601E20FF31F59
S11308C080818D932F5F3F4FC9018C0F9D1F84172B
S11308D095079CF3802FABDE182F80E00E945C0EFE
S11308E001C015E0812FDF91CF911F910F91FF90EF
S11308F0DF90CF900895DF92EF92FF920F931F93B2
S1130900F82ED62E142FE22E0E945C0E87E08F154F
S113091010F401E022C088ECD81611F002E01DC0EA
S113092087E08E1510F403E018C0802F90E002C019
S1130930880F991FEA94E2F7EF2DF0E0E25AFD4F99
S1130940912F9823109580818123982B90838F2D4C
S11309506EDE082F80E00E945C0E802F1F910F91A5
S1130960FF90EF90DF90089587EE87BB83E58DB904
S11309700895FF920F931F93782F142FF22E88302F
S113098010F081E04AC0862F885C813110F082E04B
S113099044C087E0821710F483E03FC0683C19F13B
S11309A0E72FF0E0EE0FFF1FEE0FFF1FE455FE4FA1
S11309B0262F30E0295C304081E090E002C0880FAF
S11309C0991F2A95E2F7AA2797FDA095BA2F2081AF
S11309D0318142815381822B932BA42BB52B8083AD
S11309E09183A283B383202F30E002C0220F331FF0
S11309F0FA94E2F7872F90E0FC0134E0EE0FFF1F3A
S1130A003A95E1F7E80FF91FE259FD4FE60FF11DA2
S1130A10E85CF0401223108380E01F910F91FF9057
S1130A2008958FEF8FB90C94820E0895DF92EF92A0
S1130A30FF920F931F93CF93DF93D82E162F042F7B
S1130A4079018DEC60E144E020E00E9452108CECCE
S1130A5060E144E020E00E94521087E08D1510F41C
S1130A6081E0A2C0193D08F09AC0183C08F076C095
S1130A70143609F094C0013009F093C087EE87BBA7
S1130A8083E58DB98D2D0E945C0E80E09CE6019774
S1130A90F1F7C7DF082FC5DF182F80E00E945C0E36
S1130AA0011709F056C0002309F453C0AD2DB0E07E
S1130AB0FD0114E0EE0FFF1F1A95E1F7EA0FFB1F8B
S1130AC0E259FD4F8081882321F40150F70100830E
S1130AD00F5FED0174E0CC0FDD1F7A95E1F7CA0FCB
S1130AE0DB1FC259DD4F8881813009F05CC00130C1
S1130AF019F4F701108257C0E02FF0E0329721E09B
S1130B0030E00E2E02C0220F331F0A94E2F744276E
S1130B1037FD4095542FAA0FBB1FAA0FBB1FA45526
S1130B20BE4F8D919D910D90BC91A02D8223932356
S1130B30A423B52382179307A407B50721F4EC0F68
S1130B40FD1F818103C0E85EFE4F8491F70180831D
S1130B502AC08FEFF701808384E026C0612F70E004
S1130B60AB01400F511D4A3D5105DCF481E1D89E93
S1130B70D0011124A60FB71FAA55BE4F20E030E0C4
S1130B8007C0F701E20FF31F8D9180832F5F3F4F62
S1130B90C901860F971F841795079CF304C082E050
S1130BA003C083E001C080E0DF91CF911F910F91DA
S1130BB0FF90EF90DF900895EF92FF920F931F93B1
S1130BC0CF93DF93F82EEB0187EE87BB83E58DB9D6
S1130BD08F2D0E945C0E0DE313E0C8010197F1F71D
S1130BE020DFE82E80E00E945C0EC8010197F1F737
S1130BF08F2D0E945C0EC8010197F1F712DFF82EC9
S1130C0080E00E945C0EC8010197F1F7EF1409F42B
S1130C10E8828FB190E08F3F09F491E0892FDF9152
S1130C20CF911F910F91FF90EF9008950C947D0E3A
S1130C300895FC01608308951092F301EAE9F0E05D
S1130C408081806880830895EAE9F0E080818F776D
S1130C50808308958EB588608EBD8EB582608EBD0A
S1130C6087B7806187BF8FE890E09BBD8ABD1DBCBC
S1130C701CBC08958EE18093220208950F931F9364
S1130C80CF93DF93EC018A01898170E0E82FF0E0D3
S1130C909B012E0F3F1F8A8190E08217930764F116
S1130CA0AF014C5F5F4F4C0F5D1F20E030E00DC083
S1130CB0DA01A20FB31FF801E20FF31F80818C93B6
S1130CC088818F5F88832F5F3F4F2617370784F310
S1130CD058814981242F30E0250F311D8A8190E00D
S1130CE0450F2817390711F481E001C082E08B8396
S1130CF04983188280E002C081E08B83DF91CF9129
S1130D001F910F9108950F931F93CF93DF93EC01DD
S1130D10962F8981861710F481E042C08881682F5C
S1130D2070E06C5F7F4F6C0F7D1F20E030E0092F77
S1130D3010E00DC0DA01A20FB31FFB01E20FF31F95
S1130D4080818C9388818F5F88832F5F3F4F20172A
S1130D50310784F38881082F10E0DB01A00FB11F55
S1130D6040E050E008C0FB01E40FF51F8C91808344
S1130D701D924F5F5F4FE9819A01200F311F8E2F23
S1130D8090E0281739077CF398819E1719F41B8289
S1130D90198204C082E08B83E91BE983188280E016
S1130DA0DF91CF911F910F9108951F920F920FB66B
S1130DB00F920BB60F9211242F933F934F935F938F
S1130DC06F937F938F939F93AF93BF93EF93FF930F
S1130DD080911701882359F084E191E061E041E2B8
S1130DE052E091DF8091210280939C0005C08091A4
S1130DF09A008F7B80939A00FF91EF91BF91AF91FE
S1130E009F918F917F916F915F914F913F912F911E
S1130E100F900BBE0F900FBE0F901F901895FC0102
S1130E2081E083830895FC0113821182108280E0A3
S1130E3090E014820196319680329105D1F708959D
S1130E401F920F920FB60F920BB60F9211242F938D
S1130E503F934F935F936F937F938F939F93AF933E
S1130E60BF93EF93FF9390919C009093FA0180912C
S1130E70F301823031F1833030F4882359F081302A
S1130E8009F085C00CC0833009F44BC0843009F0EC
S1130E907EC06AC0903F09F063C081E05FC080916A
S1130EA0CC01981721F482E08093F30107C01092DB
S1130EB0F30180919A008F7780939A001092FB013E
S1130EC04FC09923B9F48091CD01823039F483E085
S1130ED08093F3018091CF0190E007C0843051F4F6
S1130EE083E08093F30181E090E09093F901809393
S1130EF0F80107C084E08093F3011092F901109285
S1130F00F80188E391E061E04AEF51E0B7DE8091B7
S1130F10FA018093FF019091FB01980F9093FB01DC
S1130F201FC088E391E061E04AEF51E0A7DE8091C1
S1130F30FA019091FB01890F8093FB018091F801E4
S1130F409091F90101979093F9018093F8018091B0
S1130F50F8019091F901892B19F484E08093F3014D
S1130F608EE18093220213C08091FB01981721F433
S1130F7081E080933B0103C088E391E054DF8EE17C
S1130F808093220280919A008F7780939A00FF9138
S1130F90EF91BF91AF919F918F917F916F915F91ED
S1130FA04F913F912F910F900BBE0F900FBE0F905A
S1130FB01F9018951F920F920FB60F920BB60F92B7
S1130FC011242F933F934F935F936F937F938F934A
S1130FD09F93AF93BF93EF93FF938091F40181307C
S1130FE079F0813018F0823059F524C09091F701DE
S1130FF0913031F58EE1809322029093F40120C068
S113100080912202815080932202809122028823BF
S113101061F480919A008F7780939A0088E391E03D
S113102002DF82E08093F4010BC080919A0087FD77
S113103007C004C08091F701882311F41092F401D1
S1131040FF91EF91BF91AF919F918F917F916F919C
S11310505F914F913F912F910F900BBE0F900FBE58
S11310600F901F901895EF92FF920F93DF93CF93F9
S1131070CDB7DEB728970FB6F894DEBF0FBECDBF4D
S11310806D834E832F830887198294E09A8314D644
S11310908091610080618093610080916200806131
S11310A0809362008A819981890F9E81890F9F8133
S11310B0890F9885890F898384E191E061E0AE010D
S11310C04B5F5F4FDBDD84E191E061E0AE014E5F99
S11310D05F4FD4DD84E191E061E0AE014A5F5F4F90
S11310E0CDDD84E191E061E0AE01495F5F4FC6DD93
S11310F084E191E061E0AE01485F5F4FBFDD84E1D0
S113110091E061E0AE014F5F5F4FB8DD8D81809368
S1131110CC018A818093CD0180EFDCD580919A0047
S1131120806480939A0080919A0086FDFCCF809120
S113113062008F7E809362001092F30180919A0086
S1131140806880939A0081E08093F70180913B014D
S1131150813021F08091F4018230C1F71092F701BF
S113116080913B01813011F081E017C088E391E068
S113117061E0AE014D5F5F4FC6DD8B81882351F482
S113118088E391E061E0AE014C5F5F4FBCDD8C8190
S1131190F70180838B81880F880F28960FB6F89407
S11311A0DEBF0FBECDBFCF91DF910F91FF90EF90C7
S11311B00895EF920F93DF93CF93CDB7DEB72897BF
S11311C00FB6F894DEBF0FBECDBF6C834D832E8364
S11311D00F83E886198293E09A836ED5809161002B
S11311E080618093610080916200806180936200DD
S11311F08A819981890F9D81890F9E81890F9F81A1
S1131200890F9885890F898384E191E061E0AE01BB
S11312104C5F5F4F33DD84E191E061E0AE014E5FEE
S11312205F4F2CDD84E191E061E0AE014B5F5F4FE5
S113123025DD84E191E061E0AE014A5F5F4F1EDD90
S113124084E191E061E0AE01495F5F4F17DD84E125
S113125091E061E0AE01485F5F4F10DD84E191E011
S113126061E0AE014F5F5F4F09DD8C818093CC015B
S11312708A818093CD0180EF2DD580919A0080647E
S113128080939A0080919A0086FDFCCF8091620041
S11312908F7E809362001092F30180919A0080689F
S11312A080939A0081E08093F70180913B01813023
S11312B021F08091F4018230C1F71092F7018091FE
S11312C03B01813011F081E00AC088E391E061E0E4
S11312D0AE014D5F5F4F17DD8B81880F880F289615
S11312E00FB6F894DEBF0FBECDBFCF91DF910F9143
S11312F0EF900895CF92DF92EF92FF920F931F9396
S1131300DF93CF93CDB7DEB727970FB6F894DEBF40
S11313100FBECDBF6D834E832F836801198292E087
S11313209A83CAD480916100806180936100809126
S113133062008061809362008A819981890F9E8115
S1131340890F9F81890F898384E191E061E0AE0177
S11313504B5F5F4F93DC84E191E061E0AE014E5F4F
S11313605F4F8CDC84E191E061E0AE014A5F5F4F46
S113137085DC84E191E061E0AE01495F5F4F7EDC92
S113138084E191E061E0AE014F5F5F4F77DC8D81D6
S11313908093CC018A818093CD018F818093CF018A
S11313A080EF98D480919A00806480939A00809111
S11313B09A0086FDFCCF809162008F7E809362004C
S11313C01092F30180919A00806880939A0081E0E2
S11313D08093F70180913B01813021F08091F401E9
S11313E08230C1F71092F70180913B01813011F0F6
S11313F081E026C088E391E061E0AE014D5F5F4F7C
S113140082DC8B818823C9F400E010E084E0E82EBC
S1131410F12CEC0EFD1E0CC088E391E061E0A70105
S113142072DCF601E00FF11F8C8180830F5F1F4F88
S11314308F8190E0081719077CF38B81880F880F40
S113144027960FB6F894DEBF0FBECDBFCF91DF91C4
S11314501F910F91FF90EF90DF90CF9008950F931D
S11314601F93DF93CF9300D000D000D0CDB7DEB769
S11314706C834D832E83198291E09A831DD48091CD
S1131480610080618093610080916200806180933B
S113149062008A819981890F9D81890F9E81890FBC
S11314A08983F8019801290F311D04C08981919124
S11314B0890F8983E217F307C9F784E191E061E0BA
S11314C0AE014C5F5F4FDADB84E191E061E0AE0195
S11314D04E5F5F4FD3DB84E191E061E0AE014B5F8F
S11314E05F4FCCDB84E191E061E0AE014A5F5F4F86
S11314F0C5DB84E191E06E81A801C0DB84E191E069
S113150061E0AE014F5F5F4FB9DB8C818093CC010A
S11315108A818093CD0180EFDDD380919A0080642D
S113152080939A0080919A0086FDFCCF809162009E
S11315308F7E809362001092F30180919A008068FC
S113154080939A0081E08093F70180913B01813080
S113155021F08091F4018230C1F71092F70180915B
S11315603B01813011F081E00AC088E391E061E041
S1131570AE014D5F5F4FC7DB8B81880F880F2696C6
S11315800FB6F894DEBF0FBECDBFCF91DF911F9190
S11315900F910895EF920F93DF93CF93CDB7DEB7FA
S11315A028970FB6F894DEBF0FBECDBF6C834D8372
S11315B02E830F83E88619821A827ED3809161007C
S11315C080618093610080916200806180936200F9
S11315D08A819981890F9D81890F9E81890F9F81BD
S11315E0890F9885890F898384E191E061E0AE01D8
S11315F04C5F5F4F43DB84E191E061E0AE014E5FFD
S11316005F4F3CDB84E191E061E0AE014B5F5F4FF3
S113161035DB84E191E061E0AE014A5F5F4F2EDB90
S113162084E191E061E0AE01495F5F4F27DB84E133
S113163091E061E0AE01485F5F4F20DB84E191E01F
S113164061E0AE014F5F5F4F19DB8C818093CC0169
S11316508A818093CD0180EF3DD380919A0080648C
S113166080939A0080919A0086FDFCCF809162005D
S11316708F7E809362001092F30180919A008068BB
S113168080939A0081E08093F70180913B0181303F
S113169021F08091F4018230C1F71092F70180911A
S11316A03B01813011F081E00AC088E391E061E000
S11316B0AE014D5F5F4F27DB8B81880F880F289623
S11316C00FB6F894DEBF0FBECDBFCF91DF910F915F
S11316D0EF900895EF92FF920F93DF93CF93CDB7DE
S11316E0DEB728970FB6F894DEBF0FBECDBF6D836B
S11316F04E832F830887198294E09A83DDD28A81EE
S11317009981890F9E81890F9F81890F9885890FFF
S1131710898384E191E061E0AE014B5F5F4FAEDA13
S113172084E191E061E0AE014E5F5F4FA7DA84E1AE
S113173091E061E0AE014A5F5F4FA0DA84E191E09D
S113174061E0AE01495F5F4F99DA84E191E061E0C5
S1131750AE01485F5F4F92DA84E191E061E0AE014F
S11317604F5F5F4F8BDA8D818093CC018A818093A8
S1131770CD0180EFAFD280919A00806480939A006B
S113178080919A0086FDFCCF1092F30180919A001B
S1131790806880939A0081E08093F70180913B01F7
S11317A0813021F08091F4018230C1F71092F70169
S11317B080913B01813011F081E017C088E391E012
S11317C061E0AE014D5F5F4F9EDA8B81882351F457
S11317D088E391E061E0AE014C5F5F4F94DA8C8165
S11317E0F70180838B81880F880F28960FB6F894B1
S11317F0DEBF0FBECDBFCF91DF910F91FF90EF9071
S11318000895EF920F93DF93CF93CDB7DEB7289768
S11318100FB6F894DEBF0FBECDBF6C834D832E830D
S11318200F83E886198293E09A8346D28A8199814C
S1131830890F9D81890F9E81890F9F81890F9885CA
S1131840890F898384E191E061E0AE014C5F5F4FD1
S113185015DA84E191E061E0AE014E5F5F4F0EDA8C
S113186084E191E061E0AE014B5F5F4F07DA84E110
S113187091E061E0AE014A5F5F4F00DA84E191E0FC
S113188061E0AE01495F5F4FF9D984E191E061E025
S1131890AE01485F5F4FF2D984E191E061E0AE01AF
S11318A04F5F5F4FEBD98C818093CC018A81809309
S11318B0CD0180EF0FD280919A00806480939A00CA
S11318C080919A0086FDFCCF1092F30180919A00DA
S11318D0806880939A0081E08093F70180913B01B6
S11318E0813021F08091F4018230C1F71092F70128
S11318F080913B01813011F081E00AC088E391E0DE
S113190061E0AE014D5F5F4FFED98B81880F880F78
S113191028960FB6F894DEBF0FBECDBFCF91DF91EE
S11319200F91EF900895CF92DF92EF92FF920F9371
S11319301F93DF93CF93CDB7DEB727970FB6F894F5
S1131940DEBF0FBECDBF6D834E832F836801198226
S113195092E09A83B1D18A819981890F9E81890FFE
S11319609F81890F898384E191E061E0AE014B5F3F
S11319705F4F84D984E191E061E0AE014E5F5F4F37
S11319807DD984E191E061E0AE014A5F5F4F76D991
S113199084E191E061E0AE01495F5F4F6FD984E17A
S11319A091E061E0AE014F5F5F4F68D98D81809314
S11319B0CC018A818093CD018F818093CF0180EF08
S11319C089D180919A00806480939A0080919A00D2
S11319D086FDFCCF1092F30180919A008068809379
S11319E09A0081E08093F70180913B01813021F0DE
S11319F08091F4018230C1F71092F70180913B018C
S1131A00813011F081E026C088E391E061E0AE010D
S1131A104D5F5F4F78D98B818823C9F400E010E0D3
S1131A2094E0E92EF12CEC0EFD1E0CC088E391E04D
S1131A3061E0A70168D9F601E00FF11F8C81808372
S1131A400F5F1F4F8F8190E0081719077CF38B817C
S1131A50880F880F27960FB6F894DEBF0FBECDBF50
S1131A60CF91DF911F910F91FF90EF90DF90CF9076
S1131A7008950F931F93DF93CF9300D000D000D02D
S1131A80CDB7DEB76C834D832E83198291E09A83A0
S1131A9013D18A819981890F9D81890F9E81890F34
S1131AA08983F8019801290F311D04C0898191911E
S1131AB0890F8983E217F307C9F784E191E061E0B4
S1131AC0AE014C5F5F4FDAD884E191E061E0AE0192
S1131AD04E5F5F4FD3D884E191E061E0AE014B5F8C
S1131AE05F4FCCD884E191E061E0AE014A5F5F4F83
S1131AF0C5D884E191E06E81A801C0D884E191E069
S1131B0061E0AE014F5F5F4FB9D88C818093CC0107
S1131B108A818093CD0180EFDDD080919A0080642A
S1131B2080939A0080919A0086FDFCCF1092F30175
S1131B3080919A00806880939A0081E08093F701F5
S1131B4080913B01813021F08091F4018230C1F712
S1131B501092F70180913B01813011F081E00AC0BD
S1131B6088E391E061E0AE014D5F5F4FCCD88B819B
S1131B70880F880F26960FB6F894DEBF0FBECDBF30
S1131B80CF91DF911F910F910895EF920F93DF93FF
S1131B90CF93CDB7DEB728970FB6F894DEBF0FBE4C
S1131BA0CDBF6C834D832E830F83E88619821A82FE
S1131BB083D08A819981890F9D81890F9E81890FA4
S1131BC09F81890F9885890F898384E191E061E081
S1131BD0AE014C5F5F4F52D884E191E061E0AE0109
S1131BE04E5F5F4F4BD884E191E061E0AE014B5F03
S1131BF05F4F44D884E191E061E0AE014A5F5F4FFA
S1131C003DD884E191E061E0AE01495F5F4F36D891
S1131C1084E191E061E0AE01485F5F4F2FD884E139
S1131C2091E061E0AE014F5F5F4F28D88C818093D3
S1131C30CC018A818093CD0180EF4CD080919A00B1
S1131C40806480939A0080919A0086FDFCCF109264
S1131C50F30180919A00806880939A0081E08093D8
S1131C60F70180913B01813021F08091F4018230B1
S1131C70C1F71092F70180913B01813011F081E0AE
S1131C800AC088E391E061E0AE014D5F5F4F3BD84D
S1131C908B81880F880F28960FB6F894DEBF0FBE8D
S1131CA0CDBFCF91DF910F91EF90089590E08830F0
S1131CB008F091E0892F0895982F883010F081E082
S1131CC0089588B39295990F907E8F71892B88BB64
S1131CD080E00895982F80919B0085FFFCCF90931E
S1131CE09C0083EB92E00197F1F7089580919B00AB
S1131CF087FFFCCF80919C0008958FB9779BFECF1E
S1131D008FB108951FB8779BFECF8FB108951F93AD
S1131D10162FD2DF8DE393E00197F1F780919B00BA
S1131D2085FFFCCF10939C0083EB92E00197F1F7C1
S1131D3080E01F910895CF93DF93EB01BDDF8DE326
S1131D4093E00197F1F720E030E008C02F5F3F4FA8
S1131D508FEF2F3F380711F481E008C080919B007A
S1131D6087FFF4CF80919C00888380E0DF91CF913E
S1131D7008955D9BFECF8CB908955F9BFECF8CB117
S1131D80089584E980937400089584EA809374002C
S1131D908091740087FFFCCF80917100887F883028
S1131DA011F480E0089584E98093740081E008953B
S1131DB084E980937400089584EA80937400809188
S1131DC0740087FFFCCF80917100887F803111F40B
S1131DD080E0089584E98093740082E0089590E09F
S1131DE0880F991F8093730084E880937400809116
S1131DF0740087FFFCCF80917100887F883119F0CF
S1131E0084E9809374000895880F8F5F8093730032
S1131E1084E8809374008091740087FFFCCF8091E4
S1131E207100887F803419F084E9809374000895E8
S1131E308093730084E8809374008091740087FF1A
S1131E40FCCF80917100887F883219F084E98093F7
S1131E507400089584EC809374008091740087FF6B
S1131E60FCCF80917100887F803519F084E98093DC
S1131E70740080917300089584E8809374008091C5
S1131E80740087FFFCCF80917100887F883519F03A
S1131E9084E9809374000895FF920F931F93182F81
S1131EA0062FF42E72DF812F9ADF802FC1DF8F2D52
S1131EB0BFDF84E9809374001F910F91FF90089510
S1131EC00F931F93082F162F60DF802F88DF812F39
S1131ED0AFDF72DF802F98DFBDDF182FCDDF84E9FD
S1131EE080937400812F1F910F9108958093700047
S1131EF00895EF92FF920F931F93182F062FF72E3A
S1131F00E42E43DF813009F441C0812F90E0880F33
S1131F10991F90708093730084E88093740080917B
S1131F20740087FFFCCF80917100887F883139F479
S1131F30802F9F2D9C01F90190E024E81AC084E9C8
S1131F408093740083E022C0808180937300209387
S1131F5074008091740087FFFCCF809171003196EA
S1131F60887F883229F084E98093740084E00EC06D
S1131F709F5F9E1548F381E08E1520F484E98093D9
S1131F80740003C081E08093230280E01F910F91CD
S1131F90FF90EF9008950F931F93CF93DF93082F33
S1131FA0EB01142F80912302813039F405DF823054
S1131FB009F473C01092230201C0E7DE813009F4F2
S1131FC06CC0802F90E0880F991F8160809373000C
S1131FD084E8809374008091740087FFFCCF809123
S1131FE07100887F803429F084E98093740085E04F
S1131FF054C01230D0F140E0212F30E02150304065
S113200054EC17C0509374008091740087FFFCCF88
S113201080917100887F803529F084E98093740071
S113202086E03BC080917300FE01E40FF11D8083C4
S11320304F5F842F90E08217930724F384E8809302
S113204074008091740087FFFCCF80917100887FB9
S1132050883529F084E98093740087E01EC080915C
S11320607300C10FD11D219713C084E880937400BD
S11320708091740087FFFCCF80917100887F883540
S113208029F084E98093740088E007C0809173008C
S1132090888384E98093740080E0DF91CF911F915D
S11320A00F910895922F483008F0C0C08A3C09F47B
S11320B04AC08B3C30F4883C71F0893C09F0B6C0CE
S11320C026C08C3C09F477C08C3C08F458C08D3C85
S11320D009F0ACC08CC02AB3E92FF0E002C0EE0FC7
S11320E0FF1F4A95E2F7262330E0862F90E08E23E7
S11320F09F232817390711F420E001C022E08AB396
S1132100962F9E2360958623982B9ABB90C027B365
S1132110E92FF0E002C0EE0FFF1F4A95E2F72623F5
S113212030E0862F90E08E239F232817390711F47F
S113213020E001C022E087B3962F9E23609586237A
S1132140982B97BB74C024B3E92FF0E002C0EE0FC4
S1132150FF1F4A95E2F7262330E0862F90E08E2376
S11321609F232817390711F420E001C022E084B32B
S1132170962F9E2360958623982B94BB58C021B339
S1132180E92FF0E002C0EE0FFF1F4A95E2F7262385
S113219030E0862F90E08E239F232817390711F40F
S11321A020E001C022E081B3962F9E236095862310
S11321B0982B91BB3CC022B1E92FF0E002C0EE0F96
S11321C0FF1F4A95E2F7262330E0862F90E08E2306
S11321D09F232817390711F420E001C022E082B1BF
S11321E0962F9E2360958623982B92B920C0209128
S11321F06100E92FF0E002C0EE0FFF1F4A95E2F7FD
S1132200262330E0862F90E08E239F23281739075A
S113221011F420E001C022E080916100962F9E23FA
S113222060958623982B9093610001C021E0822F52
S11322300895FA016130C9F58230D1F0833028F471
S1132240882351F0813089F50DC08430E9F0843061
S1132250A8F0853051F51EC08AB38F3F21F58081E7
S11322608BBB1FC087B38F3FF1F4808188BB19C03B
S113227084B38F3FC1F4808185BB13C081B38F3F8A
S113228091F4808182BB0DC082B18F3F61F4808163
S113229083B907C0809161008F3F29F480818093C6
S11322A0620080E0089582E0089581E00895FA01D3
S11322B0613009F042C08636F1F0873628F484365E
S11322C051F08536D1F50FC0883629F18836D8F01B
S11322D0893699F529C08AB3882311F490E001C0A6
S11322E092E089B31FC087B3882311F490E001C042
S11322F092E086B317C084B3882311F490E001C040
S113230092E083B30FC081B3882311F490E001C03D
S113231092E080B307C082B1882311F490E001C039
S113232092E081B180830AC080916100882311F416
S113233090E001C092E080B1F5CF91E0892F08953B
S1132340483008F089C08230C1F1833030F48823EA
S113235071F0813009F080C01DC0843009F452C08E
S1132360843008F43DC0853009F076C05DC05AB3AE
S11323705623561709F06EC08BB330E002C0220F0B
S1132380331F4A95E2F7952F922350955823952BA6
S11323909BBB5EC057B35623561709F05BC088B386
S11323A030E002C0220F331F4A95E2F7952F9223A3
S11323B050955823952B98BB4BC054B356235617AE
S11323C009F048C085B330E002C0220F331F4A959C
S11323D0E2F7952F922350955823952B95BB38C03F
S11323E051B356235617B1F582B330E002C0220F21
S11323F0331F4A95E2F7952F922350955823952B36
S113240092BB26C052B15623561721F583B130E052
S113241002C0220F331F4A95E2F7952F922350955D
S11324205823952B93B914C0509161005623561725
S113243089F48091620030E002C0220F331F4A9574
S1132440E2F7952F922350955823952B9093620091
S113245080E0089582E0089581E00895F90148300C
S113246008F04BC0863601F1873630F4843661F0CB
S1132470853609F042C010C0883631F18836E0F064
S1132480893609F03AC030C08AB3862311F420E0BB
S113249001C022E089B31FC087B3862311F420E072
S11324A001C022E086B317C084B3862311F420E070
S11324B001C022E083B30FC081B3862311F420E06E
S11324C001C022E080B307C082B1862311F420E06A
S11324D001C022E081B1862390E002C095958795E2
S11324E04A95E2F780830AC080916100862311F443
S11324F020E001C022E080B1EECF21E0822F0895D8
S113250090E0FC01F197E631F10580F5EA5BFF4FBD
S113251036C380E091E02CC080E092E029C080E0E6
S113252093E026C080E094E023C080E095E020C0E2
S113253080E096E01DC080E097E01AC080E098E05B
S113254017C080E099E014C081E09AE011C082E0F5
S11325509BE00EC083E09CE00BC084E09DE008C0DB
S113256085E09EE005C086E09FE002C080E090E048
S1132570FB019083FA01808308950F931F93782FB2
S11325808A30B0F0613069F410922E0210922F025A
S1132590109230021092310210922D0210922C02ED
S11325A044C081E090E090932D0280932C023DC0C2
S11325B080912C0290912D02019761F410922E02C9
S11325C010922F02109230021092310210922D02BA
S11325D010922C0280912E0290912F02A091300231
S11325E0B0913102880F991FAA1FBB1F8C019D0156
S11325F0000F111F221F331F000F111F221F331F33
S1132600800F911FA21FB31F870F911DA11DB11D24
S113261080932E0290932F02A0933002B093310244
S1132620FA0180839183A283B3831F910F9108954C
S11326308F929F92AF92BF92EF92FF920F931F934C
S11326404B015C014A3008F46DC1213089F41092C9
S11326502B0210922A021092290210922802109240
S1132660270210922602109225021092240279C1A8
S1132670223009F08AC081E090E090932702809391
S11326802602B40180912802909129028430910598
S113269009F441C034F4009751F0039709F455C08C
S11326A060C18530910511F1069759F05AC1092C82
S11326B0000CAA08BB08F80180829182A282B3822E
S11326C050C180912A0290912B02880E991EC40158
S11326D0092C000CAA0BBB0BF80180839183A28305
S11326E0B38390922B0280922A023BC180912A02EA
S11326F090912B0288199909AC01092E000C660BE4
S1132700770BF801408351836283738390932B0288
S113271080932A0226C120912A0230912B02289DFF
S1132720C001299D900D389D900D1124AC01092EF6
S1132730000C660B770BF80140835183628373832B
S113274090932B0280932A020CC1892851F480EAC9
S113275096E8A1E0B0E0F80180839183A283B3837B
S113276000C180912A0290912B02F6D1CB01072E51
S1132770000CAA0BBB0BF80180839183A283B38363
S113278070932B0260932A02ECC0809126029091F0
S11327902702009709F099C0409124025091250224
S11327A0452B09F0D6C080912802909129028430EB
S11327B0910509F446C034F4009751F0039709F4E5
S11327C05FC077C08530910511F1069731F071C073
S11327D090922B0280922A026CC080912A029091DE
S11327E02B02880E991EC401092C000CAA0BBB0BEA
S11327F0F80180839183A283B38390922B02809209
S11328002A02F70180839183A283B38352C080910B
S11328102A0290912B0288199909AC01092E000C07
S1132820660B770BF8014083518362837383909323
S11328302B0280932A02F7014083518362837383BE
S113284038C080912A0290912B02889DA001899D15
S1132850500D989D500D1124CA01052E000CAA0B91
S1132860BB0BF80180839183A283B38350932B0223
S113287040932A02F70180839183A283B38319C012
S113288080912A0290912B02B40166D1CB01072ECC
S1132890000CAA0BBB0BF80180839183A283B38342
S11328A070932B0260932A02F70180839183A283A1
S11328B0B38330E0309329022093280281E090E032
S11328C090932502809324024CC04091240250919D
S11328D025024130510531F4422F50E05093290232
S11328E0409328020197E9F5F80180819181A28142
S11328F0B38190932B0280932A02F7018083918302
S1132900A283B38330E030932902209328021092EB
S113291027021092260281E090E090932502809392
S113292024021FC0109225021092240280912602D4
S1132930909127020197A9F410922B0210922A0277
S11329401092290210922802109227021092260255
S113295008C040912402509125024130510509F4E8
S1132960BBCF1F910F91FF90EF90BF90AF909F90BE
S11329708F900895CF93DF93CDB7DEB72F970FB61F
S1132980F894DEBF0FBECDBF0E94AB0219821C8239
S11329901D821E821F82188619861A861B861C8633
S11329A01D861E8680E38F8700E020E04FEF68ECF1
S11329B081E00E947B042FED35E383E02150304019
S11329C08040E1F700C0000001E020E041E068EC55
S11329D082E00E94B9049FED25E333E0915020404A
S11329E03040E1F700C000009E01245F3F4F44E007
S11329F060E081E00E9419048FED95E323E08150AB
S1132A0090402040E1F700C000008CE591E0E7D061
S1132A10712C0F2EF8E9AF2EF1E0BF2EF02D0F2E02
S1132A20FEE8CF2EF1E0DF2EF02D0F2EF2EA8F2EEE
S1132A30F1E09F2EF02D11C09E012F5F3F4F41E02A
S1132A4064E682E00E9416053FEB8BE696E0315087
S1132A5080409040E1F700C000008981882361F341
S1132A60AE014D5F5F4FBE016E5F7F4F49DD8A81CE
S1132A708B3070F08B81813059F4188619861A8650
S1132A801B861C821D821E821F8283E891E0A7D0D0
S1132A90AE014C5F5F4F6B818A816FDD6C817D81FC
S1132AA08E819F819E012C5F3F4F79018E01085FCB
S1132AB01F4F2B814A81BCDD8A818A3008F448C0CB
S1132AC08B81823041F1739438C08F818F938E81D2
S1132AD08F938D818F938C818F93DF92CF926CD063
S1132AE00F900F900F900F900F900F9011C08F8147
S1132AF08F938E818F938D818F938C818F93BF92CF
S1132B00AF925AD00F900F900F900F900F900F909C
S1132B108B81823091F48B858F938A858F938985FD
S1132B208F9388858F939F928F9246D00F900F90AA
S1132B300F900F900F900F90712C19823FED85E349
S1132B4093E0315080409040E1F700C0000085CF11
S1132B50772009F4BACFCBCF97FB072E16F4009455
S1132B6006D077FD08D014D007FC05D03EF490952C
S1132B7081959F4F0895709561957F4F0895EE0F4D
S1132B80FF1F0024001C0BBE0790F691E02D099452
S1132B90AA1BBB1B51E107C0AA1FBB1FA617B7077F
S1132BA010F0A61BB70B881F991F5A95A9F780959B
S1132BB09095BC01CD010895CF93DF93CDB7DEB7D7
S1132BC0AE014B5F5F4FFA0161917191AF0180914A
S1132BD000039091010333D0DF91CF9108950F93B7
S1132BE01F93CF93DF93E0910003F09101032381BE
S1132BF021FF1BC08C01D0E0C0E0F80181918F015E
S1132C006091000370910103DB011896ED91FC9132
S1132C101997882331F00995892B79F3DFEFCFEFEA
S1132C20ECCF8AE00995892B19F08FEF9FEF02C052
S1132C308D2F9C2FDF91CF911F910F9108952F928B
S1132C403F924F925F926F927F928F929F92AF9238
S1132C50BF92CF92DF92EF92FF920F931F93CF9385
S1132C60DF93CDB7DEB72B970FB6F894DEBF0FBE58
S1132C70CDBF6C017B018A01FC011782168283811E
S1132C8081FFBFC1CE0101963C01F6019381F7019A
S1132C9093FD859193FF81917F01882309F4ADC150
S1132CA0853239F493FD859193FF81917F018532BB
S1132CB021F4B60190E0D6D1E8CF912C212C312C0F
S1132CC0FFE1F315D8F08B3279F038F4803279F0E3
S1132CD08332A1F4232D20611DC08D3261F0803335
S1132CE069F4232D216016C0832D8260382EE32DD4
S1132CF0E4603E2E2AC0F32DF8601DC037FC2DC0C1
S1132D0020ED280F2A3040F08E32B9F436FC75C11C
S1132D10232D2064322E19C036FE06C08AE0989E08
S1132D20200D1124922E11C0EAE02E9E200D1124B4
S1132D30222EF32DF0623F2E08C08C3621F4832D11
S1132D408068382E02C0883641F4F70193FD8591DE
S1132D5093FF81917F018111B3CF982F9F7D95546B
S1132D60933028F40C5F1F4F9FE399830DC0833683
S1132D7031F0833771F0833509F055C020C0F80174
S1132D80808189830E5F1F4F88248394912C530183
S1132D9012C02801F2E04F0E511CF801A080B1804E
S1132DA036FE03C0692D70E002C06FEF7FEFC501EE
S1132DB04ED14C018201F32DFF773F2E15C028011F
S1132DC022E0420E511CF801A080B18036FE03C0FF
S1132DD0692D70E002C06FEF7FEFC5012DD14C016A
S1132DE0F32DF0683F2E820133FC19C0822D90E050
S1132DF088169906A0F4B60180E290E033D12A94B3
S1132E00F5CFF50137FC859137FE81915F01B6015D
S1132E1090E028D121102A9421E0821A910881148B
S1132E20910479F7E1C0843611F0893639F5F80157
S1132E3037FE07C060817181828193810C5F1F4FCF
S1132E4008C060817181072E000C880B990B0E5FFE
S1132E501F4FF32DFF763F2E97FF09C09095809565
S1132E60709561957F4F8F4F9F4FF0683F2E2AE0FA
S1132E7030E0A30133D1882E861844C0853731F45D
S1132E80232D2F7EB22E2AE030E025C0932D997F8A
S1132E90B92E8F36C1F018F4883579F0AEC080377A
S1132EA019F0883721F0A9C0E92FE061BE2EB4FEE5
S1132EB00DC0FB2DF460BF2E09C034FE0AC0292FBB
S1132EC02660B22E06C028E030E005C020E130E0E4
S1132ED002C020E132E0F801B7FE07C060817181D1
S1132EE0828193810C5F1F4F06C06081718180E0F5
S1132EF090E00E5F1F4FA301F1D0882E8618FB2DA2
S1132F00FF773F2E36FE0DC0232D2E7FA22E89146F
S1132F1058F434FE0BC032FC09C0832D8E7EA82EDB
S1132F2005C0B82CA32C03C0B82C01C0B92CA4FE36
S1132F300FC0FE01E80DF11D8081803321F49A2D2C
S1132F40997EA92E09C0A2FE06C0B394B39404C00E
S1132F508A2D867809F0B394A3FC10C0A0FE06C0A5
S1132F60B21480F4280C922C9B180DC0B21458F49F
S1132F70B60180E290E076D0B394F8CFB21418F49E
S1132F802B1802C0982C212CA4FE0FC0B60180E39C
S1132F9090E068D0A2FE16C0A1FC03C088E790E0D0
S1132FA002C088E590E0B6010CC08A2D867851F005
S1132FB0A1FE02C08BE201C080E2A7FC8DE2B60153
S1132FC090E050D0891430F4B60180E390E04AD008
S1132FD09A94F8CF8A94F301E80DF11D8081B6012B
S1132FE090E040D08110F6CF222009F44ECEB601F5
S1132FF080E290E037D02A94F7CFF601868197815A
S113300002C08FEF9FEF2B960FB6F894DEBF0FBE72
S1133010CDBFDF91CF911F910F91FF90EF90DF9083
S1133020CF90BF90AF909F908F907F906F905F9064
S11330304F903F902F900895FC010590615070408F
S11330400110D8F7809590958E0F9F1F0895FC016D
S11330506150704001900110D8F7809590958E0FC3
S11330609F1F08950F931F93CF93DF93FB01238139
S113307021FD03C08FEF9FEF2CC022FF16C04681B5
S11330805781248135814217530744F4A081B181CB
S11330909D012F5F3F4F318320838C93268137819D
S11330A02F5F3F4F3783268314C08B01EC01FB0154
S11330B00084F185E02D0995892BE1F6D801169657
S11330C08D919C911797019617969C938E931697C2
S11330D0CE01DF91CF911F910F910895FA01AA2794
S11330E0283051F1203181F1E8946F936E7F6E5F47
S11330F07F4F8F4F9F4FAF4FB1E03ED0B4E03CD0F5
S1133100670F781F891F9A1FA11D680F791F8A1FD7
S1133110911DA11D6A0F711D811D911DA11D20D03E
S113312009F468943F912AE0269F11243019305DF8
S11331303193DEF6CF010895462F4770405D4193E9
S1133140B3E00FD0C9F7F6CF462F4F70405D4A3336
S113315018F0495D31FD4052419302D0A9F7EACFFE
S1133160B4E0A6959795879577956795BA95C9F72D
S113317000976105710508959B01AC010A2E069420
S11331805795479537952795BA95C9F7620F731FD9
S10F3190841F951FA01D0895F894FFCF24
S113319C0000000300000000B400C1000000D7D7F9
S11331ACD74F4B9A000023000000000000000000E1
S11331BC00000000000000000000000000000000FF
S11331CC00000000000000000000230000000000CC
S11331DC00000000000000000000000000000000DF
S11331EC0000000000000000000000002D2D2D2D1B
S11331FC2D2D2D2D2D2D2D2D2D2D737461727421AE
S113320C21212D2D2D2D2D2D2D2D2D2D2D2D2D2DF6
S113321C2D2D007369676E3A27636C7227007265F3
S113322C67313D256C640A00726567323D256C6418
S10F323C0A00616E733D256C640A0000FA
S9030000FC
