S00D000074657374382E737265631F
S113000093C00000B0C00000AEC00000ACC000004F
S1130010AAC00000A8C000000C94D415A4C000001D
S1130020A2C00000A0C000009EC000009CC0000050
S1130030C1C7000098C0000096C0000094C0000032
S113004092C0000090C000008EC000008CC0000070
S11300508AC0000088C0000086C0000084C0000080
S113006082C0000080C000007EC000007CC0000090
S11300707AC0000078C00000E3C6000074C000002D
S113008094C6000070C000006EC00000D012D312ED
S1130090D612D912DC12DF12E212E512E812FD12B6
S11300A0FD12FD12FD12FD12FD12FD12EB12EE12F5
S11300B0F112F412F712FA121EFFFFFFFFFFFFFF07
S11300C0FFFFFFFFFFFFFFFFFFFFFFFFFFFFFFFF3C
S11300D0FFFFFFFFFFFFFFFFFFFFFFFFFFFFFFFF2C
S11300E0FFFFFFFFFF1BFFFF0001020304050607DC
S11300F00809FFFFFFFFFFFFFF0A0B0C0D0E0F1097
S1130100111213FF14FF151617FFFFFFFF18FFFF4F
S1130110FF19FFFFFFFFFF1A4645444342333639B8
S1130120413235383031343711241FBECFEFD0E19E
S1130130DEBFCDBF11E0A0E0B1E0EEE6F3E300E006
S11301400BBF02C007900D92A436B107D9F722E085
S1130150A4E6B1E001C01D92A73CB207E1F70E94FA
S113016080120C94B5194CCF1F93182F8A3011F4B8
S11301708DE0FADF5D9BFECF1CB980E090E01F911B
S113018008951F93BC015F9BFECF1CB1812FECDF50
S1130190812F90E01F910895382F843010F081E072
S11301A00895483010F082E00895822F90E002C054
S11301B0880F991F4A95E2F7282F313089F03130A2
S11301C028F03230B9F03330F1F41FC08AB3862BF3
S11301D08ABB8BB3262360958623282B2BBB13C0A5
S11301E087B3862B87BB88B3262360958623282B69
S11301F028BB09C084B3862B84BB85B326236095B2
S11302008623282B25BB80E0089582B1862B82B9F2
S113021083B1262360958623282B23B980E0089593
S1130220F901843010F081E00895483010F082E044
S113023008958130B9F0813028F0823019F183308B
S1130240C1F539C08AB3882329F09AB3862F8095E3
S1130250892305C08AB3882319F4862F80958ABB25
S113026089B31FC087B3882329F097B3862F80955D
S1130270892305C087B3882319F4862F809587BB0B
S113028086B30FC084B3882329F094B3862F809556
S1130290892305C084B3882319F4862F809584BBF1
S11302A083B3862390E002C0959587954A95E2F73B
S11302B0808380E0089582B1882329F092B1862F4B
S11302C08095892305C082B1882319F4862F8095EF
S11302D082B981B1862390E002C0959587954A95AD
S11302E0E2F7808380E00895DF92EF92FF920F930C
S11302F01F93CF93DF93082FD62EE72E813210F071
S113030081E02AC00E94BD0E8B3A29F50E94BD0EE1
S11303108B3A09F50E94BD0E8B3AE9F40E94BD0E9A
S1130320F82E182F8D2D9E2D9C01E90104C00E94EA
S1130330BD0E8993180F9E012D192017C0F30E943A
S1130340BD0EF01611F083E007C0811711F480E0B0
S113035003C084E001C082E0DF91CF911F910F912F
S1130360FF90EF90DF900895AF92BF92CF92DF920B
S1130370EF92FF920F931F93CF93DF93182F092FC0
S1130380E62EB42EA52E2FEF621711F481E045C09E
S11303900E94BD0E8B3A09F03FC00E94BD0E8B3AFD
S11303A0D9F50E94BD0E8B3AB9F50E94BD0EF82E08
S11303B00E94BD0EC82EA12FB02FFD010190002078
S11303C0E9F73197DE2ED11A212F302FC901EC0124
S11303D00C2D10E005C00E94BD0E8993080F1F5F0D
S11303E01D15C8F38B2D9A2D9C01E90104C00E94B0
S11303F0BD0E8993080F9E012B192E15C0F30E9480
S1130400BD0EFC18FE1411F083E007C0801711F430
S113041080E003C084E001C082E0DF91CF911F91AE
S11304200F91FF90EF90DF90CF90BF90AF90089521
S1130430AF92BF92CF92DF92EF92FF920F931F93EE
S1130440CF93DF93D82EC92EE62EB42EA52E8BEB98
S11304500E94B90E8BEB0E94B90E8BEB0E94B90E71
S1130460ED2DFC2DEF0109900020E9F72197CE1B1B
S1130470DF0B0C2F8C2F90E001968E0D911D8F3F7A
S1130480910519F014F081E02CC00F5F102F1E0DA0
S11304900150812F0E94B90E8C2F0E94B90EF12EAB
S11304A0F00E2D2D3C2DC901EC0110E006C0888111
S11304B00E94B90E8991F80E1F5F1017C0F38B2D9F
S11304C09A2D9C01E90100E006C088810E94B90EC2
S11304D08991F80E0F5F0E15C0F38F2D0E94B90E8F
S11304E080E0DF91CF911F910F91FF90EF90DF900B
S11304F0CF90BF90AF900895EF92FF920F931F9308
S1130500CF93DF93082F7B01813210F081E01CC070
S11305108AEA0E94B90E8AEA0E94B90E8AEA0E9407
S1130520B90E802F0E94B90E102FE70105C08881F3
S11305300E94B90E8991180F9E012E192017B8F345
S1130540812F0E94B90E80E0DF91CF911F910F910E
S1130550FF90EF9008951092900091E199B98AB1BB
S113056088618AB9E5E9F0E0808186608083109231
S1130570980090939900EAE9F0E080818861808393
S1130580EDE9F0E080818660808380E091E09093E3
S1130590C4028093C3029093C2028093C10287B3C2
S11305A0806E87BB80E00E945C0E54D3789480E018
S11305B00895CF93DF93E901883010F081E034C0CF
S11305C0643068F0683C11F082E02EC0413059F587
S11305D0E82FF0E0EF5DFD4F8081888322C070E05A
S11305E09B01240F311DA90125303105E4F4A82F06
S11305F0B0E0AA0FBB1FAA0FBB1FA60FB71FAF5FA8
S1130600BD4F20E030E007C0FE01E20FF31F8D91E3
S113061080832F5F3F4FC901860F971F841795076B
S11306209CF380E001C083E0DF91CF910895AF9205
S1130630BF92CF92DF92EF92FF920F931F93DF93BB
S1130640CF93CDB7DEB72D970FB6F894DEBF0FBEAC
S1130650CDBFE82EDE011296EEE0F1E086E00190D7
S11306600D928150E1F72E2D30E0D901AA0FBB1F66
S1130670AA0FBB1FAF5FBD4F8C91E82FF0E0E85489
S1130680FF4F449111968C911197E82FF0E0E854B4
S1130690FF4F5491F901EE0FFF1FEE0FFF1FED5FA7
S11306A0FD4FE081F0E0E854FF4F749113968C9174
S11306B090E088549F4FFC016491E8E0CE2ED12C49
S11306C0CC0EDD1E86E0F60111928A95E9F72F5DC6
S11306D03D4FF9012081922F9078940F822F8870DA
S11306E0880F880F880F980F9093FD01822F8074D4
S11306F0880F922F94709295907F890F850F809325
S1130700FE01822F8072880F880F922F927092952B
S1130710990F907E890F870F8093FF01822F80713C
S1130720880F880F880F21702295220F220F207CBA
S1130730820F860F8093000219828E2D6DE70E942E
S1130740870E8E2D6DE70E94870E8E2D6DE70E9419
S1130750870E8E2D61E00E94870E8E2D64E00E942C
S1130760870E8E2D64E00E94870E8E2D6091FD0110
S11307700E94870E1091FD018E2D6091FE010E9452
S1130780870EF090FE018E2D6091FF010E94870E6E
S11307900091FF018E2D609100020E94870E1F0DB3
S11307A0175F100F80910002180F8E2D612F0E9489
S11307B0870E86015E010894A11CB11C9EE0C92E1F
S11307C0D12CCC0EDD1E8E2DB5010E949B0E89818D
S11307D0F80181938F01EC15FD05A9F720E030E0C5
S11307E0BE01685F7F4FAE014E5F5F4FFB01E20FBA
S11307F0F31FDA01A20FB31F90818C91981711F0A7
S113080084E006C02F5F3F4F2630310579F780E042
S11308102D960FB6F894DEBF0FBECDBFCF91DF91FA
S11308201F910F91FF90EF90DF90CF90BF90AF900A
S11308300895CF92DF92FF920F931F93CF93DF938C
S1130840082F162FF42E69010E945C0E083010F058
S113085011E048C0143010F012E044C0612F70E081
S1130860AB014F0D511D4530510514F013E03AC052
S113087020E030E0EB010EC0F601E20FF31FE0814F
S1130880E03678F5F0E0E854FF4FE491EF3F49F1AA
S11308902F5F3F4FC9018C0F9D1F8417950764F389
S11308A0A02FB0E0AA0FBB1FAA0FBB1FA60FB71F34
S11308B0AF5FBD4F20E030E007C0F601E20FF31F49
S11308C080818D932F5F3F4FC9018C0F9D1F84172B
S11308D095079CF3802FABDE182F80E00E945C0EFE
S11308E001C015E0812FDF91CF911F910F91FF90EF
S11308F0DF90CF900895DF92EF92FF920F931F93B2
S1130900F82ED62E142FE22E0E945C0E87E08F154F
S113091010F401E022C088ECD81611F002E01DC0EA
S113092087E08E1510F403E018C0802F90E002C019
S1130930880F991FEA94E2F7EF2DF0E0EF5DFD4F89
S1130940912F9823109580818123982B90838F2D4C
S11309506EDE082F80E00E945C0E802F1F910F91A5
S1130960FF90EF90DF90089587EE87BB83E58DB904
S11309700895FF920F931F93782F142FF22E88302F
S113098010F081E04AC0862F885C813110F082E04B
S113099044C087E0821710F483E03FC0683C19F13B
S11309A0E72FF0E0EE0FFF1FEE0FFF1FEC59FE4F95
S11309B0262F30E0295C304081E090E002C0880FAF
S11309C0991F2A95E2F7AA2797FDA095BA2F2081AF
S11309D0318142815381822B932BA42BB52B8083AD
S11309E09183A283B383202F30E002C0220F331FF0
S11309F0FA94E2F7872F90E0FC0134E0EE0FFF1F3A
S1130A003A95E1F7E80FF91FEF5CFD4FE60FF11D92
S1130A10E85CF0401223108380E01F910F91FF9057
S1130A2008958FEF8FB90C94820E0895DF92EF92A0
S1130A30FF920F931F93CF93DF93D82E162F042F7B
S1130A4079018DEC60E144E020E00E9452108CECCE
S1130A5060E144E020E00E94521087E08D1510F41C
S1130A6081E0A2C0193D08F09AC0183C08F076C095
S1130A70143609F094C0013009F093C087EE87BBA7
S1130A8083E58DB98D2D0E945C0E80E09CE6019774
S1130A90F1F7C7DF082FC5DF182F80E00E945C0E36
S1130AA0011709F056C0002309F453C0AD2DB0E07E
S1130AB0FD0114E0EE0FFF1F1A95E1F7EA0FFB1F8B
S1130AC0EF5CFD4F8081882321F40150F7010083FE
S1130AD00F5FED0174E0CC0FDD1F7A95E1F7CA0FCB
S1130AE0DB1FCF5CDD4F8881813009F05CC00130B1
S1130AF019F4F701108257C0E02FF0E0329721E09B
S1130B0030E00E2E02C0220F331F0A94E2F744276E
S1130B1037FD4095542FAA0FBB1FAA0FBB1FAC591A
S1130B20BE4F8D919D910D90BC91A02D8223932356
S1130B30A423B52382179307A407B50721F4EC0F68
S1130B40FD1F818103C0E85EFE4F8491F70180831D
S1130B502AC08FEFF701808384E026C0612F70E004
S1130B60AB01400F511D4A3D5105DCF481E1D89E93
S1130B70D0011124A60FB71FA759BE4F20E030E0C3
S1130B8007C0F701E20FF31F8D9180832F5F3F4F62
S1130B90C901860F971F841795079CF304C082E050
S1130BA003C083E001C080E0DF91CF911F910F91DA
S1130BB0FF90EF90DF900895EF92FF920F931F93B1
S1130BC0CF93DF93F82EEB0187EE87BB83E58DB9D6
S1130BD08F2D0E945C0E0DE313E0C8010197F1F71D
S1130BE020DFE82E80E00E945C0EC8010197F1F737
S1130BF08F2D0E945C0EC8010197F1F712DFF82EC9
S1130C0080E00E945C0EC8010197F1F7EF1409F42B
S1130C10E8828FB190E08F3F09F491E0892FDF9152
S1130C20CF911F910F91FF90EF9008950C947D0E3A
S1130C300895FC01608308951092AB01EAE9F0E0A5
S1130C408081806880830895EAE9F0E080818F776D
S1130C50808308958EB588608EBD8EB582608EBD0A
S1130C6087B7806187BF8FE890E09BBD8ABD1DBCBC
S1130C701CBC08958EE18093DA0108950F931F93AD
S1130C80CF93DF93EC018A01898170E0E82FF0E0D3
S1130C909B012E0F3F1F8A8190E08217930764F116
S1130CA0AF014C5F5F4F4C0F5D1F20E030E00DC083
S1130CB0DA01A20FB31FF801E20FF31F80818C93B6
S1130CC088818F5F88832F5F3F4F2617370784F310
S1130CD058814981242F30E0250F311D8A8190E00D
S1130CE0450F2817390711F481E001C082E08B8396
S1130CF04983188280E002C081E08B83DF91CF9129
S1130D001F910F9108950F931F93CF93DF93EC01DD
S1130D10962F8981861710F481E042C08881682F5C
S1130D2070E06C5F7F4F6C0F7D1F20E030E0092F77
S1130D3010E00DC0DA01A20FB31FFB01E20FF31F95
S1130D4080818C9388818F5F88832F5F3F4F20172A
S1130D50310784F38881082F10E0DB01A00FB11F55
S1130D6040E050E008C0FB01E40FF51F8C91808344
S1130D701D924F5F5F4FE9819A01200F311F8E2F23
S1130D8090E0281739077CF398819E1719F41B8289
S1130D90198204C082E08B83E91BE983188280E016
S1130DA0DF91CF911F910F9108951F920F920FB66B
S1130DB00F920BB60F9211242F933F934F935F938F
S1130DC06F937F938F939F93AF93BF93EF93FF930F
S1130DD080911701882359F084E191E061E049EDA5
S1130DE051E091DF8091D90180939C0005C08091EE
S1130DF09A008F7B80939A00FF91EF91BF91AF91FE
S1130E009F918F917F916F915F914F913F912F911E
S1130E100F900BBE0F900FBE0F901F901895FC0102
S1130E2081E083830895FC0113821182108280E0A3
S1130E3090E014820196319680329105D1F708959D
S1130E401F920F920FB60F920BB60F9211242F938D
S1130E503F934F935F936F937F938F939F93AF933E
S1130E60BF93EF93FF9390919C009093B201809174
S1130E70AB01823031F1833030F4882359F0813072
S1130E8009F085C00CC0833009F44BC0843009F0EC
S1130E907EC06AC0903F09F063C081E05FC080916A
S1130EA08401981721F482E08093AB0107C010926B
S1130EB0AB0180919A008F7780939A001092B301CE
S1130EC04FC09923B9F480918501823039F483E0CD
S1130ED08093AB018091870190E007C0843051F486
S1130EE083E08093AB0181E090E09093B101809323
S1130EF0B00107C084E08093AB011092B10110925D
S1130F00B00188E391E061E042EB51E0B7DE80910B
S1130F10B2018093B7019091B301980F9093B301FC
S1130F201FC088E391E061E042EB51E0A7DE8091CD
S1130F30B2019091B301890F8093B3018091B00104
S1130F409091B10101979093B1018093B001809188
S1130F50B0019091B101892B19F484E08093AB0125
S1130F608EE18093DA0113C08091B301981721F4C4
S1130F7081E080933B0103C088E391E054DF8EE17C
S1130F808093DA0180919A008F7780939A00FF9181
S1130F90EF91BF91AF919F918F917F916F915F91ED
S1130FA04F913F912F910F900BBE0F900FBE0F905A
S1130FB01F9018951F920F920FB60F920BB60F92B7
S1130FC011242F933F934F935F936F937F938F934A
S1130FD09F93AF93BF93EF93FF938091AC018130C4
S1130FE079F0813018F0823059F524C09091AF0126
S1130FF0913031F58EE18093DA019093AC0120C0F9
S11310008091DA0181508093DA018091DA0188239A
S113101061F480919A008F7780939A0088E391E03D
S113102002DF82E08093AC010BC080919A0087FDBF
S113103007C004C08091AF01882311F41092AC0161
S1131040FF91EF91BF91AF919F918F917F916F919C
S11310505F914F913F912F910F900BBE0F900FBE58
S11310600F901F901895EF92FF920F93DF93CF93F9
S1131070CDB7DEB728970FB6F894DEBF0FBECDBF4D
S11310806D834E832F830887198294E09A8314D644
S11310908091610080618093610080916200806131
S11310A0809362008A819981890F9E81890F9F8133
S11310B0890F9885890F898384E191E061E0AE010D
S11310C04B5F5F4FDBDD84E191E061E0AE014E5F99
S11310D05F4FD4DD84E191E061E0AE014A5F5F4F90
S11310E0CDDD84E191E061E0AE01495F5F4FC6DD93
S11310F084E191E061E0AE01485F5F4FBFDD84E1D0
S113110091E061E0AE014F5F5F4FB8DD8D81809368
S113111084018A818093850180EFDCD580919A00D7
S1131120806480939A0080919A0086FDFCCF809120
S113113062008F7E809362001092AB0180919A00CE
S1131140806880939A0081E08093AF0180913B0195
S1131150813021F08091AC018230C1F71092AF014F
S113116080913B01813011F081E017C088E391E068
S113117061E0AE014D5F5F4FC6DD8B81882351F482
S113118088E391E061E0AE014C5F5F4FBCDD8C8190
S1131190F70180838B81880F880F28960FB6F89407
S11311A0DEBF0FBECDBFCF91DF910F91FF90EF90C7
S11311B00895EF920F93DF93CF93CDB7DEB72897BF
S11311C00FB6F894DEBF0FBECDBF6C834D832E8364
S11311D00F83E886198293E09A836ED5809161002B
S11311E080618093610080916200806180936200DD
S11311F08A819981890F9D81890F9E81890F9F81A1
S1131200890F9885890F898384E191E061E0AE01BB
S11312104C5F5F4F33DD84E191E061E0AE014E5FEE
S11312205F4F2CDD84E191E061E0AE014B5F5F4FE5
S113123025DD84E191E061E0AE014A5F5F4F1EDD90
S113124084E191E061E0AE01495F5F4F17DD84E125
S113125091E061E0AE01485F5F4F10DD84E191E011
S113126061E0AE014F5F5F4F09DD8C8180938401A3
S11312708A818093850180EF2DD580919A008064C6
S113128080939A0080919A0086FDFCCF8091620041
S11312908F7E809362001092AB0180919A008068E7
S11312A080939A0081E08093AF0180913B0181306B
S11312B021F08091AC018230C1F71092AF0180918E
S11312C03B01813011F081E00AC088E391E061E0E4
S11312D0AE014D5F5F4F17DD8B81880F880F289615
S11312E00FB6F894DEBF0FBECDBFCF91DF910F9143
S11312F0EF900895CF92DF92EF92FF920F931F9396
S1131300DF93CF93CDB7DEB727970FB6F894DEBF40
S11313100FBECDBF6D834E832F836801198292E087
S11313209A83CAD480916100806180936100809126
S113133062008061809362008A819981890F9E8115
S1131340890F9F81890F898384E191E061E0AE0177
S11313504B5F5F4F93DC84E191E061E0AE014E5F4F
S11313605F4F8CDC84E191E061E0AE014A5F5F4F46
S113137085DC84E191E061E0AE01495F5F4F7EDC92
S113138084E191E061E0AE014F5F5F4F77DC8D81D6
S1131390809384018A81809385018F818093870162
S11313A080EF98D480919A00806480939A00809111
S11313B09A0086FDFCCF809162008F7E809362004C
S11313C01092AB0180919A00806880939A0081E02A
S11313D08093AF0180913B01813021F08091AC0179
S11313E08230C1F71092AF0180913B01813011F03E
S11313F081E026C088E391E061E0AE014D5F5F4F7C
S113140082DC8B818823C9F400E010E084E0E82EBC
S1131410F12CEC0EFD1E0CC088E391E061E0A70105
S113142072DCF601E00FF11F8C8180830F5F1F4F88
S11314308F8190E0081719077CF38B81880F880F40
S113144027960FB6F894DEBF0FBECDBFCF91DF91C4
S11314501F910F91FF90EF90DF90CF9008950F931D
S11314601F93DF93CF9300D000D000D0CDB7DEB769
S11314706C834D832E83198291E09A831DD48091CD
S1131480610080618093610080916200806180933B
S113149062008A819981890F9D81890F9E81890FBC
S11314A08983F8019801290F311D04C08981919124
S11314B0890F8983E217F307C9F784E191E061E0BA
S11314C0AE014C5F5F4FDADB84E191E061E0AE0195
S11314D04E5F5F4FD3DB84E191E061E0AE014B5F8F
S11314E05F4FCCDB84E191E061E0AE014A5F5F4F86
S11314F0C5DB84E191E06E81A801C0DB84E191E069
S113150061E0AE014F5F5F4FB9DB8C818093840152
S11315108A818093850180EFDDD380919A00806475
S113152080939A0080919A0086FDFCCF809162009E
S11315308F7E809362001092AB0180919A00806844
S113154080939A0081E08093AF0180913B018130C8
S113155021F08091AC018230C1F71092AF018091EB
S11315603B01813011F081E00AC088E391E061E041
S1131570AE014D5F5F4FC7DB8B81880F880F2696C6
S11315800FB6F894DEBF0FBECDBFCF91DF911F9190
S11315900F910895EF920F93DF93CF93CDB7DEB7FA
S11315A028970FB6F894DEBF0FBECDBF6C834D8372
S11315B02E830F83E88619821A827ED3809161007C
S11315C080618093610080916200806180936200F9
S11315D08A819981890F9D81890F9E81890F9F81BD
S11315E0890F9885890F898384E191E061E0AE01D8
S11315F04C5F5F4F43DB84E191E061E0AE014E5FFD
S11316005F4F3CDB84E191E061E0AE014B5F5F4FF3
S113161035DB84E191E061E0AE014A5F5F4F2EDB90
S113162084E191E061E0AE01495F5F4F27DB84E133
S113163091E061E0AE01485F5F4F20DB84E191E01F
S113164061E0AE014F5F5F4F19DB8C8180938401B1
S11316508A818093850180EF3DD380919A008064D4
S113166080939A0080919A0086FDFCCF809162005D
S11316708F7E809362001092AB0180919A00806803
S113168080939A0081E08093AF0180913B01813087
S113169021F08091AC018230C1F71092AF018091AA
S11316A03B01813011F081E00AC088E391E061E000
S11316B0AE014D5F5F4F27DB8B81880F880F289623
S11316C00FB6F894DEBF0FBECDBFCF91DF910F915F
S11316D0EF900895EF92FF920F93DF93CF93CDB7DE
S11316E0DEB728970FB6F894DEBF0FBECDBF6D836B
S11316F04E832F830887198294E09A83DDD28A81EE
S11317009981890F9E81890F9F81890F9885890FFF
S1131710898384E191E061E0AE014B5F5F4FAEDA13
S113172084E191E061E0AE014E5F5F4FA7DA84E1AE
S113173091E061E0AE014A5F5F4FA0DA84E191E09D
S113174061E0AE01495F5F4F99DA84E191E061E0C5
S1131750AE01485F5F4F92DA84E191E061E0AE014F
S11317604F5F5F4F8BDA8D81809384018A818093F0
S1131770850180EFAFD280919A00806480939A00B3
S113178080919A0086FDFCCF1092AB0180919A0063
S1131790806880939A0081E08093AF0180913B013F
S11317A0813021F08091AC018230C1F71092AF01F9
S11317B080913B01813011F081E017C088E391E012
S11317C061E0AE014D5F5F4F9EDA8B81882351F457
S11317D088E391E061E0AE014C5F5F4F94DA8C8165
S11317E0F70180838B81880F880F28960FB6F894B1
S11317F0DEBF0FBECDBFCF91DF910F91FF90EF9071
S11318000895EF920F93DF93CF93CDB7DEB7289768
S11318100FB6F894DEBF0FBECDBF6C834D832E830D
S11318200F83E886198293E09A8346D28A8199814C
S1131830890F9D81890F9E81890F9F81890F9885CA
S1131840890F898384E191E061E0AE014C5F5F4FD1
S113185015DA84E191E061E0AE014E5F5F4F0EDA8C
S113186084E191E061E0AE014B5F5F4F07DA84E110
S113187091E061E0AE014A5F5F4F00DA84E191E0FC
S113188061E0AE01495F5F4FF9D984E191E061E025
S1131890AE01485F5F4FF2D984E191E061E0AE01AF
S11318A04F5F5F4FEBD98C81809384018A81809351
S11318B0850180EF0FD280919A00806480939A0012
S11318C080919A0086FDFCCF1092AB0180919A0022
S11318D0806880939A0081E08093AF0180913B01FE
S11318E0813021F08091AC018230C1F71092AF01B8
S11318F080913B01813011F081E00AC088E391E0DE
S113190061E0AE014D5F5F4FFED98B81880F880F78
S113191028960FB6F894DEBF0FBECDBFCF91DF91EE
S11319200F91EF900895CF92DF92EF92FF920F9371
S11319301F93DF93CF93CDB7DEB727970FB6F894F5
S1131940DEBF0FBECDBF6D834E832F836801198226
S113195092E09A83B1D18A819981890F9E81890FFE
S11319609F81890F898384E191E061E0AE014B5F3F
S11319705F4F84D984E191E061E0AE014E5F5F4F37
S11319807DD984E191E061E0AE014A5F5F4F76D991
S113199084E191E061E0AE01495F5F4F6FD984E17A
S11319A091E061E0AE014F5F5F4F68D98D81809314
S11319B084018A81809385018F818093870180EFE0
S11319C089D180919A00806480939A0080919A00D2
S11319D086FDFCCF1092AB0180919A0080688093C1
S11319E09A0081E08093AF0180913B01813021F026
S11319F08091AC018230C1F71092AF0180913B011C
S1131A00813011F081E026C088E391E061E0AE010D
S1131A104D5F5F4F78D98B818823C9F400E010E0D3
S1131A2094E0E92EF12CEC0EFD1E0CC088E391E04D
S1131A3061E0A70168D9F601E00FF11F8C81808372
S1131A400F5F1F4F8F8190E0081719077CF38B817C
S1131A50880F880F27960FB6F894DEBF0FBECDBF50
S1131A60CF91DF911F910F91FF90EF90DF90CF9076
S1131A7008950F931F93DF93CF9300D000D000D02D
S1131A80CDB7DEB76C834D832E83198291E09A83A0
S1131A9013D18A819981890F9D81890F9E81890F34
S1131AA08983F8019801290F311D04C0898191911E
S1131AB0890F8983E217F307C9F784E191E061E0B4
S1131AC0AE014C5F5F4FDAD884E191E061E0AE0192
S1131AD04E5F5F4FD3D884E191E061E0AE014B5F8C
S1131AE05F4FCCD884E191E061E0AE014A5F5F4F83
S1131AF0C5D884E191E06E81A801C0D884E191E069
S1131B0061E0AE014F5F5F4FB9D88C81809384014F
S1131B108A818093850180EFDDD080919A00806472
S1131B2080939A0080919A0086FDFCCF1092AB01BD
S1131B3080919A00806880939A0081E08093AF013D
S1131B4080913B01813021F08091AC018230C1F75A
S1131B501092AF0180913B01813011F081E00AC005
S1131B6088E391E061E0AE014D5F5F4FCCD88B819B
S1131B70880F880F26960FB6F894DEBF0FBECDBF30
S1131B80CF91DF911F910F910895EF920F93DF93FF
S1131B90CF93CDB7DEB728970FB6F894DEBF0FBE4C
S1131BA0CDBF6C834D832E830F83E88619821A82FE
S1131BB083D08A819981890F9D81890F9E81890FA4
S1131BC09F81890F9885890F898384E191E061E081
S1131BD0AE014C5F5F4F52D884E191E061E0AE0109
S1131BE04E5F5F4F4BD884E191E061E0AE014B5F03
S1131BF05F4F44D884E191E061E0AE014A5F5F4FFA
S1131C003DD884E191E061E0AE01495F5F4F36D891
S1131C1084E191E061E0AE01485F5F4F2FD884E139
S1131C2091E061E0AE014F5F5F4F28D88C818093D3
S1131C3084018A818093850180EF4CD080919A0041
S1131C40806480939A0080919A0086FDFCCF109264
S1131C50AB0180919A00806880939A0081E0809320
S1131C60AF0180913B01813021F08091AC01823041
S1131C70C1F71092AF0180913B01813011F081E0F6
S1131C800AC088E391E061E0AE014D5F5F4F3BD84D
S1131C908B81880F880F28960FB6F894DEBF0FBE8D
S1131CA0CDBFCF91DF910F91EF90089590E08830F0
S1131CB008F091E0892F0895982F883010F081E082
S1131CC0089588B39295990F907E8F71892B88BB64
S1131CD080E00895982F80919B0085FFFCCF90931E
S1131CE09C0083EB92E00197F1F7089580919B00AB
S1131CF087FFFCCF80919C0008958FB9779BFECF1E
S1131D008FB108951FB8779BFECF8FB108951F93AD
S1131D10162FD2DF8DE393E00197F1F780919B00BA
S1131D2085FFFCCF10939C0083EB92E00197F1F7C1
S1131D3080E01F910895CF93DF93EB01BDDF8DE326
S1131D4093E00197F1F720E030E008C02F5F3F4FA8
S1131D508FEF2F3F380711F481E008C080919B007A
S1131D6087FFF4CF80919C00888380E0DF91CF913E
S1131D7008955D9BFECF8CB908955F9BFECF8CB117
S1131D80089584E980937400089584EA809374002C
S1131D908091740087FFFCCF80917100887F883028
S1131DA011F480E0089584E98093740081E008953B
S1131DB084E980937400089584EA80937400809188
S1131DC0740087FFFCCF80917100887F803111F40B
S1131DD080E0089584E98093740082E0089590E09F
S1131DE0880F991F8093730084E880937400809116
S1131DF0740087FFFCCF80917100887F883119F0CF
S1131E0084E9809374000895880F8F5F8093730032
S1131E1084E8809374008091740087FFFCCF8091E4
S1131E207100887F803419F084E9809374000895E8
S1131E308093730084E8809374008091740087FF1A
S1131E40FCCF80917100887F883219F084E98093F7
S1131E507400089584EC809374008091740087FF6B
S1131E60FCCF80917100887F803519F084E98093DC
S1131E70740080917300089584E8809374008091C5
S1131E80740087FFFCCF80917100887F883519F03A
S1131E9084E9809374000895FF920F931F93182F81
S1131EA0062FF42E72DF812F9ADF802FC1DF8F2D52
S1131EB0BFDF84E9809374001F910F91FF90089510
S1131EC00F931F93082F162F60DF802F88DF812F39
S1131ED0AFDF72DF802F98DFBDDF182FCDDF84E9FD
S1131EE080937400812F1F910F9108958093700047
S1131EF00895EF92FF920F931F93182F062FF72E3A
S1131F00E42E43DF813009F441C0812F90E0880F33
S1131F10991F90708093730084E88093740080917B
S1131F20740087FFFCCF80917100887F883139F479
S1131F30802F9F2D9C01F90190E024E81AC084E9C8
S1131F408093740083E022C0808180937300209387
S1131F5074008091740087FFFCCF809171003196EA
S1131F60887F883229F084E98093740084E00EC06D
S1131F709F5F9E1548F381E08E1520F484E98093D9
S1131F80740003C081E08093DB0180E01F910F9116
S1131F90FF90EF9008950F931F93CF93DF93082F33
S1131FA0EB01142F8091DB01813039F405DF82309D
S1131FB009F473C01092DB0101C0E7DE813009F43B
S1131FC06CC0802F90E0880F991F8160809373000C
S1131FD084E8809374008091740087FFFCCF809123
S1131FE07100887F803429F084E98093740085E04F
S1131FF054C01230D0F140E0212F30E02150304065
S113200054EC17C0509374008091740087FFFCCF88
S113201080917100887F803529F084E98093740071
S113202086E03BC080917300FE01E40FF11D8083C4
S11320304F5F842F90E08217930724F384E8809302
S113204074008091740087FFFCCF80917100887FB9
S1132050883529F084E98093740087E01EC080915C
S11320607300C10FD11D219713C084E880937400BD
S11320708091740087FFFCCF80917100887F883540
S113208029F084E98093740088E007C0809173008C
S1132090888384E98093740080E0DF91CF911F915D
S11320A00F910895922F483008F0C0C08A3C09F47B
S11320B04AC08B3C30F4883C71F0893C09F0B6C0CE
S11320C026C08C3C09F477C08C3C08F458C08D3C85
S11320D009F0ACC08CC02AB3E92FF0E002C0EE0FC7
S11320E0FF1F4A95E2F7262330E0862F90E08E23E7
S11320F09F232817390711F420E001C022E08AB396
S1132100962F9E2360958623982B9ABB90C027B365
S1132110E92FF0E002C0EE0FFF1F4A95E2F72623F5
S113212030E0862F90E08E239F232817390711F47F
S113213020E001C022E087B3962F9E23609586237A
S1132140982B97BB74C024B3E92FF0E002C0EE0FC4
S1132150FF1F4A95E2F7262330E0862F90E08E2376
S11321609F232817390711F420E001C022E084B32B
S1132170962F9E2360958623982B94BB58C021B339
S1132180E92FF0E002C0EE0FFF1F4A95E2F7262385
S113219030E0862F90E08E239F232817390711F40F
S11321A020E001C022E081B3962F9E236095862310
S11321B0982B91BB3CC022B1E92FF0E002C0EE0F96
S11321C0FF1F4A95E2F7262330E0862F90E08E2306
S11321D09F232817390711F420E001C022E082B1BF
S11321E0962F9E2360958623982B92B920C0209128
S11321F06100E92FF0E002C0EE0FFF1F4A95E2F7FD
S1132200262330E0862F90E08E239F23281739075A
S113221011F420E001C022E080916100962F9E23FA
S113222060958623982B9093610001C021E0822F52
S11322300895FA016130C9F58230D1F0833028F471
S1132240882351F0813089F50DC08430E9F0843061
S1132250A8F0853051F51EC08AB38F3F21F58081E7
S11322608BBB1FC087B38F3FF1F4808188BB19C03B
S113227084B38F3FC1F4808185BB13C081B38F3F8A
S113228091F4808182BB0DC082B18F3F61F4808163
S113229083B907C0809161008F3F29F480818093C6
S11322A0620080E0089582E0089581E00895FA01D3
S11322B0613009F042C08636F1F0873628F484365E
S11322C051F08536D1F50FC0883629F18836D8F01B
S11322D0893699F529C08AB3882311F490E001C0A6
S11322E092E089B31FC087B3882311F490E001C042
S11322F092E086B317C084B3882311F490E001C040
S113230092E083B30FC081B3882311F490E001C03D
S113231092E080B307C082B1882311F490E001C039
S113232092E081B180830AC080916100882311F416
S113233090E001C092E080B1F5CF91E0892F08953B
S1132340483008F089C08230C1F1833030F48823EA
S113235071F0813009F080C01DC0843009F452C08E
S1132360843008F43DC0853009F076C05DC05AB3AE
S11323705623561709F06EC08BB330E002C0220F0B
S1132380331F4A95E2F7952F922350955823952BA6
S11323909BBB5EC057B35623561709F05BC088B386
S11323A030E002C0220F331F4A95E2F7952F9223A3
S11323B050955823952B98BB4BC054B356235617AE
S11323C009F048C085B330E002C0220F331F4A959C
S11323D0E2F7952F922350955823952B95BB38C03F
S11323E051B356235617B1F582B330E002C0220F21
S11323F0331F4A95E2F7952F922350955823952B36
S113240092BB26C052B15623561721F583B130E052
S113241002C0220F331F4A95E2F7952F922350955D
S11324205823952B93B914C0509161005623561725
S113243089F48091620030E002C0220F331F4A9574
S1132440E2F7952F922350955823952B9093620091
S113245080E0089582E0089581E00895F90148300C
S113246008F04BC0863601F1873630F4843661F0CB
S1132470853609F042C010C0883631F18836E0F064
S1132480893609F03AC030C08AB3862311F420E0BB
S113249001C022E089B31FC087B3862311F420E072
S11324A001C022E086B317C084B3862311F420E070
S11324B001C022E083B30FC081B3862311F420E06E
S11324C001C022E080B307C082B1862311F420E06A
S11324D001C022E081B1862390E002C095958795E2
S11324E04A95E2F780830AC080916100862311F443
S11324F020E001C022E080B1EECF21E0822F0895D8
S1132500CF93DF9300D000D0CDB7DEB70E94AB02EB
S113251000E020E04FEF68EC81E00E947B042FEFA5
S11325208FE593E0215080409040E1F700C0000027
S113253001E020E041E068EC82E00E94B9042FEF62
S11325408FE593E0215080409040E1F700C0000007
S113255015988AB782608ABF89B7806289BF7894E8
S11325600F2EF0E3EF2EF02D0F2EF3E3FF2EF02DC0
S113257001E315E3E982FA820B831C839E012F5F3A
S11325803F4F44E060E081E00E941904F3CF90E003
S1132590FC01F197E631F10580F5EA5BFF4F08C4D1
S11325A080E091E02CC080E092E029C080E093E0DC
S11325B026C080E094E023C080E095E020C080E065
S11325C096E01DC080E097E01AC080E098E017C054
S11325D080E099E014C081E09AE011C082E09AE0C2
S11325E00EC083E09AE00BC084E09AE008C085E066
S11325F09AE005C086E09AE002C080E090E0FB012A
S11326009083FA01808308950F931F93782F8A3063
S1132610B1F4613069F41092E6011092E70110926E
S1132620E8011092E9011092E5011092E40144C01E
S113263081E090E09093E5018093E4013DC08091B6
S1132640E4019091E501019761F41092E601109282
S1132650E7011092E8011092E9011092E50110924D
S1132660E4018091E6019091E701A091E801B09125
S1132670E901880F991FAA1FBB1F8C019D01000F40
S1132680111F221F331F000F111F221F331F800F22
S1132690911FA21FB31F870F911DA11DB11D809310
S11326A0E6019093E701A093E801B093E901FA01F0
S11326B080839183A283B3831F910F9108958F9296
S11326C09F92AF92BF92EF92FF920F931F934B0191
S11326D05C014A3009F06DC1213089F41092E301A4
S11326E01092E2011092E1011092E0011092DF01D8
S11326F01092DE011092DD011092DC0179C12230CA
S113270009F08AC081E090E09093DF018093DE01BC
S1132710B4018091E0019091E1018430910509F4C4
S113272041C034F4009751F0039709F455C060C1D7
S11327308530910511F1069759F05AC1092C000C06
S1132740AA08BB08F80180829182A282B38250C198
S11327508091E2019091E301880E991EC401092C35
S1132760000CAA0BBB0BF80180839183A283B38373
S11327709092E3018092E2013BC18091E201909149
S1132780E30188199909AC01092E000C660B770B3B
S1132790F80140835183628373839093E3018093B0
S11327A0E20126C12091E2013091E301289DC0019C
S11327B0299D900D389D900D1124AC01092E000C1B
S11327C0660B770BF8014083518362837383909384
S11327D0E3018093E2010CC1892851F480EA96E870
S11327E0A1E0B0E0F80180839183A283B38300C1A8
S11327F08091E2019091E301C8D2CB01072E000C35
S1132800AA0BBB0BF80180839183A283B3837093DB
S1132810E3016093E201ECC08091DE019091DF015D
S1132820009709F099C04091DC015091DD01452BDE
S113283009F0D6C08091E0019091E10184309105C6
S113284009F446C034F4009751F0039709F45FC0CB
S113285077C08530910511F1069731F071C09092DF
S1132860E3018092E2016CC08091E2019091E30166
S1132870880E991EC401092C000CAA0BBB0BF8018D
S113288080839183A283B3839092E3018092E201D7
S1132890F70180839183A283B38352C08091E201C4
S11328A09091E30188199909AC01092E000C660B7B
S11328B0770BF80140835183628373839093E30120
S11328C08093E201F701408351836283738338C0AC
S11328D08091E2019091E301889DA001899D500DB2
S11328E0989D500D1124CA01052E000CAA0BBB0B98
S11328F0F80180839183A283B3835093E3014093CF
S1132900E201F70180839183A283B38319C080918C
S1132910E2019091E301B40138D2CB01072E000CFF
S1132920AA0BBB0BF80180839183A283B3837093BA
S1132930E3016093E201F70180839183A283B3836F
S113294030E03093E1012093E00181E090E0909346
S1132950DD018093DC014CC04091DC015091DD012C
S11329604130510531F4422F50E05093E10140933E
S1132970E0010197E9F5F80180819181A281B38199
S11329809093E3018093E201F70180839183A28312
S1132990B38330E03093E1012093E0011092DF0132
S11329A01092DE0181E090E09093DD018093DC01E0
S11329B01FC01092DD011092DC018091DE01909124
S11329C0DF010197A9F41092E3011092E201109241
S11329D0E1011092E0011092DF011092DE0108C0C3
S11329E04091DC015091DD014130510509F4BBCF28
S11329F01F910F91FF90EF90BF90AF909F908F9099
S1132A0008958F929F92AF92BF92CF92DF92EF92EE
S1132A10FF920F931F93CF93DF93FB01D80113967B
S1132A201C92139712961C92129711961C9211974E
S1132A301C922230310529F02130310521F0E82F94
S1132A40F92F309721F480E3F8018383A0C01E1688
S1132A501F060CF085C09F01CF01099683319105B3
S1132A6008F48AC0865A9F4F873C910508F487C0B2
S1132A7029513C4F2F3C374008F084C083E090E05C
S1132A8083C080E090E0442755274E1B5F0B29E06C
S1132A9030E02E1B3F0B2331310508F44FC023E6F1
S1132AA030E02E1B3F0B273C310508F44AC027EECB
S1132AB033E02E1B3F0B2F3C374008F445C024E085
S1132AC030E05901A81AB90AB4E0AB16B1047CF598
S1132AD0FA016894882481F8912CE8010F2EF3E020
S1132AE0EF2EF12CF02D0F2EFAE0CF2ED12CF02D5D
S1132AF04DE2CF01B60149D19C01CF01821B930B5A
S1132B00B60143D1FB01205D2B8361E0861691045D
S1132B1009F44A8381E0E81AF1082197EA14FB04D6
S1132B2044F7EF2B21F4A2E08A16910481F58DE29B
S1132B30F801838382838183808329C081E090E0CC
S1132B4005C082E090E002C083E090E024E030E041
S1132B505901A81AB90AFA0188248394912CBDCF8B
S1132B60FF230CF48ECFE3CF24E030E05901A81A00
S1132B70B90A812C912CB1CF81E090E005C082E0AC
S1132B8090E002C084E090E0FF2374F77CCFDF91F3
S1132B90CF911F910F91FF90EF90DF90CF90BF9056
S1132BA0AF909F908F9008951F920F920FB60F923F
S1132BB011240BB60F92EF92FF920F931F932F9352
S1132BC03F934F935F936F937F938F939F93AF93B1
S1132BD0BF93EF93FF93CF93DF9300D000D0CDB793
S1132BE0DEB719821A821B8280E38C838091F20102
S1132BF0811124C022EF31E041E064E682E00E94CA
S1132C0016058091F2018823A9F399819D32B1F4CC
S1132C109A819D3299F49B819D3281F49C819D32ED
S1132C2069F4813459F022EF31E041E064E682E056
S1132C300E9416058091F2018134A9F743EF51E017
S1132C4064EF71E08091F201A2DC8091F4018A309A
S1132C50A1F49091F301913081F41092EA01109261
S1132C60EB011092EC011092ED011092EE01109222
S1132C70EF011092F0011092F1014EEE51E06091DB
S1132C80F301C2DC6091EE017091EF018091F001DB
S1132C909091F1010F2EFEEEEF2EF1E0FF2EF02DBC
S1132CA00AEE11E02091F3014091F40108DD8981DD
S1132CB01F928F930CE511E01F930F9396D08A8196
S1132CC01F928F931F930F9390D08B811F928F939A
S1132CD01F930F938AD08C811F928F9380E691E08B
S1132CE09F938F9382D02091F30130E04091F401BF
S1132CF050E06091EA017091EB018E010F5F1F4F6C
S1132D008091EE019091EF017CDE980144E060E057
S1132D1081E00E9419042FEF8FE593E02150804059
S1132D209040E1F700C000000FB6F894DEBF0FBE7C
S1132D30CDBF8091F201882359F022EF31E041E0C8
S1132D4064E682E00E9416058091F2018111F5CFBC
S1132D500F900F900F900F90DF91CF91FF91EF9113
S1132D60BF91AF919F918F917F916F915F914F919F
S1132D703F912F911F910F91FF90EF900F900BBEF9
S1132D800F900FBE0F901F90189597FB072E16F407
S1132D90009406D077FD08D014D007FC05D03EF48B
S1132DA0909581959F4F0895709561957F4F0895F3
S1132DB0EE0FFF1F0024001C0BBE0790F691E02DC0
S1132DC00994AA1BBB1B51E107C0AA1FBB1FA6176E
S1132DD0B70710F0A61BB70B881F991F5A95A9F7C0
S1132DE080959095BC01CD010895CF93DF93CDB725
S1132DF0DEB7AE014B5F5F4FFA0161917191AF0194
S1132E008091C3029091C40203D0DF91CF910895C1
S1132E102F923F924F925F926F927F928F929F92E6
S1132E20AF92BF92CF92DF92EF92FF920F931F93D4
S1132E30CF93DF93CDB7DEB72B970FB6F894DEBFF1
S1132E400FBECDBF6C017B018A01FC011782168283
S1132E50838181FFBFC1CE0101963C01F6019381BC
S1132E60F70193FD859193FF81917F01882309F4F4
S1132E70ADC1853239F493FD859193FF81917F0132
S1132E80853221F4B60190E0D6D1E8CF912C212CE3
S1132E90312CFFE1F315D8F08B3279F038F480321D
S1132EA079F08332A1F4232D20611DC08D3261F0AD
S1132EB0803369F4232D216016C0832D8260382E5F
S1132EC0E32DE4603E2E2AC0F32DF8601DC037FCCC
S1132ED02DC020ED280F2A3040F08E32B9F436FC94
S1132EE075C1232D2064322E19C036FE06C08AE037
S1132EF0989E200D1124922E11C0EAE02E9E200DE2
S1132F001124222EF32DF0623F2E08C08C3621F4BA
S1132F10832D8068382E02C0883641F4F70193FD72
S1132F20859193FF81917F018111B3CF982F9F7D6C
S1132F309554933028F40C5F1F4F9FE399830DC081
S1132F40833631F0833771F0833509F055C020C0E2
S1132F50F801808189830E5F1F4F88248394912C0C
S1132F60530112C02801F2E04F0E511CF801A08059
S1132F70B18036FE03C0692D70E002C06FEF7FEFB1
S1132F80C5014ED14C018201F32DFF773F2E15C0B0
S1132F90280122E0420E511CF801A080B18036FEC7
S1132FA003C0692D70E002C06FEF7FEFC5012DD122
S1132FB04C01F32DF0683F2E820133FC19C0822DA1
S1132FC090E088169906A0F4B60180E290E033D12F
S1132FD02A94F5CFF50137FC859137FE81915F0185
S1132FE0B60190E028D121102A9421E0821A910898
S1132FF08114910479F7E1C0843611F0893639F5EA
S1133000F80137FE07C060817181828193810C5F72
S11330101F4F08C060817181072E000C880B990B2B
S11330200E5F1F4FF32DFF763F2E97FF09C090953B
S11330308095709561957F4F8F4F9F4FF0683F2E1D
S11330402AE030E0A30133D1882E861844C08537A6
S113305031F4232D2F7EB22E2AE030E025C0932DAB
S1133060997FB92E8F36C1F018F4883579F0AEC047
S1133070803719F0883721F0A9C0E92FE061BE2E0E
S1133080B4FE0DC0FB2DF460BF2E09C034FE0AC08F
S1133090292F2660B22E06C028E030E005C020E1CA
S11330A030E002C020E132E0F801B7FE07C06081E1
S11330B07181828193810C5F1F4F06C06081718191
S11330C080E090E00E5F1F4FA301F1D0882E861898
S11330D0FB2DFF773F2E36FE0DC0232D2E7FA22E13
S11330E0891458F434FE0BC032FC09C0832D8E7E43
S11330F0A82E05C0B82CA32C03C0B82C01C0B92C31
S1133100A4FE0FC0FE01E80DF11D8081803321F47F
S11331109A2D997EA92E09C0A2FE06C0B394B39439
S113312004C08A2D867809F0B394A3FC10C0A0FED5
S113313006C0B21480F4280C922C9B180DC0B21453
S113314058F4B60180E290E076D0B394F8CFB2148C
S113315018F42B1802C0982C212CA4FE0FC0B60121
S113316080E390E068D0A2FE16C0A1FC03C088E70B
S113317090E002C088E590E0B6010CC08A2D867804
S113318051F0A1FE02C08BE201C080E2A7FC8DE2F7
S1133190B60190E050D0891430F4B60180E390E099
S11331A04AD09A94F8CF8A94F301E80DF11D8081F6
S11331B0B60190E040D08110F6CF222009F44ECE23
S11331C0B60180E290E037D02A94F7CFF6018681E9
S11331D0978102C08FEF9FEF2B960FB6F894DEBF56
S11331E00FBECDBFDF91CF911F910F91FF90EF9054
S11331F0DF90CF90BF90AF909F908F907F906F9013
S11332005F904F903F902F900895FC01059061507E
S113321070400110D8F7809590958E0F9F1F0895E8
S1133220FC016150704001900110D8F78095909591
S11332308E0F9F1F08950F931F93CF93DF93FB016E
S1133240238121FD03C08FEF9FEF2CC022FF16C006
S113325046815781248135814217530744F4A08164
S1133260B1819D012F5F3F4F318320838C93268151
S113327037812F5F3F4F3783268314C08B01EC01C6
S1133280FB010084F185E02D0995892BE1F6D80135
S113329016968D919C911797019617969C938E93F1
S11332A01697CE01DF91CF911F910F910895FA01E6
S11332B0AA27283051F1203181F1E8946F936E7F71
S11332C06E5F7F4F8F4F9F4FAF4FB1E03ED0B4E062
S11332D03CD0670F781F891F9A1FA11D680F791FA3
S11332E08A1F911DA11D6A0F711D811D911DA11DB4
S11332F020D009F468943F912AE0269F11243019C4
S1133300305D3193DEF6CF010895462F4770405D5E
S11333104193B3E00FD0C9F7F6CF462F4F70405D0D
S11333204A3318F0495D31FD4052419302D0A9F768
S1133330EACFB4E0A6959795879577956795BA9562
S1133340C9F700976105710508959B01AC010A2E28
S113335006945795479537952795BA95C9F7620FFF
S1113360731F841F951FA01D0895F894FFCFBE
S113336E0000000300000000B400C1000000D7D725
S113337ED74F4B9A0000230000000000000000000D
S113338E000000000000000000000000000000002B
S113339E00000000000000000000230000000000F8
S11333AE000000000000000000000000000000000B
S11333BE0000000000000000000000002564090069
S10733CE25640A0064
S9030000FC
