:100000000C948F000C94AE000C94AE000C94AE00D7
:100010000C94AE000C94AE000C94AE000C94AE00A8
:100020000C94AE000C94AE000C94AE000C94AE0098
:100030000C94440B0C94AE000C94AE000C94AE00E7
:100040000C94AE000C94AE000C94AE000C94AE0078
:100050000C94AE000C94AE000C94AE000C94AE0068
:100060000C94AE000C94AE000C94AE000C94AE0058
:100070000C94AE000C94AE000C94870A0C94AE0065
:100080000C943B0A0C94AE000C94AE00DC00BD0056
:10009000BF00C100C300C500C700C900CB00CD0030
:1000A000CF00D100D300DC00D500D700D9001EFF5F
:1000B000FFFFFFFFFFFFFFFFFFFFFFFFFFFFFFFF50
:1000C000FFFFFFFFFFFFFFFFFFFFFFFFFFFFFFFF40
:1000D000FFFFFFFFFFFFFFFFFFFFFF1BFFFF000111
:1000E0000203040506070809FFFFFFFFFFFFFF0AE1
:1000F0000B0C0D0E0F10111213FF14FF151617FF26
:10010000FFFFFF18FFFFFF19FFFFFFFFFF1A464524
:100110004443423336394132353830313437112493
:100120001FBECFEFD0E1DEBFCDBF11E0A0E0B1E058
:10013000E6E2F3E300E00BBF02C007900D92A236A7
:10014000B107D9F712E0A2E6B1E001C01D92A43FC9
:10015000B107E1F70E9427020C9491190C9400005A
:10016000E82FF0E0E131F10530F5EA5BFF4FEE0FEB
:10017000FF1F0590F491E02D099486E4089585E42D
:10018000089584E4089583E4089582E4089583E360
:10019000089586E3089589E3089581E4089582E34C
:1001A000089585E3089588E3089581E3089584E33D
:1001B000089587E30895089580E30895893038F419
:1001C000863088F4813060F0853058F005C0893081
:1001D00029F0813128F407C083E0089584E0089570
:1001E000089582E0089581E008958434E1F1853432
:1001F00020F4833409F0ADC072C08534C1F0863478
:1002000009F0A7C08091FF0190910002029724F0AD
:100210001092F0011092EF0180911A0290911B024E
:100220002091EF013091F001820F931F53C0809114
:10023000FF0190910002029724F01092F0011092B9
:10024000EF018091F1019091F2016091EF017091C5
:10025000F001892B09F46EC080911A0290911B0263
:10026000861B970B37C020910E0230910F02213070
:10027000310571F48091100290911102029744F4BB
:100280003093F0012093EF0110920F0210920E02B2
:100290008091FF0190910002029734F081E090E09C
:1002A0009093F0018093EF018091F1019091F20120
:1002B0006091EF017091F001892BE1F180911A02B8
:1002C00090911B029C01269FC001279F900D369F95
:1002D000900D112490931B0280931A02089520918F
:1002E0000E0230910F022130310571F4809110021D
:1002F00090911102029744F43093F0012093EF01A2
:1003000010920F0210920E028091FF019091000254
:10031000029734F081E090E09093F0018093EF0138
:100320008091F1019091F2016091EF017091F001E3
:10033000892B29F470931B0260931A02089580910F
:100340001A0290911B020E945B1670931B0260932D
:100350001A020895815F984D8F519E4488F08DE276
:1003600080931502809316028093170280931802DF
:10037000809308028093090280930A0280930B0203
:1003800008950F93CF93DF93EC018091F301909147
:10039000F4018230910561F08330910581F001977D
:1003A000A9F481E060E04FEF20E000E80E94DC0764
:1003B00081E060E04FEF20E000E40E94DC0781E094
:1003C00060E04FEF20E000E20E94DC0781E060E0A7
:1003D00044E09E010E947907DF91CF910F9108952B
:1003E0000F931F93DF93CF930F92CDB7DEB781E0CA
:1003F00089838E010F5F1F4F06C081E060E041E0FE
:1004000098010E94780889818823B9F70F90CF91CD
:10041000DF911F910F9108950F931F93DF93CF9357
:100420000F92CDB7DEB719828E010F5F1F4F06C046
:1004300081E060E041E098010E947808898188238A
:10044000B9F30F90CF91DF911F910F9108956F92A3
:100450007F928F929F92BF92CF92DF92EF92FF9204
:100460000F931F93CF93DF930E940A0680E380933C
:10047000150210921602109217021092180285E1CE
:1004800092E00E94C10130E3B32EC8E0D2E020E048
:10049000C22E21E0D22E93E0692E91E0792E81E0E8
:1004A000E82EF12C88248A94982C0DE2B092150243
:1004B0001092160210921702109218021092130254
:1004C0001092120210920D0210920C02A2C10E9410
:1004D0000C02809320020E94F00110912002812FD3
:1004E0000E94B00080930302812F0E94DE0080935F
:1004F000120210921302823009F44CC0833020F4AF
:10050000813009F07DC107C0833009F4DEC084303A
:1005100009F076C10FC180911C0290911D020196D5
:1005200090931D0280931C02059764F000931502BE
:1005300000931602009317020093180285E192E0DF
:100540000E94C1018091060290910702019741F437
:1005500010921B0210921A021092F0011092EF01F9
:10056000109200021092FF0120910C0230910D02B6
:10057000F901EB5EFD4F80910302808380911502AB
:10058000803309F0D2C02150304030930D022093C7
:100590000C02CBC0109207021092060210921D02AC
:1005A00010921C028091FF0190910002019690939D
:1005B00000028093FF011092110210921002029724
:1005C00044F485E192E00E9482169093F0018093BA
:1005D000EF0180911E0290911F02892B41F48091BE
:1005E000030280931402F0921F02E0921E02909187
:1005F000140280910302981711F1892F0E94F500CF
:1006000000D000D000D0EDB7FEB73196ADB7BEB781
:100610001296DC93CE931197D382C28280911A02F4
:1006200090911B02958384830E94BA16EDB7FEB7A2
:1006300036960FB6F894FEBF0FBEEDBF27C0892FC8
:100640000E94F50000D000D000D0EDB7FEB7319683
:10065000ADB7BEB71296DC93CE931197D382C28208
:1006600080911A0290911B02958384830E94BA168E
:100670000F900F90EDB7FEB772826182D483C3836F
:100680000E94A8160F900F900F900F9080911A0261
:1006900090911B020E94AA01CE010E94C10180918B
:1006A0000302809314028091F1019091F20101966E
:1006B0009093F2018093F101B09208021092090226
:1006C00010920A0210920B029BC010921D0210920F
:1006D0001C0290920D0280920C0210921302109252
:1006E000120210921B0210921A021092F001109244
:1006F000EF011092F2011092F10110921F0210927C
:100700001E0210920F0210920E021092110210920D
:1007100010021092070210920602B0921502109277
:100720001602109217021092180285E192E00E94C0
:10073000C10166C0F0920702E092060210921D020B
:1007400010921C02809110029091110201969093D8
:1007500011028093100290920D0280920C02029777
:1007600044F485E192E00E9482169093F001809318
:10077000EF01809114020E94F50000D000D000D05B
:10078000EDB7FEB73196ADB7BEB71296DC93CE93F8
:100790001197D382C28280911A0290911B02958395
:1007A00084830E94BA160F900F90EDB7FEB7728245
:1007B0006182D483C3830E94A8160F900F900F907C
:1007C0000F9080911A0290911B020E94AA01CE0103
:1007D0000E94C101F0920F02E0920E0210921F02DD
:1007E00010921E028091100290911102019741F423
:1007F000B09215021092160210921702109218026F
:1008000080910C0290910D02019690930D028093BD
:100810000C028091120290911302029709F446CEC5
:1008200056CE1F93182F8A3019F48DE00E941104C0
:100830005D9BFECF1CB980E090E01F9108951F934F
:10084000BC015F9BFECF1CB1812F0E941104812F40
:1008500090E01F910895382F843010F081E00895C2
:10086000483010F082E00895822F90E002C0880F97
:10087000991F4A95E2F7282F313089F0313028F05E
:100880003230B9F03330F1F41FC08AB3862B8ABB03
:100890008BB3262360958623282B2BBB13C087B3ED
:1008A000862B87BB88B3262360958623282B28BBFD
:1008B00009C084B3862B84BB85B326236095862329
:1008C000282B25BB80E0089582B1862B82B983B1A5
:1008D000262360958623282B23B980E00895F9010B
:1008E000843010F081E00895483010F082E00895DF
:1008F0008130B9F0813028F0823019F18330C1F5B0
:1009000039C08AB3882329F09AB3862F809589232A
:1009100005C08AB3882319F4862F80958ABB89B3D2
:100920001FC087B3882329F097B3862F809589232A
:1009300005C087B3882319F4862F809587BB86B3BB
:100940000FC084B3882329F094B3862F8095892320
:1009500005C084B3882319F4862F809584BB83B3A4
:10096000862390E002C0959587954A95E2F78083AB
:1009700080E0089582B1882329F092B1862F809576
:10098000892305C082B1882319F4862F809582B906
:1009900081B1862390E002C0959587954A95E2F74C
:1009A000808380E00895DF92EF92FF920F931F9370
:1009B000CF93DF93082FD62EE72E813210F081E0FF
:1009C0002AC00E948A128B3A29F50E948A128B3A19
:1009D00009F50E948A128B3AE9F40E948A12F82ED5
:1009E000182F8D2D9E2D9C01E90104C00E948A12B2
:1009F0008993180F9E012D192017C0F30E948A12A7
:100A0000F01611F083E007C0811711F480E003C0F5
:100A100084E001C082E0DF91CF911F910F91FF90A0
:100A2000EF90DF900895AF92BF92CF92DF92EF9256
:100A3000FF920F931F93CF93DF93182F092FE62E6A
:100A4000B42EA52E2FEF621711F481E045C00E944D
:100A50008A128B3A09F03FC00E948A128B3AD9F56C
:100A60000E948A128B3AB9F50E948A12F82E0E94CF
:100A70008A12C82EA12FB02FFD0101900020E9F7A6
:100A80003197DE2ED11A212F302FC901EC010C2D08
:100A900010E005C00E948A128993080F1F5F1D1580
:100AA000C8F38B2D9A2D9C01E90104C00E948A1283
:100AB0008993080F9E012B192E15C0F30E948A12EC
:100AC000FC18FE1411F083E007C0801711F480E0D9
:100AD00003C084E001C082E0DF91CF911F910F91AC
:100AE000FF90EF90DF90CF90BF90AF900895AF92BE
:100AF000BF92CF92DF92EF92FF920F931F93CF930B
:100B0000DF93D82EC92EE62EB42EA52E8BEB0E9495
:100B100086128BEB0E9486128BEB0E948612ED2DC3
:100B2000FC2DEF0109900020E9F72197CE1BDF0B88
:100B30000C2F8C2F90E001968E0D911D8F3F91050B
:100B400019F014F081E02CC00F5F102F1E0D015022
:100B5000812F0E9486128C2F0E948612F12EF00E99
:100B60002D2D3C2DC901EC0110E006C088810E94AA
:100B700086128991F80E1F5F1017C0F38B2D9A2DE6
:100B80009C01E90100E006C088810E9486128991DB
:100B9000F80E0F5F0E15C0F38F2D0E94861280E0B5
:100BA000DF91CF911F910F91FF90EF90DF90CF9049
:100BB000BF90AF900895EF92FF920F931F93CF9342
:100BC000DF93082F7B01813210F081E01CC08AEA9C
:100BD0000E9486128AEA0E9486128AEA0E9486127F
:100BE000802F0E948612102FE70105C088810E9485
:100BF00086128991180F9E012E192017B8F3812FA4
:100C00000E94861280E0DF91CF911F910F91FF909B
:100C1000EF9008951092900091E199B98AB188619E
:100C20008AB9E5E9F0E080818660808310929800BF
:100C300090939900EAE9F0E0808188618083EDE992
:100C4000F0E080818660808386E091E09093F102FD
:100C50008093F0029093EF028093EE0287B3806E50
:100C600087BB80E00E9427120E949009789480E060
:100C70000895CF93DF93E901883010F081E034C00C
:100C8000643068F0683C11F082E02EC0413059F5C4
:100C9000E82FF0E0E25BFD4F8081888322C070E0A6
:100CA0009B01240F311DA90125303105E4F4A82F43
:100CB000B0E0AA0FBB1FAA0FBB1FA60FB71FA25DF4
:100CC000BD4F20E030E007C0FE01E20FF31F8D9121
:100CD00080832F5F3F4FC901860F971F84179507A9
:100CE0009CF380E001C083E0DF91CF910895AF9243
:100CF000BF92CF92DF92EF92FF920F931F93DF93F9
:100D0000CF93CDB7DEB72D970FB6F894DEBF0FBEE9
:100D1000CDBFE82EDE011296E4E1F1E086E001901D
:100D20000D928150E1F72E2D30E0D901AA0FBB1FA3
:100D3000AA0FBB1FA25DBD4F8C91E82FF0E0E255DA
:100D4000FF4F449111968C911197E82FF0E0E255F6
:100D5000FF4F5491F901EE0FFF1FEE0FFF1FE05DF3
:100D6000FD4FE081F0E0E255FF4F749113968C91B6
:100D700090E082559F4FFC016491E8E0CE2ED12C8B
:100D8000CC0EDD1E86E0F60111928A95E9F7225B12
:100D90003D4FF9012081922F9078940F822F887017
:100DA000880F880F880F980F90932A02822F8074E3
:100DB000880F922F94709295907F890F850F809362
:100DC0002B02822F8072880F880F922F927092953B
:100DD000990F907E890F870F80932C02822F80714C
:100DE000880F880F880F21702295220F220F207CF8
:100DF000820F860F80932D0219828E2D6DE70E943F
:100E000052128E2D6DE70E9452128E2D6DE70E94B8
:100E100052128E2D61E00E9452128E2D64E00E94CB
:100E200052128E2D64E00E9452128E2D60912A0281
:100E30000E94521210912A028E2D60912B020E9464
:100E40005212F0902B028E2D60912C020E945212B1
:100E500000912C028E2D60912D020E9452121F0DC6
:100E6000175F100F80912D02180F8E2D612F0E9499
:100E7000521286015E010894A11CB11C9EE0C92E8D
:100E8000D12CCC0EDD1E8E2DB5010E9467128981FA
:100E9000F80181938F01EC15FD05A9F720E030E002
:100EA000BE01685F7F4FAE014E5F5F4FFB01E20FF7
:100EB000F31FDA01A20FB31F90818C91981711F0E4
:100EC00084E006C02F5F3F4F2630310579F780E080
:100ED0002D960FB6F894DEBF0FBECDBFCF91DF9138
:100EE0001F910F91FF90EF90DF90CF90BF90AF9048
:100EF0000895CF92DF92FF920F931F93CF93DF93CA
:100F0000082F162FF42E69010E942712083010F0C6
:100F100011E049C0143010F012E045C0612F70E0BC
:100F2000AB014F0D511D4530510514F013E03BC08E
:100F300020E030E0EB010EC0F601E20FF31FE0818C
:100F4000E03680F5F0E0E255FF4FE491EF3F51F1DC
:100F50002F5F3F4FC9018C0F9D1F8417950764F3C6
:100F6000A02FB0E0AA0FBB1FAA0FBB1FA60FB71F71
:100F7000A25DBD4F20E030E007C0F601E20FF31F95
:100F800080818D932F5F3F4FC9018C0F9D1F841768
:100F900095079CF3802F0E947706182F80E00E940F
:100FA000271201C015E0812FDF91CF911F910F9182
:100FB000FF90DF90CF900895DF92EF92FF920F9312
:100FC0001F93F82ED62E142FE22E0E94271287E0B0
:100FD0008F1510F401E023C088ECD81611F002E060
:100FE0001EC087E08E1510F403E019C0802F90E03A
:100FF00002C0880F991FEA94E2F7EF2DF0E0E25B60
:10100000FD4F912F9823109580818123982B9083F9
:101010008F2D0E947706082F80E00E942712802FD4
:101020001F910F91FF90EF90DF90089587EE87BB9F
:1010300083E58DB90895FF920F931F93782F142F96
:10104000F22E883010F081E04AC0862F885C813112
:1010500010F082E044C087E0821710F483E03FC0C4
:10106000683C19F1E72FF0E0EE0FFF1FEE0FFF1FB6
:10107000EA58FE4F262F30E0295C304081E090E0B6
:1010800002C0880F991F2A95E2F7AA2797FDA0951D
:10109000BA2F2081318142815381822B932BA42B43
:1010A000B52B80839183A283B383202F30E002C0CD
:1010B000220F331FFA94E2F7872F90E0FC0134E00F
:1010C000EE0FFF1F3A95E1F7E80FF91FE25AFD4FC7
:1010D000E60FF11DE85CF0401223108380E01F91C1
:1010E0000F91FF9008958FEF8FB90E944D120895D0
:1010F000DF92EF92FF920F931F93CF93DF93D82E3F
:10110000162F042F79018DEC60E144E020E00E946D
:101110002D148CEC60E144E020E00E942D1487E067
:101120008D1510F481E0A4C0193D08F09CC0183C56
:1011300008F078C0143609F096C0013009F095C067
:1011400087EE87BB83E58DB98D2D0E94271280E045
:101150009CE60197F1F70E947308082F0E9473081C
:10116000182F80E00E942712011709F056C00023B3
:1011700009F453C0AD2DB0E0FD0114E0EE0FFF1FE8
:101180001A95E1F7EA0FFB1FE25AFD4F8081882391
:1011900021F40150F70100830F5FED0174E0CC0FE3
:1011A000DD1F7A95E1F7CA0FDB1FC25ADD4F888138
:1011B000813009F05CC0013019F4F701108257C08A
:1011C000E02FF0E0329721E030E00E2E02C0220F37
:1011D000331F0A94E2F7442737FD4095542FAA0F96
:1011E000BB1FAA0FBB1FAA58BE4F8D919D910D909A
:1011F000BC91A02D82239323A423B52382179307A8
:10120000A407B50721F4EC0FFD1F818103C0E25F45
:10121000FE4F8491F70180832AC08FEFF70180830E
:1012200084E026C0612F70E0AB01400F511D4A3DA4
:101230005105DCF481E1D89ED0011124A60FB71F1F
:10124000AA56BE4F20E030E007C0F701E20FF31FBF
:101250008D9180832F5F3F4FC901860F971F8417A1
:1012600095079CF304C082E003C083E001C080E0E6
:10127000DF91CF911F910F91FF90EF90DF90089534
:10128000EF92FF920F931F93CF93DF93F82EEB0112
:1012900087EE87BB83E58DB98F2D0E9427120DE362
:1012A00013E0C8010197F1F70E947308E82E80E06F
:1012B0000E942712C8010197F1F78F2D0E94271273
:1012C000C8010197F1F70E947308F82E80E00E9490
:1012D0002712C8010197F1F7EF1409F4E8828FB1E2
:1012E00090E08F3F09F491E0892FDF91CF911F911A
:1012F0000F91FF90EF9008950E9448120895FC010D
:10130000608308951092BD01EAE9F0E08081806871
:1013100080830895EAE9F0E080818F7780830895E3
:101320008EB588608EBD8EB582608EBD87B78061B8
:1013300087BF8FE890E09BBD8ABD1DBC1CBC089593
:101340008EE18093EC0108950F931F93CF93DF9369
:10135000EC018A01898170E0E82FF0E09B012E0FFB
:101360003F1F8A8190E08217930764F1AF014C5FC1
:101370005F4F4C0F5D1F20E030E00DC0DA01A20F7F
:10138000B31FF801E20FF31F80818C9388818F5F78
:1013900088832F5F3F4F2617370784F35881498191
:1013A000242F30E0250F311D8A8190E0450F28174A
:1013B000390711F481E001C082E08B8349831882F0
:1013C00080E002C081E08B83DF91CF911F910F916C
:1013D00008950F931F93CF93DF93EC01962F89818C
:1013E000861710F481E042C08881682F70E06C5F3E
:1013F0007F4F6C0F7D1F20E030E0092F10E00DC003
:10140000DA01A20FB31FFB01E20FF31F80818C935F
:1014100088818F5F88832F5F3F4F2017310784F3C8
:101420008881082F10E0DB01A00FB11F40E050E0E1
:1014300008C0FB01E40FF51F8C9180831D924F5F64
:101440005F4FE9819A01200F311F8E2F90E02817FE
:1014500039077CF398819E1719F41B82198204C006
:1014600082E08B83E91BE983188280E0DF91CF91D2
:101470001F910F9108951F920F920FB60F920BB606
:101480000F9211242F933F934F935F936F937F930A
:101490008F939F93AF93BF93EF93FF9380911D0121
:1014A000882361F08AE191E061E04BEE51E00E9417
:1014B000E9098091EB0180939C0005C080919A001E
:1014C0008F7B80939A00FF91EF91BF91AF919F9195
:1014D0008F917F916F915F914F913F912F910F90DD
:1014E0000BBE0F900FBE0F901F901895FC0181E06E
:1014F00083830895FC0113821182108280E090E0C2
:1015000014820196319680329105D1F708951F9289
:101510000F920FB60F920BB60F9211242F933F9399
:101520004F935F936F937F938F939F93AF93BF93EB
:10153000EF93FF9390919C009093C4018091BD0123
:10154000823031F1833030F4882359F0813009F052
:1015500088C00CC0833009F44CC0843009F081C0CD
:101560006CC0903F09F065C081E061C08091960138
:10157000981721F482E08093BD0107C01092BD014D
:1015800080919A008F7780939A001092C50151C084
:101590009923B9F480919701823039F483E08093E4
:1015A000BD018091990190E007C0843051F483E03F
:1015B0008093BD0181E090E09093C3018093C201CC
:1015C00007C084E08093BD011092C3011092C20154
:1015D0008EE391E061E044EC51E00E94A409809127
:1015E000C4018093C9019091C501980F9093C501E2
:1015F00020C08EE391E061E044EC51E00E94A40938
:101600008091C4019091C501890F8093C50180919B
:10161000C2019091C30101979093C3018093C201CD
:101620008091C2019091C301892B19F484E08093C9
:10163000BD018EE18093EC0114C08091C501981723
:1016400021F481E08093410104C08EE391E00E9487
:101650007A0A8EE18093EC0180919A008F778093D3
:101660009A00FF91EF91BF91AF919F918F917F91E0
:101670006F915F914F913F912F910F900BBE0F9003
:101680000FBE0F901F9018951F920F920FB60F92DA
:101690000BB60F9211242F933F934F935F936F9349
:1016A0007F938F939F93AF93BF93EF93FF9380911B
:1016B000BE01813079F0813018F0823061F525C0AB
:1016C0009091C101913039F58EE18093EC019093B6
:1016D000BE0121C08091EC0181508093EC0180918A
:1016E000EC01882369F480919A008F7780939A00A7
:1016F0008EE391E00E947A0A82E08093BE010BC0E3
:1017000080919A0087FD07C004C08091C1018823A1
:1017100011F41092BE01FF91EF91BF91AF919F9193
:101720008F917F916F915F914F913F912F910F908A
:101730000BBE0F900FBE0F901F901895EF92FF9267
:101740000F93DF93CF93CDB7DEB728970FB6F894FA
:10175000DEBF0FBECDBF6D834E832F8308871982F6
:1017600094E09A830E9427128091610080618093A7
:101770006100809162008061809362008A8199811A
:10178000890F9E81890F9F81890F9885890F898391
:101790008AE191E061E0AE014B5F5F4F0E94A409D6
:1017A0008AE191E061E0AE014E5F5F4F0E94A409C3
:1017B0008AE191E061E0AE014A5F5F4F0E94A409B7
:1017C0008AE191E061E0AE01495F5F4F0E94A409A8
:1017D0008AE191E061E0AE01485F5F4F0E94A40999
:1017E0008AE191E061E0AE014F5F5F4F0E94A40982
:1017F0008D81809396018A818093970180EF0E946A
:10180000351280919A00806480939A0080919A00AA
:1018100086FDFCCF809162008F7E809362001092E3
:10182000BD0180919A00806880939A0081E0809346
:10183000C10180914101813021F08091BE0182304F
:10184000C1F71092C10180914101813011F081E016
:1018500019C08EE391E061E0AE014D5F5F4F0E94E1
:10186000E9098B81882359F48EE391E061E0AE01B0
:101870004C5F5F4F0E94E9098C81F70180838B8167
:10188000880F880F28960FB6F894DEBF0FBECDBF25
:10189000CF91DF910F91FF90EF900895EF920F930A
:1018A000DF93CF93CDB7DEB728970FB6F894DEBF9E
:1018B0000FBECDBF6C834D832E830F83E8861982C4
:1018C00093E09A830E942712809161008061809347
:1018D0006100809162008061809362008A819981B9
:1018E000890F9D81890F9E81890F9F81890F98851E
:1018F000890F89838AE191E061E0AE014C5F5F4F1F
:101900000E94A4098AE191E061E0AE014E5F5F4F61
:101910000E94A4098AE191E061E0AE014B5F5F4F54
:101920000E94A4098AE191E061E0AE014A5F5F4F45
:101930000E94A4098AE191E061E0AE01495F5F4F36
:101940000E94A4098AE191E061E0AE01485F5F4F27
:101950000E94A4098AE191E061E0AE014F5F5F4F10
:101960000E94A4098C81809396018A8180939701BB
:1019700080EF0E94351280919A00806480939A00D3
:1019800080919A0086FDFCCF809162008F7E8093CB
:1019900062001092BD0180919A00806880939A0045
:1019A00081E08093C10180914101813021F08091DB
:1019B000BE018230C1F71092C10180914101813096
:1019C00011F081E00BC08EE391E061E0AE014D5F6C
:1019D0005F4F0E94E9098B81880F880F28960FB608
:1019E000F894DEBF0FBECDBFCF91DF910F91EF9086
:1019F0000895CF92DF92EF92FF920F931F93DF93A0
:101A0000CF93CDB7DEB727970FB6F894DEBF0FBEE2
:101A1000CDBF6D834E832F836801198292E09A8334
:101A20000E94271280916100806180936100809103
:101A300062008061809362008A819981890F9E8112
:101A4000890F9F81890F89838AE191E061E0AE016E
:101A50004B5F5F4F0E94A4098AE191E061E0AE0113
:101A60004E5F5F4F0E94A4098AE191E061E0AE0100
:101A70004A5F5F4F0E94A4098AE191E061E0AE01F4
:101A8000495F5F4F0E94A4098AE191E061E0AE01E5
:101A90004F5F5F4F0E94A4098D81809396018A81D8
:101AA000809397018F818093990180EF0E94351276
:101AB00080919A00806480939A0080919A0086FDBC
:101AC000FCCF809162008F7E809362001092BD01F6
:101AD00080919A00806880939A0081E08093C10190
:101AE00080914101813021F08091BE018230C1F7A7
:101AF0001092C10180914101813011F081E028C034
:101B00008EE391E061E0AE014D5F5F4F0E94E90915
:101B10008B818823D1F400E010E084E0E82EF12CE2
:101B2000EC0EFD1E0DC08EE391E061E0A7010E9466
:101B3000E909F601E00FF11F8C8180830F5F1F4FD1
:101B40008F8190E00817190774F38B81880F880F35
:101B500027960FB6F894DEBF0FBECDBFCF91DF91B1
:101B60001F910F91FF90EF90DF90CF9008950F930A
:101B70001F93DF93CF9300D000D000D0CDB7DEB756
:101B80006C834D832E83198291E09A830E942712E1
:101B9000809161008061809361008091620080612A
:101BA000809362008A819981890F9D81890F9E812E
:101BB000890F8983F8019801290F311D04C089819B
:101BC0009191890F8983E217F307C9F78AE191E0C0
:101BD00061E0AE014C5F5F4F0E94A4098AE191E091
:101BE00061E0AE014E5F5F4F0E94A4098AE191E07F
:101BF00061E0AE014B5F5F4F0E94A4098AE191E072
:101C000061E0AE014A5F5F4F0E94A4098AE191E062
:101C10006E81A8010E94A4098AE191E061E0AE0111
:101C20004F5F5F4F0E94A4098C81809396018A8147
:101C30008093970180EF0E94351280919A00806412
:101C400080939A0080919A0086FDFCCF809162007B
:101C50008F7E809362001092BD0180919A0080680F
:101C600080939A0081E08093C1018091410181308D
:101C700021F08091BE018230C1F71092C1018091A4
:101C80004101813011F081E00BC08EE391E061E011
:101C9000AE014D5F5F4F0E94E9098B81880F880F6D
:101CA00026960FB6F894DEBF0FBECDBFCF91DF9161
:101CB0001F910F910895EF920F93DF93CF93CDB7BC
:101CC000DEB728970FB6F894DEBF0FBECDBF6C838A
:101CD0004D832E830F83E88619821A820E94271271
:101CE00080916100806180936100809162008061D9
:101CF000809362008A819981890F9D81890F9E81DD
:101D0000890F9F81890F9885890F89838AE191E0E6
:101D100061E0AE014C5F5F4F0E94A4098AE191E04F
:101D200061E0AE014E5F5F4F0E94A4098AE191E03D
:101D300061E0AE014B5F5F4F0E94A4098AE191E030
:101D400061E0AE014A5F5F4F0E94A4098AE191E021
:101D500061E0AE01495F5F4F0E94A4098AE191E012
:101D600061E0AE01485F5F4F0E94A4098AE191E003
:101D700061E0AE014F5F5F4F0E94A4098C818093A8
:101D800096018A818093970180EF0E94351280919D
:101D90009A00806480939A0080919A0086FDFCCF1F
:101DA000809162008F7E809362001092BD018091CD
:101DB0009A00806880939A0081E08093C1018091AD
:101DC0004101813021F08091BE018230C1F7109233
:101DD000C10180914101813011F081E00BC08EE39F
:101DE00091E061E0AE014D5F5F4F0E94E9098B8198
:101DF000880F880F28960FB6F894DEBF0FBECDBFB0
:101E0000CF91DF910F91EF900895EF92FF920F9392
:101E1000DF93CF93CDB7DEB728970FB6F894DEBF28
:101E20000FBECDBF6D834E832F830887198294E048
:101E30009A830E9427128A819981890F9E81890F36
:101E40009F81890F9885890F89838AE191E061E0FC
:101E5000AE014B5F5F4F0E94A4098AE191E061E00F
:101E6000AE014E5F5F4F0E94A4098AE191E061E0FC
:101E7000AE014A5F5F4F0E94A4098AE191E061E0F0
:101E8000AE01495F5F4F0E94A4098AE191E061E0E1
:101E9000AE01485F5F4F0E94A4098AE191E061E0D2
:101EA000AE014F5F5F4F0E94A4098D818093960120
:101EB0008A818093970180EF0E94351280919A0069
:101EC000806480939A0080919A0086FDFCCF1092E6
:101ED000BD0180919A00806880939A0081E0809390
:101EE000C10180914101813021F08091BE01823099
:101EF000C1F71092C10180914101813011F081E060
:101F000019C08EE391E061E0AE014D5F5F4F0E942A
:101F1000E9098B81882359F48EE391E061E0AE01F9
:101F20004C5F5F4F0E94E9098C81F70180838B81B0
:101F3000880F880F28960FB6F894DEBF0FBECDBF6E
:101F4000CF91DF910F91FF90EF900895EF920F9353
:101F5000DF93CF93CDB7DEB728970FB6F894DEBFE7
:101F60000FBECDBF6C834D832E830F83E88619820D
:101F700093E09A830E9427128A819981890F9D811B
:101F8000890F9E81890F9F81890F9885890F898389
:101F90008AE191E061E0AE014C5F5F4F0E94A409CD
:101FA0008AE191E061E0AE014E5F5F4F0E94A409BB
:101FB0008AE191E061E0AE014B5F5F4F0E94A409AE
:101FC0008AE191E061E0AE014A5F5F4F0E94A4099F
:101FD0008AE191E061E0AE01495F5F4F0E94A40990
:101FE0008AE191E061E0AE01485F5F4F0E94A40981
:101FF0008AE191E061E0AE014F5F5F4F0E94A4096A
:102000008C81809396018A818093970180EF0E9452
:10201000351280919A00806480939A0080919A0092
:1020200086FDFCCF1092BD0180919A00806880935C
:102030009A0081E08093C10180914101813021F0BB
:102040008091BE018230C1F71092C101809141019F
:10205000813011F081E00BC08EE391E061E0AE01D0
:102060004D5F5F4F0E94E9098B81880F880F28968A
:102070000FB6F894DEBF0FBECDBFCF91DF910F91A9
:10208000EF900895CF92DF92EF92FF920F931F93FC
:10209000DF93CF93CDB7DEB727970FB6F894DEBFA7
:1020A0000FBECDBF6D834E832F836801198292E0EE
:1020B0009A830E9427128A819981890F9E81890FB4
:1020C0009F81890F89838AE191E061E0AE014B5FD6
:1020D0005F4F0E94A4098AE191E061E0AE014E5F8A
:1020E0005F4F0E94A4098AE191E061E0AE014A5F7E
:1020F0005F4F0E94A4098AE191E061E0AE01495F6F
:102100005F4F0E94A4098AE191E061E0AE014F5F58
:102110005F4F0E94A4098D81809396018A818093EC
:1021200097018F818093990180EF0E9435128091F1
:102130009A00806480939A0080919A0086FDFCCF7B
:102140001092BD0180919A00806880939A0081E08E
:102150008093C10180914101813021F08091BE01C5
:102160008230C1F71092C10180914101813011F09C
:1021700081E028C08EE391E061E0AE014D5F5F4FEA
:102180000E94E9098B818823D1F400E010E094E0FB
:10219000E92EF12CEC0EFD1E0DC08EE391E061E006
:1021A000A7010E94E909F601E00FF11F8C818083ED
:1021B0000F5F1F4F8F8190E00817190774F38B8111
:1021C000880F880F27960FB6F894DEBF0FBECDBFDD
:1021D000CF91DF911F910F91FF90EF90DF90CF9003
:1021E00008950F931F93DF93CF9300D000D000D0BA
:1021F000CDB7DEB76C834D832E83198291E09A832D
:102200000E9427128A819981890F9D81890F9E8161
:10221000890F8983F8019801290F311D04C0898134
:102220009191890F8983E217F307C9F78AE191E059
:1022300061E0AE014C5F5F4F0E94A4098AE191E02A
:1022400061E0AE014E5F5F4F0E94A4098AE191E018
:1022500061E0AE014B5F5F4F0E94A4098AE191E00B
:1022600061E0AE014A5F5F4F0E94A4098AE191E0FC
:102270006E81A8010E94A4098AE191E061E0AE01AB
:102280004F5F5F4F0E94A4098C81809396018A81E1
:102290008093970180EF0E94351280919A008064AC
:1022A00080939A0080919A0086FDFCCF1092BD0128
:1022B00080919A00806880939A0081E08093C101A8
:1022C00080914101813021F08091BE018230C1F7BF
:1022D0001092C10180914101813011F081E00BC069
:1022E0008EE391E061E0AE014D5F5F4F0E94E9092E
:1022F0008B81880F880F26960FB6F894DEBF0FBE2D
:10230000CDBFCF91DF911F910F910895EF920F9361
:10231000DF93CF93CDB7DEB728970FB6F894DEBF23
:102320000FBECDBF6C834D832E830F83E886198249
:102330001A820E9427128A819981890F9D81890FB3
:102340009E81890F9F81890F9885890F89838AE1F2
:1023500091E061E0AE014C5F5F4F0E94A4098AE109
:1023600091E061E0AE014E5F5F4F0E94A4098AE1F7
:1023700091E061E0AE014B5F5F4F0E94A4098AE1EA
:1023800091E061E0AE014A5F5F4F0E94A4098AE1DB
:1023900091E061E0AE01495F5F4F0E94A4098AE1CC
:1023A00091E061E0AE01485F5F4F0E94A4098AE1BD
:1023B00091E061E0AE014F5F5F4F0E94A4098C8104
:1023C000809396018A818093970180EF0E94351255
:1023D00080919A00806480939A0080919A0086FD93
:1023E000FCCF1092BD0180919A00806880939A0082
:1023F00081E08093C10180914101813021F0809181
:10240000BE018230C1F71092C1018091410181303B
:1024100011F081E00BC08EE391E061E0AE014D5F11
:102420005F4F0E94E9098B81880F880F28960FB6AD
:10243000F894DEBF0FBECDBFCF91DF910F91EF902B
:10244000089590E0883008F091E0892F0895982F42
:10245000883010F081E0089588B39295990F907EAE
:102460008F71892B88BB80E00895982F80919B0005
:1024700085FFFCCF90939C0083EB92E00197F1F7EE
:10248000089580919B0087FFFCCF80919C00089568
:102490008FB9779BFECF8FB108951FB8779BFECF82
:1024A0008FB108951F93162F0E9427128DE393E09A
:1024B0000197F1F780919B0085FFFCCF10939C0062
:1024C00083EB92E00197F1F780E01F910895CF939D
:1024D000DF93EB010E9427128DE393E00197F1F760
:1024E00020E030E008C02F5F3F4F8FEF2F3F3807CD
:1024F00011F481E008C080919B0087FFF4CF8091A8
:102500009C00888380E0DF91CF9108955D9BFECF92
:102510008CB908955F9BFECF8CB1089584E98093B8
:102520007400089584EA809374008091740087FF9A
:10253000FCCF80917100887F883011F480E008958D
:1025400084E98093740081E0089584E980937400A5
:10255000089584EA809374008091740087FFFCCF13
:1025600080917100887F803111F480E0089584E9C2
:102570008093740082E0089590E0880F991F809303
:10258000730084E8809374008091740087FFFCCF0F
:1025900080917100887F883119F084E980937400FC
:1025A0000895880F8F5F8093730084E88093740090
:1025B0008091740087FFFCCF80917100887F803408
:1025C00019F084E98093740008958093730084E87F
:1025D000809374008091740087FFFCCF809171001C
:1025E000887F883219F084E980937400089584EC20
:1025F000809374008091740087FFFCCF80917100FC
:10260000887F803519F084E980937400809173008D
:10261000089584E8809374008091740087FFFCCF54
:1026200080917100887F883519F084E98093740067
:102630000895FF920F931F93182F062FF42E0E94D8
:102640009212812F0E94BC12802F0E94E5128F2DC2
:102650000E94E51284E9809374001F910F91FF900E
:1026600008950F931F93082F162F0E949212802F08
:102670000E94BC12812F0E94E5120E94A912802F95
:102680000E94D1120E94F712182F0E94091384E9A8
:1026900080937400812F1F910F9108958093700093
:1026A0000895EF92FF920F931F93182F062FF72E86
:1026B000E42E0E949212813009F441C0812F90E0F3
:1026C000880F991F90708093730084E88093740042
:1026D0008091740087FFFCCF80917100887F8831E2
:1026E00039F4802F9F2D9C01F90190E024E81AC055
:1026F00084E98093740083E022C08081809373001A
:10270000209374008091740087FFFCCF809171004A
:102710003196887F883229F084E98093740084E0C0
:102720000EC09F5F9E1548F381E08E1520F484E96A
:102730008093740003C081E08093ED0180E01F91DD
:102740000F91FF90EF9008950F931F93CF93DF9316
:10275000082FEB01142F8091ED01813041F40E948C
:10276000A912823009F474C01092ED0102C00E94D7
:102770009212813009F46CC0802F90E0880F991F6D
:1027800081608093730084E880937400809174006A
:1027900087FFFCCF80917100887F803429F084E925
:1027A0008093740085E054C01230D0F140E0212FB6
:1027B00030E02150304054EC17C0509374008091A9
:1027C000740087FFFCCF80917100887F803529F0ED
:1027D00084E98093740086E03BC080917300FE0121
:1027E000E40FF11D80834F5F842F90E082179307E1
:1027F00024F384E8809374008091740087FFFCCFF9
:1028000080917100887F883529F084E98093740075
:1028100087E01EC080917300C10FD11D219713C0A6
:1028200084E8809374008091740087FFFCCF8091CE
:102830007100887F883529F084E98093740088E0EE
:1028400007C080917300888384E98093740080E0DE
:10285000DF91CF911F910F910895922F483008F08A
:10286000C0C08A3C09F44AC08B3C30F4883C71F00B
:10287000893C09F0B6C026C08C3C09F477C08C3C7A
:1028800008F458C08D3C09F0ACC08CC02AB3E92FC5
:10289000F0E002C0EE0FFF1F4A95E2F7262330E07A
:1028A000862F90E08E239F232817390711F420E00C
:1028B00001C022E08AB3962F9E2360958623982B31
:1028C0009ABB90C027B3E92FF0E002C0EE0FFF1FC4
:1028D0004A95E2F7262330E0862F90E08E239F234F
:1028E0002817390711F420E001C022E087B3962FA2
:1028F0009E2360958623982B97BB74C024B3E92F41
:10290000F0E002C0EE0FFF1F4A95E2F7262330E009
:10291000862F90E08E239F232817390711F420E09B
:1029200001C022E084B3962F9E2360958623982BC6
:1029300094BB58C021B3E92FF0E002C0EE0FFF1F97
:102940004A95E2F7262330E0862F90E08E239F23DE
:102950002817390711F420E001C022E081B3962F37
:102960009E2360958623982B91BB3CC022B1E92F12
:10297000F0E002C0EE0FFF1F4A95E2F7262330E099
:10298000862F90E08E239F232817390711F420E02B
:1029900001C022E082B1962F9E2360958623982B5A
:1029A00092B920C020916100E92FF0E002C0EE0F43
:1029B000FF1F4A95E2F7262330E0862F90E08E2312
:1029C0009F232817390711F420E001C022E08091ED
:1029D0006100962F9E2360958623982B909361002B
:1029E00001C021E0822F0895FA016130C9F58230DB
:1029F000D1F0833028F4882351F0813089F50DC05F
:102A00008430E9F08430A8F0853051F51EC08AB3D7
:102A10008F3F21F580818BBB1FC087B38F3FF1F4BF
:102A2000808188BB19C084B38F3FC1F4808185BB8E
:102A300013C081B38F3F91F4808182BB0DC082B1FE
:102A40008F3F61F4808183B907C0809161008F3F1F
:102A500029F480818093620080E0089582E00895E7
:102A600081E00895FA01613009F042C08636F1F044
:102A7000873628F4843651F08536D1F50FC0883674
:102A800029F18836D8F0893699F529C08AB3882388
:102A900011F490E001C092E089B31FC087B388238E
:102AA00011F490E001C092E086B317C084B388238C
:102AB00011F490E001C092E083B30FC081B388238A
:102AC00011F490E001C092E080B307C082B1882386
:102AD00011F490E001C092E081B180830AC080913E
:102AE0006100882311F490E001C092E080B1F5CF3D
:102AF00091E0892F0895483008F089C08230C1F1F3
:102B0000833030F4882371F0813009F080C01DC01B
:102B1000843009F452C0843008F43DC0853009F097
:102B200076C05DC05AB35623561709F06EC08BB3FA
:102B300030E002C0220F331F4A95E2F7952F92230F
:102B400050955823952B9BBB5EC057B35623561701
:102B500009F05BC088B330E002C0220F331F4A95F2
:102B6000E2F7952F922350955823952B98BB4BC095
:102B700054B35623561709F048C085B330E002C05D
:102B8000220F331F4A95E2F7952F92235095582331
:102B9000952B95BB38C051B356235617B1F582B368
:102BA00030E002C0220F331F4A95E2F7952F92239F
:102BB00050955823952B92BB26C052B156235617D9
:102BC00021F583B130E002C0220F331F4A95E2F7AE
:102BD000952F922350955823952B93B914C050915B
:102BE00061005623561789F48091620030E002C0DC
:102BF000220F331F4A95E2F7952F922350955823C1
:102C0000952B9093620080E0089582E0089581E022
:102C10000895F901483008F04BC0863601F1873637
:102C200030F4843661F0853609F042C010C0883631
:102C300031F18836E0F0893609F03AC030C08AB305
:102C4000862311F420E001C022E089B31FC087B3BE
:102C5000862311F420E001C022E086B317C084B3BC
:102C6000862311F420E001C022E083B30FC081B3BA
:102C7000862311F420E001C022E080B307C082B1B6
:102C8000862311F420E001C022E081B1862390E088
:102C900002C0959587954A95E2F780830AC0809196
:102CA0006100862311F420E001C022E080B1EECF64
:102CB00021E0822F089597FB092E07260AD077FD81
:102CC00004D00CD006D000201AF4709561957F4F87
:102CD0000895F6F7909581959F4F0895AA1BBB1B09
:102CE00051E107C0AA1FBB1FA617B70710F0A61B0C
:102CF000B70B881F991F5A95A9F780959095BC012D
:102D0000CD010895FC0188279927E894219120326C
:102D1000E9F3293010F02E30C8F32B3241F02D3278
:102D200039F4689404C00E94A016820F911D21916D
:102D300020532A30C0F31EF4909581959F4F08953B
:102D40007AE0979F902D879F802D910D11240895F3
:102D5000DF93CF93CDB7DEB7FE01359661917191C8
:102D60008091F0029091F102AF010E94EB16CF9199
:102D7000DF9108950F931F93DF93CF93CDB7DEB705
:102D80002E970FB6F894DEBF0FBECDBF0D891E89FA
:102D900086E08C831A8309838FEF9FE79E838D8360
:102DA0009E01275E3F4FCE0101966F89788DA90164
:102DB0000E94EB162F813885020F131FF801108235
:102DC0002E960FB6F894DEBF0FBECDBFCF91DF9128
:102DD0001F910F9108952F923F924F925F926F92A1
:102DE0007F928F929F92AF92BF92CF92DF92EF929B
:102DF000FF920F931F93DF93CF93CDB7DEB72B973F
:102E00000FB6F894DEBF0FBECDBF3C012B015A01B7
:102E1000FC0117821682838181FD03C06FEF7FEF73
:102E2000C6C19AE0892E1E010894211C311CF301B1
:102E30002381F20123FD859123FF81912F018823B6
:102E400009F4B2C1853239F423FD859123FF8191C4
:102E50002F01853229F490E0B3010E940719E7CFD2
:102E6000982FFF24EE249924FFE1FF15D0F09B3228
:102E700069F09C3228F4903259F0933291F40EC0EC
:102E80009D3249F0903369F441E024C052E0F52AC4
:102E900084E0F82A28C098E0F92A25C0E0E1FE2A5B
:102EA00022C0F7FC29C0892F80538A3070F4F6FEC7
:102EB00005C0989C902C1124980E15C0E89CE02C1D
:102EC0001124E80EF0E2FF2A0EC09E3229F4F6FC2F
:102ED0006BC140E4F42A07C09C3619F450E8F52A87
:102EE00002C0983649F4F20123FD959123FF919198
:102EF0002F01992309F0B8CF892F8554833018F01A
:102F00008052833038F444E050E0A40EB51E5FE3F5
:102F100059830FC0933631F0933779F0933509F028
:102F200056C020C0F5018081898342E050E0A40EA4
:102F3000B51E610101E010E012C0F501C080D18032
:102F4000F6FC03C06FEF7FEF02C0692D70E042E036
:102F500050E0A40EB51EC6010E94FC188C015FE76C
:102F6000F52214C0F501C080D180F6FC03C06FEFDC
:102F70007FEF02C0692D70E042E050E0A40EB51E64
:102F8000C6010E94F1188C0150E8F52AF3FE07C033
:102F90001AC080E290E0B3010E940719EA948E2DD6
:102FA00090E008171907A8F30EC0F601F7FC859109
:102FB000F7FE81916F0190E0B3010E940719E110C3
:102FC000EA94015010400115110579F7EAC09436D2
:102FD00011F0993669F5F7FE08C0F50120813181BD
:102FE0004281538184E090E00AC0F50180819181A3
:102FF0009C01442737FD4095542F82E090E0A80EB5
:10300000B91E9FE6F92257FF09C0509540953095AB
:1030100021953F4F4F4F5F4FE0E8FE2ACA01B901AB
:10302000A1012AE030E00E943319D82ED21840C006
:10303000953729F41F2D1F7E2AE030E01DC01F2D7B
:10304000197F9F3661F0903720F4983509F0ACC0B5
:103050000FC0903739F0983709F0A6C004C028E0B7
:1030600030E00AC0106114FD146020E130E004C0BB
:1030700014FD166020E132E017FF08C0F501608101
:1030800071818281938144E050E008C0F501808124
:103090009181BC0180E090E042E050E0A40EB51EBA
:1030A000A1010E943319D82ED2188FE7F82EF122F1
:1030B000F6FE0BC05EEFF522D91438F4F4FE07C01B
:1030C000F2FC05C08FEEF82202C01D2D01C0192DA3
:1030D000F4FE0DC0FE01ED0DF11D8081803319F469
:1030E00099EEF92208C01F5FF2FE05C003C08F2DC4
:1030F000867809F01F5F0F2DF3FC14C0F0FE0FC09F
:103100001E1510F09D2C0BC09D2C9E0C911A1E2D8F
:1031100006C080E290E0B3010E9407191F5F1E15F0
:10312000C0F304C01E1510F4E11A01C0EE2404FF20
:103130000FC080E390E0B3010E94071902FF1DC099
:1031400001FD03C088E790E00EC088E590E00BC069
:10315000802F867891F001FF02C08BE201C080E2EF
:10316000F7FC8DE290E0B3010E94071906C080E3EE
:1031700090E0B3010E9407199A94D914C0F3DA942D
:10318000F101ED0DF11D808190E0B3010E9407195E
:10319000DD20A9F706C080E290E0B3010E94071984
:1031A000EA94EE20C1F743CEF30166817781CB012B
:1031B0002B960FB6F894DEBF0FBECDBFCF91DF9137
:1031C0001F910F91FF90EF90DF90CF90BF90AF9045
:1031D0009F908F907F906F905F904F903F902F9037
:1031E0000895FC010590615070400110D8F780955A
:1031F00090958E0F9F1F0895FC01615070400190C3
:103200000110D8F7809590958E0F9F1F08950F930A
:103210001F93CF93DF938C01EB018B8181FF1BC048
:1032200082FF0DC02E813F818C819D812817390737
:1032300064F4E881F9810193F983E88306C0E885A5
:10324000F985802F0995892B31F48E819F81019614
:103250009F838E8302C00FEF1FEFC801DF91CF91D4
:103260001F910F910895FA01AA27283051F12031BA
:1032700081F1E8946F936E7F6E5F7F4F8F4F9F4F0A
:10328000AF4FB1E03ED0B4E03CD0670F781F891F4C
:103290009A1FA11D680F791F8A1F911DA11D6A0F1A
:1032A000711D811D911DA11D20D009F468943F91CD
:1032B0002AE0269F11243019305D3193DEF6CF01CC
:1032C0000895462F4770405D4193B3E00FD0C9F792
:1032D000F6CF462F4F70405D4A3318F0495D31FDFF
:1032E0004052419302D0A9F7EACFB4E0A695979552
:1032F000879577956795BA95C9F700976105710528
:1033000008959B01AC010A2E069457954795379571
:103310002795BA95C9F7620F731F841F951FA01DCB
:063320000895F894FFCFB0
:10332600256400257300000000030000000011045E
:103336001F040000D7D7D74F4B9A00002300000088
:103346000000000000000000000000000000000077
:103356000000000000000000000000000000000067
:103366002300000000000000000000000000000034
:103376000000000000000000000000000000000047
:02338600000045
:00000001FF
