S00E00007465737431302E73726563F5
S113000045C0000062C0000060C000005EC0000087
S11300105CC000005AC0000058C0000056C0000078
S113002054C0000052C0000050C000004EC0000088
S113003033C400004AC0000048C0000046C00000AD
S113004044C0000042C0000040C000003EC00000A8
S11300503CC000003AC0000038C0000036C00000B8
S113006034C0000032C0000030C000002EC00000C8
S11300702CC000002AC0000055C3000026C00000A8
S113008006C3000022C0000020C0000011241FBECF
S1130090CFEFD0E1DEBFCDBF11E0A0E0B1E0E6EAF2
S11300A0F0E200E00BBF02C007900D92A037B10749
S11300B0D9F721E0A0E7B1E001C01D92AE3CB20740
S11300C0E1F70E94860D0C9451109ACF1F93182FBC
S11300D08A3011F48DE0FADF5D9BFECF1CB980E01D
S11300E090E01F9108951F93BC015F9BFECF1CB14C
S11300F0812FECDF812F90E01F910895382F8430F9
S113010010F081E00895483010F082E00895822FC5
S113011090E002C0880F991F4A95E2F7282F3130EA
S113012089F0313028F03230B9F03330F1F41FC0A7
S11301308AB3862B8ABB8BB3262360958623282B10
S11301402BBB13C087B3862B87BB88B3262360954C
S11301508623282B28BB09C084B3862B84BB85B394
S1130160262360958623282B25BB80E0089582B141
S1130170862B82B983B1262360958623282B23B945
S113018080E00895F901843010F081E0089548304A
S113019010F082E008958130B9F0813028F0823087
S11301A019F18330C1F539C08AB3882329F09AB391
S11301B0862F8095892305C08AB3882319F4862F56
S11301C080958ABB89B31FC087B3882329F097B36E
S11301D0862F8095892305C087B3882319F4862F39
S11301E0809587BB86B30FC084B3882329F094B36A
S11301F0862F8095892305C084B3882319F4862F1C
S1130200809584BB83B3862390E002C0959587953F
S11302104A95E2F7808380E0089582B1882329F02B
S113022092B1862F8095892305C082B1882319F461
S1130230862F809582B981B1862390E002C095957E
S113024087954A95E2F7808380E00895DF92EF92E4
S1130250FF920F931F93CF93DF93082FD62EE72E91
S1130260813210F081E02AC00E942F0B8B3A29F5CD
S11302700E942F0B8B3A09F50E942F0B8B3AE9F45D
S11302800E942F0BF82E182F8D2D9E2D9C01E90115
S113029004C00E942F0B8993180F9E012D1920175B
S11302A0C0F30E942F0BF01611F083E007C08117F2
S11302B011F480E003C084E001C082E0DF91CF91BB
S11302C01F910F91FF90EF90DF900895AF92BF922E
S11302D0CF92DF92EF92FF920F931F93CF93DF930E
S11302E0182F092FE62EB42EA52E2FEF621711F426
S11302F081E045C00E942F0B8B3A09F03FC00E9459
S11303002F0B8B3AD9F50E942F0B8B3AB9F50E942B
S11303102F0BF82E0E942F0BC82EA12FB02FFD01FA
S113032001900020E9F73197DE2ED11A212F302FCA
S1130330C901EC010C2D10E005C00E942F0B89931C
S1130340080F1F5F1D15C8F38B2D9A2D9C01E90121
S113035004C00E942F0B8993080F9E012B192E15A0
S1130360C0F30E942F0BFC18FE1411F083E007C0A9
S1130370801711F480E003C084E001C082E0DF91C3
S1130380CF911F910F91FF90EF90DF90CF90BF908E
S1130390AF900895AF92BF92CF92DF92EF92FF9207
S11303A00F931F93CF93DF93D82EC92EE62EB42E2E
S11303B0A52E8BEB0E942B0B8BEB0E942B0B8BEB54
S11303C00E942B0BED2DFC2DEF0109900020E9F785
S11303D02197CE1BDF0B0C2F8C2F90E001968E0DF6
S11303E0911D8F3F910519F014F081E02CC00F5F2F
S11303F0102F1E0D0150812F0E942B0B8C2F0E9459
S11304002B0BF12EF00E2D2D3C2DC901EC0110E02B
S113041006C088810E942B0B8991F80E1F5F10176C
S1130420C0F38B2D9A2D9C01E90100E006C0888160
S11304300E942B0B8991F80E0F5F0E15C0F38F2DC0
S11304400E942B0B80E0DF91CF911F910F91FF90C1
S1130450EF90DF90CF90BF90AF900895EF92FF920E
S11304600F931F93CF93DF93082F7B01813210F0FA
S113047081E01CC08AEA0E942B0B8AEA0E942B0BA3
S11304808AEA0E942B0B802F0E942B0B102FE7016E
S113049005C088810E942B0B8991180F9E012E198B
S11304A02017B8F3812F0E942B0B80E0DF91CF91AE
S11304B01F910F91FF90EF9008951092900091E199
S11304C099B98AB188618AB9E5E9F0E080818660EA
S11304D080831092980090939900EAE9F0E080817B
S11304E088618083EDE9F0E080818660808380E02C
S11304F091E09093CB018093CA019093C9018093BA
S1130500C80187B3806E87BB80E00E94CE0A14D0F6
S1130510789480E00895FC01608308951092970117
S1130520EAE9F0E08081806880830895EAE9F0E0F8
S113053080818F77808308958EB588608EBD8EB557
S113054082608EBD87B7806187BF8FE890E09BBDD6
S11305508ABD1DBC1CBC08958EE18093C60108951C
S11305600F931F93CF93DF93EC018A01898170E08D
S1130570E82FF0E09B012E0F3F1F8A8190E0821745
S1130580930764F1AF014C5F5F4F4C0F5D1F20E098
S113059030E00DC0DA01A20FB31FF801E20FF31F20
S11305A080818C9388818F5F88832F5F3F4F2617CC
S11305B0370784F358814981242F30E0250F311DFA
S11305C08A8190E0450F2817390711F481E001C0B2
S11305D082E08B834983188280E002C081E08B83B0
S11305E0DF91CF911F910F9108950F931F93CF9394
S11305F0DF93EC01962F8981861710F481E042C0C5
S11306008881682F70E06C5F7F4F6C0F7D1F20E046
S113061030E0092F10E00DC0DA01A20FB31FFB0177
S1130620E20FF31F80818C9388818F5F88832F5F13
S11306303F4F2017310784F38881082F10E0DB0136
S1130640A00FB11F40E050E008C0FB01E40FF51F0C
S11306508C9180831D924F5F5F4FE9819A01200F37
S1130660311F8E2F90E0281739077CF398819E174D
S113067019F41B82198204C082E08B83E91BE9838D
S1130680188280E0DF91CF911F910F9108951F92FE
S11306900F920FB60F920BB60F9211242F933F9324
S11306A04F935F936F937F938F939F93AF93BF9376
S11306B0EF93FF9380911101882359F08EE091E02C
S11306C061E045EC51E091DF8091C50180939C008D
S11306D005C080919A008F7B80939A00FF91EF91DF
S11306E0BF91AF919F918F917F916F915F914F9146
S11306F03F912F910F900BBE0F900FBE0F901F9044
S11307001895FC0181E083830895FC011382118212
S1130710108280E090E01482019631968032910537
S1130720D1F708951F920F920FB60F920BB60F9246
S113073011242F933F934F935F936F937F938F93E2
S11307409F93AF93BF93EF93FF9390919C009093EB
S11307509E0180919701823031F1833030F48823F7
S113076059F0813009F085C00CC0833009F44BC0C6
S1130770843009F07EC06AC0903F09F063C081E014
S11307805FC080917001981721F482E080939701F3
S113079007C01092970180919A008F7780939A00F6
S11307A010929F014FC09923B9F480917101823056
S11307B039F483E0809397018091730190E007C03E
S11307C0843051F483E08093970181E090E090932A
S11307D09D0180939C0107C084E08093970110924F
S11307E09D0110929C0182E391E061E04EE951E0A9
S11307F0B7DE80919E018093A30190919F01980F91
S113080090939F011FC082E391E061E04EE951E0C3
S1130810A7DE80919E0190919F01890F80939F0193
S113082080919C0190919D01019790939D018093EB
S11308309C0180919C0190919D01892B19F484E085
S1130840809397018EE18093C60113C080919F012C
S1130850981721F481E08093350103C082E391E08D
S113086054DF8EE18093C60180919A008F77809344
S11308709A00FF91EF91BF91AF919F918F917F91DA
S11308806F915F914F913F912F910F900BBE0F90FD
S11308900FBE0F901F9018951F920F920FB60F92D4
S11308A00BB60F9211242F933F934F935F936F9343
S11308B07F938F939F93AF93BF93EF93FF93809115
S11308C09801813079F0813018F0823059F524C0D4
S11308D090919B01913031F58EE18093C601909304
S11308E0980120C08091C60181508093C6018091F7
S11308F0C601882361F480919A008F7780939A00CF
S113090082E391E002DF82E0809398010BC0809142
S11309109A0087FD07C004C080919B01882311F4CD
S113092010929801FF91EF91BF91AF919F918F9198
S11309307F916F915F914F913F912F910F900BBEDB
S11309400F900FBE0F901F901895EF92FF920F9388
S1130950DF93CF93CDB7DEB728970FB6F894DEBFF9
S11309600FBECDBF6D834E832F830887198294E019
S11309709A8314D680916100806180936100809194
S113098062008061809362008A819981890F9E81CF
S1130990890F9F81890F9885890F89838EE091E063
S11309A061E0AE014B5F5F4FDBDD8EE091E061E023
S11309B0AE014E5F5F4FD4DD8EE091E061E0AE01A9
S11309C04A5F5F4FCDDD8EE091E061E0AE01495FAB
S11309D05F4FC6DD8EE091E061E0AE01485F5F4F9E
S11309E0BFDD8EE091E061E0AE014F5F5F4FB8DDA7
S11309F08D81809370018A818093710180EFDCD5B1
S1130A0080919A00806480939A0080919A0086FD78
S1130A10FCCF809162008F7E8093620010929701D8
S1130A2080919A00806880939A0081E080939B0172
S1130A3080913501813021F0809198018230C1F795
S1130A4010929B0180913501813011F081E017C033
S1130A5082E391E061E0AE014D5F5F4FC6DD8B81C3
S1130A60882351F482E391E061E0AE014C5F5F4F73
S1130A70BCDD8C81F70180838B81880F880F2896D9
S1130A800FB6F894DEBF0FBECDBFCF91DF910F91AB
S1130A90FF90EF900895EF920F93DF93CF93CDB72C
S1130AA0DEB728970FB6F894DEBF0FBECDBF6C83B8
S1130AB04D832E830F83E886198293E09A836ED543
S1130AC08091610080618093610080916200806107
S1130AD0809362008A819981890F9D81890F9E810B
S1130AE0890F9F81890F9885890F89838EE091E012
S1130AF061E0AE014C5F5F4F33DD8EE091E061E079
S1130B00AE014E5F5F4F2CDD8EE091E061E0AE01FF
S1130B104B5F5F4F25DD8EE091E061E0AE014A5FFF
S1130B205F4F1EDD8EE091E061E0AE01495F5F4FF3
S1130B3017DD8EE091E061E0AE01485F5F4F10DDAC
S1130B408EE091E061E0AE014F5F5F4F09DD8C8183
S1130B50809370018A818093710180EF2DD58091FB
S1130B609A00806480939A0080919A0086FDFCCF5D
S1130B70809162008F7E8093620010929701809131
S1130B809A00806880939A0081E080939B01809111
S1130B903501813021F0809198018230C1F71092A3
S1130BA09B0180913501813011F081E00AC082E31C
S1130BB091E061E0AE014D5F5F4F17DD8B81880FDF
S1130BC0880F28960FB6F894DEBF0FBECDBFCF9125
S1130BD0DF910F91EF900895CF92DF92EF92FF9201
S1130BE00F931F93DF93CF93CDB7DEB727970FB63D
S1130BF0F894DEBF0FBECDBF6D834E832F83680193
S1130C00198292E09A83CAD48091610080618093B2
S1130C106100809162008061809362008A81998181
S1130C20890F9E81890F9F81890F89838EE091E0CE
S1130C3061E0AE014B5F5F4F93DC8EE091E061E0D9
S1130C40AE014E5F5F4F8CDC8EE091E061E0AE015F
S1130C504A5F5F4F85DC8EE091E061E0AE01495F61
S1130C605F4F7EDC8EE091E061E0AE014F5F5F4F4D
S1130C7077DC8D81809370018A81809371018F81EB
S1130C808093730180EF98D480919A00806480935C
S1130C909A0080919A0086FDFCCF809162008F7E3D
S1130CA0809362001092970180919A0080688093EB
S1130CB09A0081E080939B0180913501813021F07D
S1130CC0809198018230C1F710929B018091350187
S1130CD0813011F081E026C082E391E061E0AE0151
S1130CE04D5F5F4F82DC8B818823C9F400E010E004
S1130CF084E0E82EF12CEC0EFD1E0CC082E391E0A2
S1130D0061E0A70172DCF601E00FF11F8C818083A2
S1130D100F5F1F4F8F8190E0081719077CF38B81B9
S1130D20880F880F27960FB6F894DEBF0FBECDBF8D
S1130D30CF91DF911F910F91FF90EF90DF90CF90B3
S1130D4008950F931F93DF93CF9300D000D000D06A
S1130D50CDB7DEB76C834D832E83198291E09A83DD
S1130D601DD4809161008061809361008091620054
S1130D708061809362008A819981890F9D81890FA6
S1130D809E81890F8983F8019801290F311D04C0C0
S1130D9089819191890F8983E217F307C9F78EE05E
S1130DA091E061E0AE014C5F5F4FDADB8EE091E0F1
S1130DB061E0AE014E5F5F4FD3DB8EE091E061E016
S1130DC0AE014B5F5F4FCCDB8EE091E061E0AE01A2
S1130DD04A5F5F4FC5DB8EE091E06E81A801C0DB06
S1130DE08EE091E061E0AE014F5F5F4FB9DB8C8133
S1130DF0809370018A818093710180EFDDD38091AB
S1130E009A00806480939A0080919A0086FDFCCFBA
S1130E10809162008F7E809362001092970180918E
S1130E209A00806880939A0081E080939B0180916E
S1130E303501813021F0809198018230C1F7109200
S1130E409B0180913501813011F081E00AC082E379
S1130E5091E061E0AE014D5F5F4FC7DB8B81880F8E
S1130E60880F26960FB6F894DEBF0FBECDBFCF9184
S1130E70DF911F910F910895EF920F93DF93CF931A
S1130E80CDB7DEB728970FB6F894DEBF0FBECDBF3F
S1130E906C834D832E830F83E88619821A827ED356
S1130EA08091610080618093610080916200806123
S1130EB0809362008A819981890F9D81890F9E8127
S1130EC0890F9F81890F9885890F89838EE091E02E
S1130ED061E0AE014C5F5F4F43DB8EE091E061E087
S1130EE0AE014E5F5F4F3CDB8EE091E061E0AE010E
S1130EF04B5F5F4F35DB8EE091E061E0AE014A5F0E
S1130F005F4F2EDB8EE091E061E0AE01495F5F4F01
S1130F1027DB8EE091E061E0AE01485F5F4F20DBAC
S1130F208EE091E061E0AE014F5F5F4F19DB8C8191
S1130F30809370018A818093710180EF3DD3809109
S1130F409A00806480939A0080919A0086FDFCCF79
S1130F50809162008F7E809362001092970180914D
S1130F609A00806880939A0081E080939B0180912D
S1130F703501813021F0809198018230C1F71092BF
S1130F809B0180913501813011F081E00AC082E338
S1130F9091E061E0AE014D5F5F4F27DB8B81880FED
S1130FA0880F28960FB6F894DEBF0FBECDBFCF9141
S1130FB0DF910F91EF900895EF92FF920F93DF93DB
S1130FC0CF93CDB7DEB728970FB6F894DEBF0FBE28
S1130FD0CDBF6D834E832F830887198294E09A8353
S1130FE0DDD28A819981890F9E81890F9F81890F22
S1130FF09885890F89838EE091E061E0AE014B5FB3
S11310005F4FAEDA8EE091E061E0AE014E5F5F4F7C
S1131010A7DA8EE091E061E0AE014A5F5F4FA0DAAB
S11310208EE091E061E0AE01495F5F4F99DA8EE0B6
S113103091E061E0AE01485F5F4F92DA8EE091E0AB
S113104061E0AE014F5F5F4F8BDA8D818093700159
S11310508A818093710180EFAFD280919A0080647D
S113106080939A0080919A0086FDFCCF109297019C
S113107080919A00806880939A0081E080939B011C
S113108080913501813021F0809198018230C1F73F
S113109010929B0180913501813011F081E017C0DD
S11310A082E391E061E0AE014D5F5F4F9EDA8B8198
S11310B0882351F482E391E061E0AE014C5F5F4F1D
S11310C094DA8C81F70180838B81880F880F2896AE
S11310D00FB6F894DEBF0FBECDBFCF91DF910F9155
S11310E0FF90EF900895EF920F93DF93CF93CDB7D6
S11310F0DEB728970FB6F894DEBF0FBECDBF6C8362
S11311004D832E830F83E886198293E09A8346D217
S11311108A819981890F9D81890F9E81890F9F8181
S1131120890F9885890F89838EE091E061E0AE0193
S11311304C5F5F4F15DA8EE091E061E0AE014E5FE7
S11311405F4F0EDA8EE091E061E0AE014B5F5F4FDE
S113115007DA8EE091E061E0AE014A5F5F4F00DAAA
S11311608EE091E061E0AE01495F5F4FF9D98EE016
S113117091E061E0AE01485F5F4FF2D98EE091E00B
S113118061E0AE014F5F5F4FEBD98C8180937001BA
S11311908A818093710180EF0FD280919A008064DC
S11311A080939A0080919A0086FDFCCF109297015B
S11311B080919A00806880939A0081E080939B01DB
S11311C080913501813021F0809198018230C1F7FE
S11311D010929B0180913501813011F081E00AC0A9
S11311E082E391E061E0AE014D5F5F4FFED98B81F8
S11311F0880F880F28960FB6F894DEBF0FBECDBFB8
S1131200CF91DF910F91EF900895CF92DF92EF92FB
S1131210FF920F931F93DF93CF93CDB7DEB727973A
S11312200FB6F894DEBF0FBECDBF6D834E832F8300
S11312306801198292E09A83B1D18A819981890FD8
S11312409E81890F9F81890F89838EE091E061E0FF
S1131250AE014B5F5F4F84D98EE091E061E0AE0157
S11312604E5F5F4F7DD98EE091E061E0AE014A5F51
S11312705F4F76D98EE091E061E0AE01495F5F4F48
S11312806FD98EE091E061E0AE014F5F5F4F68D9A6
S11312908D81809370018A81809371018F81809305
S11312A0730180EF89D180919A00806480939A00C1
S11312B080919A0086FDFCCF1092970180919A004C
S11312C0806880939A0081E080939B01809135012E
S11312D0813021F0809198018230C1F710929B01F6
S11312E080913501813011F081E026C082E391E0E4
S11312F061E0AE014D5F5F4F78D98B818823C9F4DB
S113130000E010E094E0E92EF12CEC0EFD1E0CC080
S113131082E391E061E0A70168D9F601E00FF11FD3
S11313208C8180830F5F1F4F8F8190E0081719070E
S11313307CF38B81880F880F27960FB6F894DEBF55
S11313400FBECDBFCF91DF911F910F91FF90EF9012
S1131350DF90CF9008950F931F93DF93CF9300D026
S113136000D000D0CDB7DEB76C834D832E831982B5
S113137091E09A8313D18A819981890F9D81890F84
S11313809E81890F8983F8019801290F311D04C0BA
S113139089819191890F8983E217F307C9F78EE058
S11313A091E061E0AE014C5F5F4FDAD88EE091E0EE
S11313B061E0AE014E5F5F4FD3D88EE091E061E013
S11313C0AE014B5F5F4FCCD88EE091E061E0AE019F
S11313D04A5F5F4FC5D88EE091E06E81A801C0D806
S11313E08EE091E061E0AE014F5F5F4FB9D88C8130
S11313F0809370018A818093710180EFDDD08091A8
S11314009A00806480939A0080919A0086FDFCCFB4
S11314101092970180919A00806880939A0081E0ED
S113142080939B0180913501813021F08091980156
S11314308230C1F710929B0180913501813011F007
S113144081E00AC082E391E061E0AE014D5F5F4F4D
S1131450CCD88B81880F880F26960FB6F894DEBF00
S11314600FBECDBFCF91DF911F910F910895EF92E1
S11314700F93DF93CF93CDB7DEB728970FB6F894C9
S1131480DEBF0FBECDBF6C834D832E830F83E886F2
S113149019821A8283D08A819981890F9D81890F4B
S11314A09E81890F9F81890F9885890F89838EE09A
S11314B091E061E0AE014C5F5F4F52D88EE091E065
S11314C061E0AE014E5F5F4F4BD88EE091E061E08A
S11314D0AE014B5F5F4F44D88EE091E061E0AE0116
S11314E04A5F5F4F3DD88EE091E061E0AE01495F15
S11314F05F4F36D88EE091E061E0AE01485F5F4F08
S11315002FD88EE091E061E0AE014F5F5F4F28D8A5
S11315108C81809370018A818093710180EF4CD01B
S113152080919A00806480939A0080919A0086FD4D
S1131530FCCF1092970180919A00806880939A0062
S113154081E080939B0180913501813021F080916D
S113155098018230C1F710929B018091350181304E
S113156011F081E00AC082E391E061E0AE014D5FD9
S11315705F4F3BD88B81880F880F28960FB6F8945D
S1131580DEBF0FBECDBFCF91DF910F91EF900895D5
S113159090E0883008F091E0892F0895982F8830E2
S11315A010F081E0089588B39295990F907E8F7121
S11315B0892B88BB80E00895982F80919B0085FF3C
S11315C0FCCF90939C0083EB92E00197F1F7089590
S11315D080919B0087FFFCCF80919C0008958FB978
S11315E0779BFECF8FB108951FB8779BFECF8FB145
S11315F008951F93162FD2DF8DE393E00197F1F73F
S113160080919B0085FFFCCF10939C0083EB92E0BC
S11316100197F1F780E01F910895CF93DF93EB01D9
S1131620BDDF8DE393E00197F1F720E030E008C0DF
S11316302F5F3F4F8FEF2F3F380711F481E008C031
S113164080919B0087FFF4CF80919C00888380E089
S1131650DF91CF9108955D9BFECF8CB908955F9B78
S1131660FECF8CB1089584E980937400089584EAD0
S1131670809374008091740087FFFCCF8091710087
S1131680887F883011F480E0089584E980937400A1
S113169081E0089584E980937400089584EA809336
S11316A074008091740087FFFCCF80917100887F63
S11316B0803111F480E0089584E98093740082E01D
S11316C0089590E0880F991F8093730084E88093B5
S11316D074008091740087FFFCCF80917100887F33
S11316E0883119F084E9809374000895880F8F5F1E
S11316F08093730084E8809374008091740087FF62
S1131700FCCF80917100887F803419F084E9809344
S1131710740008958093730084E88093740080912A
S1131720740087FFFCCF80917100887F883219F0A4
S113173084E980937400089584EC8093740080910C
S1131740740087FFFCCF80917100887F803519F089
S113175084E98093740080917300089584E88093F1
S113176074008091740087FFFCCF80917100887FA2
S1131770883519F084E9809374000895FF920F93DB
S11317801F93182F062FF42E72DF812F9ADF802FDC
S1131790C1DF8F2DBFDF84E9809374001F910F9107
S11317A0FF9008950F931F93082F162F60DF802F4B
S11317B088DF812FAFDF72DF802F98DFBDDF182F26
S11317C0CDDF84E980937400812F1F910F910895D8
S11317D0809370000895EF92FF920F931F93182F38
S11317E0062FF72EE42E43DF813009F441C0812F08
S11317F090E0880F991F90708093730084E8809321
S113180074008091740087FFFCCF80917100887F01
S1131810883139F4802F9F2D9C01F90190E024E850
S11318201AC084E98093740083E022C0808180938D
S11318307300209374008091740087FFFCCF809123
S113184071003196887F883229F084E9809374008E
S113185084E00EC09F5F9E1548F381E08E1520F44E
S113186084E98093740003C081E08093C70180E021
S11318701F910F91FF90EF9008950F931F93CF93B3
S1131880DF93082FEB01142F8091C701813039F4C5
S113189005DF823009F473C01092C70101C0E7DE8E
S11318A0813009F46CC0802F90E0880F991F81600B
S11318B08093730084E8809374008091740087FFA0
S11318C0FCCF80917100887F803429F084E9809373
S11318D0740085E054C01230D0F140E0212F30E094
S11318E02150304054EC17C0509374008091740020
S11318F087FFFCCF80917100887F803529F084E9CF
S11319008093740086E03BC080917300FE01E40F75
S1131910F11D80834F5F842F90E08217930724F397
S113192084E8809374008091740087FFFCCF8091D9
S11319307100887F883529F084E98093740087E0FA
S11319401EC080917300C10FD11D219713C084E87C
S1131950809374008091740087FFFCCF80917100A4
S1131960887F883529F084E98093740088E007C073
S113197080917300888384E98093740080E0DF9110
S1131980CF911F910F9108953F924F925F926F9262
S11319907F928F929F92AF92BF92CF92DF92EF92FB
S11319A0FF920F931F93CF93DF93CDB7DEB7689762
S11319B00FB6F894DEBF0FBECDBF80E1E6E5F1E0DF
S11319C0DE01119601900D928A95E1F780E7898BEB
S11319D080EB8A8B80ED8B8B80EE8C8B81E08D8B02
S11319E082E08E8B84E08F8B88E0888F3E0121E13A
S11319F0620E711CCE0101965C0123010F2EF0EFE3
S1131A003F2EF02D0F2EF6E68F2EF1E09F2EF02DB7
S1131A1034BAD3018D913D0185BB7E01B5E1EB0E56
S1131A20F11C650100E010E034BA93B3F701808142
S1131A30892390E0002E02C0959587950A94E2F7D9
S1131A40892BC9F52FEF8FEA91E021508040904017
S1131A50E1F700C0000034BA93B38081892390E099
S1131A60002E02C0959587950A94E2F71816190678
S1131A7074F034BA93B38081892390E0002E02C0BD
S1131A80959587950A94E2F71816190694F7BFEF0F
S1131A90EFEAF1E0B150E040F040E1F700C00000AF
S1131AA0D6018C911F928F939F928F923AD00F9070
S1131AB00F900F900F900F5F1F4FBFEFEB1AFB0AB1
S1131AC0EFEFCE1ADE0A0430110509F0ADCFF4E0D1
S1131AD0AF0EB11CA414B50409F09ACF68960FB6E2
S1131AE0F894DEBF0FBECDBFDF91CF911F910F9150
S1131AF0FF90EF90DF90CF90BF90AF909F908F902A
S1131B007F906F905F904F903F9008950E945D0288
S1131B108AE691E09F938F9304D00F900F9034DF67
S1131B20FECFCF93DF93CDB7DEB7AE014B5F5F4FF0
S1131B30FA0161917191AF018091CA019091CB0139
S1131B4003D0DF91CF9108952F923F924F925F92ED
S1131B506F927F928F929F92AF92BF92CF92DF92B9
S1131B60EF92FF920F931F93CF93DF93CDB7DEB71E
S1131B702B970FB6F894DEBF0FBECDBF6C017B016F
S1131B808A01FC0117821682838181FFBFC1CE01C5
S1131B9001963C01F6019381F70193FD859193FF32
S1131BA081917F01882309F4ADC1853239F493FD15
S1131BB0859193FF81917F01853221F4B60190E0F4
S1131BC0D6D1E8CF912C212C312CFFE1F315D8F09C
S1131BD08B3279F038F4803279F08332A1F4232DFA
S1131BE020611DC08D3261F0803369F4232D2160A2
S1131BF016C0832D8260382EE32DE4603E2E2AC069
S1131C00F32DF8601DC037FC2DC020ED280F2A30BD
S1131C1040F08E32B9F436FC75C1232D2064322E87
S1131C2019C036FE06C08AE0989E200D1124922E1B
S1131C3011C0EAE02E9E200D1124222EF32DF06215
S1131C403F2E08C08C3621F4832D8068382E02C0C4
S1131C50883641F4F70193FD859193FF81917F01CB
S1131C608111B3CF982F9F7D9554933028F40C5F46
S1131C701F4F9FE399830DC0833631F0833771F092
S1131C80833509F055C020C0F801808189830E5F37
S1131C901F4F88248394912C530112C02801F2E031
S1131CA04F0E511CF801A080B18036FE03C0692D8F
S1131CB070E002C06FEF7FEFC5014ED14C0182018D
S1131CC0F32DFF773F2E15C0280122E0420E511C50
S1131CD0F801A080B18036FE03C0692D70E002C017
S1131CE06FEF7FEFC5012DD14C01F32DF0683F2E2E
S1131CF0820133FC19C0822D90E088169906A0F465
S1131D00B60180E290E033D12A94F5CFF50137FC97
S1131D10859137FE81915F01B60190E028D12110B1
S1131D202A9421E0821A91088114910479F7E1C080
S1131D30843611F0893639F5F80137FE07C0608121
S1131D407181828193810C5F1F4F08C06081718112
S1131D50072E000C880B990B0E5F1F4FF32DFF7697
S1131D603F2E97FF09C090958095709561957F4FA0
S1131D708F4F9F4FF0683F2E2AE030E0A30133D10C
S1131D80882E861844C0853731F4232D2F7EB22E39
S1131D902AE030E025C0932D997FB92E8F36C1F00B
S1131DA018F4883579F0AEC0803719F0883721F0FF
S1131DB0A9C0E92FE061BE2EB4FE0DC0FB2DF46076
S1131DC0BF2E09C034FE0AC0292F2660B22E06C0D9
S1131DD028E030E005C020E130E002C020E132E03C
S1131DE0F801B7FE07C060817181828193810C5F25
S1131DF01F4F06C06081718180E090E00E5F1F4F2D
S1131E00A301F1D0882E8618FB2DFF773F2E36FED6
S1131E100DC0232D2E7FA22E891458F434FE0BC03E
S1131E2032FC09C0832D8E7EA82E05C0B82CA32CAD
S1131E3003C0B82C01C0B92CA4FE0FC0FE01E80DEC
S1131E40F11D8081803321F49A2D997EA92E09C039
S1131E50A2FE06C0B394B39404C08A2D867809F018
S1131E60B394A3FC10C0A0FE06C0B21480F4280CE6
S1131E70922C9B180DC0B21458F4B60180E290E085
S1131E8076D0B394F8CFB21418F42B1802C0982C5F
S1131E90212CA4FE0FC0B60180E390E068D0A2FE1E
S1131EA016C0A1FC03C088E790E002C088E590E07A
S1131EB0B6010CC08A2D867851F0A1FE02C08BE2D7
S1131EC001C080E2A7FC8DE2B60190E050D08914F5
S1131ED030F4B60180E390E04AD09A94F8CF8A9423
S1131EE0F301E80DF11D8081B60190E040D081102E
S1131EF0F6CF222009F44ECEB60180E290E037D02E
S1131F002A94F7CFF6018681978102C08FEF9FEF65
S1131F102B960FB6F894DEBF0FBECDBFDF91CF91E5
S1131F201F910F91FF90EF90DF90CF90BF90AF90F3
S1131F309F908F907F906F905F904F903F902F90E5
S1131F400895FC010590615070400110D8F7809508
S1131F5090958E0F9F1F0895FC0161507040019071
S1131F600110D8F7809590958E0F9F1F08950F93B9
S1131F701F93CF93DF93FB01238121FD03C08FEFD8
S1131F809FEF2CC022FF16C04681578124813581E2
S1131F904217530744F4A081B1819D012F5F3F4F45
S1131FA0318320838C93268137812F5F3F4F378382
S1131FB0268314C08B01EC01FB010084F185E02D24
S1131FC00995892BE1F6D80116968D919C91179766
S1131FD0019617969C938E931697CE01DF91CF911D
S1131FE01F910F910895FA01AA27283051F1203149
S1131FF081F1E8946F936E7F6E5F7F4F8F4F9F4F99
S1132000AF4FB1E03ED0B4E03CD0670F781F891FDA
S11320109A1FA11D680F791F8A1F911DA11D6A0FA8
S1132020711D811D911DA11D20D009F468943F915B
S11320302AE0269F11243019305D3193DEF6CF015A
S11320400895462F4770405D4193B3E00FD0C9F720
S1132050F6CF462F4F70405D4A3318F0495D31FD8D
S11320604052419302D0A9F7EACFB4E0A6959795E0
S1132070879577956795BA95C9F7009761057105B6
S113208008959B01AC010A2E069457954795379500
S11320902795BA95C9F7620F731F841F951FA01D5A
S10920A00895F894FFCF3F
S11320A6000000030000000066007300000000004A
S11320B623000000000000000000000000000000F3
S11320C60000000000000000000000000000000006
S11320D600000000230000000000000000000000D3
S11320E600000000000000000000000000000000E6
S11320F60000000000000D0905010E0A06020F0B80
S11321060703100C080425640A00737461727400D2
S9030000FC
