S01000007465737431305F332E7372656361
S11300008BC00000A8C00000A6C00000A4C000006F
S1130010A2C00000A0C000009EC000009CC0000060
S11300209AC0000098C0000096C0000094C0000070
S113003054C6000090C000008EC000008CC00000B8
S11300408AC0000088C0000086C0000084C0000090
S113005082C0000080C000007EC000007CC00000A0
S11300607AC0000078C0000076C0000074C00000B0
S113007072C0000070C0000076C500006CC00000B3
S113008027C5000068C0000066C00000EE0EF10E37
S1130090F40EF70EFA0EFD0E000F030F060F1B0FE2
S11300A01B0F1B0F1B0F1B0F1B0F1B0F090F0C0F1D
S11300B00F0F120F150F180F1EFFFFFFFFFFFFFF9B
S11300C0FFFFFFFFFFFFFFFFFFFFFFFFFFFFFFFF3C
S11300D0FFFFFFFFFFFFFFFFFFFFFFFFFFFFFFFF2C
S11300E0FFFFFFFFFF1BFFFF0001020304050607DC
S11300F00809FFFFFFFFFFFFFF0A0B0C0D0E0F1097
S1130100111213FF14FF151617FFFFFFFF18FFFF4F
S1130110FF19FFFFFFFFFF1A11241FBECFEFD0E12D
S1130120DEBFCDBF11E0A0E0B1E0EEE5FDE200E00E
S11301300BBF02C007900D92A238B107D9F722E095
S1130140A2E8B1E001C01D92A232B207E1F70E9419
S11301509D120C94AD1654CF1F93182F8A3011F4AE
S11301608DE0FADF5D9BFECF1CB980E090E01F912B
S113017008951F93BC015F9BFECF1CB1812FECDF60
S1130180812F90E01F910895382F843010F081E082
S11301900895483010F082E00895822F90E002C064
S11301A0880F991F4A95E2F7282F313089F03130B2
S11301B028F03230B9F03330F1F41FC08AB3862B03
S11301C08ABB8BB3262360958623282B2BBB13C0B5
S11301D087B3862B87BB88B3262360958623282B79
S11301E028BB09C084B3862B84BB85B326236095C2
S11301F08623282B25BB80E0089582B1862B82B903
S113020083B1262360958623282B23B980E00895A3
S1130210F901843010F081E00895483010F082E054
S113022008958130B9F0813028F0823019F183309B
S1130230C1F539C08AB3882329F09AB3862F8095F3
S1130240892305C08AB3882319F4862F80958ABB35
S113025089B31FC087B3882329F097B3862F80956D
S1130260892305C087B3882319F4862F809587BB1B
S113027086B30FC084B3882329F094B3862F809566
S1130280892305C084B3882319F4862F809584BB01
S113029083B3862390E002C0959587954A95E2F74B
S11302A0808380E0089582B1882329F092B1862F5B
S11302B08095892305C082B1882319F4862F8095FF
S11302C082B981B1862390E002C0959587954A95BD
S11302D0E2F7808380E00895DF92EF92FF920F931C
S11302E01F93CF93DF93082FD62EE72E813210F081
S11302F081E02AC00E94500D8B3A29F50E94500DCE
S11303008B3A09F50E94500D8B3AE9F40E94500D86
S1130310F82E182F8D2D9E2D9C01E90104C00E94FA
S1130320500D8993180F9E012D192017C0F30E94B8
S1130330500DF01611F083E007C0811711F480E02E
S113034003C084E001C082E0DF91CF911F910F913F
S1130350FF90EF90DF900895AF92BF92CF92DF921B
S1130360EF92FF920F931F93CF93DF93182F092FD0
S1130370E62EB42EA52E2FEF621711F481E045C0AE
S11303800E94500D8B3A09F03FC00E94500D8B3AE9
S1130390D9F50E94500D8B3AB9F50E94500DF82EF4
S11303A00E94500DC82EA12FB02FFD0101900020F6
S11303B0E9F73197DE2ED11A212F302FC901EC0134
S11303C00C2D10E005C00E94500D8993080F1F5F8B
S11303D01D15C8F38B2D9A2D9C01E90104C00E94C0
S11303E0500D8993080F9E012B192E15C0F30E94FE
S11303F0500DFC18FE1411F083E007C0801711F4AF
S113040080E003C084E001C082E0DF91CF911F91BE
S11304100F91FF90EF90DF90CF90BF90AF90089531
S1130420AF92BF92CF92DF92EF92FF920F931F93FE
S1130430CF93DF93D82EC92EE62EB42EA52E8BEBA8
S11304400E944C0D8BEB0E944C0D8BEB0E944C0DCB
S1130450ED2DFC2DEF0109900020E9F72197CE1B2B
S1130460DF0B0C2F8C2F90E001968E0D911D8F3F8A
S1130470910519F014F081E02CC00F5F102F1E0DB0
S11304800150812F0E944C0D8C2F0E944C0DF12E97
S1130490F00E2D2D3C2DC901EC0110E006C0888121
S11304A00E944C0D8991F80E1F5F1017C0F38B2D1D
S11304B09A2D9C01E90100E006C088810E944C0D40
S11304C08991F80E0F5F0E15C0F38F2D0E944C0D0D
S11304D080E0DF91CF911F910F91FF90EF90DF901B
S11304E0CF90BF90AF900895EF92FF920F931F9318
S11304F0CF93DF93082F7B01813210F081E01CC081
S11305008AEA0E944C0D8AEA0E944C0D8AEA0E94F3
S11305104C0D802F0E944C0D102FE70105C08881DF
S11305200E944C0D8991180F9E012E192017B8F3C3
S1130530812F0E944C0D80E0DF91CF911F910F918C
S1130540FF90EF9008951092900091E199B98AB1CB
S113055088618AB9E5E9F0E0808186608083109241
S1130560980090939900EAE9F0E0808188618083A3
S1130570EDE9F0E080818660808380E091E09093F3
S11305801F0280931E0290931D0280931C0287B366
S1130590806E87BB80E00E94EF0CEFD1789480E0FE
S11305A00895CF93DF93E901883010F081E034C0DF
S11305B0643068F0683C11F082E02EC0413059F597
S11305C0E82FF0E0EC5EFD4F8081888322C070E06C
S11305D09B01240F311DA90125303105E4F4A82F16
S11305E0B0E0AA0FBB1FAA0FBB1FA60FB71FAC50CA
S11305F0BE4F20E030E007C0FE01E20FF31F8D91F3
S113060080832F5F3F4FC901860F971F841795077B
S11306109CF380E001C083E0DF91CF910895AF9215
S1130620BF92CF92DF92EF92FF920F931F93DF93CB
S1130630CF93CDB7DEB72D970FB6F894DEBF0FBEBC
S1130640CDBFE82EDE011296EEE0F1E086E00190E7
S11306500D928150E1F72E2D30E0D901AA0FBB1F76
S1130660AA0FBB1FAC50BE4F8C91E82FF0E0E854AA
S1130670FF4F449111968C911197E82FF0E0E854C4
S1130680FF4F5491F901EE0FFF1FEE0FFF1FEA50C9
S1130690FE4FE081F0E0E854FF4F749113968C9183
S11306A090E088549F4FFC016491E8E0CE2ED12C59
S11306B0CC0EDD1E86E0F60111928A95E9F72C5ED8
S11306C03D4FF9012081922F9078940F822F8870EA
S11306D0880F880F880F980F9093F001822F8074F1
S11306E0880F922F94709295907F890F850F809335
S11306F0F101822F8072880F880F922F9270929549
S1130700990F907E890F870F8093F201822F807159
S1130710880F880F880F21702295220F220F207CCA
S1130720820F860F8093F30119828E2D6DE70E944C
S11307301A0D8E2D6DE70E941A0D8E2D6DE70E9405
S11307401A0D8E2D61E00E941A0D8E2D64E00E9418
S11307501A0D8E2D64E00E941A0D8E2D6091F00109
S11307600E941A0D1091F0018E2D6091F1010E94EA
S11307701A0DF090F1018E2D6091F2010E941A0D74
S11307800091F2018E2D6091F3010E941A0D1F0D4C
S1130790175F100F8091F301180F8E2D612F0E94A7
S11307A01A0D86015E010894A11CB11C9EE0C92E9D
S11307B0D12CCC0EDD1E8E2DB5010E942E0D89810B
S11307C0F80181938F01EC15FD05A9F720E030E0D5
S11307D0BE01685F7F4FAE014E5F5F4FFB01E20FCA
S11307E0F31FDA01A20FB31F90818C91981711F0B7
S11307F084E006C02F5F3F4F2630310579F780E053
S11308002D960FB6F894DEBF0FBECDBFCF91DF910A
S11308101F910F91FF90EF90DF90CF90BF90AF901A
S11308200895CF92DF92FF920F931F93CF93DF939C
S1130830082F162FF42E69010E94EF0C083010F0D7
S113084011E048C0143010F012E044C0612F70E091
S1130850AB014F0D511D4530510514F013E03AC062
S113086020E030E0EB010EC0F601E20FF31FE0815F
S1130870E03678F5F0E0E854FF4FE491EF3F49F1BA
S11308802F5F3F4FC9018C0F9D1F8417950764F399
S1130890A02FB0E0AA0FBB1FAA0FBB1FA60FB71F44
S11308A0AC50BE4F20E030E007C0F601E20FF31F6A
S11308B080818D932F5F3F4FC9018C0F9D1F84173B
S11308C095079CF3802FABDE182F80E00E94EF0C7D
S11308D001C015E0812FDF91CF911F910F91FF90FF
S11308E0DF90CF900895DF92EF92FF920F931F93C2
S11308F0F82ED62E142FE22E0E94EF0C87E08F15CF
S113090010F401E022C088ECD81611F002E01DC0FA
S113091087E08E1510F403E018C0802F90E002C029
S1130920880F991FEA94E2F7EF2DF0E0EC5EFD4F9B
S1130930912F9823109580818123982B90838F2D5C
S11309406EDE082F80E00E94EF0C802F1F910F9124
S1130950FF90EF90DF900895FC016083089510925A
S1130960A901EAE9F0E08081806880830895EAE9DA
S1130970F0E080818F77808308958EB588608EBD86
S11309808EB582608EBD87B7806187BF8FE890E0A7
S11309909BBD8ABD1DBC1CBC08958EE18093D8010B
S11309A008950F931F93CF93DF93EC018A018981FC
S11309B070E0E82FF0E09B012E0F3F1F8A8190E04A
S11309C08217930764F1AF014C5F5F4F4C0F5D1FBB
S11309D020E030E00DC0DA01A20FB31FF801E20FEE
S11309E0F31F80818C9388818F5F88832F5F3F4FB3
S11309F02617370784F358814981242F30E0250FC7
S1130A00311D8A8190E0450F2817390711F481E0E0
S1130A1001C082E08B834983188280E002C081E0B8
S1130A208B83DF91CF911F910F9108950F931F93A3
S1130A30CF93DF93EC01962F8981861710F481E020
S1130A4042C08881682F70E06C5F7F4F6C0F7D1F00
S1130A5020E030E0092F10E00DC0DA01A20FB31F2F
S1130A60FB01E20FF31F80818C9388818F5F888361
S1130A702F5F3F4F2017310784F38881082F10E040
S1130A80DB01A00FB11F40E050E008C0FB01E40F00
S1130A90F51F8C9180831D924F5F5F4FE9819A010E
S1130AA0200F311F8E2F90E0281739077CF398818F
S1130AB09E1719F41B82198204C082E08B83E91B00
S1130AC0E983188280E0DF91CF911F910F910895FF
S1130AD01F920F920FB60F920BB60F9211242F9301
S1130AE03F934F935F936F937F938F939F93AF93B2
S1130AF0BF93EF93FF9380911701882359F084E10A
S1130B0091E061E047ED51E091DF8091D70180935E
S1130B109C0005C080919A008F7B80939A00FF917E
S1130B20EF91BF91AF919F918F917F916F915F9161
S1130B304F913F912F910F900BBE0F900FBE0F90CE
S1130B401F901895FC0181E083830895FC011382B2
S1130B501182108280E090E01482019631968032F6
S1130B609105D1F708951F920F920FB60F920BB60D
S1130B700F9211242F933F934F935F936F937F931F
S1130B808F939F93AF93BF93EF93FF9390919C00A8
S1130B909093B0018091A901823031F1833030F417
S1130BA0882359F0813009F085C00CC0833009F4E2
S1130BB04BC0843009F07EC06AC0903F09F063C026
S1130BC081E05FC080918201981721F482E08093D4
S1130BD0A90107C01092A90180919A008F77809390
S1130BE09A001092B1014FC09923B9F48091830106
S1130BF0823039F483E08093A9018091850190E0EB
S1130C0007C0843051F483E08093A90181E090E02F
S1130C109093AF018093AE0107C084E08093A90153
S1130C201092AF011092AE0188E391E061E040EBD5
S1130C3051E0B7DE8091B0018093B5019091B1018C
S1130C40980F9093B1011FC088E391E061E040EBFD
S1130C5051E0A7DE8091B0019091B101890F80939A
S1130C60B1018091AE019091AF0101979093AF01D2
S1130C708093AE018091AE019091AF01892B19F45C
S1130C8084E08093A9018EE18093D80113C0809100
S1130C90B101981721F481E080933B0103C088E3FC
S1130CA091E054DF8EE18093D80180919A008F7790
S1130CB080939A00FF91EF91BF91AF919F918F9193
S1130CC07F916F915F914F913F912F910F900BBE48
S1130CD00F900FBE0F901F9018951F920F920FB692
S1130CE00F920BB60F9211242F933F934F935F9360
S1130CF06F937F938F939F93AF93BF93EF93FF93E0
S1130D008091AA01813079F0813018F0823059F550
S1130D1024C09091AD01913031F58EE18093D801DA
S1130D209093AA0120C08091D80181508093D8016A
S1130D308091D801882361F480919A008F77809301
S1130D409A0088E391E002DF82E08093AA010BC05D
S1130D5080919A0087FD07C004C08091AD0188236B
S1130D6011F41092AA01FF91EF91BF91AF919F915D
S1130D708F917F916F915F914F913F912F910F9040
S1130D800BBE0F900FBE0F901F901895EF92FF921D
S1130D900F93DF93CF93CDB7DEB728970FB6F894B0
S1130DA0DEBF0FBECDBF6D834E832F8308871982AC
S1130DB094E09A8314D680916100806180936100ED
S1130DC0809162008061809362008A819981890F99
S1130DD09E81890F9F81890F9885890F898384E17A
S1130DE091E061E0AE014B5F5F4FDBDD84E191E0B8
S1130DF061E0AE014E5F5F4FD4DD84E191E061E0DC
S1130E00AE014A5F5F4FCDDD84E191E061E0AE0168
S1130E10495F5F4FC6DD84E191E061E0AE01485F68
S1130E205F4FBFDD84E191E061E0AE014F5F5F4F52
S1130E30B8DD8D81809382018A818093830180EF64
S1130E40DCD580919A00806480939A0080919A0006
S1130E5086FDFCCF809162008F7E809362001092A9
S1130E60A90180919A00806880939A0081E0809320
S1130E70AD0180913B01813021F08091AA01823043
S1130E80C1F71092AD0180913B01813011F081E0F6
S1130E9017C088E391E061E0AE014D5F5F4FC6DDAE
S1130EA08B81882351F488E391E061E0AE014C5FCB
S1130EB05F4FBCDD8C81F70180838B81880F880FA5
S1130EC028960FB6F894DEBF0FBECDBFCF91DF9149
S1130ED00F91FF90EF900895EF920F93DF93CF93CC
S1130EE0CDB7DEB728970FB6F894DEBF0FBECDBFDF
S1130EF06C834D832E830F83E886198293E09A8353
S1130F006ED5809161008061809361008091620060
S1130F108061809362008A819981890F9D81890F04
S1130F209E81890F9F81890F9885890F898384E128
S1130F3091E061E0AE014C5F5F4F33DD84E191E00D
S1130F4061E0AE014E5F5F4F2CDD84E191E061E032
S1130F50AE014B5F5F4F25DD84E191E061E0AE01BE
S1130F604A5F5F4F1EDD84E191E061E0AE01495FBD
S1130F705F4F17DD84E191E061E0AE01485F5F4FB0
S1130F8010DD84E191E061E0AE014F5F5F4F09DD68
S1130F908C81809382018A818093830180EF2DD597
S1130FA080919A00806480939A0080919A0086FDD3
S1130FB0FCCF809162008F7E809362001092A90121
S1130FC080919A00806880939A0081E08093AD01BB
S1130FD080913B01813021F08091AA018230C1F7D8
S1130FE01092AD0180913B01813011F081E00AC083
S1130FF088E391E061E0AE014D5F5F4F17DD8B81C7
S1131000880F880F28960FB6F894DEBF0FBECDBFA9
S1131010CF91DF910F91EF900895CF92DF92EF92ED
S1131020FF920F931F93DF93CF93CDB7DEB727972C
S11310300FB6F894DEBF0FBECDBF6D834E832F83F2
S11310406801198292E09A83CAD480916100806118
S113105080936100809162008061809362008A8144
S11310609981890F9E81890F9F81890F898384E1EA
S113107091E061E0AE014B5F5F4F93DC84E191E06E
S113108061E0AE014E5F5F4F8CDC84E191E061E092
S1131090AE014A5F5F4F85DC84E191E061E0AE011F
S11310A0495F5F4F7EDC84E191E061E0AE014F5F18
S11310B05F4F77DC8D81809382018A8180938301E5
S11310C08F818093850180EF98D480919A00806409
S11310D080939A0080919A0086FDFCCF80916200F3
S11310E08F7E809362001092A90180919A0080689B
S11310F080939A0081E08093AD0180913B0181301F
S113110021F08091AA018230C1F71092AD01809143
S11311103B01813011F081E026C088E391E061E079
S1131120AE014D5F5F4F82DC8B818823C9F400E000
S113113010E084E0E82EF12CEC0EFD1E0CC088E3D8
S113114091E061E0A70172DCF601E00FF11F8C81F0
S113115080830F5F1F4F8F8190E0081719077CF37E
S11311608B81880F880F27960FB6F894DEBF0FBEC9
S1131170CDBFCF91DF911F910F91FF90EF90DF9042
S1131180CF9008950F931F93DF93CF9300D000D097
S113119000D0CDB7DEB76C834D832E83198291E0E6
S11311A09A831DD480916100806180936100809155
S11311B062008061809362008A819981890F9D8198
S11311C0890F9E81890F8983F8019801290F311DA8
S11311D004C089819191890F8983E217F307C9F7C4
S11311E084E191E061E0AE014C5F5F4FDADB84E1C2
S11311F091E061E0AE014E5F5F4FD3DB84E191E0AB
S113120061E0AE014B5F5F4FCCDB84E191E061E0D4
S1131210AE014A5F5F4FC5DB84E191E06E81A801B6
S1131220C0DB84E191E061E0AE014F5F5F4FB9DB69
S11312308C81809382018A818093830180EFDDD346
S113124080919A00806480939A0080919A0086FD30
S1131250FCCF809162008F7E809362001092A9017E
S113126080919A00806880939A0081E08093AD0118
S113127080913B01813021F08091AA018230C1F735
S11312801092AD0180913B01813011F081E00AC0E0
S113129088E391E061E0AE014D5F5F4FC7DB8B8176
S11312A0880F880F26960FB6F894DEBF0FBECDBF09
S11312B0CF91DF911F910F910895EF920F93DF93D8
S11312C0CF93CDB7DEB728970FB6F894DEBF0FBE25
S11312D0CDBF6C834D832E830F83E88619821A82D7
S11312E07ED380916100806180936100809162006F
S11312F08061809362008A819981890F9D81890F21
S11313009E81890F9F81890F9885890F898384E144
S113131091E061E0AE014C5F5F4F43DB84E191E01B
S113132061E0AE014E5F5F4F3CDB84E191E061E040
S1131330AE014B5F5F4F35DB84E191E061E0AE01CC
S11313404A5F5F4F2EDB84E191E061E0AE01495FCB
S11313505F4F27DB84E191E061E0AE01485F5F4FBE
S113136020DB84E191E061E0AE014F5F5F4F19DB68
S11313708C81809382018A818093830180EF3DD3A5
S113138080919A00806480939A0080919A0086FDEF
S1131390FCCF809162008F7E809362001092A9013D
S11313A080919A00806880939A0081E08093AD01D7
S11313B080913B01813021F08091AA018230C1F7F4
S11313C01092AD0180913B01813011F081E00AC09F
S11313D088E391E061E0AE014D5F5F4F27DB8B81D5
S11313E0880F880F28960FB6F894DEBF0FBECDBFC6
S11313F0CF91DF910F91EF900895EF92FF920F93A9
S1131400DF93CF93CDB7DEB728970FB6F894DEBF3E
S11314100FBECDBF6D834E832F830887198294E05E
S11314209A83DDD28A819981890F9E81890F9F8158
S1131430890F9885890F898384E191E061E0AE0189
S11314404B5F5F4FAEDA84E191E061E0AE014E5F45
S11314505F4FA7DA84E191E061E0AE014A5F5F4F3C
S1131460A0DA84E191E061E0AE01495F5F4F99DA6F
S113147084E191E061E0AE01485F5F4F92DA84E17C
S113148091E061E0AE014F5F5F4F8BDA8D81809315
S113149082018A818093830180EFAFD280919A0088
S11314A0806480939A0080919A0086FDFCCF10920C
S11314B0A90180919A00806880939A0081E08093CA
S11314C0AD0180913B01813021F08091AA018230ED
S11314D0C1F71092AD0180913B01813011F081E0A0
S11314E017C088E391E061E0AE014D5F5F4F9EDA83
S11314F08B81882351F488E391E061E0AE014C5F75
S11315005F4F94DA8C81F70180838B81880F880F79
S113151028960FB6F894DEBF0FBECDBFCF91DF91F2
S11315200F91FF90EF900895EF920F93DF93CF9375
S1131530CDB7DEB728970FB6F894DEBF0FBECDBF88
S11315406C834D832E830F83E886198293E09A83FC
S113155046D28A819981890F9D81890F9E81890F45
S11315609F81890F9885890F898384E191E061E0E7
S1131570AE014C5F5F4F15DA84E191E061E0AE01AA
S11315804E5F5F4F0EDA84E191E061E0AE014B5FA4
S11315905F4F07DA84E191E061E0AE014A5F5F4F9B
S11315A000DA84E191E061E0AE01495F5F4FF9D96F
S11315B084E191E061E0AE01485F5F4FF2D984E1DC
S11315C091E061E0AE014F5F5F4FEBD98C81809376
S11315D082018A818093830180EF0FD280919A00E7
S11315E0806480939A0080919A0086FDFCCF1092CB
S11315F0A90180919A00806880939A0081E0809389
S1131600AD0180913B01813021F08091AA018230AB
S1131610C1F71092AD0180913B01813011F081E05E
S11316200AC088E391E061E0AE014D5F5F4FFED9EF
S11316308B81880F880F28960FB6F894DEBF0FBEF3
S1131640CDBFCF91DF910F91EF900895CF92DF92AC
S1131650EF92FF920F931F93DF93CF93CDB7DEB733
S113166027970FB6F894DEBF0FBECDBF6D834E83B0
S11316702F836801198292E09A83B1D18A8199817A
S1131680890F9E81890F9F81890F898384E191E06D
S113169061E0AE014B5F5F4F84D984E191E061E08A
S11316A0AE014E5F5F4F7DD984E191E061E0AE0110
S11316B04A5F5F4F76D984E191E061E0AE01495F12
S11316C05F4F6FD984E191E061E0AE014F5F5F4FFE
S11316D068D98D81809382018A81809383018F816F
S11316E08093850180EF89D180919A0080648093F2
S11316F09A0080919A0086FDFCCF1092A9018091F6
S11317009A00806880939A0081E08093AD01809173
S11317103B01813021F08091AA018230C1F71092FF
S1131720AD0180913B01813011F081E026C088E356
S113173091E061E0AE014D5F5F4F78D98B818823E2
S1131740C9F400E010E094E0E92EF12CEC0EFD1E4B
S11317500CC088E391E061E0A70168D9F601E00FCD
S1131760F11F8C8180830F5F1F4F8F8190E00817DA
S113177019077CF38B81880F880F27960FB6F8948E
S1131780DEBF0FBECDBFCF91DF911F910F91FF90B0
S1131790EF90DF90CF9008950F931F93DF93CF9333
S11317A000D000D000D0CDB7DEB76C834D832E833C
S11317B0198291E09A8313D18A819981890F9D813D
S11317C0890F9E81890F8983F8019801290F311DA2
S11317D004C089819191890F8983E217F307C9F7BE
S11317E084E191E061E0AE014C5F5F4FDAD884E1BF
S11317F091E061E0AE014E5F5F4FD3D884E191E0A8
S113180061E0AE014B5F5F4FCCD884E191E061E0D1
S1131810AE014A5F5F4FC5D884E191E06E81A801B3
S1131820C0D884E191E061E0AE014F5F5F4FB9D869
S11318308C81809382018A818093830180EFDDD043
S113184080919A00806480939A0080919A0086FD2A
S1131850FCCF1092A90180919A00806880939A002D
S113186081E08093AD0180913B01813021F0809132
S1131870AA018230C1F71092AD0180913B01813001
S113188011F081E00AC088E391E061E0AE014D5FB0
S11318905F4FCCD88B81880F880F26960FB6F894AB
S11318A0DEBF0FBECDBFCF91DF911F910F91089581
S11318B0EF920F93DF93CF93CDB7DEB728970FB690
S11318C0F894DEBF0FBECDBF6C834D832E830F8390
S11318D0E88619821A8283D08A819981890F9D8131
S11318E0890F9E81890F9F81890F9885890F89832C
S11318F084E191E061E0AE014C5F5F4F52D884E136
S113190091E061E0AE014E5F5F4F4BD884E191E01E
S113191061E0AE014B5F5F4F44D884E191E061E048
S1131920AE014A5F5F4F3DD884E191E061E0AE01D2
S1131930495F5F4F36D884E191E061E0AE01485FD2
S11319405F4F2FD884E191E061E0AE014F5F5F4FBC
S113195028D88C81809382018A818093830180EFCF
S11319604CD080919A00806480939A0080919A0070
S113197086FDFCCF1092A90180919A008068809323
S11319809A0081E08093AD0180913B01813021F088
S11319908091AA018230C1F71092AD0180913B0180
S11319A0813011F081E00AC088E391E061E0AE018A
S11319B04D5F5F4F3BD88B81880F880F28960FB6F9
S11319C0F894DEBF0FBECDBFCF91DF910F91EF90A2
S11319D0089590E0883008F091E0892F0895982FB9
S11319E0883010F081E0089588B39295990F907E25
S11319F08F71892B88BB80E00895982F80919B007C
S1131A0085FFFCCF90939C0083EB92E00197F1F764
S1131A10089580919B0087FFFCCF80919C000895DE
S1131A208FB9779BFECF8FB108951FB8779BFECFF8
S1131A308FB108951F93162FD2DF8DE393E00197A2
S1131A40F1F780919B0085FFFCCF10939C0083EB02
S1131A5092E00197F1F780E01F910895CF93DF930F
S1131A60EB01BDDF8DE393E00197F1F720E030E077
S1131A7008C02F5F3F4F8FEF2F3F380711F481E0ED
S1131A8008C080919B0087FFF4CF80919C008883DD
S1131A9080E0DF91CF9108955D9BFECF8CB90895CE
S1131AA05F9BFECF8CB1089584E980937400089500
S1131AB084EA809374008091740087FFFCCF809146
S1131AC07100887F883011F480E0089584E9809360
S1131AD0740081E0089584E980937400089584EA91
S1131AE0809374008091740087FFFCCF8091710013
S1131AF0887F803111F480E0089584E98093740034
S1131B0082E0089590E0880F991F8093730084E821
S1131B10809374008091740087FFFCCF80917100E2
S1131B20887F883119F084E9809374000895880FC0
S1131B308F5F8093730084E88093740080917400B5
S1131B4087FFFCCF80917100887F803419F084E98D
S1131B508093740008958093730084E880937400E4
S1131B608091740087FFFCCF80917100887F883258
S1131B7019F084E980937400089584EC80937400D0
S1131B808091740087FFFCCF80917100887F80353D
S1131B9019F084E98093740080917300089584E8B7
S1131BA0809374008091740087FFFCCF8091710052
S1131BB0887F883519F084E9809374000895FF9232
S1131BC00F931F93182F062FF42E72DF812F9ADFA5
S1131BD0802FC1DF8F2DBFDF84E9809374001F91B4
S1131BE00F91FF9008950F931F93082F162F60DF16
S1131BF0802F88DF812FAFDF72DF802F98DFBDDF7A
S1131C00182FCDDF84E980937400812F1F910F91E9
S1131C100895809370000895EF92FF920F931F939D
S1131C20182F062FF72EE42E43DF813009F441C02C
S1131C30812F90E0880F991F90708093730084E83F
S1131C40809374008091740087FFFCCF80917100B1
S1131C50887F883139F4802F9F2D9C01F90190E011
S1131C6024E81AC084E98093740083E022C0808150
S1131C7080937300209374008091740087FFFCCFDD
S1131C80809171003196887F883229F084E98093AD
S1131C90740084E00EC09F5F9E1548F381E08E15AA
S1131CA020F484E98093740003C081E08093D90117
S1131CB080E01F910F91FF90EF9008950F931F9371
S1131CC0CF93DF93082FEB01142F8091D90181303A
S1131CD039F405DF823009F473C01092D90101C0D0
S1131CE0E7DE813009F46CC0802F90E0880F991FE3
S1131CF081608093730084E8809374008091740001
S1131D0087FFFCCF80917100887F803429F084E9BB
S1131D108093740085E054C01230D0F140E0212F4C
S1131D2030E02150304054EC17C05093740080913F
S1131D30740087FFFCCF80917100887F803529F083
S1131D4084E98093740086E03BC080917300FE01B7
S1131D50E40FF11D80834F5F842F90E08217930777
S1131D6024F384E8809374008091740087FFFCCF8F
S1131D7080917100887F883529F084E9809374000C
S1131D8087E01EC080917300C10FD11D219713C03D
S1131D9084E8809374008091740087FFFCCF809165
S1131DA07100887F883529F084E98093740088E085
S1131DB007C080917300888384E98093740080E075
S1131DC0DF91CF911F910F91089590E0FC01F1975D
S1131DD0E631F10580F5EA5BFF4FB2C480E091E0A3
S1131DE02CC080E092E029C080E093E026C080E02F
S1131DF094E023C080E095E020C080E096E01DC020
S1131E0080E097E01AC080E098E017C080E099E095
S1131E1014C081E09AE011C082E09AE00EC083E031
S1131E209AE00BC084E09AE008C085E09AE005C01F
S1131E3086E09AE002C080E090E0FB019083FA0122
S1131E40808308950F931F93782F8A30B1F4613003
S1131E5069F41092E4011092E5011092E6011092E7
S1131E60E7011092E3011092E20144C081E090E0A6
S1131E709093E3018093E2013DC08091E20190914F
S1131E80E301019761F41092E4011092E5011092CC
S1131E90E6011092E7011092E3011092E2018091B1
S1131EA0E4019091E501A091E601B091E701880F6A
S1131EB0991FAA1FBB1F8C019D01000F111F221F18
S1131EC0331F000F111F221F331F800F911FA21FEA
S1131ED0B31F870F911DA11DB11D8093E401909341
S1131EE0E501A093E601B093E701FA0180839183B1
S1131EF0A283B3831F910F9108958F929F92AF9203
S1131F00BF92EF92FF920F931F934B015C014A30F3
S1131F1009F06DC1213089F41092E1011092E001C1
S1131F201092DF011092DE011092DD011092DC01AB
S1131F301092DB011092DA0179C1223009F08AC0D3
S1131F4081E090E09093DD018093DC01B401809105
S1131F50DE019091DF018430910509F441C034F42D
S1131F60009751F0039709F455C060C1853091057D
S1131F7011F1069759F05AC1092C000CAA08BB08A4
S1131F80F80180829182A282B38250C18091E001E3
S1131F909091E101880E991EC401092C000CAA0B32
S1131FA0BB0BF80180839183A283B3839092E101F8
S1131FB08092E0013BC18091E0019091E101881998
S1131FC09909AC01092E000C660B770BF8014083CC
S1131FD05183628373839093E1018093E00126C16E
S1131FE02091E0013091E101289DC001299D900DCF
S1131FF0389D900D1124AC01092E000C660B770B53
S1132000F80140835183628373839093E101809349
S1132010E0010CC1892851F480EA96E8A1E0B0E01F
S1132020F80180839183A283B38300C18091E0018E
S11320309091E10172D3CB01072E000CAA0BBB0BCC
S1132040F80180839183A283B3837093E101609349
S1132050E001ECC08091DC019091DD01009709F072
S113206099C04091DA015091DB01452B09F0D6C0AB
S11320708091DE019091DF018430910509F446C01E
S113208034F4009751F0039709F45FC077C08530AA
S1132090910511F1069731F071C09092E10180929F
S11320A0E0016CC08091E0019091E101880E991EDD
S11320B0C401092C000CAA0BBB0BF801808391838B
S11320C0A283B3839092E1018092E001F7018083BF
S11320D09183A283B38352C08091E0019091E10186
S11320E088199909AC01092E000C660B770BF801CD
S11320F040835183628373839093E1018093E00171
S1132100F701408351836283738338C08091E00177
S11321109091E101889DA001899D500D989D500DDD
S11321201124CA01052E000CAA0BBB0BF8018083F5
S11321309183A283B3835093E1014093E001F701BB
S113214080839183A283B38319C08091E00190912D
S1132150E101B401E2D2CB01072E000CAA0BBB0BA8
S1132160F80180839183A283B3837093E101609328
S1132170E001F70180839183A283B38330E030933D
S1132180DF012093DE0181E090E09093DB018093F6
S1132190DA014CC04091DA015091DB014130510524
S11321A031F4422F50E05093DF014093DE01019758
S11321B0E9F5F80180819181A281B3819093E101D5
S11321C08093E001F70180839183A283B38330E09D
S11321D03093DF012093DE011092DD011092DC01C7
S11321E081E090E09093DB018093DA011FC01092AC
S11321F0DB011092DA018091DC019091DD010197FD
S1132200A9F41092E1011092E0011092DF01109202
S1132210DE011092DD011092DC0108C04091DA0168
S11322205091DB014130510509F4BBCF1F910F914F
S1132230FF90EF90BF90AF909F908F9008958F92F2
S11322409F92AF92BF92CF92DF92EF92FF920F9341
S11322501F93CF93DF93FB01D80113961C9213971E
S113226012961C92129711961C9211971C9222306E
S1132270310529F02130310521F0E82FF92F30976D
S113228021F480E3F8018383A0C01E161F060CF01E
S113229085C09F01CF0109968331910508F48AC056
S11322A0865A9F4F873C910508F487C029513C4FBB
S11322B02F3C374008F084C083E090E083C080E086
S11322C090E0442755274E1B5F0B29E030E02E1B7E
S11322D03F0B2331310508F44FC023E630E02E1BB9
S11322E03F0B273C310508F44AC027EE33E02E1B90
S11322F03F0B2F3C374008F445C024E030E059013F
S1132300A81AB90AB4E0AB16B1047CF5FA016894D2
S1132310882481F8912CE8010F2EF3E0EF2EF12CA4
S1132320F02D0F2EFAE0CF2ED12CF02D4DE2CF015F
S1132330B601F3D19C01CF01821B930BB601EDD101
S1132340FB01205D2B8361E08616910409F44A8326
S113235081E0E81AF1082197EA14FB0444F7EF2B13
S113236021F4A2E08A16910481F58DE2F8018383B9
S113237082838183808329C081E090E005C082E06C
S113238090E002C083E090E024E030E05901A81A14
S1132390B90AFA0188248394912CBDCFFF230CF44D
S11323A08ECFE3CF24E030E05901A81AB90A812C7A
S11323B0912CB1CF81E090E005C082E090E002C0B2
S11323C084E090E0FF2374F77CCFDF91CF911F91DD
S11323D00F91FF90EF90DF90CF90BF90AF909F90C0
S11323E08F9008958F929F92BF92CF92DF92EF9237
S11323F0FF920F931F93CF93DF93CDB7DEB7689708
S11324000FB6F894DEBF0FBECDBF4C0120E1ECE562
S1132410F1E0DE01119601900D922A95E1F720E793
S1132420298B20EB2A8B20ED2B8B20EE2C8B21E0AB
S11324302D8B22E02E8B24E02F8B28E0288FFC01AB
S11324402081211166C07E01F1E1EF0EF11C8E01A5
S11324500F5F1F4F67010F2EF0EFBF2EF02DB4BAA0
S1132460F70121917F0125BBDE015596B80140E0BB
S113247050E0B4BA33B3FD012C91232330E0042E91
S113248002C0359527950A94E2F7232B91F52FEE98
S11324903AE981E0215030408040E1F700C000007B
S11324A0B4BA33B32C91232330E0042E02C0359503
S11324B027950A94E2F71216130674F0B4BA33B3EC
S11324C02081232330E0042E02C0359527950A94F9
S11324D0E2F71216130694F79FEEEAE9F1E0915041
S11324E0E040F040E1F700C00000FB012081F4016E
S11324F020834F5F5F4F11966F5F7F4F44305105CC
S113250009F0B7CF0C5F1F4F0C151D0509F0A7CFBD
S113251002C0FC01108268960FB6F894DEBF0FBEAD
S1132520CDBFDF91CF911F910F91FF90EF90DF907E
S1132530CF90BF909F908F900895CF93DF93CDB7A6
S1132540DEB72F970FB6F894DEBF0FBECDBF0E9443
S1132550A30219821C821D821E821F82188619867C
S11325601A861B861C861D861E8680E38F8700E0E4
S113257020E04FEF68EC81E00E9473042FED35E317
S113258083E0215030408040E1F700C000009E010C
S1132590245F3F4F44E060E081E00E9411049FED1E
S11325A025E333E0915020403040E1F700C00000C3
S11325B00F2EFCE68F2EF1E09F2EF02D0F2EFFE65E
S11325C0AF2EF1E0BF2EF02D0F2EF3E7CF2EF1E06A
S11325D0DF2EF02D03C0CE01019604DF898188230C
S11325E0D1F39C859D3289F49D859D3271F49E853D
S11325F09D3259F49F859D3241F4813431F0CE01EE
S11326000196F0DE89818134D1F7AE014D5F5F4FD1
S1132610BE016E5F7F4F8981D8DB8B811F928F93C0
S11326208A811F928F939F928F92A7D08A810F9055
S11326300F900F900F900F900F908A3059F49B8158
S1132640913041F4188619861A861B861C821D82D5
S11326501E821F82AE014C5F5F4F6B81F3DB8F8163
S11326608F938E818F938D818F938C818F93BF9263
S1132670AF9283D06C817D818E819F819E012C5F7E
S11326803F4F79018E01085F1F4F2B814A8135DC52
S11326902B8130E04A8150E0688579850C5F1F4FBB
S11326A08C819D81CCDD8C851F928F93DF92CF929C
S11326B064D08D851F928F93DF92CF925ED08E85EA
S11326C01F928F93DF92CF9258D08F851F928F9352
S11326D0BF92AF9252D0980144E060E081E00E9442
S11326E011043FED85E393E0315080409040E1F7E1
S11326F000C000000FB6F894DEBF0FBECDBF8981C5
S1132700882309F46BCFCE0101966CDE87E791E054
S113271047D089818111F7CF61CF97FB072E16F43B
S1132720009406D077FD08D014D007FC05D03EF401
S1132730909581959F4F0895709561957F4F089569
S1132740EE0FFF1F0024001C0BBE0790F691E02D36
S11327500994AA1BBB1B51E107C0AA1FBB1FA617E4
S1132760B70710F0A61BB70B881F991F5A95A9F736
S113277080959095BC01CD010895CF93DF93CDB79B
S1132780DEB7AE014B5F5F4FFA0161917191AF010A
S113279080911E0290911F0233D0DF91CF91089552
S11327A00F931F93CF93DF93E0911E02F0911F02CA
S11327B0238121FF1BC08C01D0E0C0E0F80181918E
S11327C08F0160911E0270911F02DB011896ED913A
S11327D0FC911997882331F00995892B79F3DFEF60
S11327E0CFEFECCF8AE00995892B19F08FEF9FEF9B
S11327F002C08D2F9C2FDF91CF911F910F910895CF
S11328002F923F924F925F926F927F928F929F92FC
S1132810AF92BF92CF92DF92EF92FF920F931F93EA
S1132820CF93DF93CDB7DEB72B970FB6F894DEBF07
S11328300FBECDBF6C017B018A01FC011782168299
S1132840838181FFBFC1CE0101963C01F6019381D2
S1132850F70193FD859193FF81917F01882309F40A
S1132860ADC1853239F493FD859193FF81917F0148
S1132870853221F4B60190E0D6D1E8CF912C212CF9
S1132880312CFFE1F315D8F08B3279F038F4803233
S113289079F08332A1F4232D20611DC08D3261F0C3
S11328A0803369F4232D216016C0832D8260382E75
S11328B0E32DE4603E2E2AC0F32DF8601DC037FCE2
S11328C02DC020ED280F2A3040F08E32B9F436FCAA
S11328D075C1232D2064322E19C036FE06C08AE04D
S11328E0989E200D1124922E11C0EAE02E9E200DF8
S11328F01124222EF32DF0623F2E08C08C3621F4D1
S1132900832D8068382E02C0883641F4F70193FD88
S1132910859193FF81917F018111B3CF982F9F7D82
S11329209554933028F40C5F1F4F9FE399830DC097
S1132930833631F0833771F0833509F055C020C0F8
S1132940F801808189830E5F1F4F88248394912C22
S1132950530112C02801F2E04F0E511CF801A0806F
S1132960B18036FE03C0692D70E002C06FEF7FEFC7
S1132970C5014ED14C018201F32DFF773F2E15C0C6
S1132980280122E0420E511CF801A080B18036FEDD
S113299003C0692D70E002C06FEF7FEFC5012DD138
S11329A04C01F32DF0683F2E820133FC19C0822DB7
S11329B090E088169906A0F4B60180E290E033D145
S11329C02A94F5CFF50137FC859137FE81915F019B
S11329D0B60190E028D121102A9421E0821A9108AE
S11329E08114910479F7E1C0843611F0893639F500
S11329F0F80137FE07C060817181828193810C5F89
S1132A001F4F08C060817181072E000C880B990B41
S1132A100E5F1F4FF32DFF763F2E97FF09C0909551
S1132A208095709561957F4F8F4F9F4FF0683F2E33
S1132A302AE030E0A30133D1882E861844C08537BC
S1132A4031F4232D2F7EB22E2AE030E025C0932DC1
S1132A50997FB92E8F36C1F018F4883579F0AEC05D
S1132A60803719F0883721F0A9C0E92FE061BE2E24
S1132A70B4FE0DC0FB2DF460BF2E09C034FE0AC0A5
S1132A80292F2660B22E06C028E030E005C020E1E0
S1132A9030E002C020E132E0F801B7FE07C06081F7
S1132AA07181828193810C5F1F4F06C060817181A7
S1132AB080E090E00E5F1F4FA301F1D0882E8618AE
S1132AC0FB2DFF773F2E36FE0DC0232D2E7FA22E29
S1132AD0891458F434FE0BC032FC09C0832D8E7E59
S1132AE0A82E05C0B82CA32C03C0B82C01C0B92C47
S1132AF0A4FE0FC0FE01E80DF11D8081803321F496
S1132B009A2D997EA92E09C0A2FE06C0B394B3944F
S1132B1004C08A2D867809F0B394A3FC10C0A0FEEB
S1132B2006C0B21480F4280C922C9B180DC0B21469
S1132B3058F4B60180E290E076D0B394F8CFB214A2
S1132B4018F42B1802C0982C212CA4FE0FC0B60137
S1132B5080E390E068D0A2FE16C0A1FC03C088E721
S1132B6090E002C088E590E0B6010CC08A2D86781A
S1132B7051F0A1FE02C08BE201C080E2A7FC8DE20D
S1132B80B60190E050D0891430F4B60180E390E0AF
S1132B904AD09A94F8CF8A94F301E80DF11D80810C
S1132BA0B60190E040D08110F6CF222009F44ECE39
S1132BB0B60180E290E037D02A94F7CFF6018681FF
S1132BC0978102C08FEF9FEF2B960FB6F894DEBF6C
S1132BD00FBECDBFDF91CF911F910F91FF90EF906A
S1132BE0DF90CF90BF90AF909F908F907F906F9029
S1132BF05F904F903F902F900895FC010590615095
S1132C0070400110D8F7809590958E0F9F1F0895FE
S1132C10FC016150704001900110D8F780959095A7
S1132C208E0F9F1F08950F931F93CF93DF93FB0184
S1132C30238121FD03C08FEF9FEF2CC022FF16C01C
S1132C4046815781248135814217530744F4A0817A
S1132C50B1819D012F5F3F4F318320838C93268167
S1132C6037812F5F3F4F3783268314C08B01EC01DC
S1132C70FB010084F185E02D0995892BE1F6D8014B
S1132C8016968D919C911797019617969C938E9307
S1132C901697CE01DF91CF911F910F910895FA01FC
S1132CA0AA27283051F1203181F1E8946F936E7F87
S1132CB06E5F7F4F8F4F9F4FAF4FB1E03ED0B4E078
S1132CC03CD0670F781F891F9A1FA11D680F791FB9
S1132CD08A1F911DA11D6A0F711D811D911DA11DCA
S1132CE020D009F468943F912AE0269F11243019DA
S1132CF0305D3193DEF6CF010895462F4770405D75
S1132D004193B3E00FD0C9F7F6CF462F4F70405D23
S1132D104A3318F0495D31FD4052419302D0A9F77E
S1132D20EACFB4E0A6959795879577956795BA9578
S1132D30C9F700976105710508959B01AC010A2E3E
S1132D4006945795479537952795BA95C9F7620F15
S1112D50731F841F951FA01D0895F894FFCFD4
S1132D5E0000000300000000AC00B9000000D7D74B
S1132D6ED74F4B9A00002300000000000000000023
S1132D7E0000000000000000000000000000000041
S1132D8E000000000000000000002300000000000E
S1132D9E0000000000000000000000000000000021
S1132DAE0000000000000000000000003041424618
S1132DBE31323345343536443738394325640925A1
S1132DCE640A0025640900696E7768696C652121BF
S1052DDE0000EF
S9030000FC
