S00D000074657374392E737265631E
S11300004BC0000068C0000066C0000064C000006F
S113001062C0000060C000005EC000005CC0000060
S11300205AC0000058C0000056C0000054C0000070
S113003039C4000050C000004EC000004CC0000095
S11300404AC0000048C0000046C0000044C0000090
S113005042C0000040C000003EC000003CC00000A0
S11300603AC0000038C0000036C0000034C00000B0
S113007032C0000030C000005BC300002CC0000090
S11300800CC3000028C0000026C000006364696E31
S11300906F70737578585B0011241FBECFEFD0E1E9
S11300A0DEBFCDBF11E0A0E0B1E0E0EFFAE200E096
S11300B00BBF02C007900D92A636B107D9F721E015
S11300C0A6E6B1E001C01D92A43CB207E1F70E948C
S11300D0F80E0C94761594CF1F93182F8A3011F4D0
S11300E08DE0FADF5D9BFECF1CB980E090E01F91AC
S11300F008951F93BC015F9BFECF1CB1812FECDFE1
S1130100812F90E01F910895382F843010F081E002
S11301100895483010F082E00895822F90E002C0E4
S1130120880F991F4A95E2F7282F313089F0313032
S113013028F03230B9F03330F1F41FC08AB3862B83
S11301408ABB8BB3262360958623282B2BBB13C035
S113015087B3862B87BB88B3262360958623282BF9
S113016028BB09C084B3862B84BB85B32623609542
S11301708623282B25BB80E0089582B1862B82B983
S113018083B1262360958623282B23B980E0089524
S1130190F901843010F081E00895483010F082E0D5
S11301A008958130B9F0813028F0823019F183301C
S11301B0C1F539C08AB3882329F09AB3862F809574
S11301C0892305C08AB3882319F4862F80958ABBB6
S11301D089B31FC087B3882329F097B3862F8095EE
S11301E0892305C087B3882319F4862F809587BB9C
S11301F086B30FC084B3882329F094B3862F8095E7
S1130200892305C084B3882319F4862F809584BB81
S113021083B3862390E002C0959587954A95E2F7CB
S1130220808380E0089582B1882329F092B1862FDB
S11302308095892305C082B1882319F4862F80957F
S113024082B981B1862390E002C0959587954A953D
S1130250E2F7808380E00895DF92EF92FF920F939C
S11302601F93CF93DF93082FD62EE72E813210F001
S113027081E02AC00E94350B8B3A29F50E94350B88
S11302808B3A09F50E94350B8B3AE9F40E94350B41
S1130290F82E182F8D2D9E2D9C01E90104C00E947B
S11302A0350B8993180F9E012D192017C0F30E9456
S11302B0350BF01611F083E007C0811711F480E0CC
S11302C003C084E001C082E0DF91CF911F910F91C0
S11302D0FF90EF90DF900895AF92BF92CF92DF929C
S11302E0EF92FF920F931F93CF93DF93182F092F51
S11302F0E62EB42EA52E2FEF621711F481E045C02F
S11303000E94350B8B3A09F03FC00E94350B8B3AA3
S1130310D9F50E94350B8B3AB9F50E94350BF82EAE
S11303200E94350BC82EA12FB02FFD010190002093
S1130330E9F73197DE2ED11A212F302FC901EC01B4
S11303400C2D10E005C00E94350B8993080F1F5F28
S11303501D15C8F38B2D9A2D9C01E90104C00E9440
S1130360350B8993080F9E012B192E15C0F30E949B
S1130370350BFC18FE1411F083E007C0801711F44C
S113038080E003C084E001C082E0DF91CF911F913F
S11303900F91FF90EF90DF90CF90BF90AF900895B2
S11303A0AF92BF92CF92DF92EF92FF920F931F937F
S11303B0CF93DF93D82EC92EE62EB42EA52E8BEB29
S11303C00E94310B8BEB0E94310B8BEB0E94310BA3
S11303D0ED2DFC2DEF0109900020E9F72197CE1BAC
S11303E0DF0B0C2F8C2F90E001968E0D911D8F3F0B
S11303F0910519F014F081E02CC00F5F102F1E0D31
S11304000150812F0E94310B8C2F0E94310BF12E51
S1130410F00E2D2D3C2DC901EC0110E006C08881A1
S11304200E94310B8991F80E1F5F1017C0F38B2DBA
S11304309A2D9C01E90100E006C088810E94310BDD
S11304408991F80E0F5F0E15C0F38F2D0E94310BAA
S113045080E0DF91CF911F910F91FF90EF90DF909B
S1130460CF90BF90AF900895EF92FF920F931F9398
S1130470CF93DF93082F7B01813210F081E01CC001
S11304808AEA0E94310B8AEA0E94310B8AEA0E94AE
S1130490310B802F0E94310B102FE70105C088819A
S11304A00E94310B8991180F9E012E192017B8F361
S11304B0812F0E94310B80E0DF91CF911F910F912A
S11304C0FF90EF9008951092900091E199B98AB14C
S11304D088618AB9E5E9F0E08081866080831092C2
S11304E0980090939900EAE9F0E080818861808324
S11304F0EDE9F0E080818660808380E091E0909374
S1130500C1018093C0019093BF018093BE0187B362
S1130510806E87BB80E00E94D40A14D0789480E077
S11305200895FC016083089510928D01EAE9F0E0DA
S11305308081806880830895EAE9F0E080818F7784
S1130540808308958EB588608EBD8EB582608EBD21
S113055087B7806187BF8FE890E09BBD8ABD1DBCD3
S11305601CBC08958EE18093BC0108950F931F93E2
S1130570CF93DF93EC018A01898170E0E82FF0E0EA
S11305809B012E0F3F1F8A8190E08217930764F12D
S1130590AF014C5F5F4F4C0F5D1F20E030E00DC09A
S11305A0DA01A20FB31FF801E20FF31F80818C93CD
S11305B088818F5F88832F5F3F4F2617370784F327
S11305C058814981242F30E0250F311D8A8190E024
S11305D0450F2817390711F481E001C082E08B83AD
S11305E04983188280E002C081E08B83DF91CF9140
S11305F01F910F9108950F931F93CF93DF93EC01F5
S1130600962F8981861710F481E042C08881682F73
S113061070E06C5F7F4F6C0F7D1F20E030E0092F8E
S113062010E00DC0DA01A20FB31FFB01E20FF31FAC
S113063080818C9388818F5F88832F5F3F4F201741
S1130640310784F38881082F10E0DB01A00FB11F6C
S113065040E050E008C0FB01E40FF51F8C9180835B
S11306601D924F5F5F4FE9819A01200F311F8E2F3A
S113067090E0281739077CF398819E1719F41B82A0
S1130680198204C082E08B83E91BE983188280E02D
S1130690DF91CF911F910F9108951F920F920FB682
S11306A00F920BB60F9211242F933F934F935F93A6
S11306B06F937F938F939F93AF93BF93EF93FF9326
S11306C080911101882359F08EE091E061E04BEBB9
S11306D051E091DF8091BB0180939C0005C0809123
S11306E09A008F7B80939A00FF91EF91BF91AF9115
S11306F09F918F917F916F915F914F913F912F9136
S11307000F900BBE0F900FBE0F901F901895FC0119
S113071081E083830895FC0113821182108280E0BA
S113072090E014820196319680329105D1F70895B4
S11307301F920F920FB60F920BB60F9211242F93A4
S11307403F934F935F936F937F938F939F93AF9355
S1130750BF93EF93FF9390919C00909394018091A9
S11307608D01823031F1833030F4882359F08130A7
S113077009F085C00CC0833009F44BC0843009F003
S11307807EC06AC0903F09F063C081E05FC0809181
S11307906601981721F482E080938D0107C01092BE
S11307A08D0180919A008F7780939A001092950121
S11307B04FC09923B9F480916701823039F483E002
S11307C080938D018091690190E007C0843051F4D9
S11307D083E080938D0181E090E090939301809376
S11307E0920107C084E080938D01109293011092CE
S11307F0920182E391E061E044E951E0B7DE809147
S113080094018093990190919501980F909395018B
S11308101FC082E391E061E044E951E0A7DE8091EA
S1130820940190919501890F809395018091920193
S113083090919301019790939301809392018091F9
S1130840920190919301892B19F484E080938D0196
S11308508EE18093BC0113C080919501981721F417
S113086081E08093350103C082E391E054DF8EE19F
S11308708093BC0180919A008F7780939A00FF91B6
S1130880EF91BF91AF919F918F917F916F915F9104
S11308904F913F912F910F900BBE0F900FBE0F9071
S11308A01F9018951F920F920FB60F920BB60F92CE
S11308B011242F933F934F935F936F937F938F9361
S11308C09F93AF93BF93EF93FF9380918E018130F9
S11308D079F0813018F0823059F524C0909191015B
S11308E0913031F58EE18093BC0190938E0120C04C
S11308F08091BC0181508093BC018091BC0188230C
S113090061F480919A008F7780939A0082E391E05A
S113091002DF82E080938E010BC080919A0087FDF4
S113092007C004C080919101882311F410928E01B4
S1130930FF91EF91BF91AF919F918F917F916F91B3
S11309405F914F913F912F910F900BBE0F900FBE6F
S11309500F901F901895EF92FF920F93DF93CF9310
S1130960CDB7DEB728970FB6F894DEBF0FBECDBF64
S11309706D834E832F830887198294E09A8314D65B
S11309808091610080618093610080916200806148
S1130990809362008A819981890F9E81890F9F814A
S11309A0890F9885890F89838EE091E061E0AE011B
S11309B04B5F5F4FDBDD8EE091E061E0AE014E5FA7
S11309C05F4FD4DD8EE091E061E0AE014A5F5F4F9E
S11309D0CDDD8EE091E061E0AE01495F5F4FC6DDA1
S11309E08EE091E061E0AE01485F5F4FBFDD8EE0D5
S11309F091E061E0AE014F5F5F4FB8DD8D81809380
S1130A0066018A818093670180EFDCD580919A002A
S1130A10806480939A0080919A0086FDFCCF809137
S1130A2062008F7E8093620010928D0180919A0003
S1130A30806880939A0081E08093910180913501D0
S1130A40813021F080918E018230C1F710929101A2
S1130A5080913501813011F081E017C082E391E08B
S1130A6061E0AE014D5F5F4FC6DD8B81882351F499
S1130A7082E391E061E0AE014C5F5F4FBCDD8C81AD
S1130A80F70180838B81880F880F28960FB6F8941E
S1130A90DEBF0FBECDBFCF91DF910F91FF90EF90DE
S1130AA00895EF920F93DF93CF93CDB7DEB72897D6
S1130AB00FB6F894DEBF0FBECDBF6C834D832E837B
S1130AC00F83E886198293E09A836ED58091610042
S1130AD080618093610080916200806180936200F4
S1130AE08A819981890F9D81890F9E81890F9F81B8
S1130AF0890F9885890F89838EE091E061E0AE01CA
S1130B004C5F5F4F33DD8EE091E061E0AE014E5FFC
S1130B105F4F2CDD8EE091E061E0AE014B5F5F4FF3
S1130B2025DD8EE091E061E0AE014A5F5F4F1EDD9E
S1130B308EE091E061E0AE01495F5F4F17DD8EE02A
S1130B4091E061E0AE01485F5F4F10DD8EE091E01F
S1130B5061E0AE014F5F5F4F09DD8C8180936601D8
S1130B608A818093670180EF2DD580919A008064FB
S1130B7080939A0080919A0086FDFCCF8091620058
S1130B808F7E8093620010928D0180919A0080681C
S1130B9080939A0081E080939101809135018130A6
S1130BA021F080918E018230C1F7109291018091E1
S1130BB03501813011F081E00AC082E391E061E007
S1130BC0AE014D5F5F4F17DD8B81880F880F28962C
S1130BD00FB6F894DEBF0FBECDBFCF91DF910F915A
S1130BE0EF900895CF92DF92EF92FF920F931F93AD
S1130BF0DF93CF93CDB7DEB727970FB6F894DEBF58
S1130C000FBECDBF6D834E832F836801198292E09E
S1130C109A83CAD48091610080618093610080913D
S1130C2062008061809362008A819981890F9E812C
S1130C30890F9F81890F89838EE091E061E0AE0185
S1130C404B5F5F4F93DC8EE091E061E0AE014E5F5D
S1130C505F4F8CDC8EE091E061E0AE014A5F5F4F54
S1130C6085DC8EE091E061E0AE01495F5F4F7EDCA0
S1130C708EE091E061E0AE014F5F5F4F77DC8D81E4
S1130C80809366018A81809367018F8180936901D3
S1130C9080EF98D480919A00806480939A00809128
S1130CA09A0086FDFCCF809162008F7E8093620063
S1130CB010928D0180919A00806880939A0081E05F
S1130CC08093910180913501813021F080918E01D2
S1130CD08230C1F71092910180913501813011F079
S1130CE081E026C082E391E061E0AE014D5F5F4F99
S1130CF082DC8B818823C9F400E010E084E0E82ED4
S1130D00F12CEC0EFD1E0CC082E391E061E0A70122
S1130D1072DCF601E00FF11F8C8180830F5F1F4F9F
S1130D208F8190E0081719077CF38B81880F880F57
S1130D3027960FB6F894DEBF0FBECDBFCF91DF91DB
S1130D401F910F91FF90EF90DF90CF9008950F9334
S1130D501F93DF93CF9300D000D000D0CDB7DEB780
S1130D606C834D832E83198291E09A831DD48091E4
S1130D706100806180936100809162008061809352
S1130D8062008A819981890F9D81890F9E81890FD3
S1130D908983F8019801290F311D04C0898191913B
S1130DA0890F8983E217F307C9F78EE091E061E0C8
S1130DB0AE014C5F5F4FDADB8EE091E061E0AE01A3
S1130DC04E5F5F4FD3DB8EE091E061E0AE014B5F9D
S1130DD05F4FCCDB8EE091E061E0AE014A5F5F4F94
S1130DE0C5DB8EE091E06E81A801C0DB8EE091E06E
S1130DF061E0AE014F5F5F4FB9DB8C818093660188
S1130E008A818093670180EFDDD380919A008064AA
S1130E1080939A0080919A0086FDFCCF80916200B5
S1130E208F7E8093620010928D0180919A00806879
S1130E3080939A0081E08093910180913501813003
S1130E4021F080918E018230C1F71092910180913E
S1130E503501813011F081E00AC082E391E061E064
S1130E60AE014D5F5F4FC7DB8B81880F880F2696DD
S1130E700FB6F894DEBF0FBECDBFCF91DF911F91A7
S1130E800F910895EF920F93DF93CF93CDB7DEB711
S1130E9028970FB6F894DEBF0FBECDBF6C834D8389
S1130EA02E830F83E88619821A827ED38091610093
S1130EB08061809361008091620080618093620010
S1130EC08A819981890F9D81890F9E81890F9F81D4
S1130ED0890F9885890F89838EE091E061E0AE01E6
S1130EE04C5F5F4F43DB8EE091E061E0AE014E5F0B
S1130EF05F4F3CDB8EE091E061E0AE014B5F5F4F02
S1130F0035DB8EE091E061E0AE014A5F5F4F2EDB9E
S1130F108EE091E061E0AE01495F5F4F27DB8EE038
S1130F2091E061E0AE01485F5F4F20DB8EE091E02D
S1130F3061E0AE014F5F5F4F19DB8C8180936601E6
S1130F408A818093670180EF3DD380919A00806409
S1130F5080939A0080919A0086FDFCCF8091620074
S1130F608F7E8093620010928D0180919A00806838
S1130F7080939A0081E080939101809135018130C2
S1130F8021F080918E018230C1F7109291018091FD
S1130F903501813011F081E00AC082E391E061E023
S1130FA0AE014D5F5F4F27DB8B81880F880F28963A
S1130FB00FB6F894DEBF0FBECDBFCF91DF910F9176
S1130FC0EF900895EF92FF920F93DF93CF93CDB7F5
S1130FD0DEB728970FB6F894DEBF0FBECDBF6D8382
S1130FE04E832F830887198294E09A83DDD28A8105
S1130FF09981890F9E81890F9F81890F9885890F17
S113100089838EE091E061E0AE014B5F5F4FAEDA21
S11310108EE091E061E0AE014E5F5F4FA7DA8EE0B3
S113102091E061E0AE014A5F5F4FA0DA8EE091E0AB
S113103061E0AE01495F5F4F99DA8EE091E061E0D3
S1131040AE01485F5F4F92DA8EE091E061E0AE015D
S11310504F5F5F4F8BDA8D81809366018A81809325
S1131060670180EFAFD280919A00806480939A00E8
S113107080919A0086FDFCCF10928D0180919A0098
S1131080806880939A0081E080939101809135017A
S1131090813021F080918E018230C1F7109291014C
S11310A080913501813011F081E017C082E391E035
S11310B061E0AE014D5F5F4F9EDA8B81882351F46E
S11310C082E391E061E0AE014C5F5F4F94DA8C8182
S11310D0F70180838B81880F880F28960FB6F894C8
S11310E0DEBF0FBECDBFCF91DF910F91FF90EF9088
S11310F00895EF920F93DF93CF93CDB7DEB7289780
S11311000FB6F894DEBF0FBECDBF6C834D832E8324
S11311100F83E886198293E09A8346D28A81998163
S1131120890F9D81890F9E81890F9F81890F9885E1
S1131130890F89838EE091E061E0AE014C5F5F4FDF
S113114015DA8EE091E061E0AE014E5F5F4F0EDA9A
S11311508EE091E061E0AE014B5F5F4F07DA8EE015
S113116091E061E0AE014A5F5F4F00DA8EE091E00A
S113117061E0AE01495F5F4FF9D98EE091E061E033
S1131180AE01485F5F4FF2D98EE091E061E0AE01BD
S11311904F5F5F4FEBD98C81809366018A81809386
S11311A0670180EF0FD280919A00806480939A0047
S11311B080919A0086FDFCCF10928D0180919A0057
S11311C0806880939A0081E0809391018091350139
S11311D0813021F080918E018230C1F7109291010B
S11311E080913501813011F081E00AC082E391E001
S11311F061E0AE014D5F5F4FFED98B81880F880F90
S113120028960FB6F894DEBF0FBECDBFCF91DF9105
S11312100F91EF900895CF92DF92EF92FF920F9388
S11312201F93DF93CF93CDB7DEB727970FB6F8940C
S1131230DEBF0FBECDBF6D834E832F83680119823D
S113124092E09A83B1D18A819981890F9E81890F15
S11312509F81890F89838EE091E061E0AE014B5F4D
S11312605F4F84D98EE091E061E0AE014E5F5F4F45
S11312707DD98EE091E061E0AE014A5F5F4F76D99F
S11312808EE091E061E0AE01495F5F4F6FD98EE07F
S113129091E061E0AE014F5F5F4F68D98D8180932B
S11312A066018A81809367018F818093690180EF51
S11312B089D180919A00806480939A0080919A00E9
S11312C086FDFCCF10928D0180919A0080688093F6
S11312D09A0081E08093910180913501813021F061
S11312E080918E018230C1F7109291018091350175
S11312F0813011F081E026C082E391E061E0AE012B
S11313004D5F5F4F78D98B818823C9F400E010E0EA
S113131094E0E92EF12CEC0EFD1E0CC082E391E06A
S113132061E0A70168D9F601E00FF11F8C81808389
S11313300F5F1F4F8F8190E0081719077CF38B8193
S1131340880F880F27960FB6F894DEBF0FBECDBF67
S1131350CF91DF911F910F91FF90EF90DF90CF908D
S113136008950F931F93DF93CF9300D000D000D044
S1131370CDB7DEB76C834D832E83198291E09A83B7
S113138013D18A819981890F9D81890F9E81890F4B
S11313908983F8019801290F311D04C08981919135
S11313A0890F8983E217F307C9F78EE091E061E0C2
S11313B0AE014C5F5F4FDAD88EE091E061E0AE01A0
S11313C04E5F5F4FD3D88EE091E061E0AE014B5F9A
S11313D05F4FCCD88EE091E061E0AE014A5F5F4F91
S11313E0C5D88EE091E06E81A801C0D88EE091E06E
S11313F061E0AE014F5F5F4FB9D88C818093660185
S11314008A818093670180EFDDD080919A008064A7
S113141080939A0080919A0086FDFCCF10928D01F2
S113142080919A00806880939A0081E08093910172
S113143080913501813021F080918E018230C1F795
S11314401092910180913501813011F081E00AC040
S113145082E391E061E0AE014D5F5F4FCCD88B81B8
S1131460880F880F26960FB6F894DEBF0FBECDBF47
S1131470CF91DF911F910F910895EF920F93DF9316
S1131480CF93CDB7DEB728970FB6F894DEBF0FBE63
S1131490CDBF6C834D832E830F83E88619821A8215
S11314A083D08A819981890F9D81890F9E81890FBB
S11314B09F81890F9885890F89838EE091E061E08F
S11314C0AE014C5F5F4F52D88EE091E061E0AE0117
S11314D04E5F5F4F4BD88EE091E061E0AE014B5F11
S11314E05F4F44D88EE091E061E0AE014A5F5F4F08
S11314F03DD88EE091E061E0AE01495F5F4F36D8A0
S11315008EE091E061E0AE01485F5F4F2FD88EE03E
S113151091E061E0AE014F5F5F4F28D88C818093EA
S113152066018A818093670180EF4CD080919A0094
S1131530806480939A0080919A0086FDFCCF10927B
S11315408D0180919A00806880939A0081E0809355
S1131550910180913501813021F080918E0182309A
S1131560C1F71092910180913501813011F081E031
S11315700AC082E391E061E0AE014D5F5F4F3BD86A
S11315808B81880F880F28960FB6F894DEBF0FBEA4
S1131590CDBFCF91DF910F91EF90089590E0883007
S11315A008F091E0892F0895982F883010F081E099
S11315B0089588B39295990F907E8F71892B88BB7B
S11315C080E00895982F80919B0085FFFCCF909335
S11315D09C0083EB92E00197F1F7089580919B00C2
S11315E087FFFCCF80919C0008958FB9779BFECF35
S11315F08FB108951FB8779BFECF8FB108951F93C5
S1131600162FD2DF8DE393E00197F1F780919B00D1
S113161085FFFCCF10939C0083EB92E00197F1F7D8
S113162080E01F910895CF93DF93EB01BDDF8DE33D
S113163093E00197F1F720E030E008C02F5F3F4FBF
S11316408FEF2F3F380711F481E008C080919B0091
S113165087FFF4CF80919C00888380E0DF91CF9155
S113166008955D9BFECF8CB908955F9BFECF8CB12E
S1131670089584E980937400089584EA8093740043
S11316808091740087FFFCCF80917100887F88303F
S113169011F480E0089584E98093740081E0089552
S11316A084E980937400089584EA8093740080919F
S11316B0740087FFFCCF80917100887F803111F422
S11316C080E0089584E98093740082E0089590E0B6
S11316D0880F991F8093730084E88093740080912D
S11316E0740087FFFCCF80917100887F883119F0E6
S11316F084E9809374000895880F8F5F809373004A
S113170084E8809374008091740087FFFCCF8091FB
S11317107100887F803419F084E9809374000895FF
S11317208093730084E8809374008091740087FF31
S1131730FCCF80917100887F883219F084E980930E
S11317407400089584EC809374008091740087FF82
S1131750FCCF80917100887F803519F084E98093F3
S1131760740080917300089584E8809374008091DC
S1131770740087FFFCCF80917100887F883519F051
S113178084E9809374000895FF920F931F93182F98
S1131790062FF42E72DF812F9ADF802FC1DF8F2D69
S11317A0BFDF84E9809374001F910F91FF90089527
S11317B00F931F93082F162F60DF802F88DF812F50
S11317C0AFDF72DF802F98DFBDDF182FCDDF84E914
S11317D080937400812F1F910F910895809370005E
S11317E00895EF92FF920F931F93182F062FF72E51
S11317F0E42E43DF813009F441C0812F90E0880F4B
S1131800991F90708093730084E880937400809192
S1131810740087FFFCCF80917100887F883139F490
S1131820802F9F2D9C01F90190E024E81AC084E9DF
S11318308093740083E022C080818093730020939E
S113184074008091740087FFFCCF80917100319601
S1131850887F883229F084E98093740084E00EC084
S11318609F5F9E1548F381E08E1520F484E98093F0
S1131870740003C081E08093BD0180E01F910F914B
S1131880FF90EF9008950F931F93CF93DF93082F4A
S1131890EB01142F8091BD01813039F405DF8230D2
S11318A009F473C01092BD0101C0E7DE813009F470
S11318B06CC0802F90E0880F991F81608093730023
S11318C084E8809374008091740087FFFCCF80913A
S11318D07100887F803429F084E98093740085E066
S11318E054C01230D0F140E0212F30E0215030407C
S11318F054EC17C0509374008091740087FFFCCFA0
S113190080917100887F803529F084E98093740088
S113191086E03BC080917300FE01E40FF11D8083DB
S11319204F5F842F90E08217930724F384E8809319
S113193074008091740087FFFCCF80917100887FD0
S1131940883529F084E98093740087E01EC0809173
S11319507300C10FD11D219713C084E880937400D4
S11319608091740087FFFCCF80917100887F883557
S113197029F084E98093740088E007C080917300A3
S1131980888384E98093740080E0DF91CF911F9174
S11319900F910895922F483008F0C0C08A3C09F492
S11319A04AC08B3C30F4883C71F0893C09F0B6C0E5
S11319B026C08C3C09F477C08C3C08F458C08D3C9C
S11319C009F0ACC08CC02AB3E92FF0E002C0EE0FDE
S11319D0FF1F4A95E2F7262330E0862F90E08E23FE
S11319E09F232817390711F420E001C022E08AB3AD
S11319F0962F9E2360958623982B9ABB90C027B37D
S1131A00E92FF0E002C0EE0FFF1F4A95E2F726230C
S1131A1030E0862F90E08E239F232817390711F496
S1131A2020E001C022E087B3962F9E236095862391
S1131A30982B97BB74C024B3E92FF0E002C0EE0FDB
S1131A40FF1F4A95E2F7262330E0862F90E08E238D
S1131A509F232817390711F420E001C022E084B342
S1131A60962F9E2360958623982B94BB58C021B350
S1131A70E92FF0E002C0EE0FFF1F4A95E2F726239C
S1131A8030E0862F90E08E239F232817390711F426
S1131A9020E001C022E081B3962F9E236095862327
S1131AA0982B91BB3CC022B1E92FF0E002C0EE0FAD
S1131AB0FF1F4A95E2F7262330E0862F90E08E231D
S1131AC09F232817390711F420E001C022E082B1D6
S1131AD0962F9E2360958623982B92B920C020913F
S1131AE06100E92FF0E002C0EE0FFF1F4A95E2F714
S1131AF0262330E0862F90E08E239F232817390772
S1131B0011F420E001C022E080916100962F9E2311
S1131B1060958623982B9093610001C021E0822F69
S1131B200895FA016130C9F58230D1F0833028F488
S1131B30882351F0813089F50DC08430E9F0843078
S1131B40A8F0853051F51EC08AB38F3F21F58081FE
S1131B508BBB1FC087B38F3FF1F4808188BB19C052
S1131B6084B38F3FC1F4808185BB13C081B38F3FA1
S1131B7091F4808182BB0DC082B18F3F61F480817A
S1131B8083B907C0809161008F3F29F480818093DD
S1131B90620080E0089582E0089581E00895FA01EA
S1131BA0613009F042C08636F1F0873628F4843675
S1131BB051F08536D1F50FC0883629F18836D8F032
S1131BC0893699F529C08AB3882311F490E001C0BD
S1131BD092E089B31FC087B3882311F490E001C059
S1131BE092E086B317C084B3882311F490E001C057
S1131BF092E083B30FC081B3882311F490E001C055
S1131C0092E080B307C082B1882311F490E001C050
S1131C1092E081B180830AC080916100882311F42D
S1131C2090E001C092E080B1F5CF91E0892F089552
S1131C30483008F089C08230C1F1833030F4882301
S1131C4071F0813009F080C01DC0843009F452C0A5
S1131C50843008F43DC0853009F076C05DC05AB3C5
S1131C605623561709F06EC08BB330E002C0220F22
S1131C70331F4A95E2F7952F922350955823952BBD
S1131C809BBB5EC057B35623561709F05BC088B39D
S1131C9030E002C0220F331F4A95E2F7952F9223BA
S1131CA050955823952B98BB4BC054B356235617C5
S1131CB009F048C085B330E002C0220F331F4A95B3
S1131CC0E2F7952F922350955823952B95BB38C056
S1131CD051B356235617B1F582B330E002C0220F38
S1131CE0331F4A95E2F7952F922350955823952B4D
S1131CF092BB26C052B15623561721F583B130E06A
S1131D0002C0220F331F4A95E2F7952F9223509574
S1131D105823952B93B914C050916100562356173C
S1131D2089F48091620030E002C0220F331F4A958B
S1131D30E2F7952F922350955823952B90936200A8
S1131D4080E0089582E0089581E00895F901483023
S1131D5008F04BC0863601F1873630F4843661F0E2
S1131D60853609F042C010C0883631F18836E0F07B
S1131D70893609F03AC030C08AB3862311F420E0D2
S1131D8001C022E089B31FC087B3862311F420E089
S1131D9001C022E086B317C084B3862311F420E087
S1131DA001C022E083B30FC081B3862311F420E085
S1131DB001C022E080B307C082B1862311F420E081
S1131DC001C022E081B1862390E002C095958795F9
S1131DD04A95E2F780830AC080916100862311F45A
S1131DE020E001C022E080B1EECF21E0822F0895EF
S1131DF0CF93DF9300D0CDB7DEB70E94630220E01B
S1131E0040E060E08AECC6DD2FEF40E06FEF88EC45
S1131E10C1DD0F2EF6E5CF2EF1E0DF2EF02DCE0141
S1131E2001967C0103E611E01A821982AE014E5F2D
S1131E305F4F61E084E6B3DE9FEF2FE583E09150CE
S1131E4020408040E1F700C000008A811F928F93F8
S1131E50DF92CF9212D08AE591E022D0FF92EF92E6
S1131E601F930F934DD0A70161E082E05ADE0FB6B5
S1131E70F894DEBF0FBECDBFD7CFCF93DF93CDB7DE
S1131E80DEB7AE014B5F5F4FFA0161917191AF0113
S1131E908091C0019091C10146D0DF91CF91089506
S1131EA00F931F93CF93DF93E091C001F091C10191
S1131EB0238121FF1BC08C01D0E0C0E0F801819197
S1131EC08F016091C0017091C101DB011896ED9101
S1131ED0FC911997882331F00995892B79F3DFEF69
S1131EE0CFEFECCF8AE00995892B19F08FEF9FEFA4
S1131EF002C08D2F9C2FDF91CF911F910F910895D8
S1131F00CF93DF93CDB7DEB7AE014B5F5F4FFA01DE
S1131F1061917191AF018091BE019091BF01B2D3E3
S1131F20DF91CF9108952F923F924F925F926F92DB
S1131F307F928F929F92AF92BF92CF92DF92EF9255
S1131F40FF920F931F93CF93DF93CDB7DEB72B97F9
S1131F500FB6F894DEBF0FBECDBF6C017B018A01C2
S1131F60FC0117821682838181FFBFC1CE010196D5
S1131F703C01F6019381F70193FD859193FF8191D3
S1131F807F01882309F4ADC1853239F493FD85912D
S1131F9093FF81917F01853221F4B60190E0F0D462
S1131FA0E8CF912C212C312CFFE1F315D8F08B32A2
S1131FB079F038F4803279F08332A1F4232D206152
S1131FC01DC08D3261F0803369F4232D216016C069
S1131FD0832D8260382EE32DE4603E2E2AC0F32D3B
S1131FE0F8601DC037FC2DC020ED280F2A3040F0CA
S1131FF08E32B9F436FC75C1232D2064322E19C0FB
S113200036FE06C08AE0989E200D1124922E11C03F
S1132010EAE02E9E200D1124222EF32DF0623F2E95
S113202008C08C3621F4832D8068382E02C088368F
S113203041F4F70193FD859193FF81917F01811113
S1132040B3CF982F9F7D9554933028F40C5F1F4F86
S11320509FE399830DC0833631F0833771F0833564
S113206009F055C020C0F801808189830E5F1F4F9D
S113207088248394912C530112C02801F2E04F0E5E
S1132080511CF801A080B18036FE03C0692D70E0B8
S113209002C06FEF7FEFC5012AD44C018201F32DFA
S11320A0FF773F2E15C0280122E0420E511CF80193
S11320B0A080B18036FE03C0692D70E002C06FEFCE
S11320C07FEFC50109D44C01F32DF0683F2E820146
S11320D033FC19C0822D90E088169906A0F4B6014D
S11320E080E290E04DD42A94F5CFF50137FC859138
S11320F037FE81915F01B60190E042D421102A9409
S113210021E0821A91088114910479F7E1C08436A0
S113211011F0893639F5F80137FE07C06081718105
S1132120828193810C5F1F4F08C060817181072EEB
S1132130000C880B990B0E5F1F4FF32DFF763F2E7B
S113214097FF09C090958095709561957F4F8F4F4B
S11321509F4FF0683F2E2AE030E0A30166D4882E1A
S1132160861844C0853731F4232D2F7EB22E2AE001
S113217030E025C0932D997FB92E8F36C1F018F425
S1132180883579F0AEC0803719F0883721F0A9C0BE
S1132190E92FE061BE2EB4FE0DC0FB2DF460BF2E0E
S11321A009C034FE0AC0292F2660B22E06C028E0DA
S11321B030E005C020E130E002C020E132E0F80167
S11321C0B7FE07C060817181828193810C5F1F4FCC
S11321D006C06081718180E090E00E5F1F4FA30113
S11321E024D4882E8618FB2DFF773F2E36FE0DC093
S11321F0232D2E7FA22E891458F434FE0BC032FCFA
S113220009C0832D8E7EA82E05C0B82CA32C03C034
S1132210B82C01C0B92CA4FE0FC0FE01E80DF11DBD
S11322208081803321F49A2D997EA92E09C0A2FEC3
S113223006C0B394B39404C08A2D867809F0B3948D
S1132240A3FC10C0A0FE06C0B21480F4280C922C8B
S11322509B180DC0B21458F4B60180E290E090D3FC
S1132260B394F8CFB21418F42B1802C0982C212C74
S1132270A4FE0FC0B60180E390E082D3A2FE16C094
S1132280A1FC03C088E790E002C088E590E0B601B5
S11322900CC08A2D867851F0A1FE02C08BE201C0E9
S11322A080E2A7FC8DE2B60190E06AD3891430F491
S11322B0B60180E390E064D39A94F8CF8A94F30152
S11322C0E80DF11D8081B60190E05AD38110F6CF5C
S11322D0222009F44ECEB60180E290E051D32A9434
S11322E0F7CFF6018681978102C08FEF9FEF2B967F
S11322F00FB6F894DEBF0FBECDBFDF91CF911F9113
S11323000F91FF90EF90DF90CF90BF90AF909F9090
S11323108F907F906F905F904F903F902F90089593
S113232020FD09C0FC0123FD05C022FF02C0738308
S1132330628351834083089544FD17C046FD17C04E
S1132340AB01BC01DA01FB01AA0FBB1FEE1FFF1F8B
S11323501094D1F74A0F5B1F6E1F7F1FCB01BA0188
S1132360660F771F881F991F09C033E001C034E04E
S1132370660F771F881F991F3150D1F7620F711DA7
S1132380811D911D08950F931F93CF93DF938C01AB
S1132390C801B8D2EC0197FD06C08BD2892BC1F7D6
S11323A0B801CE0129D3CE01DF91CF911F910F91B6
S11323B008958F929F92AF92BF92EF92FF920F93E4
S11323C01F93CF93DF938C01D62F7A01B22E9AD22A
S11323D09C0133272B32310531F02D32310559F46C
S11323E08B2D8068B82ED15011F480E061C0C801F3
S11323F089D297FDFACFCB2DCD7F2B2D2073F9F405
S11324008033E9F4AA24AA94AD0E09F43EC0C801AD
S113241079D297FD3AC09C012F7D332728353105A9
S113242041F4C264D25089F1C8016CD297FF07C04D
S11324302CC0B6FE02C0C26001C0C261DA2D812C7C
S1132440912C540120ED280F283078F0C4FF03C0EC
S1132450B801D2D217C02A3040F0C6FFF9CF2F7D81
S11324603FEE320F3630A0F727504C2FC501B40190
S113247063DF4B015C01C260D15051F0C80142D20C
S113248097FFE0CFC1FD04C0B0CF812C912C540143
S1132490C7FF08C0B094A09490948094811C911CB0
S11324A0A11CB11C2C2FB501A401C70139DF81E0A7
S11324B0DF91CF911F910F91FF90EF90BF90AF905C
S11324C09F908F9008955F926F927F928F929F92C8
S11324D0AF92BF92CF92DF92EF92FF920F931F932E
S11324E0CF93DF93CDB7DEB7A0970FB6F894DEBFD6
S11324F00FBECDBF5C01962E7A01F9018E010F5FEC
S11325001F4F680180E2D8011D928A95E9F7D50131
S113251013968C9080E090E0612C712C30E061E0A7
S113252070E083FC259183FE21918F01522E2111AD
S113253003C080E090E090C02E3511F4009751F173
S1132540432F50E0481759073CF42D3559F12D32EB
S113255019F4772009F103C0772009F468C0452DE8
S1132560469546954695D601A40FB11D452D477055
S11325708B0102C0000F111F4A95E2F7A8015C917C
S1132580452B4C93651459F0561410F45394E7CF2B
S11325905A94E5CF31E004C07724739401C0712CC0
S11325A00196BFCF772019F08E8180628E8331111E
S11325B003C08824839417C0F6019E012F5D3F4F0A
S11325C08081809581932E173F07D1F7F2CFE114D4
S11325D0F10429F0D7018C93F70131967F019A9485
S11325E0812C9920E9F0C5018DD197FD17C0FC011C
S11325F0FF2723E0F595E7952A95E1F7EC0DFD1DFE
S1132600208130E0AC014770552702C035952795ED
S11326104A95E2F720FDDBCFB501EED1811089CFD9
S1132620E114F10411F0D7011C92C80115C0422F26
S1132630469546954695D601A40FB11D422F477085
S11326408B0102C0000F111F4A95E2F7A8015C91AB
S1132650452B4C93622EA4CFA0960FB6F894DEBF00
S11326600FBECDBFDF91CF911F910F91FF90EF90DF
S1132670DF90CF90BF90AF909F908F907F906F909E
S11326805F9008955F926F927F928F929F92AF9224
S1132690BF92CF92DF92EF92FF920F931F93CF934B
S11326A0DF936C01EB015A01FC0117821682512C55
S11326B0F601E380FE01E3FC8591E3FE8191182F8E
S11326C0EF01882309F4E0C090E0F3D0892B19F0DE
S11326D0C60159DEEDCF153241F4FE01E3FC15913C
S11326E0E3FE1191EF01153271F4C6010BD197FD90
S11326F0C9C0412F50E09C01332724173507C1F28C
S1132700B6017AD1C1C01A3239F4E3FC1591E3FE63
S11327101191EF0101E001C000E0F12C20ED210F47
S11327202A3078F402606F2D70E080E090E040E29F
S113273003DEF62EFE01E3FC1591E3FE1191EF0199
S1132740EDCF01FF03C0F11003C09EC0FF24FA9433
S1132750183619F01C3651F010C0FE01E3FC159137
S1132760E3FE1191EF01183641F408600460FE01A4
S1132770E3FC1591E3FE1191EF01112309F484C0E8
S1132780612F70E08CE890E09CD0892B09F47CC028
S113279000FD07C0F50180809180C50102965C01AF
S11327A002C0812C912C1E3649F4F60146815781D2
S11327B060E070E0202FC401B3DD7ACF1336A1F4BA
S11327C001FD02C0FF24F394C6019CD097FD5AC0BA
S11327D08114910429F0F4018083C40101964C0111
S11327E0FA94F110F1CF4AC01B3551F49E01A401B3
S11327F06F2DC60168DEEC01892B09F03FC039C09A
S1132800C601C1DD97FD3EC01F3649F128F41436D8
S113281021F1193639F125C0133771F01537E9F074
S113282020C08114910429F0F4016082C40101964E
S11328304C01FA94FF2059F0C60164D03C0197FD85
S113284006C037D0892B69F3B601C301D5D08114F2
S11328509104A1F0F401108211C0006203C0006170
S113286001C00064202FA4016F2DC601A2DD8111D7
S113287005C0F6018381807329F406C000FD18CFDA
S1132880539416CF552019F0852D90E002C08FEF98
S11328909FEFDF91CF911F910F91FF90EF90DF9009
S11328A0CF90BF90AF909F908F907F906F905F90EC
S11328B00895911118C1803219F089508550D0F7CC
S11328C00895FC010590061621F00020D9F7C001F7
S11328D008953197CF010895FC010590615070402F
S11328E00110D8F7809590958E0F9F1F0895FC01D5
S11328F06150704001900110D8F7809590958E0F2B
S11329009F1F0895CF93DF93EC012B8120FF33C0E9
S113291026FF0AC02F7B2B838E819F8101969F8384
S11329208E838A8190E029C022FF0FC0E881F9815B
S11329308081082E000C990B009719F420622B83D8
S11329401AC03196F983E8830EC0EA85FB850995A0
S113295097FF09C02B81019611F080E201C080E14C
S1132960822B8B8308C02E813F812F5F3F4F3F8393
S11329702E83992702C08FEF9FEFDF91CF910895A7
S11329800F931F93CF93DF93FB01238121FD03C09A
S11329908FEF9FEF2CC022FF16C046815781248100
S11329A035814217530744F4A081B1819D012F5F03
S11329B03F4F318320838C93268137812F5F3F4F94
S11329C03783268314C08B01EC01FB010084F1855D
S11329D0E02D0995892BE1F6D80116968D919C91ED
S11329E01797019617969C938E931697CE01DF91B5
S11329F0CF911F910F910895FB01238120FF12C0F5
S1132A0026FD10C08F3F3FEF930761F082832F7D37
S1132A10206423832681378121503109378326831B
S1132A20992708958FEF9FEF0895FA01AA27283078
S1132A3051F1203181F1E8946F936E7F6E5F7F4F87
S1132A408F4F9F4FAF4FB1E03ED0B4E03CD0670F03
S1132A50781F891F9A1FA11D680F791F8A1F911D56
S1132A60A11D6A0F711D811D911DA11D20D009F4A6
S1132A7068943F912AE0269F11243019305D3193E8
S1132A80DEF6CF010895462F4770405D4193B3E0D1
S1132A900FD0C9F7F6CF462F4F70405D4A3318F078
S1132AA0495D31FD4052419302D0A9F7EACFB4E029
S1132AB0A6959795879577956795BA95C9F70097E1
S1132AC06105710508959B01AC010A2E0694579582
S1132AD0479537952795BA95C9F7620F731F841FD9
S1132AE0951FA01D0895992788270895F894FFCF6E
S1132AF000000003000000006C00790000000000EA
S1132B00230000000000000000000000000000009E
S1132B1000000000000000000000000000000000B1
S1132B20000000002300000000000000000000007E
S1132B300000000000000000000000000000000091
S1132B4000000000000025640A006469676974617C
S1092B506C3A002564004C
S9030000FC
