S01700004763634170706C69636174696F6E312E737265635B
S11300003BC1000058C1000056C1000054C10000AB
S113001052C1000050C100004EC100004CC100009C
S11300204AC1000048C1000046C1000044C10000AC
S11300300C94820840C100003EC100003CC1000095
S11300403AC1000038C1000036C1000034C10000CC
S113005032C1000030C100002EC100002CC10000DC
S11300602AC1000028C1000026C1000024C10000EC
S113007022C1000020C100008BC700001CC1000089
S11300803CC7000018C1000016C10000321335132C
S113009038133B133E134113441347134A135F139E
S11300A05F135F135F135F135F135F134D135013DD
S11300B05313561359135C136E616E00696E660018
S11300C000407A10F35A00A0724E18090010A5D40B
S11300D0E80000E87648170000E40B54020000CA68
S11300E09A3B000000E1F5050000809698000000AE
S11300F040420F000000A08601000000102700000D
S11301000000E803000000006400000000000A0092
S1130110000000000100000000002C76D888DC6795
S11301204F0823DFC1DFAE59E1B1B796E5E3E453ED
S1130130C63AE651997696E8E6C28426EB898C9B0A
S113014062ED407C6FFCEFBC9C9F40F2BAA56FA5AA
S1130150F490055A2AF75C936B6CF9676DC11BFC2C
S1130160E0E40D47FEF520E6B500D0ED902E030047
S1130170943577050080841E080000204E0A000094
S113018000C80C333333330F986E12831141EF8D53
S11301902114893BE65516CFFEE6DB18D1844B3893
S11301A01BF77C1D901DA4BBE424203284725E22C4
S11301B08100C9F124ECA1E53D276364696E6F7089
S11301C0737578585B65666745464700616E006ED7
S11301D066696E69747900CDCCCC3D0AD7233C178F
S11301E0B7D13877CC2B329595E6241FB14F0A004E
S11301F00020410000C84200401C4620BCBE4CCA3E
S11302001B0E5AAEC59D741EFFFFFFFFFFFFFFFFCD
S1130210FFFFFFFFFFFFFFFFFFFFFFFFFFFFFFFFEA
S1130220FFFFFFFFFFFFFFFFFFFFFFFFFFFFFFFFDA
S1130230FFFFFFFF1BFFFF00010203040506070881
S113024009FFFFFFFFFFFFFF0A0B0C0D0E0F10113C
S11302501213FF14FF151617FFFFFFFF18FFFFFF10
S113026019FFFFFFFFFF1A46454443423336394125
S1130270323538303134370011241FBECFEFD0E18E
S1130280DEBFCDBF11E0A0E0B1E0E2E7F4E400E0BE
S11302900BBF02C007900D92A637B107D9F722E031
S11302A0A6E7B1E001C01D92AE3CB207E1F70E949F
S11302B03A160C943722A4CE1F93182F8A3011F4C7
S11302C08DE0FADF5D9BFECF1CB980E090E01F91CA
S11302D008951F93BC015F9BFECF1CB1812FECDFFF
S11302E0812F90E01F910895382F843010F081E021
S11302F00895483010F082E00895822F90E002C003
S1130300880F991F4A95E2F7282F313089F0313050
S113031028F03230B9F03330F1F41FC08AB3862BA1
S11303208ABB8BB3262360958623282B2BBB13C053
S113033087B3862B87BB88B3262360958623282B17
S113034028BB09C084B3862B84BB85B32623609560
S11303508623282B25BB80E0089582B1862B82B9A1
S113036083B1262360958623282B23B980E0089542
S1130370F901843010F081E00895483010F082E0F3
S113038008958130B9F0813028F0823019F183303A
S1130390C1F539C08AB3882329F09AB3862F809592
S11303A0892305C08AB3882319F4862F80958ABBD4
S11303B089B31FC087B3882329F097B3862F80950C
S11303C0892305C087B3882319F4862F809587BBBA
S11303D086B30FC084B3882329F094B3862F809505
S11303E0892305C084B3882319F4862F809584BBA0
S11303F083B3862390E002C0959587954A95E2F7EA
S1130400808380E0089582B1882329F092B1862FF9
S11304108095892305C082B1882319F4862F80959D
S113042082B981B1862390E002C0959587954A955B
S1130430E2F7808380E00895DF92EF92FF920F93BA
S11304401F93CF93DF93082FD62EE72E813210F01F
S113045081E02AC00E94650F8B3A29F50E94650F3E
S11304608B3A09F50E94650F8B3AE9F40E94650FF7
S1130470F82E182F8D2D9E2D9C01E90104C00E9499
S1130480650F8993180F9E012D192017C0F30E9440
S1130490650FF01611F083E007C0811711F480E0B6
S11304A003C084E001C082E0DF91CF911F910F91DE
S11304B0FF90EF90DF900895AF92BF92CF92DF92BA
S11304C0EF92FF920F931F93CF93DF93182F092F6F
S11304D0E62EB42EA52E2FEF621711F481E045C04D
S11304E00E94650F8B3A09F03FC00E94650F8B3A5A
S11304F0D9F50E94650F8B3AB9F50E94650FF82E65
S11305000E94650FC82EA12FB02FFD01019000207D
S1130510E9F73197DE2ED11A212F302FC901EC01D2
S11305200C2D10E005C00E94650F8993080F1F5F12
S11305301D15C8F38B2D9A2D9C01E90104C00E945E
S1130540650F8993080F9E012B192E15C0F30E9485
S1130550650FFC18FE1411F083E007C0801711F436
S113056080E003C084E001C082E0DF91CF911F915D
S11305700F91FF90EF90DF90CF90BF90AF900895D0
S1130580AF92BF92CF92DF92EF92FF920F931F939D
S1130590CF93DF93D82EC92EE62EB42EA52E8BEB47
S11305A00E94610F8BEB0E94610F8BEB0E94610F25
S11305B0ED2DFC2DEF0109900020E9F72197CE1BCA
S11305C0DF0B0C2F8C2F90E001968E0D911D8F3F29
S11305D0910519F014F081E02CC00F5F102F1E0D4F
S11305E00150812F0E94610F8C2F0E94610FF12E08
S11305F0F00E2D2D3C2DC901EC0110E006C08881C0
S11306000E94610F8991F80E1F5F1017C0F38B2DA4
S11306109A2D9C01E90100E006C088810E94610FC7
S11306208991F80E0F5F0E15C0F38F2D0E94610F94
S113063080E0DF91CF911F910F91FF90EF90DF90B9
S1130640CF90BF90AF900895EF92FF920F931F93B6
S1130650CF93DF93082F7B01813210F081E01CC01F
S11306608AEA0E94610F8AEA0E94610F8AEA0E9464
S1130670610F802F0E94610F102FE70105C0888150
S11306800E94610F8991180F9E012E192017B8F34B
S1130690812F0E94610F80E0DF91CF911F910F9114
S11306A0FF90EF9008951092900091E199B98AB16A
S11306B088618AB9E5E9F0E08081866080831092E0
S11306C0980090939900EAE9F0E080818861808342
S11306D0EDE9F0E080818660808380E091E0909392
S11306E0CB028093CA029093C9028093C80287B355
S11306F0806E87BB80E00E94040F54D3789480E01E
S11307000895CF93DF93E901883010F081E034C07D
S1130710643068F0683C11F082E02EC0413059F535
S1130720E82FF0E0E85DFD4F8081888322C070E00F
S11307309B01240F311DA90125303105E4F4A82FB4
S1130740B0E0AA0FBB1FAA0FBB1FA60FB71FA85F5D
S1130750BD4F20E030E007C0FE01E20FF31F8D9192
S113076080832F5F3F4FC901860F971F841795071A
S11307709CF380E001C083E0DF91CF910895AF92B4
S1130780BF92CF92DF92EF92FF920F931F93DF936A
S1130790CF93CDB7DEB72D970FB6F894DEBF0FBE5B
S11307A0CDBFE82EDE011296EEE0F1E086E0019086
S11307B00D928150E1F72E2D30E0D901AA0FBB1F15
S11307C0AA0FBB1FA85FBD4F8C91E82FF0E0E95F33
S11307D0FD4F449111968C911197E82FF0E0E95F59
S11307E0FD4F5491F901EE0FFF1FEE0FFF1FE65F5F
S11307F0FD4FE081F0E0E95FFD4F749113968C9119
S113080090E0895F9D4FFC016491E8E0CE2ED12CED
S1130810CC0EDD1E86E0F60111928A95E9F7285D7B
S11308203D4FF9012081922F9078940F822F887088
S1130830880F880F880F980F90930402822F80747A
S1130840880F922F94709295907F890F850F8093D3
S11308500502822F8072880F880F922F92709295D2
S1130860990F907E890F870F80930602822F8071E3
S1130870880F880F880F21702295220F220F207C69
S1130880820F860F8093070219828E2D6DE70E94D6
S11308902F0F8E2D6DE70E942F0F8E2D6DE70E9476
S11308A02F0F8E2D61E00E942F0F8E2D64E00E9489
S11308B02F0F8E2D64E00E942F0F8E2D6091040265
S11308C00E942F0F109104028E2D609105020E9448
S11308D02F0FF09005028E2D609106020E942F0FBB
S11308E0009106028E2D609107020E942F0F1F0DAA
S11308F0175F100F80910702180F8E2D612F0E9431
S11309002F0F86015E010894A11CB11C9EE0C92E24
S1130910D12CCC0EDD1E8E2DB5010E94430F898192
S1130920F80181938F01EC15FD05A9F720E030E073
S1130930BE01685F7F4FAE014E5F5F4FFB01E20F68
S1130940F31FDA01A20FB31F90818C91981711F055
S113095084E006C02F5F3F4F2630310579F780E0F1
S11309602D960FB6F894DEBF0FBECDBFCF91DF91A9
S11309701F910F91FF90EF90DF90CF90BF90AF90B9
S11309800895CF92DF92FF920F931F93CF93DF933B
S1130990082F162FF42E69010E94040F083010F05E
S11309A011E048C0143010F012E044C0612F70E030
S11309B0AB014F0D511D4530510514F013E03AC001
S11309C020E030E0EB010EC0F601E20FF31FE081FE
S11309D0E03678F5F0E0E95FFD4FE491EF3F49F14F
S11309E02F5F3F4FC9018C0F9D1F8417950764F338
S11309F0A02FB0E0AA0FBB1FAA0FBB1FA60FB71FE3
S1130A00A85FBD4F20E030E007C0F601E20FF31FFE
S1130A1080818D932F5F3F4FC9018C0F9D1F8417D9
S1130A2095079CF3802FABDE182F80E00E94040F03
S1130A3001C015E0812FDF91CF911F910F91FF909D
S1130A40DF90CF900895DF92EF92FF920F931F9360
S1130A50F82ED62E142FE22E0E94040F87E08F1555
S1130A6010F401E022C088ECD81611F002E01DC099
S1130A7087E08E1510F403E018C0802F90E002C0C8
S1130A80880F991FEA94E2F7EF2DF0E0E85DFD4F3F
S1130A90912F9823109580818123982B90838F2DFB
S1130AA06EDE082F80E00E94040F802F1F910F91AB
S1130AB0FF90EF90DF90089587EE87BB83E58DB9B3
S1130AC00895FF920F931F93782F142FF22E8830DE
S1130AD010F081E04AC0862F885C813110F082E0FA
S1130AE044C087E0821710F483E03FC0683C19F1EA
S1130AF0E72FF0E0EE0FFF1FEE0FFF1FEA58FE4F47
S1130B00262F30E0295C304081E090E002C0880F5D
S1130B10991F2A95E2F7AA2797FDA095BA2F20815D
S1130B20318142815381822B932BA42BB52B80835B
S1130B309183A283B383202F30E002C0220F331F9E
S1130B40FA94E2F7872F90E0FC0134E0EE0FFF1FE8
S1130B503A95E1F7E80FF91FE85CFD4FE60FF11D48
S1130B60E85CF0401223108380E01F910F91FF9006
S1130B7008958FEF8FB90C942A0F0895DF92EF92A6
S1130B80FF920F931F93CF93DF93D82E162F042F2A
S1130B9079018DEC60E144E020E00E94FA108CECD5
S1130BA060E144E020E00E94FA1087E08D1510F423
S1130BB081E0A2C0193D08F09AC0183C08F076C044
S1130BC0143609F094C0013009F093C087EE87BB56
S1130BD083E58DB98D2D0E94040F80E09CE601977A
S1130BE0F1F7C7DF082FC5DF182F80E00E94040F3C
S1130BF0011709F056C0002309F453C0AD2DB0E02D
S1130C00FD0114E0EE0FFF1F1A95E1F7EA0FFB1F39
S1130C10E85CFD4F8081882321F40150F7010083B3
S1130C200F5FED0174E0CC0FDD1F7A95E1F7CA0F79
S1130C30DB1FC85CDD4F8881813009F05CC0013066
S1130C4019F4F701108257C0E02FF0E0329721E049
S1130C5030E00E2E02C0220F331F0A94E2F744271D
S1130C6037FD4095542FAA0FBB1FAA0FBB1FAA58CC
S1130C70BE4F8D919D910D90BC91A02D8223932305
S1130C80A423B52382179307A407B50721F4EC0F17
S1130C90FD1F818103C0E959FD4F8491F7018083D1
S1130CA02AC08FEFF701808384E026C0612F70E0B3
S1130CB0AB01400F511D4A3D5105DCF481E1D89E42
S1130CC0D0011124A60FB71FA059BE4F20E030E079
S1130CD007C0F701E20FF31F8D9180832F5F3F4F11
S1130CE0C901860F971F841795079CF304C082E0FF
S1130CF003C083E001C080E0DF91CF911F910F9189
S1130D00FF90EF90DF900895EF92FF920F931F935F
S1130D10CF93DF93F82EEB0187EE87BB83E58DB984
S1130D208F2D0E94040F0DE313E0C8010197F1F722
S1130D3020DFE82E80E00E94040FC8010197F1F73C
S1130D408F2D0E94040FC8010197F1F712DFF82ECE
S1130D5080E00E94040FC8010197F1F7EF1409F431
S1130D60E8828FB190E08F3F09F491E0892FDF9101
S1130D70CF911F910F91FF90EF9008950C94250F40
S1130D800895FC01608308951092BD01EAE9F0E042
S1130D908081806880830895EAE9F0E080818F771C
S1130DA0808308958EB588608EBD8EB582608EBDB9
S1130DB087B7806187BF8FE890E09BBD8ABD1DBC6B
S1130DC01CBC08958EE18093EC0108950F931F934A
S1130DD0CF93DF93EC018A01898170E0E82FF0E082
S1130DE09B012E0F3F1F8A8190E08217930764F1C5
S1130DF0AF014C5F5F4F4C0F5D1F20E030E00DC032
S1130E00DA01A20FB31FF801E20FF31F80818C9364
S1130E1088818F5F88832F5F3F4F2617370784F3BE
S1130E2058814981242F30E0250F311D8A8190E0BB
S1130E30450F2817390711F481E001C082E08B8344
S1130E404983188280E002C081E08B83DF91CF91D7
S1130E501F910F9108950F931F93CF93DF93EC018C
S1130E60962F8981861710F481E042C08881682F0B
S1130E7070E06C5F7F4F6C0F7D1F20E030E0092F26
S1130E8010E00DC0DA01A20FB31FFB01E20FF31F44
S1130E9080818C9388818F5F88832F5F3F4F2017D9
S1130EA0310784F38881082F10E0DB01A00FB11F04
S1130EB040E050E008C0FB01E40FF51F8C918083F3
S1130EC01D924F5F5F4FE9819A01200F311F8E2FD2
S1130ED090E0281739077CF398819E1719F41B8238
S1130EE0198204C082E08B83E91BE983188280E0C5
S1130EF0DF91CF911F910F9108951F920F920FB61A
S1130F000F920BB60F9211242F933F934F935F933D
S1130F106F937F938F939F93AF93BF93EF93FF93BD
S1130F2080911701882359F084E191E061E04BEE50
S1130F3051E091DF8091EB0180939C0005C080918A
S1130F409A008F7B80939A00FF91EF91BF91AF91AC
S1130F509F918F917F916F915F914F913F912F91CD
S1130F600F900BBE0F900FBE0F901F901895FC01B1
S1130F7081E083830895FC0113821182108280E052
S1130F8090E014820196319680329105D1F708954C
S1130F901F920F920FB60F920BB60F9211242F933C
S1130FA03F934F935F936F937F938F939F93AF93ED
S1130FB0BF93EF93FF9390919C009093C401809111
S1130FC0BD01823031F1833030F4882359F081300F
S1130FD009F085C00CC0833009F44BC0843009F09B
S1130FE07EC06AC0903F09F063C081E05FC0809119
S1130FF09601981721F482E08093BD0107C01092F6
S1131000BD0180919A008F7780939A001092C50158
S11310104FC09923B9F480919701823039F483E069
S11310208093BD018091990190E007C0843051F410
S113103083E08093BD0181E090E09093C3018093AD
S1131040C20107C084E08093BD011092C3011092D5
S1131050C20188E391E061E044EC51E0B7DE8091A5
S1131060C4018093C9019091C501980F9093C50163
S11310701FC088E391E061E044EC51E0A7DE809179
S1131080C4019091C501890F8093C5018091C2016B
S11310909091C30101979093C3018093C201809101
S11310A0C2019091C301892B19F484E08093BD019E
S11310B08EE18093EC0113C08091C501981721F44F
S11310C081E080933B0103C088E391E054DF8EE12B
S11310D08093EC0180919A008F7780939A00FF911E
S11310E0EF91BF91AF919F918F917F916F915F919C
S11310F04F913F912F910F900BBE0F900FBE0F9009
S11311001F9018951F920F920FB60F920BB60F9265
S113111011242F933F934F935F936F937F938F93F8
S11311209F93AF93BF93EF93FF938091BE01813060
S113113079F0813018F0823059F524C09091C101C2
S1131140913031F58EE18093EC019093BE0120C083
S11311508091EC0181508093EC018091EC01882313
S113116061F480919A008F7780939A0088E391E0EC
S113117002DF82E08093BE010BC080919A0087FD5C
S113118007C004C08091C101882311F41092BE01EC
S1131190FF91EF91BF91AF919F918F917F916F914B
S11311A05F914F913F912F910F900BBE0F900FBE07
S11311B00F901F901895EF92FF920F93DF93CF93A8
S11311C0CDB7DEB728970FB6F894DEBF0FBECDBFFC
S11311D06D834E832F830887198294E09A8314D6F3
S11311E080916100806180936100809162008061E0
S11311F0809362008A819981890F9E81890F9F81E2
S1131200890F9885890F898384E191E061E0AE01BB
S11312104B5F5F4FDBDD84E191E061E0AE014E5F47
S11312205F4FD4DD84E191E061E0AE014A5F5F4F3E
S1131230CDDD84E191E061E0AE01495F5F4FC6DD41
S113124084E191E061E0AE01485F5F4FBFDD84E17E
S113125091E061E0AE014F5F5F4FB8DD8D81809317
S113126096018A818093970180EFDCD580919A0062
S1131270806480939A0080919A0086FDFCCF8091CF
S113128062008F7E809362001092BD0180919A006B
S1131290806880939A0081E08093C10180913B0132
S11312A0813021F08091BE018230C1F71092C101DA
S11312B080913B01813011F081E017C088E391E017
S11312C061E0AE014D5F5F4FC6DD8B81882351F431
S11312D088E391E061E0AE014C5F5F4FBCDD8C813F
S11312E0F70180838B81880F880F28960FB6F894B6
S11312F0DEBF0FBECDBFCF91DF910F91FF90EF9076
S11313000895EF920F93DF93CF93CDB7DEB728976D
S11313100FB6F894DEBF0FBECDBF6C834D832E8312
S11313200F83E886198293E09A836ED580916100D9
S1131330806180936100809162008061809362008B
S11313408A819981890F9D81890F9E81890F9F814F
S1131350890F9885890F898384E191E061E0AE016A
S11313604C5F5F4F33DD84E191E061E0AE014E5F9D
S11313705F4F2CDD84E191E061E0AE014B5F5F4F94
S113138025DD84E191E061E0AE014A5F5F4F1EDD3F
S113139084E191E061E0AE01495F5F4F17DD84E1D4
S11313A091E061E0AE01485F5F4F10DD84E191E0C0
S11313B061E0AE014F5F5F4F09DD8C818093960140
S11313C08A818093970180EF2DD580919A00806463
S11313D080939A0080919A0086FDFCCF80916200F0
S11313E08F7E809362001092BD0180919A00806884
S11313F080939A0081E08093C10180913B01813008
S113140021F08091BE018230C1F71092C101809118
S11314103B01813011F081E00AC088E391E061E092
S1131420AE014D5F5F4F17DD8B81880F880F2896C3
S11314300FB6F894DEBF0FBECDBFCF91DF910F91F1
S1131440EF900895CF92DF92EF92FF920F931F9344
S1131450DF93CF93CDB7DEB727970FB6F894DEBFEF
S11314600FBECDBF6D834E832F836801198292E036
S11314709A83CAD4809161008061809361008091D5
S113148062008061809362008A819981890F9E81C4
S1131490890F9F81890F898384E191E061E0AE0126
S11314A04B5F5F4F93DC84E191E061E0AE014E5FFE
S11314B05F4F8CDC84E191E061E0AE014A5F5F4FF5
S11314C085DC84E191E061E0AE01495F5F4F7EDC41
S11314D084E191E061E0AE014F5F5F4F77DC8D8185
S11314E0809396018A81809397018F8180939901DB
S11314F080EF98D480919A00806480939A008091C0
S11315009A0086FDFCCF809162008F7E80936200FA
S11315101092BD0180919A00806880939A0081E0C6
S11315208093C10180913B01813021F08091BE0103
S11315308230C1F71092C10180913B01813011F0DA
S113154081E026C088E391E061E0AE014D5F5F4F2A
S113155082DC8B818823C9F400E010E084E0E82E6B
S1131560F12CEC0EFD1E0CC088E391E061E0A701B4
S113157072DCF601E00FF11F8C8180830F5F1F4F37
S11315808F8190E0081719077CF38B81880F880FEF
S113159027960FB6F894DEBF0FBECDBFCF91DF9173
S11315A01F910F91FF90EF90DF90CF9008950F93CC
S11315B01F93DF93CF9300D000D000D0CDB7DEB718
S11315C06C834D832E83198291E09A831DD480917C
S11315D061008061809361008091620080618093EA
S11315E062008A819981890F9D81890F9E81890F6B
S11315F08983F8019801290F311D04C089819191D3
S1131600890F8983E217F307C9F784E191E061E068
S1131610AE014C5F5F4FDADB84E191E061E0AE0143
S11316204E5F5F4FD3DB84E191E061E0AE014B5F3D
S11316305F4FCCDB84E191E061E0AE014A5F5F4F34
S1131640C5DB84E191E06E81A801C0DB84E191E017
S113165061E0AE014F5F5F4FB9DB8C8180939601EF
S11316608A818093970180EFDDD380919A00806412
S113167080939A0080919A0086FDFCCF809162004D
S11316808F7E809362001092BD0180919A008068E1
S113169080939A0081E08093C10180913B01813065
S11316A021F08091BE018230C1F71092C101809176
S11316B03B01813011F081E00AC088E391E061E0F0
S11316C0AE014D5F5F4FC7DB8B81880F880F269675
S11316D00FB6F894DEBF0FBECDBFCF91DF911F913F
S11316E00F910895EF920F93DF93CF93CDB7DEB7A9
S11316F028970FB6F894DEBF0FBECDBF6C834D8321
S11317002E830F83E88619821A827ED3809161002A
S113171080618093610080916200806180936200A7
S11317208A819981890F9D81890F9E81890F9F816B
S1131730890F9885890F898384E191E061E0AE0186
S11317404C5F5F4F43DB84E191E061E0AE014E5FAB
S11317505F4F3CDB84E191E061E0AE014B5F5F4FA2
S113176035DB84E191E061E0AE014A5F5F4F2EDB3F
S113177084E191E061E0AE01495F5F4F27DB84E1E2
S113178091E061E0AE01485F5F4F20DB84E191E0CE
S113179061E0AE014F5F5F4F19DB8C81809396014E
S11317A08A818093970180EF3DD380919A00806471
S11317B080939A0080919A0086FDFCCF809162000C
S11317C08F7E809362001092BD0180919A008068A0
S11317D080939A0081E08093C10180913B01813024
S11317E021F08091BE018230C1F71092C101809135
S11317F03B01813011F081E00AC088E391E061E0AF
S1131800AE014D5F5F4F27DB8B81880F880F2896D1
S11318100FB6F894DEBF0FBECDBFCF91DF910F910D
S1131820EF900895EF92FF920F93DF93CF93CDB78C
S1131830DEB728970FB6F894DEBF0FBECDBF6D8319
S11318404E832F830887198294E09A83DDD28A819C
S11318509981890F9E81890F9F81890F9885890FAE
S1131860898384E191E061E0AE014B5F5F4FAEDAC2
S113187084E191E061E0AE014E5F5F4FA7DA84E15D
S113188091E061E0AE014A5F5F4FA0DA84E191E04C
S113189061E0AE01495F5F4F99DA84E191E061E074
S11318A0AE01485F5F4F92DA84E191E061E0AE01FE
S11318B04F5F5F4F8BDA8D81809396018A8180938D
S11318C0970180EFAFD280919A00806480939A0050
S11318D080919A0086FDFCCF1092BD0180919A0000
S11318E0806880939A0081E08093C10180913B01DC
S11318F0813021F08091BE018230C1F71092C10184
S113190080913B01813011F081E017C088E391E0C0
S113191061E0AE014D5F5F4F9EDA8B81882351F405
S113192088E391E061E0AE014C5F5F4F94DA8C8113
S1131930F70180838B81880F880F28960FB6F8945F
S1131940DEBF0FBECDBFCF91DF910F91FF90EF901F
S11319500895EF920F93DF93CF93CDB7DEB7289717
S11319600FB6F894DEBF0FBECDBF6C834D832E83BC
S11319700F83E886198293E09A8346D28A819981FB
S1131980890F9D81890F9E81890F9F81890F988579
S1131990890F898384E191E061E0AE014C5F5F4F80
S11319A015DA84E191E061E0AE014E5F5F4F0EDA3B
S11319B084E191E061E0AE014B5F5F4F07DA84E1BF
S11319C091E061E0AE014A5F5F4F00DA84E191E0AB
S11319D061E0AE01495F5F4FF9D984E191E061E0D4
S11319E0AE01485F5F4FF2D984E191E061E0AE015E
S11319F04F5F5F4FEBD98C81809396018A818093EE
S1131A00970180EF0FD280919A00806480939A00AE
S1131A1080919A0086FDFCCF1092BD0180919A00BE
S1131A20806880939A0081E08093C10180913B019A
S1131A30813021F08091BE018230C1F71092C10142
S1131A4080913B01813011F081E00AC088E391E08C
S1131A5061E0AE014D5F5F4FFED98B81880F880F27
S1131A6028960FB6F894DEBF0FBECDBFCF91DF919D
S1131A700F91EF900895CF92DF92EF92FF920F9320
S1131A801F93DF93CF93CDB7DEB727970FB6F894A4
S1131A90DEBF0FBECDBF6D834E832F8368011982D5
S1131AA092E09A83B1D18A819981890F9E81890FAD
S1131AB09F81890F898384E191E061E0AE014B5FEE
S1131AC05F4F84D984E191E061E0AE014E5F5F4FE6
S1131AD07DD984E191E061E0AE014A5F5F4F76D940
S1131AE084E191E061E0AE01495F5F4F6FD984E129
S1131AF091E061E0AE014F5F5F4F68D98D818093C3
S1131B0096018A81809397018F818093990180EF58
S1131B1089D180919A00806480939A0080919A0080
S1131B2086FDFCCF1092BD0180919A00806880935D
S1131B309A0081E08093C10180913B01813021F0C2
S1131B408091BE018230C1F71092C10180913B01A6
S1131B50813011F081E026C088E391E061E0AE01BC
S1131B604D5F5F4F78D98B818823C9F400E010E082
S1131B7094E0E92EF12CEC0EFD1E0CC088E391E0FC
S1131B8061E0A70168D9F601E00FF11F8C81808321
S1131B900F5F1F4F8F8190E0081719077CF38B812B
S1131BA0880F880F27960FB6F894DEBF0FBECDBFFF
S1131BB0CF91DF911F910F91FF90EF90DF90CF9025
S1131BC008950F931F93DF93CF9300D000D000D0DC
S1131BD0CDB7DEB76C834D832E83198291E09A834F
S1131BE013D18A819981890F9D81890F9E81890FE3
S1131BF08983F8019801290F311D04C089819191CD
S1131C00890F8983E217F307C9F784E191E061E062
S1131C10AE014C5F5F4FDAD884E191E061E0AE0140
S1131C204E5F5F4FD3D884E191E061E0AE014B5F3A
S1131C305F4FCCD884E191E061E0AE014A5F5F4F31
S1131C40C5D884E191E06E81A801C0D884E191E017
S1131C5061E0AE014F5F5F4FB9D88C8180939601EC
S1131C608A818093970180EFDDD080919A0080640F
S1131C7080939A0080919A0086FDFCCF1092BD015A
S1131C8080919A00806880939A0081E08093C101DA
S1131C9080913B01813021F08091BE018230C1F7F7
S1131CA01092C10180913B01813011F081E00AC0A2
S1131CB088E391E061E0AE014D5F5F4FCCD88B814A
S1131CC0880F880F26960FB6F894DEBF0FBECDBFDF
S1131CD0CF91DF911F910F910895EF920F93DF93AE
S1131CE0CF93CDB7DEB728970FB6F894DEBF0FBEFB
S1131CF0CDBF6C834D832E830F83E88619821A82AD
S1131D0083D08A819981890F9D81890F9E81890F52
S1131D109F81890F9885890F898384E191E061E02F
S1131D20AE014C5F5F4F52D884E191E061E0AE01B7
S1131D304E5F5F4F4BD884E191E061E0AE014B5FB1
S1131D405F4F44D884E191E061E0AE014A5F5F4FA8
S1131D503DD884E191E061E0AE01495F5F4F36D840
S1131D6084E191E061E0AE01485F5F4F2FD884E1E8
S1131D7091E061E0AE014F5F5F4F28D88C81809382
S1131D8096018A818093970180EF4CD080919A00CC
S1131D90806480939A0080919A0086FDFCCF109213
S1131DA0BD0180919A00806880939A0081E08093BD
S1131DB0C10180913B01813021F08091BE018230CC
S1131DC0C1F71092C10180913B01813011F081E093
S1131DD00AC088E391E061E0AE014D5F5F4F3BD8FC
S1131DE08B81880F880F28960FB6F894DEBF0FBE3C
S1131DF0CDBFCF91DF910F91EF90089590E088309F
S1131E0008F091E0892F0895982F883010F081E030
S1131E10089588B39295990F907E8F71892B88BB12
S1131E2080E00895982F80919B0085FFFCCF9093CC
S1131E309C0083EB92E00197F1F7089580919B0059
S1131E4087FFFCCF80919C0008958FB9779BFECFCC
S1131E508FB108951FB8779BFECF8FB108951F935C
S1131E60162FD2DF8DE393E00197F1F780919B0069
S1131E7085FFFCCF10939C0083EB92E00197F1F770
S1131E8080E01F910895CF93DF93EB01BDDF8DE3D5
S1131E9093E00197F1F720E030E008C02F5F3F4F57
S1131EA08FEF2F3F380711F481E008C080919B0029
S1131EB087FFF4CF80919C00888380E0DF91CF91ED
S1131EC008955D9BFECF8CB908955F9BFECF8CB1C6
S1131ED0089584E980937400089584EA80937400DB
S1131EE08091740087FFFCCF80917100887F8830D7
S1131EF011F480E0089584E98093740081E00895EA
S1131F0084E980937400089584EA80937400809136
S1131F10740087FFFCCF80917100887F803111F4B9
S1131F2080E0089584E98093740082E0089590E04D
S1131F30880F991F8093730084E8809374008091C4
S1131F40740087FFFCCF80917100887F883119F07D
S1131F5084E9809374000895880F8F5F80937300E1
S1131F6084E8809374008091740087FFFCCF809193
S1131F707100887F803419F084E980937400089597
S1131F808093730084E8809374008091740087FFC9
S1131F90FCCF80917100887F883219F084E98093A6
S1131FA07400089584EC809374008091740087FF1A
S1131FB0FCCF80917100887F803519F084E980938B
S1131FC0740080917300089584E880937400809174
S1131FD0740087FFFCCF80917100887F883519F0E9
S1131FE084E9809374000895FF920F931F93182F30
S1131FF0062FF42E72DF812F9ADF802FC1DF8F2D01
S1132000BFDF84E9809374001F910F91FF900895BE
S11320100F931F93082F162F60DF802F88DF812FE7
S1132020AFDF72DF802F98DFBDDF182FCDDF84E9AB
S113203080937400812F1F910F91089580937000F5
S11320400895EF92FF920F931F93182F062FF72EE8
S1132050E42E43DF813009F441C0812F90E0880FE2
S1132060991F90708093730084E88093740080912A
S1132070740087FFFCCF80917100887F883139F428
S1132080802F9F2D9C01F90190E024E81AC084E977
S11320908093740083E022C0808180937300209336
S11320A074008091740087FFFCCF80917100319699
S11320B0887F883229F084E98093740084E00EC01C
S11320C09F5F9E1548F381E08E1520F484E9809388
S11320D0740003C081E08093ED0180E01F910F91B3
S11320E0FF90EF9008950F931F93CF93DF93082FE2
S11320F0EB01142F8091ED01813039F405DF82303A
S113210009F473C01092ED0101C0E7DE813009F4D7
S11321106CC0802F90E0880F991F816080937300BA
S113212084E8809374008091740087FFFCCF8091D1
S11321307100887F803429F084E98093740085E0FD
S113214054C01230D0F140E0212F30E02150304013
S113215054EC17C0509374008091740087FFFCCF37
S113216080917100887F803529F084E98093740020
S113217086E03BC080917300FE01E40FF11D808373
S11321804F5F842F90E08217930724F384E88093B1
S113219074008091740087FFFCCF80917100887F68
S11321A0883529F084E98093740087E01EC080910B
S11321B07300C10FD11D219713C084E8809374006C
S11321C08091740087FFFCCF80917100887F8835EF
S11321D029F084E98093740088E007C0809173003B
S11321E0888384E98093740080E0DF91CF911F910C
S11321F00F910895922F483008F0C0C08A3C09F42A
S11322004AC08B3C30F4883C71F0893C09F0B6C07C
S113221026C08C3C09F477C08C3C08F458C08D3C33
S113222009F0ACC08CC02AB3E92FF0E002C0EE0F75
S1132230FF1F4A95E2F7262330E0862F90E08E2395
S11322409F232817390711F420E001C022E08AB344
S1132250962F9E2360958623982B9ABB90C027B314
S1132260E92FF0E002C0EE0FFF1F4A95E2F72623A4
S113227030E0862F90E08E239F232817390711F42E
S113228020E001C022E087B3962F9E236095862329
S1132290982B97BB74C024B3E92FF0E002C0EE0F73
S11322A0FF1F4A95E2F7262330E0862F90E08E2325
S11322B09F232817390711F420E001C022E084B3DA
S11322C0962F9E2360958623982B94BB58C021B3E8
S11322D0E92FF0E002C0EE0FFF1F4A95E2F7262334
S11322E030E0862F90E08E239F232817390711F4BE
S11322F020E001C022E081B3962F9E2360958623BF
S1132300982B91BB3CC022B1E92FF0E002C0EE0F44
S1132310FF1F4A95E2F7262330E0862F90E08E23B4
S11323209F232817390711F420E001C022E082B16D
S1132330962F9E2360958623982B92B920C02091D6
S11323406100E92FF0E002C0EE0FFF1F4A95E2F7AB
S1132350262330E0862F90E08E239F232817390709
S113236011F420E001C022E080916100962F9E23A9
S113237060958623982B9093610001C021E0822F01
S11323800895FA016130C9F58230D1F0833028F420
S1132390882351F0813089F50DC08430E9F0843010
S11323A0A8F0853051F51EC08AB38F3F21F5808196
S11323B08BBB1FC087B38F3FF1F4808188BB19C0EA
S11323C084B38F3FC1F4808185BB13C081B38F3F39
S11323D091F4808182BB0DC082B18F3F61F4808112
S11323E083B907C0809161008F3F29F48081809375
S11323F0620080E0089582E0089581E00895FA0182
S1132400613009F042C08636F1F0873628F484360C
S113241051F08536D1F50FC0883629F18836D8F0C9
S1132420893699F529C08AB3882311F490E001C054
S113243092E089B31FC087B3882311F490E001C0F0
S113244092E086B317C084B3882311F490E001C0EE
S113245092E083B30FC081B3882311F490E001C0EC
S113246092E080B307C082B1882311F490E001C0E8
S113247092E081B180830AC080916100882311F4C5
S113248090E001C092E080B1F5CF91E0892F0895EA
S1132490483008F089C08230C1F1833030F4882399
S11324A071F0813009F080C01DC0843009F452C03D
S11324B0843008F43DC0853009F076C05DC05AB35D
S11324C05623561709F06EC08BB330E002C0220FBA
S11324D0331F4A95E2F7952F922350955823952B55
S11324E09BBB5EC057B35623561709F05BC088B335
S11324F030E002C0220F331F4A95E2F7952F922352
S113250050955823952B98BB4BC054B3562356175C
S113251009F048C085B330E002C0220F331F4A954A
S1132520E2F7952F922350955823952B95BB38C0ED
S113253051B356235617B1F582B330E002C0220FCF
S1132540331F4A95E2F7952F922350955823952BE4
S113255092BB26C052B15623561721F583B130E001
S113256002C0220F331F4A95E2F7952F922350950C
S11325705823952B93B914C05091610056235617D4
S113258089F48091620030E002C0220F331F4A9523
S1132590E2F7952F922350955823952B9093620040
S11325A080E0089582E0089581E00895F9014830BB
S11325B008F04BC0863601F1873630F4843661F07A
S11325C0853609F042C010C0883631F18836E0F013
S11325D0893609F03AC030C08AB3862311F420E06A
S11325E001C022E089B31FC087B3862311F420E021
S11325F001C022E086B317C084B3862311F420E01F
S113260001C022E083B30FC081B3862311F420E01C
S113261001C022E080B307C082B1862311F420E018
S113262001C022E081B1862390E002C09595879590
S11326304A95E2F780830AC080916100862311F4F1
S113264020E001C022E080B1EECF21E0822F089586
S113265090E0FC01F197E631F10588F5EA5BFF4F64
S11326600C940A2080E091E02CC080E092E029C024
S113267080E093E026C080E094E023C080E095E011
S113268020C080E096E01DC080E097E01AC080E0A2
S113269098E017C080E099E014C081E09AE011C08E
S11326A082E09AE00EC083E09AE00BC084E09AE0F6
S11326B008C085E09AE005C086E09AE002C080E0A8
S11326C090E0FB019083FA01808308950F931F9398
S11326D0782F8A30B1F4613069F41092F8011092C5
S11326E0F9011092FA011092FB011092F701109275
S11326F0F60144C081E090E09093F7018093F601E5
S11327003DC08091F6019091F701019761F4109218
S1132710F8011092F9011092FA011092FB01109243
S1132720F7011092F6018091F8019091F901A091BE
S1132730FA01B091FB01880F991FAA1FBB1F8C01DE
S11327409D01000F111F221F331F000F111F221F95
S1132750331F800F911FA21FB31F870F911DA11D4F
S1132760B11D8093F8019093F901A093FA01B093FD
S1132770FB01FA0180839183A283B3831F910F919C
S113278008958F929F92AF92BF92EF92FF920F9310
S11327901F934B015C014A3009F06FC1213089F469
S11327A01092F5011092F4011092F3011092F201CB
S11327B01092F1011092F0011092EF011092EE01CB
S11327C07BC1223009F08BC081E090E09093F1014D
S11327D08093F001B4018091F2019091F30184306F
S11327E0910509F441C034F4009751F0039709F4BA
S11327F055C062C18530910511F1069759F05CC14D
S1132800092C000CAA08BB08F80180829182A282DC
S1132810B38252C18091F4019091F501880E991E02
S1132820C401092C000CAA0BBB0BF8018083918313
S1132830A283B3839092F5018092F4013DC180910B
S1132840F4019091F50188199909AC01092E000C45
S1132850660B770BF80140835183628373839093F3
S1132860F5018093F40128C12091F4013091F50120
S1132870289DC001299D900D389D900D1124AC0117
S1132880092E000C660B770BF80140835183628399
S113289073839093F5018093F4010EC1892851F458
S11328A080EA96E8A1E0B0E0F80180839183A283F6
S11328B0B38302C18091F4019091F5010E94F71F46
S11328C0CB01072E000CAA0BBB0BF801808391836C
S11328D0A283B3837093F5016093F401EDC08091FA
S11328E0F0019091F101009709F09AC04091EE0136
S11328F05091EF01452B09F0D7C08091F2019091DE
S1132900F3018430910509F446C034F4009751F082
S1132910039709F45FC078C08530910511F10697DB
S113292031F072C09092F5018092F4016DC08091F3
S1132930F4019091F501880E991EC401092C000C34
S1132940AA0BBB0BF80180839183A283B38390927B
S1132950F5018092F401F70180839183A283B3830C
S113296053C08091F4019091F50188199909AC0143
S1132970092E000C660B770BF801408351836283A8
S113298073839093F5018093F401F701408351839D
S11329906283738339C08091F4019091F501889D1D
S11329A0A001899D500D989D500D1124CA01052E3A
S11329B0000CAA0BBB0BF80180839183A283B38321
S11329C05093F5014093F401F70180839183A2832E
S11329D0B3831AC08091F4019091F501B4010E946F
S11329E0F71FCB01072E000CAA0BBB0BF801808349
S11329F09183A283B3837093F5016093F401F7018B
S1132A0080839183A283B38330E03093F3012093D6
S1132A10F20181E090E09093EF018093EE014CC0CD
S1132A204091EE015091EF014130510531F4422FB4
S1132A3050E05093F3014093F2010197E9F5F80156
S1132A4080819181A281B3819093F5018093F401F7
S1132A50F70180839183A283B38330E03093F30141
S1132A602093F2011092F1011092F00181E090E0C4
S1132A709093EF018093EE011FC01092EF0110922A
S1132A80EE018091F0019091F1010197A9F4109267
S1132A90F5011092F4011092F3011092F2011092D8
S1132AA0F1011092F00108C04091EE015091EF0144
S1132AB04130510509F4BBCF1F910F91FF90EF9066
S1132AC0BF90AF909F908F9008958F929F92AF92F6
S1132AD0BF92CF92DF92EF92FF920F931F93CF9307
S1132AE0DF93FB01D80113961C92139712961C9244
S1132AF0129711961C9211971C922230310529F0DD
S1132B002130310521F0E82FF92F309721F480E3AB
S1132B10F8018383A2C01E161F060CF087C09F0114
S1132B20CF0109968331910508F48CC0865A9F4FD2
S1132B30873C910508F489C029513C4F2F3C37400C
S1132B4008F086C083E090E085C080E090E04427F0
S1132B5055274E1B5F0B29E030E02E1B3F0B233122
S1132B60310508F451C023E630E02E1B3F0B273C0F
S1132B70310508F44CC027EE33E02E1B3F0B2F3CED
S1132B80374008F447C024E030E05901A81AB90AD4
S1132B90B4E0AB16B1048CF5FA016894882481F88A
S1132BA0912CE8010F2EF3E0EF2EF12CF02D0F2ED7
S1132BB0FAE0CF2ED12CF02D4DE2CF01B6010E94C8
S1132BC0F71F9C01CF01821B930BB6010E94F71FD4
S1132BD0FB01205D2B8361E08616910409F44A838E
S1132BE081E0E81AF1082197EA14FB0434F7EF2B8B
S1132BF021F4A2E08A16910481F58DE2F801838321
S1132C0082838183808329C081E090E005C082E0D3
S1132C1090E002C083E090E024E030E05901A81A7B
S1132C20B90AFA0188248394912CBBCFFF230CF4B6
S1132C308CCFE3CF24E030E05901A81AB90A812CE3
S1132C40912CAFCF81E090E005C082E090E002C01B
S1132C5084E090E0FF2374F77ACFDF91CF911F9146
S1132C600F91FF90EF90DF90CF90BF90AF909F9027
S1132C708F900895CF93DF93CDB7DEB72F970FB61C
S1132C80F894DEBF0FBECDBF0E94530319821C828D
S1132C901D821E821F82188619861A861B861C8630
S1132CA01D861E8680E38F8700E020E04FEF68ECEE
S1132CB081E00E9423052FED35E383E0215030406D
S1132CC08040E1F700C0000001E020E041E068EC52
S1132CD082E00E9461059FED25E333E0915020409E
S1132CE03040E1F700C000009E01245F3F4F44E004
S1132CF060E081E00E94C1048FED95E323E0815000
S1132D0090402040E1F700C000000F2EFCE5AF2EFC
S1132D10F1E0BF2EF02D0F2EF0E66F2EF1E07F2EA6
S1132D20F02D0F2EF4E68F2EF1E09F2EF02D0F2EB6
S1132D30F7E6CF2EF1E0DF2EF02D08C09E012F5FC5
S1132D403F4F41E064E682E00E94BE05898188230A
S1132D50A9F39C859D32B1F49D859D3299F49E859D
S1132D609D3281F49F859D3269F4813459F09E012E
S1132D702F5F3F4F41E064E682E00E94BE058981F7
S1132D808134A9F7AE014D5F5F4FBE016E5F7F4F87
S1132D9089815EDC8A818A3059F49B81913041F4C7
S1132DA0188619861A861B861C821D821E821F8223
S1132DB0AE014C5F5F4F6B8189DC6C817D818E81BC
S1132DC09F819E012C5F3F4F79018E01085F1F4F49
S1132DD02B814A81D6DC2B8130E04A8150E0688522
S1132DE079850C5F1F4F8C819D816FDE8C851F92CE
S1132DF08F93BF92AF920E94AA218D851F928F93C9
S1132E00BF92AF920E94AA218E851F928F93BF9288
S1132E10AF920E94AA218F851F928F937F926F9207
S1132E200E94AA21980144E060E081E00E94C1046C
S1132E303FED85E393E0315080409040E1F700C0DE
S1132E40000089811F928F939F928F920E94AA21E2
S1132E500FB6F894DEBF0FBECDBF8981882309F475
S1132E6075CF9E012F5F3F4F41E064E682E00E94F0
S1132E70BE0589811F928F93DF92CF920E94AA216F
S1132E800F900F900F900F9089818111EACF5ECF40
S1132E9020FD09C0FC0123FD05C022FF02C073838D
S1132EA0628351834083089544FD17C046FD17C0D3
S1132EB0AB01BC01DA01FB01AA0FBB1FEE1FFF1F10
S1132EC01094D1F74A0F5B1F6E1F7F1FCB01BA010D
S1132ED0660F771F881F991F09C033E001C034E0D3
S1132EE0660F771F881F991F3150D1F7620F711D2C
S1132EF0811D911D08950F931F93CF93DF938C0130
S1132F00C8010E943021EC0197FD08C00E94FF20F7
S1132F10892BB1F7B801CE010E94BD21CE01DF910A
S1132F20CF911F910F9108958F929F92AF92BF926C
S1132F30CF92DF92EF92FF920F931F93CF93DF9381
S1132F407C018B016A01D22F0E9430219C0133271E
S1132F502B32310521F02D32310559F4D06801505E
S1132F60110911F480E069C0C7010E94302197FD66
S1132F70F9CFCD2FCD7F2D2F207319F5803309F58F
S1132F80580181E0A81AB10809F444C0C7010E949D
S1132F90302197FD3FC09C012F7D33272835310513
S1132FA051F4C26402501109A9F1C7010E943021F1
S1132FB097FF07C02FC0D6FF02C0C26001C0C26124
S1132FC08501812C912C540120ED280F283080F0AC
S1132FD0C4FF04C0B7010E94BD2119C02A3040F0CB
S1132FE0C6FFF8CF2F7D3FEE320F363098F72750CB
S1132FF04C2FC501B40158DF4B015C01C260015084
S1133000110959F0C7010E94302197FFDDCFC1FD9E
S113301004C0A8CF812C912C5401C7FF08C0B094E0
S1133020A09490948094811C911CA11CB11C2C2F01
S1133030B501A401C6012CDF81E0DF91CF911F917E
S11330400F91FF90EF90DF90CF90BF90AF909F9043
S11330508F9008954F925F926F927F928F929F927A
S1133060AF92BF92CF92DF92EF92FF920F931F9392
S1133070CF93DF93CDB7DEB7A0970FB6F894DEBF3A
S11330800FBECDBF5C014B017A018E010F5F1F4F54
S1133090680180E2F80111928A95E9F7F5015380FD
S11330A040E050E0612C90E0712CA1E0B0E0F90127
S11330B053FC859153FE81918F01482E9F0181110C
S11330C003C080E090E096C08E3519F44115510597
S11330D051F1672D70E0641775073CF48D3561F18B
S11330E08D3219F4992311F103C0992309F46DC0A9
S11330F0842D869586958695F601E80FF11D842D1D
S113310087708D0102C0000F111F8A95E2F7C80174
S11331109081892B8083641459F0461410F44394ED
S1133120E7CF4A94E5CF7724739403C091E001C0BC
S113313090E04F5F5F4FBBCF992319F08E8180627F
S11331408E83711003C07724739419C0F6019E0115
S11331502F5D3F4F8081809581932E173F07D1F7D4
S1133160F2CFE114F10431F0F7018083B7016F5F0E
S11331707F4F7B0171E0871A9108712CF9F0C5012A
S11331800E94302197FD18C0FC01FF2723E0F5952C
S1133190E7952A95E1F7EC0DFD1D208130E0AC01A7
S11331A04770552702C0359527954A95E2F720FDCB
S11331B0D8CFB5010E94BD21711083CFE114F10471
S11331C011F0F7011082C80115C0682F6695669545
S11331D06695F601E60FF11D682F67708D0102C038
S11331E0000F111F6A95E2F7B8017081672B6083A5
S11331F0682E9FCFA0960FB6F894DEBF0FBECDBF4A
S1133200DF91CF911F910F91FF90EF90DF90CF90BE
S1133210BF90AF909F908F907F906F905F904F90F2
S113322008952F923F924F925F926F927F929F9256
S1133230AF92BF92CF92DF92EF92FF920F931F93C0
S1133240CF93DF936C018B011A010E943021EC01B2
S113325099278B32910529F08D9779F430E8932ED4
S113326001C0912C0150110911F480E0FFC0C60186
S1133270F7D7EC0197FF02C0F8CF912CCE01C7D746
S11332808936910531F08E36910589F5CCECD1E083
S113329002C0CFECD1E02196FE013197B490BB205F
S11332A0B9F00150110981F0C601DAD77C0197FD0C
S11332B00BC0ADD79927EB2DF0E08E179F0759F37C
S11332C0B601C7010E94BD21C25DD14071F603C0A1
S11332D0CF5CD14029F080E090E0A0E8BFE704C0D3
S11332E080E090E0A0ECBFE7BC01CD01AFC0412C71
S11332F0512C3201E12CF12C2C2F20532A3008F5CB
S1133300E92DE260BE2E892D887092FE06C08111DF
S11333101FC0FFEFEF1AFF0A1BC0882319F081E0DA
S1133320E81AF10840E2C301B201BEDD2B013C0101
S1133330683979498949994158F0F92DF660BF2EC9
S113334007C02E3F81F493FC0EC0292D2860B22EB5
S11333500150110939F0C60183D7EC019B2C97FF6A
S1133360CBCF01C09B2C91FE80CFCE018F7D9927BE
S11333708534910509F03EC0580181E0A81AB108CE
S113338009F473CFC6016CD7EC0197FD6ECF992772
S11333908B32910529F08D9761F4E92DE0619E2E21
S11333A05801F2E0AF1AB10809F45FCFC60158D74B
S11333B0EC01CE01C0970A9708F057CF8501A12CE4
S11333C0B12CB501BB0C880B990B2C2F205340E278
S11333D06BDD5B010150110931F0C60141D7EC01ED
S11333E0C0970A9770F394FE03C0B194A194B108F6
S11333F0EA0CFB1C012B29F0D7FD03C0B601CE015A
S1133400BCD7C301B20102D5F7FE06C0F194E19422
S1133410F108CBEED1E002C0C3E0D2E06E0128E1B6
S1133420C21AD10800E210E0E016F10648F0FE01ED
S1133430259135914591549126D5E01AF10AF4CF9E
S1133440249716950795CC16DD0671F797FE05C0EF
S1133450DC01CB01B058BC01CD012114310429F0A9
S1133460F101608371838283938381E0DF91CF9143
S11334701F910F91FF90EF90DF90CF90BF90AF908E
S11334809F907F906F905F904F903F902F90089502
S11334906F927F928F929F92AF92BF92CF92DF9260
S11334A0EF92FF920F931F93CF93DF935C01EB0195
S11334B04A01FC0117821682612CF5010381FE0189
S11334C003FD859103FF8191182FEF01882309F4EF
S11334D000C190E094D6892B19F0C5010CDDEDCF25
S11334E0153241F4FE0103FD159103FF1191EF0123
S11334F0153271F4C501B4D697FDE9C0412F50E0EF
S11335009C01332724173507C1F2B50136D7E1C032
S11335101A3241F403FD159103FF1191EF01772451
S1133520739401C0712CE12CF12C20ED210F2A3071
S113353080F4F72DF2607F2EB70180E090E040E246
S1133540B3DC7B01FE0103FD159103FF1191EF0133
S1133550ECCF71FE04C0E114F10421F4BAC0EE24EE
S1133560EA94FE2C183619F01C3661F014C0FE01E2
S113357003FD159103FF1191EF01183661F4872DB6
S11335808860782E972D9460792EFE0103FD1591A5
S113359003FF1191EF01112309F49BC0612F70E027
S11335A08AEB91E03CD6892B09F493C070FC07C0E8
S11335B0F401C080D180C40102964C0102C0C12C28
S11335C0D12C1E3649F4F5014681578160E070E044
S11335D0272DC6015DDC71CF1336B1F471FC03C035
S11335E0EE24E394F12CC5013BD697FD70C0C114C1
S11335F0D10429F0F6018083C60101966C0191E0A3
S1133600E91AF10881F75FC01B3551F49E01A60148
S1133610B701C5011FDDEC01892B09F054C04EC070
S1133620C50169DC97FD53C01F36C9F140F4143657
S113363091F11936B9F1183509F03AC028C0133799
S1133640A9F018F4103719F133C0153721F11837E0
S1133650F1F02EC0C114D10429F0F6010083C60193
S113366001966C0191E0E91AF10859F0C501F8D509
S11336708C0197FD06C0C3D5892B61F3B501C80140
S11336807CD6C114D104F9F0F60110821CC0F72DC8
S1133690F0647F2E07C0872D8062782E03C0972D9B
S11336A09061792E272DA601B701C5013DDC04C028
S11336B0A601B701C501B5DD811105C0F5018381FE
S11336C0807329F406C070FCF8CE6394F6CE6620AD
S11336D019F0862D90E002C08FEF9FEFDF91CF911C
S11336E01F910F91FF90EF90DF90CF90BF90AF901C
S11336F09F908F907F906F9008952F923F924F925A
S11337005F926F927F928F929F92AF92BF92CF926D
S1133710DF92EF92FF920F931F93CF93DF93CDB776
S1133720DEB760970FB6F894DEBF0FBECDBF7C0145
S11337301B016A01FC0117821682838181FF2AC35F
S11337409E012F5F3F4F3901F7019381F10193FDF2
S1133750859193FF81911F01882309F417C3853252
S113376039F493FD859193FF81911F01853231F4E2
S1133770B70190E0B3D556016501E6CF10E0512CB6
S1133780912CFFE1F915D8F08B3279F038F48032BE
S113379079F08332A1F4F92DF0612EC08D3261F0FD
S11337A0803369F4292D21602DC0392D3260932E88
S11337B0892D8460982E2AC0E92DE86015C097FCF5
S11337C02DC020ED280F2A3088F496FE06C03AE07A
S11337D0139F200D1124122F19C08AE0589E200D2A
S11337E01124522EE92DE0629E2E10C08E3231F447
S11337F096FCCCC2F92DF0649F2E08C08C3621F4BF
S1133800292D2068922E02C0883641F4F10193FDDF
S1133810859193FF81911F018111B3CF9BEB980F89
S1133820933020F4992D9061805E07C09BE9980F36
S1133830933008F059C1992D9F7E96FF16E09F732F
S1133840992E853619F49064992E08C0863621F491
S1133850392F3068932E02C01111115097FE07C002
S11338601C3350F444244394410E27E00BC0183019
S113387038F027E017E005C027E09CE3492E02C09A
S1133880212F412C560184E0A80EB11CF601608161
S1133890718182819381042DA301D9D36C01F981B3
S11338A0FC87F0FF02C0F3FF06C091FC06C092FE45
S11338B006C000E205C00DE203C00BE201C000E057
S11338C08C858C7019F0011143C280C297FE10C020
S11338D04C0CFC85F4FF04C08A81813309F44A94BA
S11338E0141474F528E0241578F588E0482E2CC0CB
S11338F096FC2AC0812F90E08C159D059CF03CEF2E
S1133900C3163FEFD30674F0892D8068982E0AC041
S1133910E2E0F0E0EC0FFD1FE10FF11D8081803348
S113392019F411501111F4CF97FE0EC0442443949E
S1133930410E812F90E0C816D9062CF41C1904C03E
S11339404424439401C010E097FE06C01C141D04D7
S113395034F4C601019605C085E090E002C081E020
S113396090E001110196112331F0212F30E02F5FF7
S11339703F4F820F931F252D30E08217930714F4D5
S1133980581A01C0512C892D897041F4552031F009
S1133990B70180E290E0A2D45A94F8CF002321F03A
S11339A0B701802F90E09AD493FC08C0552031F0E1
S11339B0B70180E390E092D45A94F8CF97FE4AC0BE
S11339C04601D7FE02C0812C912CC60188199909A1
S11339D0F301E80FF91FFE87ED87960124193109D9
S11339E0388B2F87012F10E01195019511093FEFB6
S11339F08316930621F4B7018EE290E06FD4C814C5
S1133A00D9044CF08F8598898815990524F4ED859F
S1133A10FE85818101C080E3F1E08F1A91082D8534
S1133A203E852F5F3F4F3E872D878016910624F0F9
S1133A30B70190E053D4DBCFC814D90441F49A8180
S1133A40963320F4953319F43C8534FF81E3B701B0
S1133A5090E048C08A81813319F09C859F7E9C87C1
S1133A60B70190E03BD4111105C094FC16C085E663
S1133A7090E015C0B7018EE290E030D41E5F82E082
S1133A8001E0080FF301E80FF11D8081B70190E018
S1133A9025D4802F0113F4CFE8CF85E490E0B7015B
S1133AA01DD4D7FC06C0C114D10441F4EC85E4FF55
S1133AB005C0D194C194D1088DE201C08BE2B70155
S1133AC090E00CD480E32AE0C216D1042CF08F5F7E
S1133AD0FAE0CF1AD108F7CFB70190E0FFD3B701CE
S1133AE0C601C096FBD349C1833631F0833779F0E0
S1133AF0833509F052C01FC0560132E0A30EB11C39
S1133B00F6018081898301E010E0630111C0560150
S1133B10F2E0AF0EB11CF601C080D18096FE03C066
S1133B20612F70E002C06FEF7FEFC6018ED38C016E
S1133B30F92DFF7713C0560122E0A20EB11CF60145
S1133B40C080D18096FE03C0612F70E002C06FEF89
S1133B507FEFC6016FD38C01F92DF0689F2EF3FD22
S1133B6018C0852D90E00817190798F4B70180E272
S1133B7090E0B4D35A94F5CFF60197FC859197FE63
S1133B8081916F01B70190E0A9D351105A9401506B
S1133B9011090115110581F7F0C0843611F0893639
S1133BA059F5560197FE09C024E0A20EB11CF60196
S1133BB060817181828193810AC0F2E0AF0EB11CF1
S1133BC0F60160817181072E000C880B990BF92D89
S1133BD0FF769F2E97FF09C090958095709561950B
S1133BE07F4F8F4F9F4FF0689F2E2AE030E0A30154
S1133BF0DDD3C82EC6183EC0092D853721F40F7EAB
S1133C002AE030E01DC0097F8F3691F018F4883522
S1133C1059F0BCC0803719F0883711F0B7C0006183
S1133C2004FF09C0046007C094FE08C0066006C013
S1133C3028E030E005C020E130E002C020E132E0BD
S1133C40560107FF09C084E0A80EB11CF60160818B
S1133C5071818281938108C0F2E0AF0EB11CF6013C
S1133C606081718180E090E0A301A0D3C82EC618C2
S1133C700F77902E96FE0BC0092D0E7FC11650F4BF
S1133C8094FE0AC092FC08C0092D0E7E05C0DC2CEF
S1133C90092D03C0DC2C01C0D12E04FF0DC0FE0190
S1133CA0EC0DF11D8081803311F4097E09C002FFFF
S1133CB006C0D394D39404C0802F867809F0D3949B
S1133CC003FD10C000FF06C01C2DD51478F4150D9B
S1133CD01D190CC0D51450F4B70180E290E0FED257
S1133CE0D394F8CFD51410F45D1801C0512C04FFFF
S1133CF00FC0B70180E390E0F1D202FF16C001FDCE
S1133D0003C088E790E002C088E590E0B7010CC0EA
S1133D10802F867851F001FF02C08BE201C080E25F
S1133D2007FD8DE2B70190E0D9D2C11630F4B70196
S1133D3080E390E0D3D21150F8CFCA94F301EC0D94
S1133D40F11D8081B70190E0C9D2C110F6CF15C032
S1133D50F4E0F51550F584E0581A93FE1EC00111E5
S1133D6025C02C8523FF27C008EB10E0392D3071C6
S1133D70932EF8018491811121C0552009F4FCCCC3
S1133D80B70180E290E0AAD25A94F7CFF701868176
S1133D90978123C08FEF9FEF20C0B70180E290E0AE
S1133DA09DD25A945110F9CFDACF512CB701802FFC
S1133DB090E094D2D6CF0CEB10E0D8CF9110805283
S1133DC0B70190E08BD20F5F1F4FD3CF23E02515AF
S1133DD010F483E0C1CF512CC4CF60960FB6F89491
S1133DE0DEBF0FBECDBFDF91CF911F910F91FF902A
S1133DF0EF90DF90CF90BF90AF909F908F907F9087
S1133E006F905F904F903F902F900895E89409C071
S1133E1097FB3EF490958095709561957F4F8F4FF9
S1133E209F4F9923A9F0F92F96E9BB279395F6950F
S1133E30879577956795B795F111F8CFFAF4BB0F8D
S1133E4011F460FF1BC06F5F7F4F8F4F9F4F16C0F1
S1133E50882311F096E911C0772321F09EE8872F7B
S1133E60762F05C0662371F096E8862F70E060E037
S1133E702AF09A95660F771F881FDAF7880F9695B0
S1133E80879597F908950BD078C069D028F06ED043
S1133E9018F0952309F05AC05FC01124A2C07ED047
S1133EA0A0F3959FD1F3950F50E0551F629FF00149
S1133EB0729FBB27F00DB11D639FAA27F00DB11DA2
S1133EC0AA1F649F6627B00DA11D661F829F22272B
S1133ED0B00DA11D621F739FB00DA11D621F839FB2
S1133EE0A00D611D221F749F3327A00D611D231F88
S1133EF0849F600D211D822F762F6A2F11249F57D6
S1133F0050408AF0E1F088234AF0EE0FFF1FBB1FF8
S1133F10661F771F881F91505040A9F79E3F510597
S1133F2070F014C05EC05F3FECF3983EDCF38695FE
S1133F3077956795B795F795E7959F5FC1F7FE2B42
S1133F40880F911D9695879597F9089597F99F671E
S1133F5080E870E060E008959FEF80EC089500240D
S1133F600A941616170618060906089500240A94DA
S1133F7012161306140605060895092E0394000C60
S1133F8011F4882352F0BB0F40F4BF2B11F460FFEF
S1133F9004C06F5F7F4F8F4F9F4F089557FD905818
S1133FA0440F551F59F05F3F71F04795880F97FBF9
S1133FB0991F61F09F3F79F08795089512161306B3
S1133FC01406551FF2CF4695F1DF08C016161706E2
S1133FD01806991FF1CF8695710561050894089517
S1133FE0E894BB2766277727CB0197F9089597FBB9
S1133FF0072E16F4009406D077FD08D014D007FCE1
S113400005D03EF4909581959F4F089570956195E4
S11340107F4F0895EE0FFF1F0024001C0BBE079076
S1134020F691E02D0994AA1BBB1B51E107C0AA1FFE
S1134030BB1FA617B70710F0A61BB70B881F991F45
S11340405A95A9F780959095BC01CD010895283023
S113405008F027E03327DA01990F311D87FD9160BD
S113406000966105710539F432602E5F3D9330E3AB
S11340702A95E1F708959F3F30F080387105610576
S113408009F03C5F3C5F3D93913008F08068911DDE
S1134090DF93CF931F930F93FF92EF92192F987F83
S11340A09695E92F96959695E90FFF27E65EFE4FC4
S11340B099273327EE24FF24A701E70105900894EC
S11340C0079428F4360FE71EF81E491F511D660F8A
S11340D0771F881F991F0694A1F70590079428F469
S11340E0E70EF81E491F561FC11D770F881F991F21
S11340F0661F0694A1F70590079428F4F80E491F4B
S1134100561FC71FD11D880F991F661F771F06945E
S1134110A1F70590079420F4490F561FC71FD81F15
S1134120990F661F771F881F0694A9F7849110952D
S1134130177041F0D695C79557954795F794E7942E
S11341401A95C1F7E0ECF0E068941590159135915B
S11341506591959105907FE27395E118F10A430BFF
S1134160560BC90BD009C0F7E10CF11E431F561FB3
S1134170C91FD01D7EF4703311F48A95E6CFE894FC
S1134180015030F0080F0AF40027021708F4202F1A
S11341902395022F7A3328F079E37D932A95E9F762
S11341A010C07D932A9589F606949795679537955F
S11341B017951794E118F10A430B560BC90BD00954
S11341C098F023957E9173957A3308F070E37C938D
S11341D02013B8F77E9170617D9330F0839571E37D
S11341E07D9370E32A95E1F71124EF90FF900F91EE
S11341F01F91CF91DF91992787FD90950895911193
S113420033C1803219F089508550D0F70895911147
S1134210089581548A5108F4805E855A0895FC01FA
S11342200590061621F00020D9F7C00108953197B2
S1134230CF010895FC010590615070400110D8F73A
S1134240809590958E0F9F1F0895FC0161507040DA
S113425001900110D8F7809590958E0F9F1F0895B7
S1134260CF93DF93EC012B8120FF33C026FF0AC0DC
S11342702F7B2B838E819F8101969F838E838A81DE
S113428090E029C022FF0FC0E881F9818081082EC7
S1134290000C990B009719F420622B831AC03196F5
S11342A0F983E8830EC0EA85FB85099597FF09C069
S11342B02B81019611F080E201C080E1822B8B8377
S11342C008C02E813F812F5F3F4F3F832E83992764
S11342D002C08FEF9FEFDF91CF9108950F931F934B
S11342E0CF93DF93FB01238121FD03C08FEF9FEF69
S11342F02CC022FF16C04681578124813581421784
S1134300530744F4A081B1819D012F5F3F4F318356
S113431020838C93268137812F5F3F4F37832683F9
S113432014C08B01EC01FB010084F185E02D09959B
S1134330892BE1F6D80116968D919C9117970196D9
S113434017969C938E931697CE01DF91CF911F9170
S11343500F910895CF93DF93CDB7DEB7AE014B5FD6
S11343605F4FFA0161917191AF018091CA029091FE
S1134370CB02C3D9DF91CF910895FB01238120FFA4
S113438012C026FD10C08F3F3FEF930761F0828378
S11343902F7D20642383268137812150310937837F
S11343A02683992708958FEF9FEF0895FA01AA278E
S11343B0283051F1203181F1E8946F936E7F6E5F64
S11343C07F4F8F4F9F4FAF4FB1E03ED0B4E03CD012
S11343D0670F781F891F9A1FA11D680F791F8A1FF5
S11343E0911DA11D6A0F711D811D911DA11D20D05C
S11343F009F468943F912AE0269F11243019305D16
S11344003193DEF6CF010895462F4770405D419306
S1134410B3E00FD0C9F7F6CF462F4F70405D4A3353
S113442018F0495D31FD4052419302D0A9F7EACF1B
S1134430B4E0A6959795879577956795BA95C9F74A
S113444000976105710508959B01AC010A2E06943D
S11344505795479537952795BA95C9F7620F731FF6
S1134460841F951FA01D0895992788270895F894FF
S1054470FFCF78
S113447200000003000000005C0169010000D7D7BE
S1134482D74F4B9A000023000000000000000000F8
S11344920000000000000000000000000000000016
S11344A200000000000000000000230000000000E3
S11344B200000000000000000000000000000000F6
S11344C20000000000000000000000002564090054
S11344D225640A00256400696E7768696C650909B8
S10944E2256421210A00FB
S9030000FC
